{
  "contractName": "Dex",
  "abi": [
    {
      "inputs": [],
      "stateMutability": "nonpayable",
      "type": "constructor"
    },
    {
      "anonymous": false,
      "inputs": [
        {
          "indexed": false,
          "internalType": "address",
          "name": "sender",
          "type": "address"
        },
        {
          "indexed": false,
          "internalType": "uint256",
          "name": "tradingEthAmount",
          "type": "uint256"
        },
        {
          "indexed": false,
          "internalType": "address",
          "name": "tradingForTokenAddress",
          "type": "address"
        },
        {
          "indexed": false,
          "internalType": "uint256",
          "name": "tradingForTokenAmount",
          "type": "uint256"
        }
      ],
      "name": "EventAddToDexTradeEthForTokens",
      "type": "event"
    },
    {
      "anonymous": false,
      "inputs": [
        {
          "indexed": false,
          "internalType": "address",
          "name": "sender",
          "type": "address"
        },
        {
          "indexed": false,
          "internalType": "address",
          "name": "tradingTokenAddress",
          "type": "address"
        },
        {
          "indexed": false,
          "internalType": "uint256",
          "name": "tradingTokenAmount",
          "type": "uint256"
        },
        {
          "indexed": false,
          "internalType": "uint256",
          "name": "tradingForEthAmount",
          "type": "uint256"
        }
      ],
      "name": "EventAddToDexTradeTokensForEth",
      "type": "event"
    },
    {
      "anonymous": false,
      "inputs": [
        {
          "indexed": false,
          "internalType": "address",
          "name": "sender",
          "type": "address"
        },
        {
          "indexed": false,
          "internalType": "address",
          "name": "tradingTokenAddress",
          "type": "address"
        },
        {
          "indexed": false,
          "internalType": "uint256",
          "name": "tradingTokenAmount",
          "type": "uint256"
        },
        {
          "indexed": false,
          "internalType": "address",
          "name": "tradingForTokenAddress",
          "type": "address"
        },
        {
          "indexed": false,
          "internalType": "uint256",
          "name": "tradingForTokenAmount",
          "type": "uint256"
        }
      ],
      "name": "EventAddToDexTradeTokensForTokens",
      "type": "event"
    },
    {
      "anonymous": false,
      "inputs": [
        {
          "indexed": false,
          "internalType": "address",
          "name": "sender",
          "type": "address"
        },
        {
          "indexed": false,
          "internalType": "uint256",
          "name": "tradingEthAmount",
          "type": "uint256"
        },
        {
          "indexed": false,
          "internalType": "address",
          "name": "tradingForTokenAddress",
          "type": "address"
        },
        {
          "indexed": false,
          "internalType": "uint256",
          "name": "tradingForTokenAmount",
          "type": "uint256"
        }
      ],
      "name": "EventCanceledTradeEthForTokens",
      "type": "event"
    },
    {
      "anonymous": false,
      "inputs": [
        {
          "indexed": false,
          "internalType": "address",
          "name": "sender",
          "type": "address"
        },
        {
          "indexed": false,
          "internalType": "address",
          "name": "tradingTokenAddress",
          "type": "address"
        },
        {
          "indexed": false,
          "internalType": "uint256",
          "name": "tradingTokenAmount",
          "type": "uint256"
        },
        {
          "indexed": false,
          "internalType": "uint256",
          "name": "tradingForEthAmount",
          "type": "uint256"
        }
      ],
      "name": "EventCanceledTradeTokensForEth",
      "type": "event"
    },
    {
      "anonymous": false,
      "inputs": [
        {
          "indexed": false,
          "internalType": "address",
          "name": "sender",
          "type": "address"
        },
        {
          "indexed": false,
          "internalType": "address",
          "name": "tradingTokenAddress",
          "type": "address"
        },
        {
          "indexed": false,
          "internalType": "uint256",
          "name": "tradingTokenAmount",
          "type": "uint256"
        },
        {
          "indexed": false,
          "internalType": "address",
          "name": "tradingForTokenAddress",
          "type": "address"
        },
        {
          "indexed": false,
          "internalType": "uint256",
          "name": "tradingForTokenAmount",
          "type": "uint256"
        }
      ],
      "name": "EventCanceledTradeTokensForTokens",
      "type": "event"
    },
    {
      "anonymous": false,
      "inputs": [
        {
          "indexed": false,
          "internalType": "address",
          "name": "sender",
          "type": "address"
        },
        {
          "indexed": false,
          "internalType": "uint256",
          "name": "tradingEthAmount",
          "type": "uint256"
        },
        {
          "indexed": false,
          "internalType": "address",
          "name": "tradingForTokenAddress",
          "type": "address"
        },
        {
          "indexed": false,
          "internalType": "uint256",
          "name": "tradingForTokenAmount",
          "type": "uint256"
        }
      ],
      "name": "EventTradeEthForTokens",
      "type": "event"
    },
    {
      "anonymous": false,
      "inputs": [
        {
          "indexed": false,
          "internalType": "address",
          "name": "sender",
          "type": "address"
        },
        {
          "indexed": false,
          "internalType": "address",
          "name": "tradingTokenAddress",
          "type": "address"
        },
        {
          "indexed": false,
          "internalType": "uint256",
          "name": "tradingTokenAmount",
          "type": "uint256"
        },
        {
          "indexed": false,
          "internalType": "uint256",
          "name": "tradingForEthAmount",
          "type": "uint256"
        }
      ],
      "name": "EventTradeTokensForEth",
      "type": "event"
    },
    {
      "anonymous": false,
      "inputs": [
        {
          "indexed": false,
          "internalType": "address",
          "name": "sender",
          "type": "address"
        },
        {
          "indexed": false,
          "internalType": "address",
          "name": "tradingTokenAddress",
          "type": "address"
        },
        {
          "indexed": false,
          "internalType": "uint256",
          "name": "tradingTokenAmount",
          "type": "uint256"
        },
        {
          "indexed": false,
          "internalType": "address",
          "name": "tradingForTokenAddress",
          "type": "address"
        },
        {
          "indexed": false,
          "internalType": "uint256",
          "name": "tradingForTokenAmount",
          "type": "uint256"
        }
      ],
      "name": "EventTradeTokensForTokens",
      "type": "event"
    },
    {
      "inputs": [
        {
          "internalType": "uint256",
          "name": "",
          "type": "uint256"
        }
      ],
      "name": "dexUsersArr",
      "outputs": [
        {
          "internalType": "address",
          "name": "",
          "type": "address"
        }
      ],
      "stateMutability": "view",
      "type": "function"
    },
    {
      "inputs": [
        {
          "internalType": "address",
          "name": "",
          "type": "address"
        },
        {
          "internalType": "uint256",
          "name": "",
          "type": "uint256"
        }
      ],
      "name": "tradesOfEthForTokensOfAnAddress",
      "outputs": [
        {
          "internalType": "uint256",
          "name": "tradingEthAmount",
          "type": "uint256"
        },
        {
          "internalType": "address",
          "name": "tradingForTokenAddress",
          "type": "address"
        },
        {
          "internalType": "uint256",
          "name": "tradingForTokenAmount",
          "type": "uint256"
        },
        {
          "internalType": "bool",
          "name": "alreadyTraded",
          "type": "bool"
        }
      ],
      "stateMutability": "view",
      "type": "function"
    },
    {
      "inputs": [
        {
          "internalType": "address",
          "name": "",
          "type": "address"
        },
        {
          "internalType": "uint256",
          "name": "",
          "type": "uint256"
        }
      ],
      "name": "tradesOfTokensForEthOfAnAddress",
      "outputs": [
        {
          "internalType": "address",
          "name": "tradingTokenAddress",
          "type": "address"
        },
        {
          "internalType": "uint256",
          "name": "tradingTokenAmount",
          "type": "uint256"
        },
        {
          "internalType": "uint256",
          "name": "tradingForEthAmount",
          "type": "uint256"
        },
        {
          "internalType": "bool",
          "name": "alreadyTraded",
          "type": "bool"
        }
      ],
      "stateMutability": "view",
      "type": "function"
    },
    {
      "inputs": [
        {
          "internalType": "address",
          "name": "",
          "type": "address"
        },
        {
          "internalType": "uint256",
          "name": "",
          "type": "uint256"
        }
      ],
      "name": "tradesOfTokensForTokensOfAnAddress",
      "outputs": [
        {
          "internalType": "address",
          "name": "tradingTokenAddress",
          "type": "address"
        },
        {
          "internalType": "uint256",
          "name": "tradingTokenAmount",
          "type": "uint256"
        },
        {
          "internalType": "address",
          "name": "tradingForTokenAddress",
          "type": "address"
        },
        {
          "internalType": "uint256",
          "name": "tradingForTokenAmount",
          "type": "uint256"
        },
        {
          "internalType": "bool",
          "name": "alreadyTraded",
          "type": "bool"
        }
      ],
      "stateMutability": "view",
      "type": "function"
    },
    {
      "inputs": [
        {
          "internalType": "address",
          "name": "tradingTokenAddress",
          "type": "address"
        },
        {
          "internalType": "uint256",
          "name": "tradingTokenAmount",
          "type": "uint256"
        },
        {
          "internalType": "address",
          "name": "tradingForTokenAddress",
          "type": "address"
        },
        {
          "internalType": "uint256",
          "name": "tradingForTokenAmount",
          "type": "uint256"
        }
      ],
      "name": "addTokensToDexForTradeWithOtherTokens",
      "outputs": [],
      "stateMutability": "nonpayable",
      "type": "function"
    },
    {
      "inputs": [
        {
          "internalType": "address",
          "name": "tradingTokenAddress",
          "type": "address"
        },
        {
          "internalType": "uint256",
          "name": "tradingTokenAmount",
          "type": "uint256"
        },
        {
          "internalType": "uint256",
          "name": "tradingForEthAmount",
          "type": "uint256"
        }
      ],
      "name": "addTokensToDexForTradeWithEth",
      "outputs": [],
      "stateMutability": "nonpayable",
      "type": "function"
    },
    {
      "inputs": [
        {
          "internalType": "uint256",
          "name": "tradingEthAmount",
          "type": "uint256"
        },
        {
          "internalType": "address",
          "name": "tradingForTokenAddress",
          "type": "address"
        },
        {
          "internalType": "uint256",
          "name": "tradingForTokenAmount",
          "type": "uint256"
        }
      ],
      "name": "addEthToDexForTradeWithTokens",
      "outputs": [],
      "stateMutability": "payable",
      "type": "function"
    },
    {
      "inputs": [
        {
          "internalType": "address",
          "name": "sender",
          "type": "address"
        },
        {
          "internalType": "uint256",
          "name": "indexOfTrade",
          "type": "uint256"
        }
      ],
      "name": "buyTokensFromOtherTokens",
      "outputs": [],
      "stateMutability": "nonpayable",
      "type": "function"
    },
    {
      "inputs": [
        {
          "internalType": "address",
          "name": "sender",
          "type": "address"
        },
        {
          "internalType": "uint256",
          "name": "indexOfTrade",
          "type": "uint256"
        }
      ],
      "name": "buyTokensForEth",
      "outputs": [],
      "stateMutability": "payable",
      "type": "function"
    },
    {
      "inputs": [
        {
          "internalType": "address",
          "name": "sender",
          "type": "address"
        },
        {
          "internalType": "uint256",
          "name": "indexOfTrade",
          "type": "uint256"
        }
      ],
      "name": "buyEthForTokens",
      "outputs": [],
      "stateMutability": "payable",
      "type": "function"
    },
    {
      "inputs": [
        {
          "internalType": "address",
          "name": "sender",
          "type": "address"
        },
        {
          "internalType": "uint256",
          "name": "indexOfTrade",
          "type": "uint256"
        }
      ],
      "name": "cancelTradeForTokensWithTokens",
      "outputs": [],
      "stateMutability": "nonpayable",
      "type": "function"
    },
    {
      "inputs": [
        {
          "internalType": "address",
          "name": "sender",
          "type": "address"
        },
        {
          "internalType": "uint256",
          "name": "indexOfTrade",
          "type": "uint256"
        }
      ],
      "name": "cancelTradeForTokensWithEth",
      "outputs": [],
      "stateMutability": "nonpayable",
      "type": "function"
    },
    {
      "inputs": [
        {
          "internalType": "address",
          "name": "sender",
          "type": "address"
        },
        {
          "internalType": "uint256",
          "name": "indexOfTrade",
          "type": "uint256"
        }
      ],
      "name": "cancelTradeForEthWithTokens",
      "outputs": [],
      "stateMutability": "payable",
      "type": "function"
    },
    {
      "inputs": [],
      "name": "getAllTrades",
      "outputs": [
        {
          "components": [
            {
              "components": [
                {
                  "internalType": "address",
                  "name": "sender",
                  "type": "address"
                },
                {
                  "internalType": "uint256",
                  "name": "indexOfTradeOfAddress",
                  "type": "uint256"
                },
                {
                  "internalType": "address",
                  "name": "tradingTokenAddress",
                  "type": "address"
                },
                {
                  "internalType": "uint256",
                  "name": "tradingTokenAmount",
                  "type": "uint256"
                },
                {
                  "internalType": "address",
                  "name": "tradingForTokenAddress",
                  "type": "address"
                },
                {
                  "internalType": "uint256",
                  "name": "tradingForTokenAmount",
                  "type": "uint256"
                },
                {
                  "internalType": "bool",
                  "name": "alreadyTraded",
                  "type": "bool"
                }
              ],
              "internalType": "struct Dex.TradeTokensForTokensForCall[]",
              "name": "tradeTokensForTokensForCall",
              "type": "tuple[]"
            },
            {
              "components": [
                {
                  "internalType": "address",
                  "name": "sender",
                  "type": "address"
                },
                {
                  "internalType": "uint256",
                  "name": "indexOfTradeOfAddress",
                  "type": "uint256"
                },
                {
                  "internalType": "address",
                  "name": "tradingTokenAddress",
                  "type": "address"
                },
                {
                  "internalType": "uint256",
                  "name": "tradingTokenAmount",
                  "type": "uint256"
                },
                {
                  "internalType": "uint256",
                  "name": "tradingForEthAmount",
                  "type": "uint256"
                },
                {
                  "internalType": "bool",
                  "name": "alreadyTraded",
                  "type": "bool"
                }
              ],
              "internalType": "struct Dex.TradeTokensForEthForCall[]",
              "name": "tradeTokensForEthForCall",
              "type": "tuple[]"
            },
            {
              "components": [
                {
                  "internalType": "address",
                  "name": "sender",
                  "type": "address"
                },
                {
                  "internalType": "uint256",
                  "name": "indexOfTradeOfAddress",
                  "type": "uint256"
                },
                {
                  "internalType": "uint256",
                  "name": "tradingEthAmount",
                  "type": "uint256"
                },
                {
                  "internalType": "address",
                  "name": "tradingForTokenAddress",
                  "type": "address"
                },
                {
                  "internalType": "uint256",
                  "name": "tradingForTokenAmount",
                  "type": "uint256"
                },
                {
                  "internalType": "bool",
                  "name": "alreadyTraded",
                  "type": "bool"
                }
              ],
              "internalType": "struct Dex.TradeEthForTokensForCall[]",
              "name": "tradeEthForTokensForCall",
              "type": "tuple[]"
            }
          ],
          "internalType": "struct Dex.AllTrades",
          "name": "",
          "type": "tuple"
        }
      ],
      "stateMutability": "view",
      "type": "function"
    },
    {
      "inputs": [],
      "name": "getDexUsers",
      "outputs": [
        {
          "internalType": "address[]",
          "name": "",
          "type": "address[]"
        }
      ],
      "stateMutability": "view",
      "type": "function"
    },
    {
      "inputs": [
        {
          "internalType": "address",
          "name": "sender",
          "type": "address"
        }
      ],
      "name": "getAllTradesOfAccount",
      "outputs": [
        {
          "components": [
            {
              "components": [
                {
                  "internalType": "address",
                  "name": "sender",
                  "type": "address"
                },
                {
                  "internalType": "uint256",
                  "name": "indexOfTradeOfAddress",
                  "type": "uint256"
                },
                {
                  "internalType": "address",
                  "name": "tradingTokenAddress",
                  "type": "address"
                },
                {
                  "internalType": "uint256",
                  "name": "tradingTokenAmount",
                  "type": "uint256"
                },
                {
                  "internalType": "address",
                  "name": "tradingForTokenAddress",
                  "type": "address"
                },
                {
                  "internalType": "uint256",
                  "name": "tradingForTokenAmount",
                  "type": "uint256"
                },
                {
                  "internalType": "bool",
                  "name": "alreadyTraded",
                  "type": "bool"
                }
              ],
              "internalType": "struct Dex.TradeTokensForTokensForCall[]",
              "name": "tradeTokensForTokensForCall",
              "type": "tuple[]"
            },
            {
              "components": [
                {
                  "internalType": "address",
                  "name": "sender",
                  "type": "address"
                },
                {
                  "internalType": "uint256",
                  "name": "indexOfTradeOfAddress",
                  "type": "uint256"
                },
                {
                  "internalType": "address",
                  "name": "tradingTokenAddress",
                  "type": "address"
                },
                {
                  "internalType": "uint256",
                  "name": "tradingTokenAmount",
                  "type": "uint256"
                },
                {
                  "internalType": "uint256",
                  "name": "tradingForEthAmount",
                  "type": "uint256"
                },
                {
                  "internalType": "bool",
                  "name": "alreadyTraded",
                  "type": "bool"
                }
              ],
              "internalType": "struct Dex.TradeTokensForEthForCall[]",
              "name": "tradeTokensForEthForCall",
              "type": "tuple[]"
            },
            {
              "components": [
                {
                  "internalType": "address",
                  "name": "sender",
                  "type": "address"
                },
                {
                  "internalType": "uint256",
                  "name": "indexOfTradeOfAddress",
                  "type": "uint256"
                },
                {
                  "internalType": "uint256",
                  "name": "tradingEthAmount",
                  "type": "uint256"
                },
                {
                  "internalType": "address",
                  "name": "tradingForTokenAddress",
                  "type": "address"
                },
                {
                  "internalType": "uint256",
                  "name": "tradingForTokenAmount",
                  "type": "uint256"
                },
                {
                  "internalType": "bool",
                  "name": "alreadyTraded",
                  "type": "bool"
                }
              ],
              "internalType": "struct Dex.TradeEthForTokensForCall[]",
              "name": "tradeEthForTokensForCall",
              "type": "tuple[]"
            }
          ],
          "internalType": "struct Dex.AllTradesOfAccount",
          "name": "",
          "type": "tuple"
        }
      ],
      "stateMutability": "view",
      "type": "function"
    }
  ],
  "bytecode": "0x608060405234801561000f575f80fd5b503360055f6101000a81548173ffffffffffffffffffffffffffffffffffffffff021916908373ffffffffffffffffffffffffffffffffffffffff160217905550615bf1806200005e5f395ff3fe6080604052600436106100f2575f3560e01c80638c69cd8411610089578063ce99c0ce11610058578063ce99c0ce1461030e578063d74f378c14610338578063e39c40fc14610360578063fd9c88531461037c576100f2565b80638c69cd841461026f578063a1179c721461028b578063a306802f146102b3578063be532109146102cf576100f2565b80633c0d2d7b116100c55780633c0d2d7b146101bb57806359560382146101f7578063748d6a741461021f5780637f1ca38b14610247576100f2565b806308973378146100f65780630bc07cef146101205780631cdec0421461015f5780633b66082a1461017b575b5f80fd5b348015610101575f80fd5b5061010a6103b8565b604051610117919061506f565b60405180910390f35b34801561012b575f80fd5b50610146600480360381019061014191906150f0565b610443565b6040516101569493929190615166565b60405180910390f35b610179600480360381019061017491906150f0565b6104b4565b005b348015610186575f80fd5b506101a1600480360381019061019c91906150f0565b610b45565b6040516101b29594939291906151a9565b60405180910390f35b3480156101c6575f80fd5b506101e160048036038101906101dc91906151fa565b610bda565b6040516101ee9190615614565b60405180910390f35b348015610202575f80fd5b5061021d600480360381019061021891906150f0565b6113fd565b005b34801561022a575f80fd5b50610245600480360381019061024091906150f0565b61169b565b005b348015610252575f80fd5b5061026d60048036038101906102689190615634565b6119b3565b005b610289600480360381019061028491906150f0565b61235c565b005b348015610296575f80fd5b506102b160048036038101906102ac9190615684565b612833565b005b6102cd60048036038101906102c891906156e8565b61323d565b005b3480156102da575f80fd5b506102f560048036038101906102f091906150f0565b61361a565b6040516103059493929190615738565b60405180910390f35b348015610319575f80fd5b5061032261368b565b60405161032f91906157d6565b60405180910390f35b348015610343575f80fd5b5061035e600480360381019061035991906150f0565b6142d5565b005b61037a600480360381019061037591906150f0565b614a30565b005b348015610387575f80fd5b506103a2600480360381019061039d91906157f6565b614dd5565b6040516103af9190615821565b60405180910390f35b6060600380548060200260200160405190810160405280929190818152602001828054801561043957602002820191905f5260205f20905b815f9054906101000a900473ffffffffffffffffffffffffffffffffffffffff1673ffffffffffffffffffffffffffffffffffffffff16815260200190600101908083116103f0575b5050505050905090565b6001602052815f5260405f20818154811061045c575f80fd5b905f5260205f2090600402015f9150915050805f015f9054906101000a900473ffffffffffffffffffffffffffffffffffffffff1690806001015490806002015490806003015f9054906101000a900460ff16905084565b6001151560025f8473ffffffffffffffffffffffffffffffffffffffff1673ffffffffffffffffffffffffffffffffffffffff1681526020019081526020015f2082815481106105075761050661583a565b5b905f5260205f2090600402016003015f9054906101000a900460ff1615150361052e575f80fd5b5f60025f8473ffffffffffffffffffffffffffffffffffffffff1673ffffffffffffffffffffffffffffffffffffffff1681526020019081526020015f20828154811061057e5761057d61583a565b5b905f5260205f2090600402016001015f9054906101000a900473ffffffffffffffffffffffffffffffffffffffff16905060025f8473ffffffffffffffffffffffffffffffffffffffff1673ffffffffffffffffffffffffffffffffffffffff1681526020019081526020015f2082815481106105fe576105fd61583a565b5b905f5260205f209060040201600201548173ffffffffffffffffffffffffffffffffffffffff166370a08231336040518263ffffffff1660e01b81526004016106479190615821565b602060405180830381865afa158015610662573d5f803e3d5ffd5b505050506040513d601f19601f82011682018060405250810190610686919061587b565b1015610690575f80fd5b60025f8473ffffffffffffffffffffffffffffffffffffffff1673ffffffffffffffffffffffffffffffffffffffff1681526020019081526020015f2082815481106106df576106de61583a565b5b905f5260205f209060040201600201548173ffffffffffffffffffffffffffffffffffffffff1663dd62ed3e33306040518363ffffffff1660e01b815260040161072a9291906158a6565b602060405180830381865afa158015610745573d5f803e3d5ffd5b505050506040513d601f19601f82011682018060405250810190610769919061587b565b1015610773575f80fd5b8073ffffffffffffffffffffffffffffffffffffffff166323b872dd338560025f8873ffffffffffffffffffffffffffffffffffffffff1673ffffffffffffffffffffffffffffffffffffffff1681526020019081526020015f2086815481106107e0576107df61583a565b5b905f5260205f209060040201600201546040518463ffffffff1660e01b815260040161080e939291906158cd565b6020604051808303815f875af115801561082a573d5f803e3d5ffd5b505050506040513d601f19601f8201168201806040525081019061084e919061592c565b505f3373ffffffffffffffffffffffffffffffffffffffff1660025f8673ffffffffffffffffffffffffffffffffffffffff1673ffffffffffffffffffffffffffffffffffffffff1681526020019081526020015f2084815481106108b6576108b561583a565b5b905f5260205f2090600402015f01546040516108d190615984565b5f6040518083038185875af1925050503d805f811461090b576040519150601f19603f3d011682016040523d82523d5f602084013e610910565b606091505b5050905080610954576040517f08c379a000000000000000000000000000000000000000000000000000000000815260040161094b906159f2565b60405180910390fd5b600160025f8673ffffffffffffffffffffffffffffffffffffffff1673ffffffffffffffffffffffffffffffffffffffff1681526020019081526020015f2084815481106109a5576109a461583a565b5b905f5260205f2090600402016003015f6101000a81548160ff0219169083151502179055507f90737823f8fc9fbb28385683bca84d56edc8a1d49a2ad7faeb6391da5e38d99b8460025f8773ffffffffffffffffffffffffffffffffffffffff1673ffffffffffffffffffffffffffffffffffffffff1681526020019081526020015f208581548110610a3b57610a3a61583a565b5b905f5260205f2090600402015f015460025f8873ffffffffffffffffffffffffffffffffffffffff1673ffffffffffffffffffffffffffffffffffffffff1681526020019081526020015f208681548110610a9957610a9861583a565b5b905f5260205f2090600402016001015f9054906101000a900473ffffffffffffffffffffffffffffffffffffffff1660025f8973ffffffffffffffffffffffffffffffffffffffff1673ffffffffffffffffffffffffffffffffffffffff1681526020019081526020015f208781548110610b1757610b1661583a565b5b905f5260205f20906004020160020154604051610b379493929190615a10565b60405180910390a150505050565b5f602052815f5260405f208181548110610b5d575f80fd5b905f5260205f2090600502015f9150915050805f015f9054906101000a900473ffffffffffffffffffffffffffffffffffffffff1690806001015490806002015f9054906101000a900473ffffffffffffffffffffffffffffffffffffffff1690806003015490806004015f9054906101000a900460ff16905085565b610be2614e10565b610bea614e10565b5f808473ffffffffffffffffffffffffffffffffffffffff1673ffffffffffffffffffffffffffffffffffffffff1681526020019081526020015f208054905067ffffffffffffffff811115610c4357610c42615a53565b5b604051908082528060200260200182016040528015610c7c57816020015b610c69614e31565b815260200190600190039081610c615790505b50815f01819052505f805b5f808673ffffffffffffffffffffffffffffffffffffffff1673ffffffffffffffffffffffffffffffffffffffff1681526020019081526020015f2080549050811015610ee0575f805f8773ffffffffffffffffffffffffffffffffffffffff1673ffffffffffffffffffffffffffffffffffffffff1681526020019081526020015f208281548110610d1d57610d1c61583a565b5b905f5260205f2090600502016040518060a00160405290815f82015f9054906101000a900473ffffffffffffffffffffffffffffffffffffffff1673ffffffffffffffffffffffffffffffffffffffff1673ffffffffffffffffffffffffffffffffffffffff16815260200160018201548152602001600282015f9054906101000a900473ffffffffffffffffffffffffffffffffffffffff1673ffffffffffffffffffffffffffffffffffffffff1673ffffffffffffffffffffffffffffffffffffffff16815260200160038201548152602001600482015f9054906101000a900460ff16151515158152505090505f6040518060e001604052808873ffffffffffffffffffffffffffffffffffffffff168152602001848152602001835f015173ffffffffffffffffffffffffffffffffffffffff16815260200183602001518152602001836040015173ffffffffffffffffffffffffffffffffffffffff1681526020018360600151815260200183608001511515815250905080855f01518581518110610eb157610eb061583a565b5b6020026020010181905250600184610ec99190615aad565b935050508080610ed890615ae0565b915050610c87565b5060015f8573ffffffffffffffffffffffffffffffffffffffff1673ffffffffffffffffffffffffffffffffffffffff1681526020019081526020015f208054905067ffffffffffffffff811115610f3b57610f3a615a53565b5b604051908082528060200260200182016040528015610f7457816020015b610f61614eab565b815260200190600190039081610f595790505b5082602001819052505f90505f5b60015f8673ffffffffffffffffffffffffffffffffffffffff1673ffffffffffffffffffffffffffffffffffffffff1681526020019081526020015f2080549050811015611169575f60015f8773ffffffffffffffffffffffffffffffffffffffff1673ffffffffffffffffffffffffffffffffffffffff1681526020019081526020015f20828154811061101a5761101961583a565b5b905f5260205f2090600402016040518060800160405290815f82015f9054906101000a900473ffffffffffffffffffffffffffffffffffffffff1673ffffffffffffffffffffffffffffffffffffffff1673ffffffffffffffffffffffffffffffffffffffff1681526020016001820154815260200160028201548152602001600382015f9054906101000a900460ff16151515158152505090505f6040518060c001604052808873ffffffffffffffffffffffffffffffffffffffff168152602001848152602001835f015173ffffffffffffffffffffffffffffffffffffffff1681526020018360200151815260200183604001518152602001836060015115158152509050808560200151858151811061113a5761113961583a565b5b60200260200101819052506001846111529190615aad565b93505050808061116190615ae0565b915050610f82565b5060025f8573ffffffffffffffffffffffffffffffffffffffff1673ffffffffffffffffffffffffffffffffffffffff1681526020019081526020015f208054905067ffffffffffffffff8111156111c4576111c3615a53565b5b6040519080825280602002602001820160405280156111fd57816020015b6111ea614f09565b8152602001906001900390816111e25790505b5082604001819052505f90505f5b60025f8673ffffffffffffffffffffffffffffffffffffffff1673ffffffffffffffffffffffffffffffffffffffff1681526020019081526020015f20805490508110156113f2575f60025f8773ffffffffffffffffffffffffffffffffffffffff1673ffffffffffffffffffffffffffffffffffffffff1681526020019081526020015f2082815481106112a3576112a261583a565b5b905f5260205f2090600402016040518060800160405290815f8201548152602001600182015f9054906101000a900473ffffffffffffffffffffffffffffffffffffffff1673ffffffffffffffffffffffffffffffffffffffff1673ffffffffffffffffffffffffffffffffffffffff16815260200160028201548152602001600382015f9054906101000a900460ff16151515158152505090505f6040518060c001604052808873ffffffffffffffffffffffffffffffffffffffff168152602001848152602001835f01518152602001836020015173ffffffffffffffffffffffffffffffffffffffff1681526020018360400151815260200183606001511515815250905080856040015185815181106113c3576113c261583a565b5b60200260200101819052506001846113db9190615aad565b9350505080806113ea90615ae0565b91505061120b565b508192505050919050565b8173ffffffffffffffffffffffffffffffffffffffff163373ffffffffffffffffffffffffffffffffffffffff1614611434575f80fd5b5f151560015f8473ffffffffffffffffffffffffffffffffffffffff1673ffffffffffffffffffffffffffffffffffffffff1681526020019081526020015f2082815481106114865761148561583a565b5b905f5260205f2090600402016003015f9054906101000a900460ff161515146114ad575f80fd5b6001805f8473ffffffffffffffffffffffffffffffffffffffff1673ffffffffffffffffffffffffffffffffffffffff1681526020019081526020015f2082815481106114fd576114fc61583a565b5b905f5260205f2090600402016003015f6101000a81548160ff0219169083151502179055507fee62066e68ea020a72ab8850191057c02d81798cef76e90508db15b2f47368c78260015f8573ffffffffffffffffffffffffffffffffffffffff1673ffffffffffffffffffffffffffffffffffffffff1681526020019081526020015f2083815481106115935761159261583a565b5b905f5260205f2090600402015f015f9054906101000a900473ffffffffffffffffffffffffffffffffffffffff1660015f8673ffffffffffffffffffffffffffffffffffffffff1673ffffffffffffffffffffffffffffffffffffffff1681526020019081526020015f2084815481106116105761160f61583a565b5b905f5260205f2090600402016001015460015f8773ffffffffffffffffffffffffffffffffffffffff1673ffffffffffffffffffffffffffffffffffffffff1681526020019081526020015f20858154811061166f5761166e61583a565b5b905f5260205f2090600402016002015460405161168f9493929190615b27565b60405180910390a15050565b8173ffffffffffffffffffffffffffffffffffffffff163373ffffffffffffffffffffffffffffffffffffffff16146116d2575f80fd5b5f15155f808473ffffffffffffffffffffffffffffffffffffffff1673ffffffffffffffffffffffffffffffffffffffff1681526020019081526020015f2082815481106117235761172261583a565b5b905f5260205f2090600502016004015f9054906101000a900460ff1615151461174a575f80fd5b60015f808473ffffffffffffffffffffffffffffffffffffffff1673ffffffffffffffffffffffffffffffffffffffff1681526020019081526020015f20828154811061179a5761179961583a565b5b905f5260205f2090600502016004015f6101000a81548160ff0219169083151502179055507fc086f5b7a83e015dcc4ec82fa3f4de6c895b32824a682d0d3002b1277cbb7dc7825f808573ffffffffffffffffffffffffffffffffffffffff1673ffffffffffffffffffffffffffffffffffffffff1681526020019081526020015f20838154811061182f5761182e61583a565b5b905f5260205f2090600502015f015f9054906101000a900473ffffffffffffffffffffffffffffffffffffffff165f808673ffffffffffffffffffffffffffffffffffffffff1673ffffffffffffffffffffffffffffffffffffffff1681526020019081526020015f2084815481106118ab576118aa61583a565b5b905f5260205f209060050201600101545f808773ffffffffffffffffffffffffffffffffffffffff1673ffffffffffffffffffffffffffffffffffffffff1681526020019081526020015f2085815481106119095761190861583a565b5b905f5260205f2090600502016002015f9054906101000a900473ffffffffffffffffffffffffffffffffffffffff165f808873ffffffffffffffffffffffffffffffffffffffff1673ffffffffffffffffffffffffffffffffffffffff1681526020019081526020015f2086815481106119865761198561583a565b5b905f5260205f209060050201600301546040516119a7959493929190615b6a565b60405180910390a15050565b5f8390505f8390505f805f3373ffffffffffffffffffffffffffffffffffffffff1673ffffffffffffffffffffffffffffffffffffffff1681526020019081526020015f20805480602002602001604051908101604052809291908181526020015f905b82821015611b1e578382905f5260205f2090600502016040518060a00160405290815f82015f9054906101000a900473ffffffffffffffffffffffffffffffffffffffff1673ffffffffffffffffffffffffffffffffffffffff1673ffffffffffffffffffffffffffffffffffffffff16815260200160018201548152602001600282015f9054906101000a900473ffffffffffffffffffffffffffffffffffffffff1673ffffffffffffffffffffffffffffffffffffffff1673ffffffffffffffffffffffffffffffffffffffff16815260200160038201548152602001600482015f9054906101000a900460ff16151515158152505081526020019060010190611a17565b5050505090505f60015f3373ffffffffffffffffffffffffffffffffffffffff1673ffffffffffffffffffffffffffffffffffffffff1681526020019081526020015f20805480602002602001604051908101604052809291908181526020015f905b82821015611c33578382905f5260205f2090600402016040518060800160405290815f82015f9054906101000a900473ffffffffffffffffffffffffffffffffffffffff1673ffffffffffffffffffffffffffffffffffffffff1673ffffffffffffffffffffffffffffffffffffffff1681526020016001820154815260200160028201548152602001600382015f9054906101000a900460ff16151515158152505081526020019060010190611b81565b5050505090506001151560045f3373ffffffffffffffffffffffffffffffffffffffff1673ffffffffffffffffffffffffffffffffffffffff1681526020019081526020015f205f015f9054906101000a900460ff16151503611d5b575f5b8251811015611d59578773ffffffffffffffffffffffffffffffffffffffff16838281518110611cc557611cc461583a565b5b60200260200101515f015173ffffffffffffffffffffffffffffffffffffffff16148015611d1457505f1515838281518110611d0457611d0361583a565b5b6020026020010151608001511515145b15611d465783838281518110611d2d57611d2c61583a565b5b602002602001015160200151611d439190615aad565b93505b8080611d5190615ae0565b915050611c92565b505b6001151560045f3373ffffffffffffffffffffffffffffffffffffffff1673ffffffffffffffffffffffffffffffffffffffff1681526020019081526020015f205f0160019054906101000a900460ff16151503611e7e575f5b8151811015611e7c578773ffffffffffffffffffffffffffffffffffffffff16828281518110611de857611de761583a565b5b60200260200101515f015173ffffffffffffffffffffffffffffffffffffffff16148015611e3757505f1515828281518110611e2757611e2661583a565b5b6020026020010151606001511515145b15611e695783828281518110611e5057611e4f61583a565b5b602002602001015160200151611e669190615aad565b93505b8080611e7490615ae0565b915050611db5565b505b828473ffffffffffffffffffffffffffffffffffffffff1663dd62ed3e33306040518363ffffffff1660e01b8152600401611eba9291906158a6565b602060405180830381865afa158015611ed5573d5f803e3d5ffd5b505050506040513d601f19601f82011682018060405250810190611ef9919061587b565b1015611f03575f80fd5b828473ffffffffffffffffffffffffffffffffffffffff166370a08231336040518263ffffffff1660e01b8152600401611f3d9190615821565b602060405180830381865afa158015611f58573d5f803e3d5ffd5b505050506040513d601f19601f82011682018060405250810190611f7c919061587b565b1015611f86575f80fd5b60015f3373ffffffffffffffffffffffffffffffffffffffff1673ffffffffffffffffffffffffffffffffffffffff1681526020019081526020015f2060405180608001604052808973ffffffffffffffffffffffffffffffffffffffff1681526020018881526020018781526020015f1515815250908060018154018082558091505060019003905f5260205f2090600402015f909190919091505f820151815f015f6101000a81548173ffffffffffffffffffffffffffffffffffffffff021916908373ffffffffffffffffffffffffffffffffffffffff16021790555060208201518160010155604082015181600201556060820151816003015f6101000a81548160ff02191690831515021790555050507f4b3224748748339deab55aa5a1514e7f3d791c195a9594935c30a84d882f540f338888886040516120d09493929190615b27565b60405180910390a15f151560045f3373ffffffffffffffffffffffffffffffffffffffff1673ffffffffffffffffffffffffffffffffffffffff1681526020019081526020015f205f015f9054906101000a900460ff16151514801561218557505f151560045f3373ffffffffffffffffffffffffffffffffffffffff1673ffffffffffffffffffffffffffffffffffffffff1681526020019081526020015f205f0160019054906101000a900460ff161515145b80156121e057505f151560045f3373ffffffffffffffffffffffffffffffffffffffff1673ffffffffffffffffffffffffffffffffffffffff1681526020019081526020015f205f0160029054906101000a900460ff161515145b156122a257600333908060018154018082558091505060019003905f5260205f20015f9091909190916101000a81548173ffffffffffffffffffffffffffffffffffffffff021916908373ffffffffffffffffffffffffffffffffffffffff160217905550600160045f3373ffffffffffffffffffffffffffffffffffffffff1673ffffffffffffffffffffffffffffffffffffffff1681526020019081526020015f205f0160016101000a81548160ff021916908315150217905550612353565b5f151560045f3373ffffffffffffffffffffffffffffffffffffffff1673ffffffffffffffffffffffffffffffffffffffff1681526020019081526020015f205f0160019054906101000a900460ff1615150361235257600160045f3373ffffffffffffffffffffffffffffffffffffffff1673ffffffffffffffffffffffffffffffffffffffff1681526020019081526020015f205f0160016101000a81548160ff0219169083151502179055505b5b50505050505050565b6001151560015f8473ffffffffffffffffffffffffffffffffffffffff1673ffffffffffffffffffffffffffffffffffffffff1681526020019081526020015f2082815481106123af576123ae61583a565b5b905f5260205f2090600402016003015f9054906101000a900460ff161515036123d6575f80fd5b5f60015f8473ffffffffffffffffffffffffffffffffffffffff1673ffffffffffffffffffffffffffffffffffffffff1681526020019081526020015f2082815481106124265761242561583a565b5b905f5260205f2090600402015f015f9054906101000a900473ffffffffffffffffffffffffffffffffffffffff1690508073ffffffffffffffffffffffffffffffffffffffff166323b872dd843360015f8873ffffffffffffffffffffffffffffffffffffffff1673ffffffffffffffffffffffffffffffffffffffff1681526020019081526020015f2086815481106124c3576124c261583a565b5b905f5260205f209060040201600101546040518463ffffffff1660e01b81526004016124f1939291906158cd565b6020604051808303815f875af115801561250d573d5f803e3d5ffd5b505050506040513d601f19601f82011682018060405250810190612531919061592c565b5060015f8473ffffffffffffffffffffffffffffffffffffffff1673ffffffffffffffffffffffffffffffffffffffff1681526020019081526020015f2082815481106125815761258061583a565b5b905f5260205f20906004020160020154341461259b575f80fd5b5f8373ffffffffffffffffffffffffffffffffffffffff16346040516125c090615984565b5f6040518083038185875af1925050503d805f81146125fa576040519150601f19603f3d011682016040523d82523d5f602084013e6125ff565b606091505b5050905080612643576040517f08c379a000000000000000000000000000000000000000000000000000000000815260040161263a906159f2565b60405180910390fd5b6001805f8673ffffffffffffffffffffffffffffffffffffffff1673ffffffffffffffffffffffffffffffffffffffff1681526020019081526020015f2084815481106126935761269261583a565b5b905f5260205f2090600402016003015f6101000a81548160ff0219169083151502179055507f08b8b3ffc165e69d2aa56bf6924a289c74530a36570b042b279ede424a0f7c188460015f8773ffffffffffffffffffffffffffffffffffffffff1673ffffffffffffffffffffffffffffffffffffffff1681526020019081526020015f2085815481106127295761272861583a565b5b905f5260205f2090600402015f015f9054906101000a900473ffffffffffffffffffffffffffffffffffffffff1660015f8873ffffffffffffffffffffffffffffffffffffffff1673ffffffffffffffffffffffffffffffffffffffff1681526020019081526020015f2086815481106127a6576127a561583a565b5b905f5260205f2090600402016001015460015f8973ffffffffffffffffffffffffffffffffffffffff1673ffffffffffffffffffffffffffffffffffffffff1681526020019081526020015f2087815481106128055761280461583a565b5b905f5260205f209060040201600201546040516128259493929190615b27565b60405180910390a150505050565b5f8490505f8490505f805f3373ffffffffffffffffffffffffffffffffffffffff1673ffffffffffffffffffffffffffffffffffffffff1681526020019081526020015f20805480602002602001604051908101604052809291908181526020015f905b8282101561299e578382905f5260205f2090600502016040518060a00160405290815f82015f9054906101000a900473ffffffffffffffffffffffffffffffffffffffff1673ffffffffffffffffffffffffffffffffffffffff1673ffffffffffffffffffffffffffffffffffffffff16815260200160018201548152602001600282015f9054906101000a900473ffffffffffffffffffffffffffffffffffffffff1673ffffffffffffffffffffffffffffffffffffffff1673ffffffffffffffffffffffffffffffffffffffff16815260200160038201548152602001600482015f9054906101000a900460ff16151515158152505081526020019060010190612897565b5050505090505f60015f3373ffffffffffffffffffffffffffffffffffffffff1673ffffffffffffffffffffffffffffffffffffffff1681526020019081526020015f20805480602002602001604051908101604052809291908181526020015f905b82821015612ab3578382905f5260205f2090600402016040518060800160405290815f82015f9054906101000a900473ffffffffffffffffffffffffffffffffffffffff1673ffffffffffffffffffffffffffffffffffffffff1673ffffffffffffffffffffffffffffffffffffffff1681526020016001820154815260200160028201548152602001600382015f9054906101000a900460ff16151515158152505081526020019060010190612a01565b5050505090506001151560045f3373ffffffffffffffffffffffffffffffffffffffff1673ffffffffffffffffffffffffffffffffffffffff1681526020019081526020015f205f015f9054906101000a900460ff16151503612bdb575f5b8251811015612bd9578873ffffffffffffffffffffffffffffffffffffffff16838281518110612b4557612b4461583a565b5b60200260200101515f015173ffffffffffffffffffffffffffffffffffffffff16148015612b9457505f1515838281518110612b8457612b8361583a565b5b6020026020010151608001511515145b15612bc65783838281518110612bad57612bac61583a565b5b602002602001015160200151612bc39190615aad565b93505b8080612bd190615ae0565b915050612b12565b505b6001151560045f3373ffffffffffffffffffffffffffffffffffffffff1673ffffffffffffffffffffffffffffffffffffffff1681526020019081526020015f205f0160019054906101000a900460ff16151503612cfe575f5b8151811015612cfc578873ffffffffffffffffffffffffffffffffffffffff16828281518110612c6857612c6761583a565b5b60200260200101515f015173ffffffffffffffffffffffffffffffffffffffff16148015612cb757505f1515828281518110612ca757612ca661583a565b5b6020026020010151606001511515145b15612ce95783828281518110612cd057612ccf61583a565b5b602002602001015160200151612ce69190615aad565b93505b8080612cf490615ae0565b915050612c35565b505b828473ffffffffffffffffffffffffffffffffffffffff1663dd62ed3e33306040518363ffffffff1660e01b8152600401612d3a9291906158a6565b602060405180830381865afa158015612d55573d5f803e3d5ffd5b505050506040513d601f19601f82011682018060405250810190612d79919061587b565b1015612d83575f80fd5b828473ffffffffffffffffffffffffffffffffffffffff166370a08231336040518263ffffffff1660e01b8152600401612dbd9190615821565b602060405180830381865afa158015612dd8573d5f803e3d5ffd5b505050506040513d601f19601f82011682018060405250810190612dfc919061587b565b1015612e06575f80fd5b5f803373ffffffffffffffffffffffffffffffffffffffff1673ffffffffffffffffffffffffffffffffffffffff1681526020019081526020015f206040518060a001604052808a73ffffffffffffffffffffffffffffffffffffffff1681526020018981526020018873ffffffffffffffffffffffffffffffffffffffff1681526020018781526020015f1515815250908060018154018082558091505060019003905f5260205f2090600502015f909190919091505f820151815f015f6101000a81548173ffffffffffffffffffffffffffffffffffffffff021916908373ffffffffffffffffffffffffffffffffffffffff160217905550602082015181600101556040820151816002015f6101000a81548173ffffffffffffffffffffffffffffffffffffffff021916908373ffffffffffffffffffffffffffffffffffffffff160217905550606082015181600301556080820151816004015f6101000a81548160ff02191690831515021790555050507fb31b008e8a12db47dae24bda793ea0d4e1039d4e74c334ec8fed59d8a4e805293389898989604051612fb3959493929190615b6a565b60405180910390a15f151560045f3373ffffffffffffffffffffffffffffffffffffffff1673ffffffffffffffffffffffffffffffffffffffff1681526020019081526020015f205f015f9054906101000a900460ff16151514801561306857505f151560045f3373ffffffffffffffffffffffffffffffffffffffff1673ffffffffffffffffffffffffffffffffffffffff1681526020019081526020015f205f0160019054906101000a900460ff161515145b80156130c357505f151560045f3373ffffffffffffffffffffffffffffffffffffffff1673ffffffffffffffffffffffffffffffffffffffff1681526020019081526020015f205f0160029054906101000a900460ff161515145b1561318457600333908060018154018082558091505060019003905f5260205f20015f9091909190916101000a81548173ffffffffffffffffffffffffffffffffffffffff021916908373ffffffffffffffffffffffffffffffffffffffff160217905550600160045f3373ffffffffffffffffffffffffffffffffffffffff1673ffffffffffffffffffffffffffffffffffffffff1681526020019081526020015f205f015f6101000a81548160ff021916908315150217905550613233565b5f151560045f3373ffffffffffffffffffffffffffffffffffffffff1673ffffffffffffffffffffffffffffffffffffffff1681526020019081526020015f205f015f9054906101000a900460ff1615150361323257600160045f3373ffffffffffffffffffffffffffffffffffffffff1673ffffffffffffffffffffffffffffffffffffffff1681526020019081526020015f205f015f6101000a81548160ff0219169083151502179055505b5b5050505050505050565b823414613248575f80fd5b60025f3373ffffffffffffffffffffffffffffffffffffffff1673ffffffffffffffffffffffffffffffffffffffff1681526020019081526020015f2060405180608001604052808581526020018473ffffffffffffffffffffffffffffffffffffffff1681526020018381526020015f1515815250908060018154018082558091505060019003905f5260205f2090600402015f909190919091505f820151815f01556020820151816001015f6101000a81548173ffffffffffffffffffffffffffffffffffffffff021916908373ffffffffffffffffffffffffffffffffffffffff160217905550604082015181600201556060820151816003015f6101000a81548160ff02191690831515021790555050507f5e91b5fb353347b0d4c78463cbf33c353331235f1f40327ca164bd540d164697338484846040516133929493929190615a10565b60405180910390a15f151560045f3373ffffffffffffffffffffffffffffffffffffffff1673ffffffffffffffffffffffffffffffffffffffff1681526020019081526020015f205f015f9054906101000a900460ff16151514801561344757505f151560045f3373ffffffffffffffffffffffffffffffffffffffff1673ffffffffffffffffffffffffffffffffffffffff1681526020019081526020015f205f0160019054906101000a900460ff161515145b80156134a257505f151560045f3373ffffffffffffffffffffffffffffffffffffffff1673ffffffffffffffffffffffffffffffffffffffff1681526020019081526020015f205f0160029054906101000a900460ff161515145b1561356457600333908060018154018082558091505060019003905f5260205f20015f9091909190916101000a81548173ffffffffffffffffffffffffffffffffffffffff021916908373ffffffffffffffffffffffffffffffffffffffff160217905550600160045f3373ffffffffffffffffffffffffffffffffffffffff1673ffffffffffffffffffffffffffffffffffffffff1681526020019081526020015f205f0160026101000a81548160ff021916908315150217905550613615565b5f151560045f3373ffffffffffffffffffffffffffffffffffffffff1673ffffffffffffffffffffffffffffffffffffffff1681526020019081526020015f205f0160029054906101000a900460ff1615150361361457600160045f3373ffffffffffffffffffffffffffffffffffffffff1673ffffffffffffffffffffffffffffffffffffffff1681526020019081526020015f205f0160026101000a81548160ff0219169083151502179055505b5b505050565b6002602052815f5260405f208181548110613633575f80fd5b905f5260205f2090600402015f9150915050805f015490806001015f9054906101000a900473ffffffffffffffffffffffffffffffffffffffff1690806002015490806003015f9054906101000a900460ff16905084565b613693614f67565b5f805b60038054905081101561375d575f5b5f80600384815481106136bb576136ba61583a565b5b905f5260205f20015f9054906101000a900473ffffffffffffffffffffffffffffffffffffffff1673ffffffffffffffffffffffffffffffffffffffff1673ffffffffffffffffffffffffffffffffffffffff1681526020019081526020015f2080549050811015613749576001836137349190615aad565b9250808061374190615ae0565b9150506136a5565b50808061375590615ae0565b915050613696565b505f8167ffffffffffffffff81111561377957613778615a53565b5b6040519080825280602002602001820160405280156137b257816020015b61379f614e31565b8152602001906001900390816137975790505b5090505f805b600380549050811015613ae2575f5b5f80600384815481106137dd576137dc61583a565b5b905f5260205f20015f9054906101000a900473ffffffffffffffffffffffffffffffffffffffff1673ffffffffffffffffffffffffffffffffffffffff1673ffffffffffffffffffffffffffffffffffffffff1681526020019081526020015f2080549050811015613ace575f805f600385815481106138605761385f61583a565b5b905f5260205f20015f9054906101000a900473ffffffffffffffffffffffffffffffffffffffff1673ffffffffffffffffffffffffffffffffffffffff1673ffffffffffffffffffffffffffffffffffffffff1681526020019081526020015f2082815481106138d3576138d261583a565b5b905f5260205f2090600502016040518060a00160405290815f82015f9054906101000a900473ffffffffffffffffffffffffffffffffffffffff1673ffffffffffffffffffffffffffffffffffffffff1673ffffffffffffffffffffffffffffffffffffffff16815260200160018201548152602001600282015f9054906101000a900473ffffffffffffffffffffffffffffffffffffffff1673ffffffffffffffffffffffffffffffffffffffff1673ffffffffffffffffffffffffffffffffffffffff16815260200160038201548152602001600482015f9054906101000a900460ff16151515158152505090505f6040518060e00160405280600386815481106139e3576139e261583a565b5b905f5260205f20015f9054906101000a900473ffffffffffffffffffffffffffffffffffffffff1673ffffffffffffffffffffffffffffffffffffffff168152602001848152602001835f015173ffffffffffffffffffffffffffffffffffffffff16815260200183602001518152602001836040015173ffffffffffffffffffffffffffffffffffffffff1681526020018360600151815260200183608001511515815250905080868681518110613a9f57613a9e61583a565b5b6020026020010181905250600185613ab79190615aad565b945050508080613ac690615ae0565b9150506137c7565b508080613ada90615ae0565b9150506137b8565b505f92505f5b600380549050811015613bb0575f5b60015f60038481548110613b0e57613b0d61583a565b5b905f5260205f20015f9054906101000a900473ffffffffffffffffffffffffffffffffffffffff1673ffffffffffffffffffffffffffffffffffffffff1673ffffffffffffffffffffffffffffffffffffffff1681526020019081526020015f2080549050811015613b9c57600185613b879190615aad565b94508080613b9490615ae0565b915050613af7565b508080613ba890615ae0565b915050613ae8565b505f8367ffffffffffffffff811115613bcc57613bcb615a53565b5b604051908082528060200260200182016040528015613c0557816020015b613bf2614eab565b815260200190600190039081613bea5790505b5090505f91505f5b600380549050811015613ec4575f5b60015f60038481548110613c3357613c3261583a565b5b905f5260205f20015f9054906101000a900473ffffffffffffffffffffffffffffffffffffffff1673ffffffffffffffffffffffffffffffffffffffff1673ffffffffffffffffffffffffffffffffffffffff1681526020019081526020015f2080549050811015613eb0575f60015f60038581548110613cb757613cb661583a565b5b905f5260205f20015f9054906101000a900473ffffffffffffffffffffffffffffffffffffffff1673ffffffffffffffffffffffffffffffffffffffff1673ffffffffffffffffffffffffffffffffffffffff1681526020019081526020015f208281548110613d2a57613d2961583a565b5b905f5260205f2090600402016040518060800160405290815f82015f9054906101000a900473ffffffffffffffffffffffffffffffffffffffff1673ffffffffffffffffffffffffffffffffffffffff1673ffffffffffffffffffffffffffffffffffffffff1681526020016001820154815260200160028201548152602001600382015f9054906101000a900460ff16151515158152505090505f6040518060c0016040528060038681548110613de557613de461583a565b5b905f5260205f20015f9054906101000a900473ffffffffffffffffffffffffffffffffffffffff1673ffffffffffffffffffffffffffffffffffffffff168152602001848152602001835f015173ffffffffffffffffffffffffffffffffffffffff168152602001836020015181526020018360400151815260200183606001511515815250905080858781518110613e8157613e8061583a565b5b6020026020010181905250600186613e999190615aad565b955050508080613ea890615ae0565b915050613c1c565b508080613ebc90615ae0565b915050613c0d565b505f93505f5b600380549050811015613f92575f5b60025f60038481548110613ef057613eef61583a565b5b905f5260205f20015f9054906101000a900473ffffffffffffffffffffffffffffffffffffffff1673ffffffffffffffffffffffffffffffffffffffff1673ffffffffffffffffffffffffffffffffffffffff1681526020019081526020015f2080549050811015613f7e57600186613f699190615aad565b95508080613f7690615ae0565b915050613ed9565b508080613f8a90615ae0565b915050613eca565b505f8467ffffffffffffffff811115613fae57613fad615a53565b5b604051908082528060200260200182016040528015613fe757816020015b613fd4614f09565b815260200190600190039081613fcc5790505b5090505f92505f5b6003805490508110156142a6575f5b60025f600384815481106140155761401461583a565b5b905f5260205f20015f9054906101000a900473ffffffffffffffffffffffffffffffffffffffff1673ffffffffffffffffffffffffffffffffffffffff1673ffffffffffffffffffffffffffffffffffffffff1681526020019081526020015f2080549050811015614292575f60025f600385815481106140995761409861583a565b5b905f5260205f20015f9054906101000a900473ffffffffffffffffffffffffffffffffffffffff1673ffffffffffffffffffffffffffffffffffffffff1673ffffffffffffffffffffffffffffffffffffffff1681526020019081526020015f20828154811061410c5761410b61583a565b5b905f5260205f2090600402016040518060800160405290815f8201548152602001600182015f9054906101000a900473ffffffffffffffffffffffffffffffffffffffff1673ffffffffffffffffffffffffffffffffffffffff1673ffffffffffffffffffffffffffffffffffffffff16815260200160028201548152602001600382015f9054906101000a900460ff16151515158152505090505f6040518060c00160405280600386815481106141c7576141c661583a565b5b905f5260205f20015f9054906101000a900473ffffffffffffffffffffffffffffffffffffffff1673ffffffffffffffffffffffffffffffffffffffff168152602001848152602001835f01518152602001836020015173ffffffffffffffffffffffffffffffffffffffff16815260200183604001518152602001836060015115158152509050808588815181106142635761426261583a565b5b602002602001018190525060018761427b9190615aad565b96505050808061428a90615ae0565b915050613ffe565b50808061429e90615ae0565b915050613fef565b506142af614f67565b84815f018190525082816020018190525081816040018190525080965050505050505090565b600115155f808473ffffffffffffffffffffffffffffffffffffffff1673ffffffffffffffffffffffffffffffffffffffff1681526020019081526020015f2082815481106143275761432661583a565b5b905f5260205f2090600502016004015f9054906101000a900460ff1615150361434e575f80fd5b5f805f8473ffffffffffffffffffffffffffffffffffffffff1673ffffffffffffffffffffffffffffffffffffffff1681526020019081526020015f20828154811061439d5761439c61583a565b5b905f5260205f2090600502015f015f9054906101000a900473ffffffffffffffffffffffffffffffffffffffff1690508073ffffffffffffffffffffffffffffffffffffffff166323b872dd84335f808873ffffffffffffffffffffffffffffffffffffffff1673ffffffffffffffffffffffffffffffffffffffff1681526020019081526020015f2086815481106144395761443861583a565b5b905f5260205f209060050201600101546040518463ffffffff1660e01b8152600401614467939291906158cd565b6020604051808303815f875af1158015614483573d5f803e3d5ffd5b505050506040513d601f19601f820116820180604052508101906144a7919061592c565b505f805f8573ffffffffffffffffffffffffffffffffffffffff1673ffffffffffffffffffffffffffffffffffffffff1681526020019081526020015f2083815481106144f7576144f661583a565b5b905f5260205f2090600502016002015f9054906101000a900473ffffffffffffffffffffffffffffffffffffffff1690505f808573ffffffffffffffffffffffffffffffffffffffff1673ffffffffffffffffffffffffffffffffffffffff1681526020019081526020015f2083815481106145765761457561583a565b5b905f5260205f209060050201600301548173ffffffffffffffffffffffffffffffffffffffff166370a08231336040518263ffffffff1660e01b81526004016145bf9190615821565b602060405180830381865afa1580156145da573d5f803e3d5ffd5b505050506040513d601f19601f820116820180604052508101906145fe919061587b565b1015614608575f80fd5b5f808573ffffffffffffffffffffffffffffffffffffffff1673ffffffffffffffffffffffffffffffffffffffff1681526020019081526020015f2083815481106146565761465561583a565b5b905f5260205f209060050201600301548173ffffffffffffffffffffffffffffffffffffffff1663dd62ed3e33306040518363ffffffff1660e01b81526004016146a19291906158a6565b602060405180830381865afa1580156146bc573d5f803e3d5ffd5b505050506040513d601f19601f820116820180604052508101906146e0919061587b565b10156146ea575f80fd5b8073ffffffffffffffffffffffffffffffffffffffff166323b872dd33865f808973ffffffffffffffffffffffffffffffffffffffff1673ffffffffffffffffffffffffffffffffffffffff1681526020019081526020015f2087815481106147565761475561583a565b5b905f5260205f209060050201600301546040518463ffffffff1660e01b8152600401614784939291906158cd565b6020604051808303815f875af11580156147a0573d5f803e3d5ffd5b505050506040513d601f19601f820116820180604052508101906147c4919061592c565b5060015f808673ffffffffffffffffffffffffffffffffffffffff1673ffffffffffffffffffffffffffffffffffffffff1681526020019081526020015f2084815481106148155761481461583a565b5b905f5260205f2090600502016004015f6101000a81548160ff0219169083151502179055507faef3fec0890a84ad1cfab292c8504f17278c9b35213257cbc2c572cc622ae015845f808773ffffffffffffffffffffffffffffffffffffffff1673ffffffffffffffffffffffffffffffffffffffff1681526020019081526020015f2085815481106148aa576148a961583a565b5b905f5260205f2090600502015f015f9054906101000a900473ffffffffffffffffffffffffffffffffffffffff165f808873ffffffffffffffffffffffffffffffffffffffff1673ffffffffffffffffffffffffffffffffffffffff1681526020019081526020015f2086815481106149265761492561583a565b5b905f5260205f209060050201600101545f808973ffffffffffffffffffffffffffffffffffffffff1673ffffffffffffffffffffffffffffffffffffffff1681526020019081526020015f2087815481106149845761498361583a565b5b905f5260205f2090600502016002015f9054906101000a900473ffffffffffffffffffffffffffffffffffffffff165f808a73ffffffffffffffffffffffffffffffffffffffff1673ffffffffffffffffffffffffffffffffffffffff1681526020019081526020015f208881548110614a0157614a0061583a565b5b905f5260205f20906005020160030154604051614a22959493929190615b6a565b60405180910390a150505050565b8173ffffffffffffffffffffffffffffffffffffffff163373ffffffffffffffffffffffffffffffffffffffff1614614a67575f80fd5b5f151560025f8473ffffffffffffffffffffffffffffffffffffffff1673ffffffffffffffffffffffffffffffffffffffff1681526020019081526020015f208281548110614ab957614ab861583a565b5b905f5260205f2090600402016003015f9054906101000a900460ff16151514614ae0575f80fd5b600160025f8473ffffffffffffffffffffffffffffffffffffffff1673ffffffffffffffffffffffffffffffffffffffff1681526020019081526020015f208281548110614b3157614b3061583a565b5b905f5260205f2090600402016003015f6101000a81548160ff0219169083151502179055505f3373ffffffffffffffffffffffffffffffffffffffff1660025f8573ffffffffffffffffffffffffffffffffffffffff1673ffffffffffffffffffffffffffffffffffffffff1681526020019081526020015f208381548110614bbd57614bbc61583a565b5b905f5260205f2090600402015f0154604051614bd890615984565b5f6040518083038185875af1925050503d805f8114614c12576040519150601f19603f3d011682016040523d82523d5f602084013e614c17565b606091505b5050905080614c5b576040517f08c379a0000000000000000000000000000000000000000000000000000000008152600401614c52906159f2565b60405180910390fd5b7f6fd78ca7acca4f76ea5834af9a37b74bbd249dbadf5360eeecb4a3a9b762dfff8360025f8673ffffffffffffffffffffffffffffffffffffffff1673ffffffffffffffffffffffffffffffffffffffff1681526020019081526020015f208481548110614ccc57614ccb61583a565b5b905f5260205f2090600402015f015460025f8773ffffffffffffffffffffffffffffffffffffffff1673ffffffffffffffffffffffffffffffffffffffff1681526020019081526020015f208581548110614d2a57614d2961583a565b5b905f5260205f2090600402016001015f9054906101000a900473ffffffffffffffffffffffffffffffffffffffff1660025f8873ffffffffffffffffffffffffffffffffffffffff1673ffffffffffffffffffffffffffffffffffffffff1681526020019081526020015f208681548110614da857614da761583a565b5b905f5260205f20906004020160020154604051614dc89493929190615a10565b60405180910390a1505050565b60038181548110614de4575f80fd5b905f5260205f20015f915054906101000a900473ffffffffffffffffffffffffffffffffffffffff1681565b60405180606001604052806060815260200160608152602001606081525090565b6040518060e001604052805f73ffffffffffffffffffffffffffffffffffffffff1681526020015f81526020015f73ffffffffffffffffffffffffffffffffffffffff1681526020015f81526020015f73ffffffffffffffffffffffffffffffffffffffff1681526020015f81526020015f151581525090565b6040518060c001604052805f73ffffffffffffffffffffffffffffffffffffffff1681526020015f81526020015f73ffffffffffffffffffffffffffffffffffffffff1681526020015f81526020015f81526020015f151581525090565b6040518060c001604052805f73ffffffffffffffffffffffffffffffffffffffff1681526020015f81526020015f81526020015f73ffffffffffffffffffffffffffffffffffffffff1681526020015f81526020015f151581525090565b60405180606001604052806060815260200160608152602001606081525090565b5f81519050919050565b5f82825260208201905092915050565b5f819050602082019050919050565b5f73ffffffffffffffffffffffffffffffffffffffff82169050919050565b5f614fda82614fb1565b9050919050565b614fea81614fd0565b82525050565b5f614ffb8383614fe1565b60208301905092915050565b5f602082019050919050565b5f61501d82614f88565b6150278185614f92565b935061503283614fa2565b805f5b838110156150625781516150498882614ff0565b975061505483615007565b925050600181019050615035565b5085935050505092915050565b5f6020820190508181035f8301526150878184615013565b905092915050565b5f80fd5b61509c81614fd0565b81146150a6575f80fd5b50565b5f813590506150b781615093565b92915050565b5f819050919050565b6150cf816150bd565b81146150d9575f80fd5b50565b5f813590506150ea816150c6565b92915050565b5f80604083850312156151065761510561508f565b5b5f615113858286016150a9565b9250506020615124858286016150dc565b9150509250929050565b61513781614fd0565b82525050565b615146816150bd565b82525050565b5f8115159050919050565b6151608161514c565b82525050565b5f6080820190506151795f83018761512e565b615186602083018661513d565b615193604083018561513d565b6151a06060830184615157565b95945050505050565b5f60a0820190506151bc5f83018861512e565b6151c9602083018761513d565b6151d6604083018661512e565b6151e3606083018561513d565b6151f06080830184615157565b9695505050505050565b5f6020828403121561520f5761520e61508f565b5b5f61521c848285016150a9565b91505092915050565b5f81519050919050565b5f82825260208201905092915050565b5f819050602082019050919050565b615257816150bd565b82525050565b6152668161514c565b82525050565b60e082015f8201516152805f850182614fe1565b506020820151615293602085018261524e565b5060408201516152a66040850182614fe1565b5060608201516152b9606085018261524e565b5060808201516152cc6080850182614fe1565b5060a08201516152df60a085018261524e565b5060c08201516152f260c085018261525d565b50505050565b5f615303838361526c565b60e08301905092915050565b5f602082019050919050565b5f61532582615225565b61532f818561522f565b935061533a8361523f565b805f5b8381101561536a57815161535188826152f8565b975061535c8361530f565b92505060018101905061533d565b5085935050505092915050565b5f81519050919050565b5f82825260208201905092915050565b5f819050602082019050919050565b60c082015f8201516153b45f850182614fe1565b5060208201516153c7602085018261524e565b5060408201516153da6040850182614fe1565b5060608201516153ed606085018261524e565b506080820151615400608085018261524e565b5060a082015161541360a085018261525d565b50505050565b5f61542483836153a0565b60c08301905092915050565b5f602082019050919050565b5f61544682615377565b6154508185615381565b935061545b83615391565b805f5b8381101561548b5781516154728882615419565b975061547d83615430565b92505060018101905061545e565b5085935050505092915050565b5f81519050919050565b5f82825260208201905092915050565b5f819050602082019050919050565b60c082015f8201516154d55f850182614fe1565b5060208201516154e8602085018261524e565b5060408201516154fb604085018261524e565b50606082015161550e6060850182614fe1565b506080820151615521608085018261524e565b5060a082015161553460a085018261525d565b50505050565b5f61554583836154c1565b60c08301905092915050565b5f602082019050919050565b5f61556782615498565b61557181856154a2565b935061557c836154b2565b805f5b838110156155ac578151615593888261553a565b975061559e83615551565b92505060018101905061557f565b5085935050505092915050565b5f606083015f8301518482035f8601526155d3828261531b565b915050602083015184820360208601526155ed828261543c565b91505060408301518482036040860152615607828261555d565b9150508091505092915050565b5f6020820190508181035f83015261562c81846155b9565b905092915050565b5f805f6060848603121561564b5761564a61508f565b5b5f615658868287016150a9565b9350506020615669868287016150dc565b925050604061567a868287016150dc565b9150509250925092565b5f805f806080858703121561569c5761569b61508f565b5b5f6156a9878288016150a9565b94505060206156ba878288016150dc565b93505060406156cb878288016150a9565b92505060606156dc878288016150dc565b91505092959194509250565b5f805f606084860312156156ff576156fe61508f565b5b5f61570c868287016150dc565b935050602061571d868287016150a9565b925050604061572e868287016150dc565b9150509250925092565b5f60808201905061574b5f83018761513d565b615758602083018661512e565b615765604083018561513d565b6157726060830184615157565b95945050505050565b5f606083015f8301518482035f860152615795828261531b565b915050602083015184820360208601526157af828261543c565b915050604083015184820360408601526157c9828261555d565b9150508091505092915050565b5f6020820190508181035f8301526157ee818461577b565b905092915050565b5f6020828403121561580b5761580a61508f565b5b5f615818848285016150dc565b91505092915050565b5f6020820190506158345f83018461512e565b92915050565b7f4e487b71000000000000000000000000000000000000000000000000000000005f52603260045260245ffd5b5f81519050615875816150c6565b92915050565b5f602082840312156158905761588f61508f565b5b5f61589d84828501615867565b91505092915050565b5f6040820190506158b95f83018561512e565b6158c6602083018461512e565b9392505050565b5f6060820190506158e05f83018661512e565b6158ed602083018561512e565b6158fa604083018461513d565b949350505050565b61590b8161514c565b8114615915575f80fd5b50565b5f8151905061592681615902565b92915050565b5f602082840312156159415761594061508f565b5b5f61594e84828501615918565b91505092915050565b5f81905092915050565b50565b5f61596f5f83615957565b915061597a82615961565b5f82019050919050565b5f61598e82615964565b9150819050919050565b5f82825260208201905092915050565b7f4661696c656420746f2073656e642045746865720000000000000000000000005f82015250565b5f6159dc601483615998565b91506159e7826159a8565b602082019050919050565b5f6020820190508181035f830152615a09816159d0565b9050919050565b5f608082019050615a235f83018761512e565b615a30602083018661513d565b615a3d604083018561512e565b615a4a606083018461513d565b95945050505050565b7f4e487b71000000000000000000000000000000000000000000000000000000005f52604160045260245ffd5b7f4e487b71000000000000000000000000000000000000000000000000000000005f52601160045260245ffd5b5f615ab7826150bd565b9150615ac2836150bd565b9250828201905080821115615ada57615ad9615a80565b5b92915050565b5f615aea826150bd565b91507fffffffffffffffffffffffffffffffffffffffffffffffffffffffffffffffff8203615b1c57615b1b615a80565b5b600182019050919050565b5f608082019050615b3a5f83018761512e565b615b47602083018661512e565b615b54604083018561513d565b615b61606083018461513d565b95945050505050565b5f60a082019050615b7d5f83018861512e565b615b8a602083018761512e565b615b97604083018661513d565b615ba4606083018561512e565b615bb1608083018461513d565b969550505050505056fea2646970667358221220fb788b76849c6f510b6e5341f2502071a2bf81eaba32f5d69cc1cfe82e12fd9c64736f6c63430008140033",
  "immutableReferences": {},
  "source": "// SPDX-License-Identifier: UNLICENSED\npragma solidity ^0.8.20;\n\nimport \"@openzeppelin/contracts/token/ERC20/ERC20.sol\";\n\ncontract Dex {\n  event EventAddToDexTradeTokensForTokens (\n    address sender,\n    address tradingTokenAddress,\n    uint tradingTokenAmount,\n    address tradingForTokenAddress,\n    uint tradingForTokenAmount\n  );\n\n  event EventAddToDexTradeTokensForEth (\n    address sender,\n    address tradingTokenAddress,\n    uint tradingTokenAmount,\n    uint tradingForEthAmount\n  );\n\n  event EventAddToDexTradeEthForTokens (\n    address sender,\n    uint tradingEthAmount,\n    address tradingForTokenAddress,\n    uint tradingForTokenAmount\n  );\n\n  event EventTradeTokensForTokens (\n    address sender,\n    address tradingTokenAddress,\n    uint tradingTokenAmount,\n    address tradingForTokenAddress,\n    uint tradingForTokenAmount\n  );\n\n  event EventTradeTokensForEth (\n    address sender,\n    address tradingTokenAddress,\n    uint tradingTokenAmount,\n    uint tradingForEthAmount\n  );\n\n  event EventTradeEthForTokens (\n    address sender,\n    uint tradingEthAmount,\n    address tradingForTokenAddress,\n    uint tradingForTokenAmount\n  );\n\n  event EventCanceledTradeTokensForTokens (\n    address sender,\n    address tradingTokenAddress,\n    uint tradingTokenAmount,\n    address tradingForTokenAddress,\n    uint tradingForTokenAmount\n  );\n\n  event EventCanceledTradeTokensForEth (\n    address sender,\n    address tradingTokenAddress,\n    uint tradingTokenAmount,\n    uint tradingForEthAmount\n  );\n\n  event EventCanceledTradeEthForTokens (\n    address sender,\n    uint tradingEthAmount,\n    address tradingForTokenAddress,\n    uint tradingForTokenAmount\n  );\n\n  struct TradeTokensForTokens {\n    address tradingTokenAddress;\n    uint tradingTokenAmount;\n    address tradingForTokenAddress;\n    uint tradingForTokenAmount;\n    bool alreadyTraded;\n  }\n\n  struct TradeTokensForEth {\n    address tradingTokenAddress;\n    uint tradingTokenAmount;\n    uint tradingForEthAmount;\n    bool alreadyTraded;\n  }\n\n  struct TradeEthForTokens {\n    uint tradingEthAmount;\n    address tradingForTokenAddress;\n    uint tradingForTokenAmount;\n    bool alreadyTraded;\n  }\n\n  /* TradeTokensForTokens[] public tradeTokensForTokensArr;\n  TradeTokensForEth[] public tradeTokensForEthArr;\n  TradeEthForTokens[] public tradeEthForTokensArr; */\n\n  mapping(address => TradeTokensForTokens[]) public tradesOfTokensForTokensOfAnAddress;\n  mapping(address => TradeTokensForEth[]) public tradesOfTokensForEthOfAnAddress;\n  mapping(address => TradeEthForTokens[]) public tradesOfEthForTokensOfAnAddress;\n\n  struct TradeCategoriesOfDexUser {\n    bool tradeTokensForTokens;\n    bool tradeTokensForEth;\n    bool tradeEthForTokens;\n  }\n\n  address[] public dexUsersArr;\n  mapping(address => TradeCategoriesOfDexUser) dexUsersMapping;\n\n  address owner;\n\n  constructor() {\n    owner = msg.sender;\n  }\n\n  function addTokensToDexForTradeWithOtherTokens(\n    address tradingTokenAddress,\n    uint tradingTokenAmount,\n    address tradingForTokenAddress,\n    uint tradingForTokenAmount) public {\n\n    ERC20 tradingErc20 = ERC20(tradingTokenAddress);\n\n    uint totalAllowanceRequired = tradingTokenAmount;\n    TradeTokensForTokens[] memory tradeTokensForTokensArrForAddress\n      = tradesOfTokensForTokensOfAnAddress[msg.sender];\n\n    TradeTokensForEth[] memory tradeTokensForEthArrForAddress\n      = tradesOfTokensForEthOfAnAddress[msg.sender];\n\n    if (dexUsersMapping[msg.sender].tradeTokensForTokens == true) {\n      for (uint i = 0; i < tradeTokensForTokensArrForAddress.length; i++) {\n        if (tradeTokensForTokensArrForAddress[i].tradingTokenAddress == tradingTokenAddress\n            && tradeTokensForTokensArrForAddress[i].alreadyTraded == false) {\n          totalAllowanceRequired = tradeTokensForTokensArrForAddress[i].tradingTokenAmount + totalAllowanceRequired;\n        }\n      }\n    }\n\n    if (dexUsersMapping[msg.sender].tradeTokensForEth == true) {\n      for (uint i = 0; i < tradeTokensForEthArrForAddress.length; i++) {\n        if (tradeTokensForEthArrForAddress[i].tradingTokenAddress == tradingTokenAddress\n            && tradeTokensForEthArrForAddress[i].alreadyTraded == false) {\n          totalAllowanceRequired = tradeTokensForEthArrForAddress[i].tradingTokenAmount + totalAllowanceRequired;\n        }\n      }\n    }\n\n    require(tradingErc20.allowance(msg.sender, address(this)) >= totalAllowanceRequired);\n    require(tradingErc20.balanceOf(msg.sender) >= totalAllowanceRequired);\n\n    /* require(tradingErc20.allowance(msg.sender, address(this)) == newAllowance); */\n\n    tradesOfTokensForTokensOfAnAddress[msg.sender].push(\n      TradeTokensForTokens(\n        tradingTokenAddress,\n        tradingTokenAmount,\n        tradingForTokenAddress,\n        tradingForTokenAmount,\n        false\n    ));\n\n    emit EventAddToDexTradeTokensForTokens(\n      msg.sender,\n      tradingTokenAddress,\n      tradingTokenAmount,\n      tradingForTokenAddress,\n      tradingForTokenAmount\n    );\n\n    if (dexUsersMapping[msg.sender].tradeTokensForTokens == false &&\n        dexUsersMapping[msg.sender].tradeTokensForEth == false &&\n        dexUsersMapping[msg.sender].tradeEthForTokens == false) {\n          dexUsersArr.push(msg.sender);\n          dexUsersMapping[msg.sender].tradeTokensForTokens = true;\n\n    } else if (dexUsersMapping[msg.sender].tradeTokensForTokens == false) {\n      dexUsersMapping[msg.sender].tradeTokensForTokens = true;\n    }\n  }\n\n  function addTokensToDexForTradeWithEth(\n    address tradingTokenAddress,\n    uint tradingTokenAmount,\n    uint tradingForEthAmount) public {\n\n    ERC20 tradingErc20 = ERC20(tradingTokenAddress);\n\n    uint totalAllowanceRequired = tradingTokenAmount;\n\n    TradeTokensForTokens[] memory tradeTokensForTokensArrForAddress\n      = tradesOfTokensForTokensOfAnAddress[msg.sender];\n\n    TradeTokensForEth[] memory tradeTokensForEthArrForAddress\n      = tradesOfTokensForEthOfAnAddress[msg.sender];\n\n    if (dexUsersMapping[msg.sender].tradeTokensForTokens == true) {\n      for (uint i = 0; i < tradeTokensForTokensArrForAddress.length; i++) {\n        if (tradeTokensForTokensArrForAddress[i].tradingTokenAddress == tradingTokenAddress\n            && tradeTokensForTokensArrForAddress[i].alreadyTraded == false) {\n          totalAllowanceRequired = tradeTokensForTokensArrForAddress[i].tradingTokenAmount + totalAllowanceRequired;\n        }\n      }\n    }\n\n    if (dexUsersMapping[msg.sender].tradeTokensForEth == true) {\n      for (uint i = 0; i < tradeTokensForEthArrForAddress.length; i++) {\n        if (tradeTokensForEthArrForAddress[i].tradingTokenAddress == tradingTokenAddress\n            && tradeTokensForEthArrForAddress[i].alreadyTraded == false) {\n          totalAllowanceRequired = tradeTokensForEthArrForAddress[i].tradingTokenAmount + totalAllowanceRequired;\n        }\n      }\n    }\n\n    /* for (uint i = 0; i < tradeTokensForEthArrForAddress.length; i++) {\n      if (tradeTokensForEthArrForAddress[i].tradingTokenAddress == tradingTokenAddress) {\n        totalAllowanceRequired = tradeTokensForEthArrForAddress[i].tradingTokenAmount + totalAllowanceRequired;\n      }\n    } */\n\n    require(tradingErc20.allowance(msg.sender, address(this)) >= totalAllowanceRequired);\n    require(tradingErc20.balanceOf(msg.sender) >= totalAllowanceRequired);\n\n    tradesOfTokensForEthOfAnAddress[msg.sender].push(\n      TradeTokensForEth(\n        tradingTokenAddress,\n        tradingTokenAmount,\n        tradingForEthAmount,\n        false\n    ));\n\n    emit EventAddToDexTradeTokensForEth(\n      msg.sender,\n      tradingTokenAddress,\n      tradingTokenAmount,\n      tradingForEthAmount\n    );\n\n    if (dexUsersMapping[msg.sender].tradeTokensForTokens == false &&\n        dexUsersMapping[msg.sender].tradeTokensForEth == false &&\n        dexUsersMapping[msg.sender].tradeEthForTokens == false) {\n          dexUsersArr.push(msg.sender);\n          dexUsersMapping[msg.sender].tradeTokensForEth = true;\n\n    } else if (dexUsersMapping[msg.sender].tradeTokensForEth == false) {\n      dexUsersMapping[msg.sender].tradeTokensForEth = true;\n    }\n  }\n\n  function addEthToDexForTradeWithTokens(\n    uint tradingEthAmount,\n    address tradingForTokenAddress,\n    uint tradingForTokenAmount) public payable {\n\n    require(msg.value == tradingEthAmount);\n\n    tradesOfEthForTokensOfAnAddress[msg.sender].push(\n      TradeEthForTokens(\n        tradingEthAmount,\n        tradingForTokenAddress,\n        tradingForTokenAmount,\n        false\n    ));\n\n    emit EventAddToDexTradeEthForTokens(\n      msg.sender,\n      tradingEthAmount,\n      tradingForTokenAddress,\n      tradingForTokenAmount\n    );\n\n    if (dexUsersMapping[msg.sender].tradeTokensForTokens == false &&\n        dexUsersMapping[msg.sender].tradeTokensForEth == false &&\n        dexUsersMapping[msg.sender].tradeEthForTokens == false) {\n          dexUsersArr.push(msg.sender);\n          dexUsersMapping[msg.sender].tradeEthForTokens = true;\n\n    } else if (dexUsersMapping[msg.sender].tradeEthForTokens == false) {\n      dexUsersMapping[msg.sender].tradeEthForTokens = true;\n    }\n  }\n\n  /* function updateTokensToDexForTradeWithOtherTokens(\n    uint indexOfTrade,\n    address tradingTokenAddress,\n    uint tradingTokenAmount,\n    address tradingForTokenAddress,\n    uint tradingForTokenAmount\n  ) public {\n\n    ERC20 tradingErc20 = ERC20(tradingTokenAddress);\n\n    uint totalAllowanceRequired = tradingTokenAmount;\n    TradeTokensForTokens[] memory tradeTokensForTokensArrForAddress\n      = tradesOfTokensForTokensOfAnAddress[msg.sender];\n\n    for (uint i = 0; i < tradeTokensForTokensArrForAddress.length; i++) {\n      if (tradeTokensForTokensArrForAddress[i].tradingTokenAddress == tradingTokenAddress\n          && tradeTokensForTokensArrForAddress[i].alreadyTraded == false\n          && i != indexOfTrade) {\n        totalAllowanceRequired = tradeTokensForTokensArrForAddress[i].tradingTokenAmount + totalAllowanceRequired;\n      }\n    }\n\n    require(tradingErc20.allowance(msg.sender, address(this)) >= totalAllowanceRequired);\n    require(tradingErc20.balanceOf(msg.sender) >= totalAllowanceRequired);\n\n    tradesOfTokensForTokensOfAnAddress[msg.sender][indexOfTrade].tradingTokenAddress = tradingTokenAddress;\n    tradesOfTokensForTokensOfAnAddress[msg.sender][indexOfTrade].tradingTokenAmount = tradingTokenAmount;\n    tradesOfTokensForTokensOfAnAddress[msg.sender][indexOfTrade].tradingForTokenAddress = tradingForTokenAddress;\n    tradesOfTokensForTokensOfAnAddress[msg.sender][indexOfTrade].tradingForTokenAmount = tradingForTokenAmount;\n  }\n\n  function updateTokensToDexForTradeWithEth(\n    uint indexOfTrade,\n    address tradingTokenAddress,\n    uint tradingTokenAmount,\n    uint tradingForEthAmount\n  ) public {\n    ERC20 tradingErc20 = ERC20(tradingTokenAddress);\n\n    uint totalAllowanceRequired = tradingTokenAmount;\n\n    TradeTokensForEth[] memory tradeTokensForEthArrForAddress\n      = tradesOfTokensForEthOfAnAddress[msg.sender];\n\n    for (uint i = 0; i < tradeTokensForEthArrForAddress.length; i++) {\n      if (tradeTokensForEthArrForAddress[i].tradingTokenAddress == tradingTokenAddress\n          && tradeTokensForEthArrForAddress[i].alreadyTraded == false\n          && i != indexOfTrade) {\n        totalAllowanceRequired = tradeTokensForEthArrForAddress[i].tradingTokenAmount + totalAllowanceRequired;\n      }\n    }\n\n    require(tradingErc20.allowance(msg.sender, address(this)) >= totalAllowanceRequired);\n    require(tradingErc20.balanceOf(msg.sender) >= totalAllowanceRequired);\n\n    tradesOfTokensForEthOfAnAddress[msg.sender][indexOfTrade].tradingTokenAddress = tradingTokenAddress;\n    tradesOfTokensForEthOfAnAddress[msg.sender][indexOfTrade].tradingTokenAmount = tradingTokenAmount;\n    tradesOfTokensForEthOfAnAddress[msg.sender][indexOfTrade].tradingForEthAmount = tradingForEthAmount;\n  }\n\n  function updateEthToDexForTradeWithTokens(\n    uint indexOfTrade,\n    uint tradingEthAmount,\n    address tradingForTokenAddress,\n    uint tradingForTokenAmount\n  ) public payable {\n\n    uint amountOfEthAlreadyInDex = tradesOfEthForTokensOfAnAddress[msg.sender][indexOfTrade].tradingEthAmount;\n\n    if (tradingEthAmount - amountOfEthAlreadyInDex > 0) {\n      require(msg.value == tradingEthAmount - amountOfEthAlreadyInDex);\n    } else if (tradingEthAmount - amountOfEthAlreadyInDex < 0) {\n      (bool sent,) = msg.sender.call{value: amountOfEthAlreadyInDex - tradingEthAmount}(\"\");\n      require(sent, \"Failed to send Ether\");\n    }\n\n    tradesOfEthForTokensOfAnAddress[msg.sender][indexOfTrade].tradingEthAmount = tradingEthAmount;\n    tradesOfEthForTokensOfAnAddress[msg.sender][indexOfTrade].tradingForTokenAddress = tradingForTokenAddress;\n    tradesOfEthForTokensOfAnAddress[msg.sender][indexOfTrade].tradingForTokenAmount = tradingForTokenAmount;\n  } */\n\n  /* struct TradeTokensForTokens {\n    address sender;\n    uint tradingTokenAddress;\n    uint tradingTokenAmount;\n    uint tradingForTokenAddress;\n    uint tradingForTokenAmount;\n    bool alreadyTraded;\n  } */\n\n  /* address tradingTokenAddress = tradesOfTokensForTokensOfAnAddress[sender][indexOfTrade].tradingTokenAddress;\n  uint tradingTokenAmount = tradesOfTokensForTokensOfAnAddress[sender][indexOfTrade].tradingTokenAmount;\n  address tradingForTokenAddress = tradesOfTokensForTokensOfAnAddress[sender][indexOfTrade].tradingForTokenAddress;\n  uint tradingForTokenAmount = tradesOfTokensForTokensOfAnAddress[sender][indexOfTrade].tradingForTokenAmount; */\n\n  function buyTokensFromOtherTokens(address sender, uint indexOfTrade) public {\n    require(tradesOfTokensForTokensOfAnAddress[sender][indexOfTrade].alreadyTraded != true);\n\n    ERC20 tradingErc20 = ERC20(tradesOfTokensForTokensOfAnAddress[sender][indexOfTrade].tradingTokenAddress);\n    tradingErc20.transferFrom(sender, msg.sender, tradesOfTokensForTokensOfAnAddress[sender][indexOfTrade].tradingTokenAmount);\n\n    ERC20 tradingForErc20 = ERC20(tradesOfTokensForTokensOfAnAddress[sender][indexOfTrade].tradingForTokenAddress);\n\n    require(tradingForErc20.balanceOf(msg.sender) >= tradesOfTokensForTokensOfAnAddress[sender][indexOfTrade].tradingForTokenAmount);\n    require(tradingForErc20.allowance(msg.sender, address(this)) >= tradesOfTokensForTokensOfAnAddress[sender][indexOfTrade].tradingForTokenAmount);\n\n    tradingForErc20.transferFrom(msg.sender, sender, tradesOfTokensForTokensOfAnAddress[sender][indexOfTrade].tradingForTokenAmount);\n\n    tradesOfTokensForTokensOfAnAddress[sender][indexOfTrade].alreadyTraded = true;\n\n    emit EventTradeTokensForTokens(\n      sender,\n      tradesOfTokensForTokensOfAnAddress[sender][indexOfTrade].tradingTokenAddress,\n      tradesOfTokensForTokensOfAnAddress[sender][indexOfTrade].tradingTokenAmount,\n      tradesOfTokensForTokensOfAnAddress[sender][indexOfTrade].tradingForTokenAddress,\n      tradesOfTokensForTokensOfAnAddress[sender][indexOfTrade].tradingForTokenAmount\n    );\n  }\n\n  /* event TradeTokensForTokens (\n    address sender,\n    address tradingTokenAddress,\n    uint tradingTokenAmount,\n    address tradingForTokenAddress,\n    uint tradingForTokenAmount\n  ) */\n\n  // TradeTokensForEth\n\n  /* struct TradeTokensForEth {\n    address sender;\n    uint tradingTokenAddress;\n    uint tradingTokenAmount;\n    uint tradingForEthAmount;\n    bool alreadyTraded;\n  } */\n\n  /* address tradingTokenAddress = tradesOfTokensForEthOfAnAddress[sender][indexOfTrade].tradingTokenAddress;\n  uint tradingTokenAmount = tradesOfTokensForEthOfAnAddress[sender][indexOfTrade].tradingTokenAmount;\n  uint tradingForEthAmount = tradesOfTokensForEthOfAnAddress[sender][indexOfTrade].tradingForEthAmount; */\n\n  function buyTokensForEth(address sender, uint indexOfTrade) public payable {\n    require(tradesOfTokensForEthOfAnAddress[sender][indexOfTrade].alreadyTraded != true);\n\n    ERC20 tradingErc20 = ERC20(tradesOfTokensForEthOfAnAddress[sender][indexOfTrade].tradingTokenAddress);\n    tradingErc20.transferFrom(sender, msg.sender, tradesOfTokensForEthOfAnAddress[sender][indexOfTrade].tradingTokenAmount);\n\n    require(msg.value == tradesOfTokensForEthOfAnAddress[sender][indexOfTrade].tradingForEthAmount);\n\n    (bool sent,) = sender.call{value: msg.value}(\"\");\n    require(sent, \"Failed to send Ether\");\n\n    tradesOfTokensForEthOfAnAddress[sender][indexOfTrade].alreadyTraded = true;\n\n    emit EventTradeTokensForEth(\n      sender,\n      tradesOfTokensForEthOfAnAddress[sender][indexOfTrade].tradingTokenAddress,\n      tradesOfTokensForEthOfAnAddress[sender][indexOfTrade].tradingTokenAmount,\n      tradesOfTokensForEthOfAnAddress[sender][indexOfTrade].tradingForEthAmount\n    );\n  }\n\n  /* event TradeTokensForEth (\n    address sender,\n    address tradingTokenAddress,\n    uint tradingTokenAmount,\n    uint tradingForEthAmount\n  ); */\n\n  // TradeEthForTokens\n\n  /* struct TradeEthForTokens {\n    address sender;\n    uint tradingEthAmount;\n    uint tradingForTokenAddress;\n    uint tradingForTokenAmount;\n    bool alreadyTraded;\n  } */\n\n  /* uint tradingEthAmount = tradesOfEthForTokensOfAnAddress[sender][indexOfTrade].tradingEthAmount;\n  address tradingForTokenAddress = tradesOfEthForTokensOfAnAddress[sender][indexOfTrade].tradingForTokenAddress;\n  uint tradingForTokenAmount = tradesOfEthForTokensOfAnAddress[sender][indexOfTrade].tradingForTokenAmount; */\n\n  function buyEthForTokens(address sender, uint indexOfTrade) public payable {\n    require(tradesOfEthForTokensOfAnAddress[sender][indexOfTrade].alreadyTraded != true);\n\n    ERC20 tradingForErc20 = ERC20(tradesOfEthForTokensOfAnAddress[sender][indexOfTrade].tradingForTokenAddress);\n    require(tradingForErc20.balanceOf(msg.sender) >= tradesOfEthForTokensOfAnAddress[sender][indexOfTrade].tradingForTokenAmount);\n\n    require(tradingForErc20.allowance(msg.sender, address(this)) >= tradesOfEthForTokensOfAnAddress[sender][indexOfTrade].tradingForTokenAmount);\n\n    tradingForErc20.transferFrom(msg.sender, sender, tradesOfEthForTokensOfAnAddress[sender][indexOfTrade].tradingForTokenAmount);\n\n    (bool sent,) = payable(msg.sender).call{value: tradesOfEthForTokensOfAnAddress[sender][indexOfTrade].tradingEthAmount}(\"\");\n    require(sent, \"Failed to send Ether\");\n\n    tradesOfEthForTokensOfAnAddress[sender][indexOfTrade].alreadyTraded = true;\n\n    emit EventTradeEthForTokens(\n      sender,\n      tradesOfEthForTokensOfAnAddress[sender][indexOfTrade].tradingEthAmount,\n      tradesOfEthForTokensOfAnAddress[sender][indexOfTrade].tradingForTokenAddress,\n      tradesOfEthForTokensOfAnAddress[sender][indexOfTrade].tradingForTokenAmount\n    );\n  }\n\n  /* struct TradeTokensForTokens {\n    address sender;\n    uint tradingTokenAddress;\n    uint tradingTokenAmount;\n    uint tradingForTokenAddress;\n    uint tradingForTokenAmount;\n    bool alreadyTraded;\n  } */\n\n  /* address tradingTokenAddress = tradesOfTokensForTokensOfAnAddress[sender][indexOfTrade].tradingTokenAddress;\n  uint tradingTokenAmount = tradesOfTokensForTokensOfAnAddress[sender][indexOfTrade].tradingTokenAmount;\n  address tradingForTokenAddress = tradesOfTokensForTokensOfAnAddress[sender][indexOfTrade].tradingForTokenAddress;\n  uint tradingForTokenAmount = tradesOfTokensForTokensOfAnAddress[sender][indexOfTrade].tradingForTokenAmount; */\n\n  function cancelTradeForTokensWithTokens(address sender, uint indexOfTrade) public {\n    require(msg.sender == sender);\n    require(tradesOfTokensForTokensOfAnAddress[sender][indexOfTrade].alreadyTraded == false);\n\n    tradesOfTokensForTokensOfAnAddress[sender][indexOfTrade].alreadyTraded = true;\n\n    emit EventCanceledTradeTokensForTokens(\n      sender,\n      tradesOfTokensForTokensOfAnAddress[sender][indexOfTrade].tradingTokenAddress,\n      tradesOfTokensForTokensOfAnAddress[sender][indexOfTrade].tradingTokenAmount,\n      tradesOfTokensForTokensOfAnAddress[sender][indexOfTrade].tradingForTokenAddress,\n      tradesOfTokensForTokensOfAnAddress[sender][indexOfTrade].tradingForTokenAmount\n    );\n  }\n\n  /* struct TradeTokensForEth {\n    address sender;\n    uint tradingTokenAddress;\n    uint tradingTokenAmount;\n    uint tradingForEthAmount;\n    bool alreadyTraded;\n  } */\n\n  /* address tradingTokenAddress = tradesOfTokensForEthOfAnAddress[sender][indexOfTrade].tradingTokenAddress;\n  uint tradingTokenAmount = tradesOfTokensForEthOfAnAddress[sender][indexOfTrade].tradingTokenAmount;\n  uint tradingForEthAmount = tradesOfTokensForEthOfAnAddress[sender][indexOfTrade].tradingForEthAmount; */\n\n  function cancelTradeForTokensWithEth(address sender, uint indexOfTrade) public {\n    require(msg.sender == sender);\n    require(tradesOfTokensForEthOfAnAddress[sender][indexOfTrade].alreadyTraded == false);\n\n    tradesOfTokensForEthOfAnAddress[sender][indexOfTrade].alreadyTraded = true;\n\n    emit EventCanceledTradeTokensForEth(\n      sender,\n      tradesOfTokensForEthOfAnAddress[sender][indexOfTrade].tradingTokenAddress,\n      tradesOfTokensForEthOfAnAddress[sender][indexOfTrade].tradingTokenAmount,\n      tradesOfTokensForEthOfAnAddress[sender][indexOfTrade].tradingForEthAmount\n    );\n  }\n\n  /* struct TradeEthForTokens {\n    address sender;\n    uint tradingEthAmount;\n    address tradingForTokenAddress;\n    uint tradingForTokenAmount;\n    bool alreadyTraded;\n  } */\n\n  /* uint tradingEthAmount = tradesOfEthForTokensOfAnAddress[sender][indexOfTrade].tradingEthAmount;\n  address tradingForTokenAddress = tradesOfEthForTokensOfAnAddress[sender][indexOfTrade].tradingForTokenAddress;\n  uint tradingForTokenAmount = tradesOfEthForTokensOfAnAddress[sender][indexOfTrade].tradingForTokenAmount;\n   */\n\n  function cancelTradeForEthWithTokens(address sender, uint indexOfTrade) public payable {\n    require(msg.sender == sender);\n    require(tradesOfEthForTokensOfAnAddress[sender][indexOfTrade].alreadyTraded == false);\n\n    tradesOfEthForTokensOfAnAddress[sender][indexOfTrade].alreadyTraded = true;\n\n    (bool sent,) = payable(msg.sender).call{value: tradesOfEthForTokensOfAnAddress[sender][indexOfTrade].tradingEthAmount}(\"\");\n    require(sent, \"Failed to send Ether\");\n\n    emit EventCanceledTradeEthForTokens(\n      sender,\n      tradesOfEthForTokensOfAnAddress[sender][indexOfTrade].tradingEthAmount,\n      tradesOfEthForTokensOfAnAddress[sender][indexOfTrade].tradingForTokenAddress,\n      tradesOfEthForTokensOfAnAddress[sender][indexOfTrade].tradingForTokenAmount\n    );\n  }\n\n  struct AllTrades {\n    TradeTokensForTokensForCall[] tradeTokensForTokensForCall;\n    TradeTokensForEthForCall[] tradeTokensForEthForCall;\n    TradeEthForTokensForCall[] tradeEthForTokensForCall;\n  }\n\n  function getAllTrades() public view returns (AllTrades memory) {\n\n    uint amountOfTrades = 0;\n\n    for (uint i = 0; i < dexUsersArr.length; i++) {\n      for (uint j = 0; j < tradesOfTokensForTokensOfAnAddress[dexUsersArr[i]].length; j++) {\n        amountOfTrades = amountOfTrades + 1;\n      }\n    }\n\n    TradeTokensForTokensForCall[] memory tradeTokensForTokensResultArr = new TradeTokensForTokensForCall[](amountOfTrades);\n\n    uint indexOfResultArr = 0;\n\n    for (uint i = 0; i < dexUsersArr.length; i++) {\n      for (uint j = 0; j < tradesOfTokensForTokensOfAnAddress[dexUsersArr[i]].length; j++) {\n        TradeTokensForTokens memory tradeTokensForTokens = tradesOfTokensForTokensOfAnAddress[dexUsersArr[i]][j];\n        TradeTokensForTokensForCall memory tradeTokensForTokensForCall = TradeTokensForTokensForCall (\n          dexUsersArr[i],\n          j,\n          tradeTokensForTokens.tradingTokenAddress,\n          tradeTokensForTokens.tradingTokenAmount,\n          tradeTokensForTokens.tradingForTokenAddress,\n          tradeTokensForTokens.tradingForTokenAmount,\n          tradeTokensForTokens.alreadyTraded\n        );\n\n        tradeTokensForTokensResultArr[indexOfResultArr] = tradeTokensForTokensForCall;\n\n        indexOfResultArr = indexOfResultArr + 1;\n      }\n    }\n\n    amountOfTrades = 0;\n\n    for (uint i = 0; i < dexUsersArr.length; i++) {\n      for (uint j = 0; j < tradesOfTokensForEthOfAnAddress[dexUsersArr[i]].length; j++) {\n        amountOfTrades = amountOfTrades + 1;\n      }\n    }\n\n    TradeTokensForEthForCall[] memory tradeTokensForEthResultArr = new TradeTokensForEthForCall[](amountOfTrades);\n\n    indexOfResultArr = 0;\n\n    for (uint i = 0; i < dexUsersArr.length; i++) {\n      for (uint j = 0; j < tradesOfTokensForEthOfAnAddress[dexUsersArr[i]].length; j++) {\n        TradeTokensForEth memory tradeTokensForEth = tradesOfTokensForEthOfAnAddress[dexUsersArr[i]][j];\n        TradeTokensForEthForCall memory tradeTokensForEthForCall = TradeTokensForEthForCall (\n          dexUsersArr[i],\n          j,\n          tradeTokensForEth.tradingTokenAddress,\n          tradeTokensForEth.tradingTokenAmount,\n          tradeTokensForEth.tradingForEthAmount,\n          tradeTokensForEth.alreadyTraded\n        );\n\n        tradeTokensForEthResultArr[indexOfResultArr] = tradeTokensForEthForCall;\n        indexOfResultArr = indexOfResultArr + 1;\n      }\n    }\n\n    amountOfTrades = 0;\n\n    for (uint i = 0; i < dexUsersArr.length; i++) {\n      for (uint j = 0; j < tradesOfEthForTokensOfAnAddress[dexUsersArr[i]].length; j++) {\n        amountOfTrades = amountOfTrades + 1;\n      }\n    }\n\n    TradeEthForTokensForCall[] memory tradeEthForTokensResultArr = new TradeEthForTokensForCall[](amountOfTrades);\n\n    indexOfResultArr = 0;\n\n    for (uint i = 0; i < dexUsersArr.length; i++) {\n      for (uint j = 0; j < tradesOfEthForTokensOfAnAddress[dexUsersArr[i]].length; j++) {\n        TradeEthForTokens memory tradeEthForTokens = tradesOfEthForTokensOfAnAddress[dexUsersArr[i]][j];\n        TradeEthForTokensForCall memory tradeEthForTokensForCall = TradeEthForTokensForCall (\n          dexUsersArr[i],\n          j,\n          tradeEthForTokens.tradingEthAmount,\n          tradeEthForTokens.tradingForTokenAddress,\n          tradeEthForTokens.tradingForTokenAmount,\n          tradeEthForTokens.alreadyTraded\n        );\n\n        tradeEthForTokensResultArr[indexOfResultArr] = tradeEthForTokensForCall;\n        indexOfResultArr = indexOfResultArr + 1;\n      }\n    }\n\n    AllTrades memory allTrades;\n\n    allTrades.tradeTokensForTokensForCall = tradeTokensForTokensResultArr;\n    allTrades.tradeTokensForEthForCall = tradeTokensForEthResultArr;\n    allTrades.tradeEthForTokensForCall = tradeEthForTokensResultArr;\n\n    return allTrades;\n  }\n\n  struct TradeTokensForTokensForCall {\n    address sender;\n    uint indexOfTradeOfAddress;\n    address tradingTokenAddress;\n    uint tradingTokenAmount;\n    address tradingForTokenAddress;\n    uint tradingForTokenAmount;\n    bool alreadyTraded;\n  }\n\n  /* function getTradesForTokensWithTokens() public view returns (TradeTokensForTokensForCall[] memory) {\n\n    uint amountOfTrades = 0;\n\n    for (uint i = 0; i < dexUsersArr.length; i++) {\n      for (uint j = 0; j < tradesOfTokensForTokensOfAnAddress[dexUsersArr[i]].length; j++) {\n        amountOfTrades = amountOfTrades + 1;\n      }\n    }\n\n    TradeTokensForTokensForCall[] memory tradeTokensForTokensResultArr = new TradeTokensForTokensForCall[](amountOfTrades);\n\n    uint indexOfResultArr = 0;\n\n    for (uint i = 0; i < dexUsersArr.length; i++) {\n      for (uint j = 0; j < tradesOfTokensForTokensOfAnAddress[dexUsersArr[i]].length; j++) {\n        TradeTokensForTokens memory tradeTokensForTokens = tradesOfTokensForTokensOfAnAddress[dexUsersArr[i]][j];\n        TradeTokensForTokensForCall memory tradeTokensForTokensForCall = TradeTokensForTokensForCall (\n          dexUsersArr[i],\n          j,\n          tradeTokensForTokens.tradingTokenAddress,\n          tradeTokensForTokens.tradingTokenAmount,\n          tradeTokensForTokens.tradingForTokenAddress,\n          tradeTokensForTokens.tradingForTokenAmount,\n          tradeTokensForTokens.alreadyTraded\n        );\n\n        tradeTokensForTokensResultArr[indexOfResultArr] = tradeTokensForTokensForCall;\n\n        indexOfResultArr = indexOfResultArr + 1;\n      }\n    }\n\n    return tradeTokensForTokensResultArr;\n  } */\n\n  /* if (dexUsersMapping[dexUsersArr[i]].tradeTokensForTokens == true) { */\n\n  struct TradeTokensForEthForCall {\n    address sender;\n    uint indexOfTradeOfAddress;\n    address tradingTokenAddress;\n    uint tradingTokenAmount;\n    uint tradingForEthAmount;\n    bool alreadyTraded;\n  }\n\n  /* function getTradesForTokensWithEth() public view returns (TradeTokensForEthForCall[] memory) {\n\n    uint amountOfTrades = 0;\n\n    for (uint i = 0; i < dexUsersArr.length; i++) {\n      for (uint j = 0; j < tradesOfTokensForEthOfAnAddress[dexUsersArr[i]].length; j++) {\n        amountOfTrades = amountOfTrades + 1;\n      }\n    }\n\n    TradeTokensForEthForCall[] memory tradeTokensForEthResultArr = new TradeTokensForEthForCall[](amountOfTrades);\n\n    uint indexOfResultArr = 0;\n\n    for (uint i = 0; i < dexUsersArr.length; i++) {\n      for (uint j = 0; j < tradesOfTokensForEthOfAnAddress[dexUsersArr[i]].length; j++) {\n        TradeTokensForEth memory tradeTokensForEth = tradesOfTokensForEthOfAnAddress[dexUsersArr[i]][j];\n        TradeTokensForEthForCall memory tradeTokensForEthForCall = TradeTokensForEthForCall (\n          dexUsersArr[i],\n          j,\n          tradeTokensForEth.tradingTokenAddress,\n          tradeTokensForEth.tradingTokenAmount,\n          tradeTokensForEth.tradingForEthAmount,\n          tradeTokensForEth.alreadyTraded\n        );\n\n        tradeTokensForEthResultArr[indexOfResultArr] = tradeTokensForEthForCall;\n        indexOfResultArr = indexOfResultArr + 1;\n      }\n    }\n\n    return tradeTokensForEthResultArr;\n  } */\n\n  struct TradeEthForTokensForCall {\n    address sender;\n    uint indexOfTradeOfAddress;\n    uint tradingEthAmount;\n    address tradingForTokenAddress;\n    uint tradingForTokenAmount;\n    bool alreadyTraded;\n  }\n\n  /* function getTradesForEthWithTokens() public view returns (TradeEthForTokensForCall[] memory) {\n\n    uint amountOfTrades = 0;\n\n    for (uint i = 0; i < dexUsersArr.length; i++) {\n      for (uint j = 0; j < tradesOfEthForTokensOfAnAddress[dexUsersArr[i]].length; j++) {\n        amountOfTrades = amountOfTrades + 1;\n      }\n    }\n\n    TradeEthForTokensForCall[] memory tradeEthForTokensResultArr = new TradeEthForTokensForCall[](amountOfTrades);\n\n    uint indexOfResultArr = 0;\n\n    for (uint i = 0; i < dexUsersArr.length; i++) {\n      for (uint j = 0; j < tradesOfEthForTokensOfAnAddress[dexUsersArr[i]].length; j++) {\n        TradeEthForTokens memory tradeEthForTokens = tradesOfEthForTokensOfAnAddress[dexUsersArr[i]][j];\n        TradeEthForTokensForCall memory tradeEthForTokensForCall = TradeEthForTokensForCall (\n          dexUsersArr[i],\n          j,\n          tradeEthForTokens.tradingEthAmount,\n          tradeEthForTokens.tradingForTokenAddress,\n          tradeEthForTokens.tradingForTokenAmount,\n          tradeEthForTokens.alreadyTraded\n        );\n\n        tradeEthForTokensResultArr[indexOfResultArr] = tradeEthForTokensForCall;\n        indexOfResultArr = indexOfResultArr + 1;\n      }\n    }\n\n    return tradeEthForTokensResultArr;\n  } */\n\n  function getDexUsers() public view returns (address[] memory) {\n    return dexUsersArr;\n  }\n\n  struct AllTradesOfAccount {\n    TradeTokensForTokensForCall[] tradeTokensForTokensForCall;\n    TradeTokensForEthForCall[] tradeTokensForEthForCall;\n    TradeEthForTokensForCall[] tradeEthForTokensForCall;\n  }\n\n  function getAllTradesOfAccount(address sender) public view returns(AllTradesOfAccount memory) {\n    AllTradesOfAccount memory allTradesOfAccount;\n\n    allTradesOfAccount.tradeTokensForTokensForCall = new TradeTokensForTokensForCall[](tradesOfTokensForTokensOfAnAddress[sender].length);\n\n    uint indexOfResultArr = 0;\n\n    for (uint i = 0; i < tradesOfTokensForTokensOfAnAddress[sender].length; i++) {\n      TradeTokensForTokens memory tradeTokensForTokens = tradesOfTokensForTokensOfAnAddress[sender][i];\n      TradeTokensForTokensForCall memory tradeTokensForTokensForCall = TradeTokensForTokensForCall (\n        sender,\n        i,\n        tradeTokensForTokens.tradingTokenAddress,\n        tradeTokensForTokens.tradingTokenAmount,\n        tradeTokensForTokens.tradingForTokenAddress,\n        tradeTokensForTokens.tradingForTokenAmount,\n        tradeTokensForTokens.alreadyTraded\n      );\n\n      allTradesOfAccount.tradeTokensForTokensForCall[indexOfResultArr] = tradeTokensForTokensForCall;\n      indexOfResultArr = indexOfResultArr + 1;\n    }\n\n    allTradesOfAccount.tradeTokensForEthForCall = new TradeTokensForEthForCall[](tradesOfTokensForEthOfAnAddress[sender].length);\n\n    indexOfResultArr = 0;\n\n    for (uint i = 0; i < tradesOfTokensForEthOfAnAddress[sender].length; i++) {\n      TradeTokensForEth memory tradeTokensForEth = tradesOfTokensForEthOfAnAddress[sender][i];\n      TradeTokensForEthForCall memory tradeTokensForEthForCall = TradeTokensForEthForCall (\n        sender,\n        i,\n        tradeTokensForEth.tradingTokenAddress,\n        tradeTokensForEth.tradingTokenAmount,\n        tradeTokensForEth.tradingForEthAmount,\n        tradeTokensForEth.alreadyTraded\n      );\n\n      allTradesOfAccount.tradeTokensForEthForCall[indexOfResultArr] = tradeTokensForEthForCall;\n      indexOfResultArr = indexOfResultArr + 1;\n    }\n\n    /* TradeEthForTokensForCall[] memory tradeEthForTokensResultArr = new TradeEthForTokensForCall[](tradesOfEthForTokensOfAnAddress[sender].length); */\n\n    allTradesOfAccount.tradeEthForTokensForCall = new TradeEthForTokensForCall[](tradesOfEthForTokensOfAnAddress[sender].length);\n\n    indexOfResultArr = 0;\n\n    for (uint i = 0; i < tradesOfEthForTokensOfAnAddress[sender].length; i++) {\n      TradeEthForTokens memory tradeEthForTokens = tradesOfEthForTokensOfAnAddress[sender][i];\n      TradeEthForTokensForCall memory tradeEthForTokensForCall = TradeEthForTokensForCall (\n        sender,\n        i,\n        tradeEthForTokens.tradingEthAmount,\n        tradeEthForTokens.tradingForTokenAddress,\n        tradeEthForTokens.tradingForTokenAmount,\n        tradeEthForTokens.alreadyTraded\n      );\n\n      allTradesOfAccount.tradeEthForTokensForCall[indexOfResultArr] = tradeEthForTokensForCall;\n      indexOfResultArr = indexOfResultArr + 1;\n    }\n\n    return allTradesOfAccount;\n  }\n}\n",
  "sourcePath": "/Users/zhiwen/code/dex-old/contracts/contracts/Dex.sol",
  "compiler": {
    "name": "solc",
    "version": "0.8.20+commit.a1b79de6.Emscripten.clang"
  },
  "schemaVersion": "3.4.16",
  "updatedAt": "2024-10-03T03:12:04.470Z",
  "devdoc": {
    "kind": "dev",
    "methods": {},
    "version": 1
  },
  "userdoc": {
    "kind": "user",
    "methods": {},
    "version": 1
  }
}