{
  "contractName": "Dex",
  "abi": [
    {
      "inputs": [],
      "stateMutability": "nonpayable",
      "type": "constructor"
    },
    {
      "anonymous": false,
      "inputs": [
        {
          "indexed": false,
          "internalType": "address",
          "name": "sender",
          "type": "address"
        },
        {
          "indexed": false,
          "internalType": "uint256",
          "name": "indexOfTrade",
          "type": "uint256"
        },
        {
          "indexed": false,
          "internalType": "uint256",
          "name": "tradingEthAmount",
          "type": "uint256"
        },
        {
          "indexed": false,
          "internalType": "address",
          "name": "tradingForTokenAddress",
          "type": "address"
        },
        {
          "indexed": false,
          "internalType": "uint256",
          "name": "tradingForTokenAmount",
          "type": "uint256"
        }
      ],
      "name": "EventAddToDexTradeEthForTokens",
      "type": "event"
    },
    {
      "anonymous": false,
      "inputs": [
        {
          "indexed": false,
          "internalType": "address",
          "name": "sender",
          "type": "address"
        },
        {
          "indexed": false,
          "internalType": "uint256",
          "name": "indexOfTrade",
          "type": "uint256"
        },
        {
          "indexed": false,
          "internalType": "address",
          "name": "tradingTokenAddress",
          "type": "address"
        },
        {
          "indexed": false,
          "internalType": "uint256",
          "name": "tradingTokenAmount",
          "type": "uint256"
        },
        {
          "indexed": false,
          "internalType": "uint256",
          "name": "tradingForEthAmount",
          "type": "uint256"
        }
      ],
      "name": "EventAddToDexTradeTokensForEth",
      "type": "event"
    },
    {
      "anonymous": false,
      "inputs": [
        {
          "indexed": false,
          "internalType": "address",
          "name": "sender",
          "type": "address"
        },
        {
          "indexed": false,
          "internalType": "uint256",
          "name": "indexOfTrade",
          "type": "uint256"
        },
        {
          "indexed": false,
          "internalType": "address",
          "name": "tradingTokenAddress",
          "type": "address"
        },
        {
          "indexed": false,
          "internalType": "uint256",
          "name": "tradingTokenAmount",
          "type": "uint256"
        },
        {
          "indexed": false,
          "internalType": "address",
          "name": "tradingForTokenAddress",
          "type": "address"
        },
        {
          "indexed": false,
          "internalType": "uint256",
          "name": "tradingForTokenAmount",
          "type": "uint256"
        }
      ],
      "name": "EventAddToDexTradeTokensForTokens",
      "type": "event"
    },
    {
      "anonymous": false,
      "inputs": [
        {
          "indexed": false,
          "internalType": "address",
          "name": "sender",
          "type": "address"
        },
        {
          "indexed": false,
          "internalType": "uint256",
          "name": "indexOfTrade",
          "type": "uint256"
        },
        {
          "indexed": false,
          "internalType": "uint256",
          "name": "tradingEthAmount",
          "type": "uint256"
        },
        {
          "indexed": false,
          "internalType": "address",
          "name": "tradingForTokenAddress",
          "type": "address"
        },
        {
          "indexed": false,
          "internalType": "uint256",
          "name": "tradingForTokenAmount",
          "type": "uint256"
        }
      ],
      "name": "EventCanceledTradeEthForTokens",
      "type": "event"
    },
    {
      "anonymous": false,
      "inputs": [
        {
          "indexed": false,
          "internalType": "address",
          "name": "sender",
          "type": "address"
        },
        {
          "indexed": false,
          "internalType": "uint256",
          "name": "indexOfTrade",
          "type": "uint256"
        },
        {
          "indexed": false,
          "internalType": "address",
          "name": "tradingTokenAddress",
          "type": "address"
        },
        {
          "indexed": false,
          "internalType": "uint256",
          "name": "tradingTokenAmount",
          "type": "uint256"
        },
        {
          "indexed": false,
          "internalType": "uint256",
          "name": "tradingForEthAmount",
          "type": "uint256"
        }
      ],
      "name": "EventCanceledTradeTokensForEth",
      "type": "event"
    },
    {
      "anonymous": false,
      "inputs": [
        {
          "indexed": false,
          "internalType": "address",
          "name": "sender",
          "type": "address"
        },
        {
          "indexed": false,
          "internalType": "uint256",
          "name": "indexOfTrade",
          "type": "uint256"
        },
        {
          "indexed": false,
          "internalType": "address",
          "name": "tradingTokenAddress",
          "type": "address"
        },
        {
          "indexed": false,
          "internalType": "uint256",
          "name": "tradingTokenAmount",
          "type": "uint256"
        },
        {
          "indexed": false,
          "internalType": "address",
          "name": "tradingForTokenAddress",
          "type": "address"
        },
        {
          "indexed": false,
          "internalType": "uint256",
          "name": "tradingForTokenAmount",
          "type": "uint256"
        }
      ],
      "name": "EventCanceledTradeTokensForTokens",
      "type": "event"
    },
    {
      "anonymous": false,
      "inputs": [
        {
          "indexed": false,
          "internalType": "address",
          "name": "sender",
          "type": "address"
        },
        {
          "indexed": false,
          "internalType": "uint256",
          "name": "indexOfTrade",
          "type": "uint256"
        },
        {
          "indexed": false,
          "internalType": "uint256",
          "name": "tradingEthAmount",
          "type": "uint256"
        },
        {
          "indexed": false,
          "internalType": "address",
          "name": "tradingForTokenAddress",
          "type": "address"
        },
        {
          "indexed": false,
          "internalType": "uint256",
          "name": "tradingForTokenAmount",
          "type": "uint256"
        },
        {
          "indexed": false,
          "internalType": "address",
          "name": "orderCompletedBy",
          "type": "address"
        }
      ],
      "name": "EventTradeEthForTokens",
      "type": "event"
    },
    {
      "anonymous": false,
      "inputs": [
        {
          "indexed": false,
          "internalType": "address",
          "name": "sender",
          "type": "address"
        },
        {
          "indexed": false,
          "internalType": "uint256",
          "name": "indexOfTrade",
          "type": "uint256"
        },
        {
          "indexed": false,
          "internalType": "address",
          "name": "tradingTokenAddress",
          "type": "address"
        },
        {
          "indexed": false,
          "internalType": "uint256",
          "name": "tradingTokenAmount",
          "type": "uint256"
        },
        {
          "indexed": false,
          "internalType": "uint256",
          "name": "tradingForEthAmount",
          "type": "uint256"
        },
        {
          "indexed": false,
          "internalType": "address",
          "name": "orderCompletedBy",
          "type": "address"
        }
      ],
      "name": "EventTradeTokensForEth",
      "type": "event"
    },
    {
      "anonymous": false,
      "inputs": [
        {
          "indexed": false,
          "internalType": "address",
          "name": "sender",
          "type": "address"
        },
        {
          "indexed": false,
          "internalType": "uint256",
          "name": "indexOfTrade",
          "type": "uint256"
        },
        {
          "indexed": false,
          "internalType": "address",
          "name": "tradingTokenAddress",
          "type": "address"
        },
        {
          "indexed": false,
          "internalType": "uint256",
          "name": "tradingTokenAmount",
          "type": "uint256"
        },
        {
          "indexed": false,
          "internalType": "address",
          "name": "tradingForTokenAddress",
          "type": "address"
        },
        {
          "indexed": false,
          "internalType": "uint256",
          "name": "tradingForTokenAmount",
          "type": "uint256"
        },
        {
          "indexed": false,
          "internalType": "address",
          "name": "orderCompletedBy",
          "type": "address"
        }
      ],
      "name": "EventTradeTokensForTokens",
      "type": "event"
    },
    {
      "inputs": [
        {
          "internalType": "uint256",
          "name": "",
          "type": "uint256"
        }
      ],
      "name": "dexUsersArr",
      "outputs": [
        {
          "internalType": "address",
          "name": "",
          "type": "address"
        }
      ],
      "stateMutability": "view",
      "type": "function"
    },
    {
      "inputs": [
        {
          "internalType": "address",
          "name": "",
          "type": "address"
        },
        {
          "internalType": "uint256",
          "name": "",
          "type": "uint256"
        }
      ],
      "name": "tradesOfEthForTokensOfAnAddress",
      "outputs": [
        {
          "internalType": "uint256",
          "name": "tradingEthAmount",
          "type": "uint256"
        },
        {
          "internalType": "address",
          "name": "tradingForTokenAddress",
          "type": "address"
        },
        {
          "internalType": "uint256",
          "name": "tradingForTokenAmount",
          "type": "uint256"
        },
        {
          "internalType": "bool",
          "name": "alreadyTraded",
          "type": "bool"
        }
      ],
      "stateMutability": "view",
      "type": "function"
    },
    {
      "inputs": [
        {
          "internalType": "address",
          "name": "",
          "type": "address"
        },
        {
          "internalType": "uint256",
          "name": "",
          "type": "uint256"
        }
      ],
      "name": "tradesOfTokensForEthOfAnAddress",
      "outputs": [
        {
          "internalType": "address",
          "name": "tradingTokenAddress",
          "type": "address"
        },
        {
          "internalType": "uint256",
          "name": "tradingTokenAmount",
          "type": "uint256"
        },
        {
          "internalType": "uint256",
          "name": "tradingForEthAmount",
          "type": "uint256"
        },
        {
          "internalType": "bool",
          "name": "alreadyTraded",
          "type": "bool"
        }
      ],
      "stateMutability": "view",
      "type": "function"
    },
    {
      "inputs": [
        {
          "internalType": "address",
          "name": "",
          "type": "address"
        },
        {
          "internalType": "uint256",
          "name": "",
          "type": "uint256"
        }
      ],
      "name": "tradesOfTokensForTokensOfAnAddress",
      "outputs": [
        {
          "internalType": "address",
          "name": "tradingTokenAddress",
          "type": "address"
        },
        {
          "internalType": "uint256",
          "name": "tradingTokenAmount",
          "type": "uint256"
        },
        {
          "internalType": "address",
          "name": "tradingForTokenAddress",
          "type": "address"
        },
        {
          "internalType": "uint256",
          "name": "tradingForTokenAmount",
          "type": "uint256"
        },
        {
          "internalType": "bool",
          "name": "alreadyTraded",
          "type": "bool"
        }
      ],
      "stateMutability": "view",
      "type": "function"
    },
    {
      "inputs": [
        {
          "internalType": "address",
          "name": "tradingTokenAddress",
          "type": "address"
        },
        {
          "internalType": "uint256",
          "name": "tradingTokenAmount",
          "type": "uint256"
        },
        {
          "internalType": "address",
          "name": "tradingForTokenAddress",
          "type": "address"
        },
        {
          "internalType": "uint256",
          "name": "tradingForTokenAmount",
          "type": "uint256"
        }
      ],
      "name": "addTokensToDexForTradeWithOtherTokens",
      "outputs": [],
      "stateMutability": "nonpayable",
      "type": "function"
    },
    {
      "inputs": [
        {
          "internalType": "address",
          "name": "tradingTokenAddress",
          "type": "address"
        },
        {
          "internalType": "uint256",
          "name": "tradingTokenAmount",
          "type": "uint256"
        },
        {
          "internalType": "uint256",
          "name": "tradingForEthAmount",
          "type": "uint256"
        }
      ],
      "name": "addTokensToDexForTradeWithEth",
      "outputs": [],
      "stateMutability": "nonpayable",
      "type": "function"
    },
    {
      "inputs": [
        {
          "internalType": "uint256",
          "name": "tradingEthAmount",
          "type": "uint256"
        },
        {
          "internalType": "address",
          "name": "tradingForTokenAddress",
          "type": "address"
        },
        {
          "internalType": "uint256",
          "name": "tradingForTokenAmount",
          "type": "uint256"
        }
      ],
      "name": "addEthToDexForTradeWithTokens",
      "outputs": [],
      "stateMutability": "payable",
      "type": "function"
    },
    {
      "inputs": [
        {
          "internalType": "address",
          "name": "sender",
          "type": "address"
        },
        {
          "internalType": "uint256",
          "name": "indexOfTrade",
          "type": "uint256"
        }
      ],
      "name": "buyTokensFromTokens",
      "outputs": [],
      "stateMutability": "nonpayable",
      "type": "function"
    },
    {
      "inputs": [
        {
          "internalType": "address",
          "name": "sender",
          "type": "address"
        },
        {
          "internalType": "uint256",
          "name": "indexOfTrade",
          "type": "uint256"
        }
      ],
      "name": "buyTokensForEth",
      "outputs": [],
      "stateMutability": "payable",
      "type": "function"
    },
    {
      "inputs": [
        {
          "internalType": "address",
          "name": "sender",
          "type": "address"
        },
        {
          "internalType": "uint256",
          "name": "indexOfTrade",
          "type": "uint256"
        }
      ],
      "name": "buyEthForTokens",
      "outputs": [],
      "stateMutability": "payable",
      "type": "function"
    },
    {
      "inputs": [
        {
          "internalType": "address",
          "name": "sender",
          "type": "address"
        },
        {
          "internalType": "uint256",
          "name": "indexOfTrade",
          "type": "uint256"
        }
      ],
      "name": "cancelTradeForTokensWithTokens",
      "outputs": [],
      "stateMutability": "nonpayable",
      "type": "function"
    },
    {
      "inputs": [
        {
          "internalType": "address",
          "name": "sender",
          "type": "address"
        },
        {
          "internalType": "uint256",
          "name": "indexOfTrade",
          "type": "uint256"
        }
      ],
      "name": "cancelTradeForTokensWithEth",
      "outputs": [],
      "stateMutability": "nonpayable",
      "type": "function"
    },
    {
      "inputs": [
        {
          "internalType": "address",
          "name": "sender",
          "type": "address"
        },
        {
          "internalType": "uint256",
          "name": "indexOfTrade",
          "type": "uint256"
        }
      ],
      "name": "cancelTradeForEthWithTokens",
      "outputs": [],
      "stateMutability": "payable",
      "type": "function"
    },
    {
      "inputs": [],
      "name": "getAllTrades",
      "outputs": [
        {
          "components": [
            {
              "components": [
                {
                  "internalType": "address",
                  "name": "sender",
                  "type": "address"
                },
                {
                  "internalType": "uint256",
                  "name": "indexOfTradeOfAddress",
                  "type": "uint256"
                },
                {
                  "internalType": "address",
                  "name": "tradingTokenAddress",
                  "type": "address"
                },
                {
                  "internalType": "uint256",
                  "name": "tradingTokenAmount",
                  "type": "uint256"
                },
                {
                  "internalType": "address",
                  "name": "tradingForTokenAddress",
                  "type": "address"
                },
                {
                  "internalType": "uint256",
                  "name": "tradingForTokenAmount",
                  "type": "uint256"
                },
                {
                  "internalType": "bool",
                  "name": "alreadyTraded",
                  "type": "bool"
                }
              ],
              "internalType": "struct Dex.TradeTokensForTokensForCall[]",
              "name": "tradeTokensForTokensForCall",
              "type": "tuple[]"
            },
            {
              "components": [
                {
                  "internalType": "address",
                  "name": "sender",
                  "type": "address"
                },
                {
                  "internalType": "uint256",
                  "name": "indexOfTradeOfAddress",
                  "type": "uint256"
                },
                {
                  "internalType": "address",
                  "name": "tradingTokenAddress",
                  "type": "address"
                },
                {
                  "internalType": "uint256",
                  "name": "tradingTokenAmount",
                  "type": "uint256"
                },
                {
                  "internalType": "uint256",
                  "name": "tradingForEthAmount",
                  "type": "uint256"
                },
                {
                  "internalType": "bool",
                  "name": "alreadyTraded",
                  "type": "bool"
                }
              ],
              "internalType": "struct Dex.TradeTokensForEthForCall[]",
              "name": "tradeTokensForEthForCall",
              "type": "tuple[]"
            },
            {
              "components": [
                {
                  "internalType": "address",
                  "name": "sender",
                  "type": "address"
                },
                {
                  "internalType": "uint256",
                  "name": "indexOfTradeOfAddress",
                  "type": "uint256"
                },
                {
                  "internalType": "uint256",
                  "name": "tradingEthAmount",
                  "type": "uint256"
                },
                {
                  "internalType": "address",
                  "name": "tradingForTokenAddress",
                  "type": "address"
                },
                {
                  "internalType": "uint256",
                  "name": "tradingForTokenAmount",
                  "type": "uint256"
                },
                {
                  "internalType": "bool",
                  "name": "alreadyTraded",
                  "type": "bool"
                }
              ],
              "internalType": "struct Dex.TradeEthForTokensForCall[]",
              "name": "tradeEthForTokensForCall",
              "type": "tuple[]"
            }
          ],
          "internalType": "struct Dex.AllTrades",
          "name": "",
          "type": "tuple"
        }
      ],
      "stateMutability": "view",
      "type": "function"
    },
    {
      "inputs": [],
      "name": "getDexUsers",
      "outputs": [
        {
          "internalType": "address[]",
          "name": "",
          "type": "address[]"
        }
      ],
      "stateMutability": "view",
      "type": "function"
    }
  ],
  "bytecode": "0x608060405234801561000f575f80fd5b503360055f6101000a81548173ffffffffffffffffffffffffffffffffffffffff021916908373ffffffffffffffffffffffffffffffffffffffff1602179055506157fb806200005e5f395ff3fe6080604052600436106100e7575f3560e01c80637f1ca38b11610089578063be53210911610058578063be532109146102b0578063ce99c0ce146102ef578063e39c40fc14610319578063fd9c885314610335576100e7565b80637f1ca38b146102285780638c69cd8414610250578063a1179c721461026c578063a306802f14610294576100e7565b80633b66082a116100c55780633b66082a1461017057806359560382146101b05780636a3c34f1146101d8578063748d6a7414610200576100e7565b806308973378146100eb5780630bc07cef146101155780631cdec04214610154575b5f80fd5b3480156100f6575f80fd5b506100ff610371565b60405161010c9190614a5f565b60405180910390f35b348015610120575f80fd5b5061013b60048036038101906101369190614ae0565b6103fc565b60405161014b9493929190614b56565b60405180910390f35b61016e60048036038101906101699190614ae0565b61046d565b005b34801561017b575f80fd5b5061019660048036038101906101919190614ae0565b610b39565b6040516101a7959493929190614b99565b60405180910390f35b3480156101bb575f80fd5b506101d660048036038101906101d19190614ae0565b610bce565b005b3480156101e3575f80fd5b506101fe60048036038101906101f99190614ae0565b610e6e565b005b34801561020b575f80fd5b5061022660048036038101906102219190614ae0565b611672565b005b348015610233575f80fd5b5061024e60048036038101906102499190614bea565b61198c565b005b61026a60048036038101906102659190614ae0565b612382565b005b348015610277575f80fd5b50610292600480360381019061028d9190614c3a565b612894565b005b6102ae60048036038101906102a99190614c9e565b613359565b005b3480156102bb575f80fd5b506102d660048036038101906102d19190614ae0565b613784565b6040516102e69493929190614cee565b60405180910390f35b3480156102fa575f80fd5b506103036137f5565b6040516103109190615120565b60405180910390f35b610333600480360381019061032e9190614ae0565b61443f565b005b348015610340575f80fd5b5061035b60048036038101906103569190615140565b6147e6565b604051610368919061516b565b60405180910390f35b606060038054806020026020016040519081016040528092919081815260200182805480156103f257602002820191905f5260205f20905b815f9054906101000a900473ffffffffffffffffffffffffffffffffffffffff1673ffffffffffffffffffffffffffffffffffffffff16815260200190600101908083116103a9575b5050505050905090565b6001602052815f5260405f208181548110610415575f80fd5b905f5260205f2090600402015f9150915050805f015f9054906101000a900473ffffffffffffffffffffffffffffffffffffffff1690806001015490806002015490806003015f9054906101000a900460ff16905084565b3373ffffffffffffffffffffffffffffffffffffffff168273ffffffffffffffffffffffffffffffffffffffff16036104a4575f80fd5b6001151560025f8473ffffffffffffffffffffffffffffffffffffffff1673ffffffffffffffffffffffffffffffffffffffff1681526020019081526020015f2082815481106104f7576104f6615184565b5b905f5260205f2090600402016003015f9054906101000a900460ff1615150361051e575f80fd5b5f60025f8473ffffffffffffffffffffffffffffffffffffffff1673ffffffffffffffffffffffffffffffffffffffff1681526020019081526020015f20828154811061056e5761056d615184565b5b905f5260205f2090600402016001015f9054906101000a900473ffffffffffffffffffffffffffffffffffffffff16905060025f8473ffffffffffffffffffffffffffffffffffffffff1673ffffffffffffffffffffffffffffffffffffffff1681526020019081526020015f2082815481106105ee576105ed615184565b5b905f5260205f209060040201600201548173ffffffffffffffffffffffffffffffffffffffff166370a08231336040518263ffffffff1660e01b8152600401610637919061516b565b602060405180830381865afa158015610652573d5f803e3d5ffd5b505050506040513d601f19601f8201168201806040525081019061067691906151c5565b1015610680575f80fd5b60025f8473ffffffffffffffffffffffffffffffffffffffff1673ffffffffffffffffffffffffffffffffffffffff1681526020019081526020015f2082815481106106cf576106ce615184565b5b905f5260205f209060040201600201548173ffffffffffffffffffffffffffffffffffffffff1663dd62ed3e33306040518363ffffffff1660e01b815260040161071a9291906151f0565b602060405180830381865afa158015610735573d5f803e3d5ffd5b505050506040513d601f19601f8201168201806040525081019061075991906151c5565b1015610763575f80fd5b8073ffffffffffffffffffffffffffffffffffffffff166323b872dd338560025f8873ffffffffffffffffffffffffffffffffffffffff1673ffffffffffffffffffffffffffffffffffffffff1681526020019081526020015f2086815481106107d0576107cf615184565b5b905f5260205f209060040201600201546040518463ffffffff1660e01b81526004016107fe93929190615217565b6020604051808303815f875af115801561081a573d5f803e3d5ffd5b505050506040513d601f19601f8201168201806040525081019061083e9190615276565b505f3373ffffffffffffffffffffffffffffffffffffffff1660025f8673ffffffffffffffffffffffffffffffffffffffff1673ffffffffffffffffffffffffffffffffffffffff1681526020019081526020015f2084815481106108a6576108a5615184565b5b905f5260205f2090600402015f01546040516108c1906152ce565b5f6040518083038185875af1925050503d805f81146108fb576040519150601f19603f3d011682016040523d82523d5f602084013e610900565b606091505b5050905080610944576040517f08c379a000000000000000000000000000000000000000000000000000000000815260040161093b9061533c565b60405180910390fd5b600160025f8673ffffffffffffffffffffffffffffffffffffffff1673ffffffffffffffffffffffffffffffffffffffff1681526020019081526020015f20848154811061099557610994615184565b5b905f5260205f2090600402016003015f6101000a81548160ff0219169083151502179055507f939bddfc94723dfe1a94b37a7828c73e510a1069f02bbef1058db8680fc9b737848460025f8873ffffffffffffffffffffffffffffffffffffffff1673ffffffffffffffffffffffffffffffffffffffff1681526020019081526020015f208681548110610a2c57610a2b615184565b5b905f5260205f2090600402015f015460025f8973ffffffffffffffffffffffffffffffffffffffff1673ffffffffffffffffffffffffffffffffffffffff1681526020019081526020015f208781548110610a8a57610a89615184565b5b905f5260205f2090600402016001015f9054906101000a900473ffffffffffffffffffffffffffffffffffffffff1660025f8a73ffffffffffffffffffffffffffffffffffffffff1673ffffffffffffffffffffffffffffffffffffffff1681526020019081526020015f208881548110610b0857610b07615184565b5b905f5260205f2090600402016002015433604051610b2b9695949392919061535a565b60405180910390a150505050565b5f602052815f5260405f208181548110610b51575f80fd5b905f5260205f2090600502015f9150915050805f015f9054906101000a900473ffffffffffffffffffffffffffffffffffffffff1690806001015490806002015f9054906101000a900473ffffffffffffffffffffffffffffffffffffffff1690806003015490806004015f9054906101000a900460ff16905085565b8173ffffffffffffffffffffffffffffffffffffffff163373ffffffffffffffffffffffffffffffffffffffff1614610c05575f80fd5b5f151560015f8473ffffffffffffffffffffffffffffffffffffffff1673ffffffffffffffffffffffffffffffffffffffff1681526020019081526020015f208281548110610c5757610c56615184565b5b905f5260205f2090600402016003015f9054906101000a900460ff16151514610c7e575f80fd5b6001805f8473ffffffffffffffffffffffffffffffffffffffff1673ffffffffffffffffffffffffffffffffffffffff1681526020019081526020015f208281548110610cce57610ccd615184565b5b905f5260205f2090600402016003015f6101000a81548160ff0219169083151502179055507f39512ac5e172c09a82461ef4eb9469d1dd9e84b90d14af11b1494c5830f8be30828260015f8673ffffffffffffffffffffffffffffffffffffffff1673ffffffffffffffffffffffffffffffffffffffff1681526020019081526020015f208481548110610d6557610d64615184565b5b905f5260205f2090600402015f015f9054906101000a900473ffffffffffffffffffffffffffffffffffffffff1660015f8773ffffffffffffffffffffffffffffffffffffffff1673ffffffffffffffffffffffffffffffffffffffff1681526020019081526020015f208581548110610de257610de1615184565b5b905f5260205f2090600402016001015460015f8873ffffffffffffffffffffffffffffffffffffffff1673ffffffffffffffffffffffffffffffffffffffff1681526020019081526020015f208681548110610e4157610e40615184565b5b905f5260205f20906004020160020154604051610e629594939291906153b9565b60405180910390a15050565b3373ffffffffffffffffffffffffffffffffffffffff168273ffffffffffffffffffffffffffffffffffffffff1603610ea5575f80fd5b600115155f808473ffffffffffffffffffffffffffffffffffffffff1673ffffffffffffffffffffffffffffffffffffffff1681526020019081526020015f208281548110610ef757610ef6615184565b5b905f5260205f2090600502016004015f9054906101000a900460ff16151503610f1e575f80fd5b5f805f8473ffffffffffffffffffffffffffffffffffffffff1673ffffffffffffffffffffffffffffffffffffffff1681526020019081526020015f208281548110610f6d57610f6c615184565b5b905f5260205f2090600502015f015f9054906101000a900473ffffffffffffffffffffffffffffffffffffffff1690508073ffffffffffffffffffffffffffffffffffffffff166323b872dd84335f808873ffffffffffffffffffffffffffffffffffffffff1673ffffffffffffffffffffffffffffffffffffffff1681526020019081526020015f20868154811061100957611008615184565b5b905f5260205f209060050201600101546040518463ffffffff1660e01b815260040161103793929190615217565b6020604051808303815f875af1158015611053573d5f803e3d5ffd5b505050506040513d601f19601f820116820180604052508101906110779190615276565b505f805f8573ffffffffffffffffffffffffffffffffffffffff1673ffffffffffffffffffffffffffffffffffffffff1681526020019081526020015f2083815481106110c7576110c6615184565b5b905f5260205f2090600502016002015f9054906101000a900473ffffffffffffffffffffffffffffffffffffffff1690505f808573ffffffffffffffffffffffffffffffffffffffff1673ffffffffffffffffffffffffffffffffffffffff1681526020019081526020015f20838154811061114657611145615184565b5b905f5260205f209060050201600301548173ffffffffffffffffffffffffffffffffffffffff166370a08231336040518263ffffffff1660e01b815260040161118f919061516b565b602060405180830381865afa1580156111aa573d5f803e3d5ffd5b505050506040513d601f19601f820116820180604052508101906111ce91906151c5565b101561120f576040517f08c379a000000000000000000000000000000000000000000000000000000000815260040161120690615454565b60405180910390fd5b5f808573ffffffffffffffffffffffffffffffffffffffff1673ffffffffffffffffffffffffffffffffffffffff1681526020019081526020015f20838154811061125d5761125c615184565b5b905f5260205f209060050201600301548173ffffffffffffffffffffffffffffffffffffffff1663dd62ed3e33306040518363ffffffff1660e01b81526004016112a89291906151f0565b602060405180830381865afa1580156112c3573d5f803e3d5ffd5b505050506040513d601f19601f820116820180604052508101906112e791906151c5565b1015611328576040517f08c379a000000000000000000000000000000000000000000000000000000000815260040161131f906154bc565b60405180910390fd5b8073ffffffffffffffffffffffffffffffffffffffff166323b872dd33865f808973ffffffffffffffffffffffffffffffffffffffff1673ffffffffffffffffffffffffffffffffffffffff1681526020019081526020015f20878154811061139457611393615184565b5b905f5260205f209060050201600301546040518463ffffffff1660e01b81526004016113c293929190615217565b6020604051808303815f875af11580156113de573d5f803e3d5ffd5b505050506040513d601f19601f820116820180604052508101906114029190615276565b5060015f808673ffffffffffffffffffffffffffffffffffffffff1673ffffffffffffffffffffffffffffffffffffffff1681526020019081526020015f20848154811061145357611452615184565b5b905f5260205f2090600502016004015f6101000a81548160ff0219169083151502179055507f19a60cab51f12e292294e2938f67526bcef39bc48bf1eee59585d3ad6001d88984845f808873ffffffffffffffffffffffffffffffffffffffff1673ffffffffffffffffffffffffffffffffffffffff1681526020019081526020015f2086815481106114e9576114e8615184565b5b905f5260205f2090600502015f015f9054906101000a900473ffffffffffffffffffffffffffffffffffffffff165f808973ffffffffffffffffffffffffffffffffffffffff1673ffffffffffffffffffffffffffffffffffffffff1681526020019081526020015f20878154811061156557611564615184565b5b905f5260205f209060050201600101545f808a73ffffffffffffffffffffffffffffffffffffffff1673ffffffffffffffffffffffffffffffffffffffff1681526020019081526020015f2088815481106115c3576115c2615184565b5b905f5260205f2090600502016002015f9054906101000a900473ffffffffffffffffffffffffffffffffffffffff165f808b73ffffffffffffffffffffffffffffffffffffffff1673ffffffffffffffffffffffffffffffffffffffff1681526020019081526020015f2089815481106116405761163f615184565b5b905f5260205f209060050201600301543360405161166497969594939291906154da565b60405180910390a150505050565b8173ffffffffffffffffffffffffffffffffffffffff163373ffffffffffffffffffffffffffffffffffffffff16146116a9575f80fd5b5f15155f808473ffffffffffffffffffffffffffffffffffffffff1673ffffffffffffffffffffffffffffffffffffffff1681526020019081526020015f2082815481106116fa576116f9615184565b5b905f5260205f2090600502016004015f9054906101000a900460ff16151514611721575f80fd5b60015f808473ffffffffffffffffffffffffffffffffffffffff1673ffffffffffffffffffffffffffffffffffffffff1681526020019081526020015f20828154811061177157611770615184565b5b905f5260205f2090600502016004015f6101000a81548160ff0219169083151502179055507fbfa95375e459bbd89322e4b788211eac11a3d4916e2ec1a88f0f8e3e623ffab782825f808673ffffffffffffffffffffffffffffffffffffffff1673ffffffffffffffffffffffffffffffffffffffff1681526020019081526020015f20848154811061180757611806615184565b5b905f5260205f2090600502015f015f9054906101000a900473ffffffffffffffffffffffffffffffffffffffff165f808773ffffffffffffffffffffffffffffffffffffffff1673ffffffffffffffffffffffffffffffffffffffff1681526020019081526020015f20858154811061188357611882615184565b5b905f5260205f209060050201600101545f808873ffffffffffffffffffffffffffffffffffffffff1673ffffffffffffffffffffffffffffffffffffffff1681526020019081526020015f2086815481106118e1576118e0615184565b5b905f5260205f2090600502016002015f9054906101000a900473ffffffffffffffffffffffffffffffffffffffff165f808973ffffffffffffffffffffffffffffffffffffffff1673ffffffffffffffffffffffffffffffffffffffff1681526020019081526020015f20878154811061195e5761195d615184565b5b905f5260205f2090600502016003015460405161198096959493929190615547565b60405180910390a15050565b5f8390505f8390505f805f3373ffffffffffffffffffffffffffffffffffffffff1673ffffffffffffffffffffffffffffffffffffffff1681526020019081526020015f20805480602002602001604051908101604052809291908181526020015f905b82821015611af7578382905f5260205f2090600502016040518060a00160405290815f82015f9054906101000a900473ffffffffffffffffffffffffffffffffffffffff1673ffffffffffffffffffffffffffffffffffffffff1673ffffffffffffffffffffffffffffffffffffffff16815260200160018201548152602001600282015f9054906101000a900473ffffffffffffffffffffffffffffffffffffffff1673ffffffffffffffffffffffffffffffffffffffff1673ffffffffffffffffffffffffffffffffffffffff16815260200160038201548152602001600482015f9054906101000a900460ff161515151581525050815260200190600101906119f0565b5050505090505f60015f3373ffffffffffffffffffffffffffffffffffffffff1673ffffffffffffffffffffffffffffffffffffffff1681526020019081526020015f20805480602002602001604051908101604052809291908181526020015f905b82821015611c0c578382905f5260205f2090600402016040518060800160405290815f82015f9054906101000a900473ffffffffffffffffffffffffffffffffffffffff1673ffffffffffffffffffffffffffffffffffffffff1673ffffffffffffffffffffffffffffffffffffffff1681526020016001820154815260200160028201548152602001600382015f9054906101000a900460ff16151515158152505081526020019060010190611b5a565b5050505090506001151560045f3373ffffffffffffffffffffffffffffffffffffffff1673ffffffffffffffffffffffffffffffffffffffff1681526020019081526020015f205f015f9054906101000a900460ff16151503611d34575f5b8251811015611d32578773ffffffffffffffffffffffffffffffffffffffff16838281518110611c9e57611c9d615184565b5b60200260200101515f015173ffffffffffffffffffffffffffffffffffffffff16148015611ced57505f1515838281518110611cdd57611cdc615184565b5b6020026020010151608001511515145b15611d1f5783838281518110611d0657611d05615184565b5b602002602001015160200151611d1c91906155d3565b93505b8080611d2a90615606565b915050611c6b565b505b6001151560045f3373ffffffffffffffffffffffffffffffffffffffff1673ffffffffffffffffffffffffffffffffffffffff1681526020019081526020015f205f0160019054906101000a900460ff16151503611e57575f5b8151811015611e55578773ffffffffffffffffffffffffffffffffffffffff16828281518110611dc157611dc0615184565b5b60200260200101515f015173ffffffffffffffffffffffffffffffffffffffff16148015611e1057505f1515828281518110611e0057611dff615184565b5b6020026020010151606001511515145b15611e425783828281518110611e2957611e28615184565b5b602002602001015160200151611e3f91906155d3565b93505b8080611e4d90615606565b915050611d8e565b505b828473ffffffffffffffffffffffffffffffffffffffff1663dd62ed3e33306040518363ffffffff1660e01b8152600401611e939291906151f0565b602060405180830381865afa158015611eae573d5f803e3d5ffd5b505050506040513d601f19601f82011682018060405250810190611ed291906151c5565b1015611edc575f80fd5b828473ffffffffffffffffffffffffffffffffffffffff166370a08231336040518263ffffffff1660e01b8152600401611f16919061516b565b602060405180830381865afa158015611f31573d5f803e3d5ffd5b505050506040513d601f19601f82011682018060405250810190611f5591906151c5565b1015611f5f575f80fd5b60015f3373ffffffffffffffffffffffffffffffffffffffff1673ffffffffffffffffffffffffffffffffffffffff1681526020019081526020015f2060405180608001604052808973ffffffffffffffffffffffffffffffffffffffff1681526020018881526020018781526020015f1515815250908060018154018082558091505060019003905f5260205f2090600402015f909190919091505f820151815f015f6101000a81548173ffffffffffffffffffffffffffffffffffffffff021916908373ffffffffffffffffffffffffffffffffffffffff16021790555060208201518160010155604082015181600201556060820151816003015f6101000a81548160ff02191690831515021790555050507fcbb2baf7f0878f163f373ce81dcee352d496f2e3e7de9ded7223b6ffb02c5ed2336001805f3373ffffffffffffffffffffffffffffffffffffffff1673ffffffffffffffffffffffffffffffffffffffff1681526020019081526020015f20805490506120e2919061564d565b8989896040516120f69594939291906153b9565b60405180910390a15f151560045f3373ffffffffffffffffffffffffffffffffffffffff1673ffffffffffffffffffffffffffffffffffffffff1681526020019081526020015f205f015f9054906101000a900460ff1615151480156121ab57505f151560045f3373ffffffffffffffffffffffffffffffffffffffff1673ffffffffffffffffffffffffffffffffffffffff1681526020019081526020015f205f0160019054906101000a900460ff161515145b801561220657505f151560045f3373ffffffffffffffffffffffffffffffffffffffff1673ffffffffffffffffffffffffffffffffffffffff1681526020019081526020015f205f0160029054906101000a900460ff161515145b156122c857600333908060018154018082558091505060019003905f5260205f20015f9091909190916101000a81548173ffffffffffffffffffffffffffffffffffffffff021916908373ffffffffffffffffffffffffffffffffffffffff160217905550600160045f3373ffffffffffffffffffffffffffffffffffffffff1673ffffffffffffffffffffffffffffffffffffffff1681526020019081526020015f205f0160016101000a81548160ff021916908315150217905550612379565b5f151560045f3373ffffffffffffffffffffffffffffffffffffffff1673ffffffffffffffffffffffffffffffffffffffff1681526020019081526020015f205f0160019054906101000a900460ff1615150361237857600160045f3373ffffffffffffffffffffffffffffffffffffffff1673ffffffffffffffffffffffffffffffffffffffff1681526020019081526020015f205f0160016101000a81548160ff0219169083151502179055505b5b50505050505050565b3373ffffffffffffffffffffffffffffffffffffffff168273ffffffffffffffffffffffffffffffffffffffff16036123b9575f80fd5b6001151560015f8473ffffffffffffffffffffffffffffffffffffffff1673ffffffffffffffffffffffffffffffffffffffff1681526020019081526020015f20828154811061240c5761240b615184565b5b905f5260205f2090600402016003015f9054906101000a900460ff16151503612433575f80fd5b5f60015f8473ffffffffffffffffffffffffffffffffffffffff1673ffffffffffffffffffffffffffffffffffffffff1681526020019081526020015f20828154811061248357612482615184565b5b905f5260205f2090600402015f015f9054906101000a900473ffffffffffffffffffffffffffffffffffffffff1690508073ffffffffffffffffffffffffffffffffffffffff166323b872dd843360015f8873ffffffffffffffffffffffffffffffffffffffff1673ffffffffffffffffffffffffffffffffffffffff1681526020019081526020015f2086815481106125205761251f615184565b5b905f5260205f209060040201600101546040518463ffffffff1660e01b815260040161254e93929190615217565b6020604051808303815f875af115801561256a573d5f803e3d5ffd5b505050506040513d601f19601f8201168201806040525081019061258e9190615276565b5060015f8473ffffffffffffffffffffffffffffffffffffffff1673ffffffffffffffffffffffffffffffffffffffff1681526020019081526020015f2082815481106125de576125dd615184565b5b905f5260205f2090600402016002015434146125f8575f80fd5b5f8373ffffffffffffffffffffffffffffffffffffffff163460405161261d906152ce565b5f6040518083038185875af1925050503d805f8114612657576040519150601f19603f3d011682016040523d82523d5f602084013e61265c565b606091505b50509050806126a0576040517f08c379a00000000000000000000000000000000000000000000000000000000081526004016126979061533c565b60405180910390fd5b6001805f8673ffffffffffffffffffffffffffffffffffffffff1673ffffffffffffffffffffffffffffffffffffffff1681526020019081526020015f2084815481106126f0576126ef615184565b5b905f5260205f2090600402016003015f6101000a81548160ff0219169083151502179055507f441219de0f005ddf1372035401ca089c43131960d7dbdc2abbc6ebb5effe8fc8848460015f8873ffffffffffffffffffffffffffffffffffffffff1673ffffffffffffffffffffffffffffffffffffffff1681526020019081526020015f20868154811061278757612786615184565b5b905f5260205f2090600402015f015f9054906101000a900473ffffffffffffffffffffffffffffffffffffffff1660015f8973ffffffffffffffffffffffffffffffffffffffff1673ffffffffffffffffffffffffffffffffffffffff1681526020019081526020015f20878154811061280457612803615184565b5b905f5260205f2090600402016001015460015f8a73ffffffffffffffffffffffffffffffffffffffff1673ffffffffffffffffffffffffffffffffffffffff1681526020019081526020015f20888154811061286357612862615184565b5b905f5260205f209060040201600201543360405161288696959493929190615680565b60405180910390a150505050565b5f8490505f8490505f805f3373ffffffffffffffffffffffffffffffffffffffff1673ffffffffffffffffffffffffffffffffffffffff1681526020019081526020015f20805480602002602001604051908101604052809291908181526020015f905b828210156129ff578382905f5260205f2090600502016040518060a00160405290815f82015f9054906101000a900473ffffffffffffffffffffffffffffffffffffffff1673ffffffffffffffffffffffffffffffffffffffff1673ffffffffffffffffffffffffffffffffffffffff16815260200160018201548152602001600282015f9054906101000a900473ffffffffffffffffffffffffffffffffffffffff1673ffffffffffffffffffffffffffffffffffffffff1673ffffffffffffffffffffffffffffffffffffffff16815260200160038201548152602001600482015f9054906101000a900460ff161515151581525050815260200190600101906128f8565b5050505090505f60015f3373ffffffffffffffffffffffffffffffffffffffff1673ffffffffffffffffffffffffffffffffffffffff1681526020019081526020015f20805480602002602001604051908101604052809291908181526020015f905b82821015612b14578382905f5260205f2090600402016040518060800160405290815f82015f9054906101000a900473ffffffffffffffffffffffffffffffffffffffff1673ffffffffffffffffffffffffffffffffffffffff1673ffffffffffffffffffffffffffffffffffffffff1681526020016001820154815260200160028201548152602001600382015f9054906101000a900460ff16151515158152505081526020019060010190612a62565b5050505090506001151560045f3373ffffffffffffffffffffffffffffffffffffffff1673ffffffffffffffffffffffffffffffffffffffff1681526020019081526020015f205f015f9054906101000a900460ff16151503612c3c575f5b8251811015612c3a578873ffffffffffffffffffffffffffffffffffffffff16838281518110612ba657612ba5615184565b5b60200260200101515f015173ffffffffffffffffffffffffffffffffffffffff16148015612bf557505f1515838281518110612be557612be4615184565b5b6020026020010151608001511515145b15612c275783838281518110612c0e57612c0d615184565b5b602002602001015160200151612c2491906155d3565b93505b8080612c3290615606565b915050612b73565b505b6001151560045f3373ffffffffffffffffffffffffffffffffffffffff1673ffffffffffffffffffffffffffffffffffffffff1681526020019081526020015f205f0160019054906101000a900460ff16151503612d5f575f5b8151811015612d5d578873ffffffffffffffffffffffffffffffffffffffff16828281518110612cc957612cc8615184565b5b60200260200101515f015173ffffffffffffffffffffffffffffffffffffffff16148015612d1857505f1515828281518110612d0857612d07615184565b5b6020026020010151606001511515145b15612d4a5783828281518110612d3157612d30615184565b5b602002602001015160200151612d4791906155d3565b93505b8080612d5590615606565b915050612c96565b505b828473ffffffffffffffffffffffffffffffffffffffff1663dd62ed3e33306040518363ffffffff1660e01b8152600401612d9b9291906151f0565b602060405180830381865afa158015612db6573d5f803e3d5ffd5b505050506040513d601f19601f82011682018060405250810190612dda91906151c5565b1015612e1b576040517f08c379a0000000000000000000000000000000000000000000000000000000008152600401612e1290615454565b60405180910390fd5b828473ffffffffffffffffffffffffffffffffffffffff166370a08231336040518263ffffffff1660e01b8152600401612e55919061516b565b602060405180830381865afa158015612e70573d5f803e3d5ffd5b505050506040513d601f19601f82011682018060405250810190612e9491906151c5565b1015612ed5576040517f08c379a0000000000000000000000000000000000000000000000000000000008152600401612ecc90615729565b60405180910390fd5b5f803373ffffffffffffffffffffffffffffffffffffffff1673ffffffffffffffffffffffffffffffffffffffff1681526020019081526020015f206040518060a001604052808a73ffffffffffffffffffffffffffffffffffffffff1681526020018981526020018873ffffffffffffffffffffffffffffffffffffffff1681526020018781526020015f1515815250908060018154018082558091505060019003905f5260205f2090600502015f909190919091505f820151815f015f6101000a81548173ffffffffffffffffffffffffffffffffffffffff021916908373ffffffffffffffffffffffffffffffffffffffff160217905550602082015181600101556040820151816002015f6101000a81548173ffffffffffffffffffffffffffffffffffffffff021916908373ffffffffffffffffffffffffffffffffffffffff160217905550606082015181600301556080820151816004015f6101000a81548160ff02191690831515021790555050507f9f53e6265e34e225b3a062b3e0f18e1a57fe8c46ccd096edc6a27292b45831a23360015f803373ffffffffffffffffffffffffffffffffffffffff1673ffffffffffffffffffffffffffffffffffffffff1681526020019081526020015f20805490506130b9919061564d565b8a8a8a8a6040516130cf96959493929190615547565b60405180910390a15f151560045f3373ffffffffffffffffffffffffffffffffffffffff1673ffffffffffffffffffffffffffffffffffffffff1681526020019081526020015f205f015f9054906101000a900460ff16151514801561318457505f151560045f3373ffffffffffffffffffffffffffffffffffffffff1673ffffffffffffffffffffffffffffffffffffffff1681526020019081526020015f205f0160019054906101000a900460ff161515145b80156131df57505f151560045f3373ffffffffffffffffffffffffffffffffffffffff1673ffffffffffffffffffffffffffffffffffffffff1681526020019081526020015f205f0160029054906101000a900460ff161515145b156132a057600333908060018154018082558091505060019003905f5260205f20015f9091909190916101000a81548173ffffffffffffffffffffffffffffffffffffffff021916908373ffffffffffffffffffffffffffffffffffffffff160217905550600160045f3373ffffffffffffffffffffffffffffffffffffffff1673ffffffffffffffffffffffffffffffffffffffff1681526020019081526020015f205f015f6101000a81548160ff02191690831515021790555061334f565b5f151560045f3373ffffffffffffffffffffffffffffffffffffffff1673ffffffffffffffffffffffffffffffffffffffff1681526020019081526020015f205f015f9054906101000a900460ff1615150361334e57600160045f3373ffffffffffffffffffffffffffffffffffffffff1673ffffffffffffffffffffffffffffffffffffffff1681526020019081526020015f205f015f6101000a81548160ff0219169083151502179055505b5b5050505050505050565b823414613364575f80fd5b60025f3373ffffffffffffffffffffffffffffffffffffffff1673ffffffffffffffffffffffffffffffffffffffff1681526020019081526020015f2060405180608001604052808581526020018473ffffffffffffffffffffffffffffffffffffffff1681526020018381526020015f1515815250908060018154018082558091505060019003905f5260205f2090600402015f909190919091505f820151815f01556020820151816001015f6101000a81548173ffffffffffffffffffffffffffffffffffffffff021916908373ffffffffffffffffffffffffffffffffffffffff160217905550604082015181600201556060820151816003015f6101000a81548160ff02191690831515021790555050507f8664a0195db99dab92c38f2347e87be0c0fc0057973eca207b7d866058b21b3933600160025f3373ffffffffffffffffffffffffffffffffffffffff1673ffffffffffffffffffffffffffffffffffffffff1681526020019081526020015f20805490506134e8919061564d565b8585856040516134fc959493929190615747565b60405180910390a15f151560045f3373ffffffffffffffffffffffffffffffffffffffff1673ffffffffffffffffffffffffffffffffffffffff1681526020019081526020015f205f015f9054906101000a900460ff1615151480156135b157505f151560045f3373ffffffffffffffffffffffffffffffffffffffff1673ffffffffffffffffffffffffffffffffffffffff1681526020019081526020015f205f0160019054906101000a900460ff161515145b801561360c57505f151560045f3373ffffffffffffffffffffffffffffffffffffffff1673ffffffffffffffffffffffffffffffffffffffff1681526020019081526020015f205f0160029054906101000a900460ff161515145b156136ce57600333908060018154018082558091505060019003905f5260205f20015f9091909190916101000a81548173ffffffffffffffffffffffffffffffffffffffff021916908373ffffffffffffffffffffffffffffffffffffffff160217905550600160045f3373ffffffffffffffffffffffffffffffffffffffff1673ffffffffffffffffffffffffffffffffffffffff1681526020019081526020015f205f0160026101000a81548160ff02191690831515021790555061377f565b5f151560045f3373ffffffffffffffffffffffffffffffffffffffff1673ffffffffffffffffffffffffffffffffffffffff1681526020019081526020015f205f0160029054906101000a900460ff1615150361377e57600160045f3373ffffffffffffffffffffffffffffffffffffffff1673ffffffffffffffffffffffffffffffffffffffff1681526020019081526020015f205f0160026101000a81548160ff0219169083151502179055505b5b505050565b6002602052815f5260405f20818154811061379d575f80fd5b905f5260205f2090600402015f9150915050805f015490806001015f9054906101000a900473ffffffffffffffffffffffffffffffffffffffff1690806002015490806003015f9054906101000a900460ff16905084565b6137fd614821565b5f805b6003805490508110156138c7575f5b5f806003848154811061382557613824615184565b5b905f5260205f20015f9054906101000a900473ffffffffffffffffffffffffffffffffffffffff1673ffffffffffffffffffffffffffffffffffffffff1673ffffffffffffffffffffffffffffffffffffffff1681526020019081526020015f20805490508110156138b35760018361389e91906155d3565b925080806138ab90615606565b91505061380f565b5080806138bf90615606565b915050613800565b505f8167ffffffffffffffff8111156138e3576138e2615798565b5b60405190808252806020026020018201604052801561391c57816020015b613909614842565b8152602001906001900390816139015790505b5090505f805b600380549050811015613c4c575f5b5f806003848154811061394757613946615184565b5b905f5260205f20015f9054906101000a900473ffffffffffffffffffffffffffffffffffffffff1673ffffffffffffffffffffffffffffffffffffffff1673ffffffffffffffffffffffffffffffffffffffff1681526020019081526020015f2080549050811015613c38575f805f600385815481106139ca576139c9615184565b5b905f5260205f20015f9054906101000a900473ffffffffffffffffffffffffffffffffffffffff1673ffffffffffffffffffffffffffffffffffffffff1673ffffffffffffffffffffffffffffffffffffffff1681526020019081526020015f208281548110613a3d57613a3c615184565b5b905f5260205f2090600502016040518060a00160405290815f82015f9054906101000a900473ffffffffffffffffffffffffffffffffffffffff1673ffffffffffffffffffffffffffffffffffffffff1673ffffffffffffffffffffffffffffffffffffffff16815260200160018201548152602001600282015f9054906101000a900473ffffffffffffffffffffffffffffffffffffffff1673ffffffffffffffffffffffffffffffffffffffff1673ffffffffffffffffffffffffffffffffffffffff16815260200160038201548152602001600482015f9054906101000a900460ff16151515158152505090505f6040518060e0016040528060038681548110613b4d57613b4c615184565b5b905f5260205f20015f9054906101000a900473ffffffffffffffffffffffffffffffffffffffff1673ffffffffffffffffffffffffffffffffffffffff168152602001848152602001835f015173ffffffffffffffffffffffffffffffffffffffff16815260200183602001518152602001836040015173ffffffffffffffffffffffffffffffffffffffff1681526020018360600151815260200183608001511515815250905080868681518110613c0957613c08615184565b5b6020026020010181905250600185613c2191906155d3565b945050508080613c3090615606565b915050613931565b508080613c4490615606565b915050613922565b505f92505f5b600380549050811015613d1a575f5b60015f60038481548110613c7857613c77615184565b5b905f5260205f20015f9054906101000a900473ffffffffffffffffffffffffffffffffffffffff1673ffffffffffffffffffffffffffffffffffffffff1673ffffffffffffffffffffffffffffffffffffffff1681526020019081526020015f2080549050811015613d0657600185613cf191906155d3565b94508080613cfe90615606565b915050613c61565b508080613d1290615606565b915050613c52565b505f8367ffffffffffffffff811115613d3657613d35615798565b5b604051908082528060200260200182016040528015613d6f57816020015b613d5c6148bc565b815260200190600190039081613d545790505b5090505f91505f5b60038054905081101561402e575f5b60015f60038481548110613d9d57613d9c615184565b5b905f5260205f20015f9054906101000a900473ffffffffffffffffffffffffffffffffffffffff1673ffffffffffffffffffffffffffffffffffffffff1673ffffffffffffffffffffffffffffffffffffffff1681526020019081526020015f208054905081101561401a575f60015f60038581548110613e2157613e20615184565b5b905f5260205f20015f9054906101000a900473ffffffffffffffffffffffffffffffffffffffff1673ffffffffffffffffffffffffffffffffffffffff1673ffffffffffffffffffffffffffffffffffffffff1681526020019081526020015f208281548110613e9457613e93615184565b5b905f5260205f2090600402016040518060800160405290815f82015f9054906101000a900473ffffffffffffffffffffffffffffffffffffffff1673ffffffffffffffffffffffffffffffffffffffff1673ffffffffffffffffffffffffffffffffffffffff1681526020016001820154815260200160028201548152602001600382015f9054906101000a900460ff16151515158152505090505f6040518060c0016040528060038681548110613f4f57613f4e615184565b5b905f5260205f20015f9054906101000a900473ffffffffffffffffffffffffffffffffffffffff1673ffffffffffffffffffffffffffffffffffffffff168152602001848152602001835f015173ffffffffffffffffffffffffffffffffffffffff168152602001836020015181526020018360400151815260200183606001511515815250905080858781518110613feb57613fea615184565b5b602002602001018190525060018661400391906155d3565b95505050808061401290615606565b915050613d86565b50808061402690615606565b915050613d77565b505f93505f5b6003805490508110156140fc575f5b60025f6003848154811061405a57614059615184565b5b905f5260205f20015f9054906101000a900473ffffffffffffffffffffffffffffffffffffffff1673ffffffffffffffffffffffffffffffffffffffff1673ffffffffffffffffffffffffffffffffffffffff1681526020019081526020015f20805490508110156140e8576001866140d391906155d3565b955080806140e090615606565b915050614043565b5080806140f490615606565b915050614034565b505f8467ffffffffffffffff81111561411857614117615798565b5b60405190808252806020026020018201604052801561415157816020015b61413e61491a565b8152602001906001900390816141365790505b5090505f92505f5b600380549050811015614410575f5b60025f6003848154811061417f5761417e615184565b5b905f5260205f20015f9054906101000a900473ffffffffffffffffffffffffffffffffffffffff1673ffffffffffffffffffffffffffffffffffffffff1673ffffffffffffffffffffffffffffffffffffffff1681526020019081526020015f20805490508110156143fc575f60025f6003858154811061420357614202615184565b5b905f5260205f20015f9054906101000a900473ffffffffffffffffffffffffffffffffffffffff1673ffffffffffffffffffffffffffffffffffffffff1673ffffffffffffffffffffffffffffffffffffffff1681526020019081526020015f20828154811061427657614275615184565b5b905f5260205f2090600402016040518060800160405290815f8201548152602001600182015f9054906101000a900473ffffffffffffffffffffffffffffffffffffffff1673ffffffffffffffffffffffffffffffffffffffff1673ffffffffffffffffffffffffffffffffffffffff16815260200160028201548152602001600382015f9054906101000a900460ff16151515158152505090505f6040518060c001604052806003868154811061433157614330615184565b5b905f5260205f20015f9054906101000a900473ffffffffffffffffffffffffffffffffffffffff1673ffffffffffffffffffffffffffffffffffffffff168152602001848152602001835f01518152602001836020015173ffffffffffffffffffffffffffffffffffffffff16815260200183604001518152602001836060015115158152509050808588815181106143cd576143cc615184565b5b60200260200101819052506001876143e591906155d3565b9650505080806143f490615606565b915050614168565b50808061440890615606565b915050614159565b50614419614821565b84815f018190525082816020018190525081816040018190525080965050505050505090565b8173ffffffffffffffffffffffffffffffffffffffff163373ffffffffffffffffffffffffffffffffffffffff1614614476575f80fd5b5f151560025f8473ffffffffffffffffffffffffffffffffffffffff1673ffffffffffffffffffffffffffffffffffffffff1681526020019081526020015f2082815481106144c8576144c7615184565b5b905f5260205f2090600402016003015f9054906101000a900460ff161515146144ef575f80fd5b600160025f8473ffffffffffffffffffffffffffffffffffffffff1673ffffffffffffffffffffffffffffffffffffffff1681526020019081526020015f2082815481106145405761453f615184565b5b905f5260205f2090600402016003015f6101000a81548160ff0219169083151502179055505f3373ffffffffffffffffffffffffffffffffffffffff1660025f8573ffffffffffffffffffffffffffffffffffffffff1673ffffffffffffffffffffffffffffffffffffffff1681526020019081526020015f2083815481106145cc576145cb615184565b5b905f5260205f2090600402015f01546040516145e7906152ce565b5f6040518083038185875af1925050503d805f8114614621576040519150601f19603f3d011682016040523d82523d5f602084013e614626565b606091505b505090508061466a576040517f08c379a00000000000000000000000000000000000000000000000000000000081526004016146619061533c565b60405180910390fd5b7fc3862de41bef5ea6c04a4f55fb0d4db3c4fe10d5e24982b16340dd04e5503ee0838360025f8773ffffffffffffffffffffffffffffffffffffffff1673ffffffffffffffffffffffffffffffffffffffff1681526020019081526020015f2085815481106146dc576146db615184565b5b905f5260205f2090600402015f015460025f8873ffffffffffffffffffffffffffffffffffffffff1673ffffffffffffffffffffffffffffffffffffffff1681526020019081526020015f20868154811061473a57614739615184565b5b905f5260205f2090600402016001015f9054906101000a900473ffffffffffffffffffffffffffffffffffffffff1660025f8973ffffffffffffffffffffffffffffffffffffffff1673ffffffffffffffffffffffffffffffffffffffff1681526020019081526020015f2087815481106147b8576147b7615184565b5b905f5260205f209060040201600201546040516147d9959493929190615747565b60405180910390a1505050565b600381815481106147f5575f80fd5b905f5260205f20015f915054906101000a900473ffffffffffffffffffffffffffffffffffffffff1681565b60405180606001604052806060815260200160608152602001606081525090565b6040518060e001604052805f73ffffffffffffffffffffffffffffffffffffffff1681526020015f81526020015f73ffffffffffffffffffffffffffffffffffffffff1681526020015f81526020015f73ffffffffffffffffffffffffffffffffffffffff1681526020015f81526020015f151581525090565b6040518060c001604052805f73ffffffffffffffffffffffffffffffffffffffff1681526020015f81526020015f73ffffffffffffffffffffffffffffffffffffffff1681526020015f81526020015f81526020015f151581525090565b6040518060c001604052805f73ffffffffffffffffffffffffffffffffffffffff1681526020015f81526020015f81526020015f73ffffffffffffffffffffffffffffffffffffffff1681526020015f81526020015f151581525090565b5f81519050919050565b5f82825260208201905092915050565b5f819050602082019050919050565b5f73ffffffffffffffffffffffffffffffffffffffff82169050919050565b5f6149ca826149a1565b9050919050565b6149da816149c0565b82525050565b5f6149eb83836149d1565b60208301905092915050565b5f602082019050919050565b5f614a0d82614978565b614a178185614982565b9350614a2283614992565b805f5b83811015614a52578151614a3988826149e0565b9750614a44836149f7565b925050600181019050614a25565b5085935050505092915050565b5f6020820190508181035f830152614a778184614a03565b905092915050565b5f80fd5b614a8c816149c0565b8114614a96575f80fd5b50565b5f81359050614aa781614a83565b92915050565b5f819050919050565b614abf81614aad565b8114614ac9575f80fd5b50565b5f81359050614ada81614ab6565b92915050565b5f8060408385031215614af657614af5614a7f565b5b5f614b0385828601614a99565b9250506020614b1485828601614acc565b9150509250929050565b614b27816149c0565b82525050565b614b3681614aad565b82525050565b5f8115159050919050565b614b5081614b3c565b82525050565b5f608082019050614b695f830187614b1e565b614b766020830186614b2d565b614b836040830185614b2d565b614b906060830184614b47565b95945050505050565b5f60a082019050614bac5f830188614b1e565b614bb96020830187614b2d565b614bc66040830186614b1e565b614bd36060830185614b2d565b614be06080830184614b47565b9695505050505050565b5f805f60608486031215614c0157614c00614a7f565b5b5f614c0e86828701614a99565b9350506020614c1f86828701614acc565b9250506040614c3086828701614acc565b9150509250925092565b5f805f8060808587031215614c5257614c51614a7f565b5b5f614c5f87828801614a99565b9450506020614c7087828801614acc565b9350506040614c8187828801614a99565b9250506060614c9287828801614acc565b91505092959194509250565b5f805f60608486031215614cb557614cb4614a7f565b5b5f614cc286828701614acc565b9350506020614cd386828701614a99565b9250506040614ce486828701614acc565b9150509250925092565b5f608082019050614d015f830187614b2d565b614d0e6020830186614b1e565b614d1b6040830185614b2d565b614d286060830184614b47565b95945050505050565b5f81519050919050565b5f82825260208201905092915050565b5f819050602082019050919050565b614d6381614aad565b82525050565b614d7281614b3c565b82525050565b60e082015f820151614d8c5f8501826149d1565b506020820151614d9f6020850182614d5a565b506040820151614db260408501826149d1565b506060820151614dc56060850182614d5a565b506080820151614dd860808501826149d1565b5060a0820151614deb60a0850182614d5a565b5060c0820151614dfe60c0850182614d69565b50505050565b5f614e0f8383614d78565b60e08301905092915050565b5f602082019050919050565b5f614e3182614d31565b614e3b8185614d3b565b9350614e4683614d4b565b805f5b83811015614e76578151614e5d8882614e04565b9750614e6883614e1b565b925050600181019050614e49565b5085935050505092915050565b5f81519050919050565b5f82825260208201905092915050565b5f819050602082019050919050565b60c082015f820151614ec05f8501826149d1565b506020820151614ed36020850182614d5a565b506040820151614ee660408501826149d1565b506060820151614ef96060850182614d5a565b506080820151614f0c6080850182614d5a565b5060a0820151614f1f60a0850182614d69565b50505050565b5f614f308383614eac565b60c08301905092915050565b5f602082019050919050565b5f614f5282614e83565b614f5c8185614e8d565b9350614f6783614e9d565b805f5b83811015614f97578151614f7e8882614f25565b9750614f8983614f3c565b925050600181019050614f6a565b5085935050505092915050565b5f81519050919050565b5f82825260208201905092915050565b5f819050602082019050919050565b60c082015f820151614fe15f8501826149d1565b506020820151614ff46020850182614d5a565b5060408201516150076040850182614d5a565b50606082015161501a60608501826149d1565b50608082015161502d6080850182614d5a565b5060a082015161504060a0850182614d69565b50505050565b5f6150518383614fcd565b60c08301905092915050565b5f602082019050919050565b5f61507382614fa4565b61507d8185614fae565b935061508883614fbe565b805f5b838110156150b857815161509f8882615046565b97506150aa8361505d565b92505060018101905061508b565b5085935050505092915050565b5f606083015f8301518482035f8601526150df8282614e27565b915050602083015184820360208601526150f98282614f48565b915050604083015184820360408601526151138282615069565b9150508091505092915050565b5f6020820190508181035f83015261513881846150c5565b905092915050565b5f6020828403121561515557615154614a7f565b5b5f61516284828501614acc565b91505092915050565b5f60208201905061517e5f830184614b1e565b92915050565b7f4e487b71000000000000000000000000000000000000000000000000000000005f52603260045260245ffd5b5f815190506151bf81614ab6565b92915050565b5f602082840312156151da576151d9614a7f565b5b5f6151e7848285016151b1565b91505092915050565b5f6040820190506152035f830185614b1e565b6152106020830184614b1e565b9392505050565b5f60608201905061522a5f830186614b1e565b6152376020830185614b1e565b6152446040830184614b2d565b949350505050565b61525581614b3c565b811461525f575f80fd5b50565b5f815190506152708161524c565b92915050565b5f6020828403121561528b5761528a614a7f565b5b5f61529884828501615262565b91505092915050565b5f81905092915050565b50565b5f6152b95f836152a1565b91506152c4826152ab565b5f82019050919050565b5f6152d8826152ae565b9150819050919050565b5f82825260208201905092915050565b7f4661696c656420746f2073656e642045746865720000000000000000000000005f82015250565b5f6153266014836152e2565b9150615331826152f2565b602082019050919050565b5f6020820190508181035f8301526153538161531a565b9050919050565b5f60c08201905061536d5f830189614b1e565b61537a6020830188614b2d565b6153876040830187614b2d565b6153946060830186614b1e565b6153a16080830185614b2d565b6153ae60a0830184614b1e565b979650505050505050565b5f60a0820190506153cc5f830188614b1e565b6153d96020830187614b2d565b6153e66040830186614b1e565b6153f36060830185614b2d565b6154006080830184614b2d565b9695505050505050565b7f68657265310000000000000000000000000000000000000000000000000000005f82015250565b5f61543e6005836152e2565b91506154498261540a565b602082019050919050565b5f6020820190508181035f83015261546b81615432565b9050919050565b7f68657265320000000000000000000000000000000000000000000000000000005f82015250565b5f6154a66005836152e2565b91506154b182615472565b602082019050919050565b5f6020820190508181035f8301526154d38161549a565b9050919050565b5f60e0820190506154ed5f83018a614b1e565b6154fa6020830189614b2d565b6155076040830188614b1e565b6155146060830187614b2d565b6155216080830186614b1e565b61552e60a0830185614b2d565b61553b60c0830184614b1e565b98975050505050505050565b5f60c08201905061555a5f830189614b1e565b6155676020830188614b2d565b6155746040830187614b1e565b6155816060830186614b2d565b61558e6080830185614b1e565b61559b60a0830184614b2d565b979650505050505050565b7f4e487b71000000000000000000000000000000000000000000000000000000005f52601160045260245ffd5b5f6155dd82614aad565b91506155e883614aad565b9250828201905080821115615600576155ff6155a6565b5b92915050565b5f61561082614aad565b91507fffffffffffffffffffffffffffffffffffffffffffffffffffffffffffffffff8203615642576156416155a6565b5b600182019050919050565b5f61565782614aad565b915061566283614aad565b925082820390508181111561567a576156796155a6565b5b92915050565b5f60c0820190506156935f830189614b1e565b6156a06020830188614b2d565b6156ad6040830187614b1e565b6156ba6060830186614b2d565b6156c76080830185614b2d565b6156d460a0830184614b1e565b979650505050505050565b7f68657265203200000000000000000000000000000000000000000000000000005f82015250565b5f6157136006836152e2565b915061571e826156df565b602082019050919050565b5f6020820190508181035f83015261574081615707565b9050919050565b5f60a08201905061575a5f830188614b1e565b6157676020830187614b2d565b6157746040830186614b2d565b6157816060830185614b1e565b61578e6080830184614b2d565b9695505050505050565b7f4e487b71000000000000000000000000000000000000000000000000000000005f52604160045260245ffdfea2646970667358221220b34781250a4a7d99fa8b42d409c4f71114568cde0db94bc5db17a1f349bd750e64736f6c63430008140033",
  "immutableReferences": {},
  "source": "// SPDX-License-Identifier: UNLICENSED\npragma solidity ^0.8.20;\n\nimport \"@openzeppelin/contracts/token/ERC20/ERC20.sol\";\n\ncontract Dex {\n  event EventAddToDexTradeTokensForTokens (\n    address sender,\n    uint indexOfTrade,\n    address tradingTokenAddress,\n    uint tradingTokenAmount,\n    address tradingForTokenAddress,\n    uint tradingForTokenAmount\n  );\n\n  event EventAddToDexTradeTokensForEth (\n    address sender,\n    uint indexOfTrade,\n    address tradingTokenAddress,\n    uint tradingTokenAmount,\n    uint tradingForEthAmount\n  );\n\n  event EventAddToDexTradeEthForTokens (\n    address sender,\n    uint indexOfTrade,\n    uint tradingEthAmount,\n    address tradingForTokenAddress,\n    uint tradingForTokenAmount\n  );\n\n  event EventTradeTokensForTokens (\n    address sender,\n    uint indexOfTrade,\n    address tradingTokenAddress,\n    uint tradingTokenAmount,\n    address tradingForTokenAddress,\n    uint tradingForTokenAmount,\n    address orderCompletedBy\n  );\n\n  event EventTradeTokensForEth (\n    address sender,\n    uint indexOfTrade,\n    address tradingTokenAddress,\n    uint tradingTokenAmount,\n    uint tradingForEthAmount,\n    address orderCompletedBy\n  );\n\n  event EventTradeEthForTokens (\n    address sender,\n    uint indexOfTrade,\n    uint tradingEthAmount,\n    address tradingForTokenAddress,\n    uint tradingForTokenAmount,\n    address orderCompletedBy\n  );\n\n  event EventCanceledTradeTokensForTokens (\n    address sender,\n    uint indexOfTrade,\n    address tradingTokenAddress,\n    uint tradingTokenAmount,\n    address tradingForTokenAddress,\n    uint tradingForTokenAmount\n  );\n\n  event EventCanceledTradeTokensForEth (\n    address sender,\n    uint indexOfTrade,\n    address tradingTokenAddress,\n    uint tradingTokenAmount,\n    uint tradingForEthAmount\n  );\n\n  event EventCanceledTradeEthForTokens (\n    address sender,\n    uint indexOfTrade,\n    uint tradingEthAmount,\n    address tradingForTokenAddress,\n    uint tradingForTokenAmount\n  );\n\n  struct TradeTokensForTokens {\n    address tradingTokenAddress;\n    uint tradingTokenAmount;\n    address tradingForTokenAddress;\n    uint tradingForTokenAmount;\n    bool alreadyTraded;\n  }\n\n  struct TradeTokensForEth {\n    address tradingTokenAddress;\n    uint tradingTokenAmount;\n    uint tradingForEthAmount;\n    bool alreadyTraded;\n  }\n\n  struct TradeEthForTokens {\n    uint tradingEthAmount;\n    address tradingForTokenAddress;\n    uint tradingForTokenAmount;\n    bool alreadyTraded;\n  }\n\n  struct TradeTokensForTokensForCall {\n    address sender;\n    uint indexOfTradeOfAddress;\n    address tradingTokenAddress;\n    uint tradingTokenAmount;\n    address tradingForTokenAddress;\n    uint tradingForTokenAmount;\n    bool alreadyTraded;\n  }\n\n  struct TradeTokensForEthForCall {\n    address sender;\n    uint indexOfTradeOfAddress;\n    address tradingTokenAddress;\n    uint tradingTokenAmount;\n    uint tradingForEthAmount;\n    bool alreadyTraded;\n  }\n\n  struct TradeEthForTokensForCall {\n    address sender;\n    uint indexOfTradeOfAddress;\n    uint tradingEthAmount;\n    address tradingForTokenAddress;\n    uint tradingForTokenAmount;\n    bool alreadyTraded;\n  }\n\n  struct AllTrades {\n    TradeTokensForTokensForCall[] tradeTokensForTokensForCall;\n    TradeTokensForEthForCall[] tradeTokensForEthForCall;\n    TradeEthForTokensForCall[] tradeEthForTokensForCall;\n  }\n\n  mapping(address => TradeTokensForTokens[]) public tradesOfTokensForTokensOfAnAddress;\n  mapping(address => TradeTokensForEth[]) public tradesOfTokensForEthOfAnAddress;\n  mapping(address => TradeEthForTokens[]) public tradesOfEthForTokensOfAnAddress;\n\n  struct TradeCategoriesOfDexUser {\n    bool tradeTokensForTokens;\n    bool tradeTokensForEth;\n    bool tradeEthForTokens;\n  }\n\n  address[] public dexUsersArr;\n  mapping(address => TradeCategoriesOfDexUser) dexUsersMapping;\n\n  address owner;\n\n  constructor() {\n    owner = msg.sender;\n  }\n\n  function addTokensToDexForTradeWithOtherTokens(\n    address tradingTokenAddress,\n    uint tradingTokenAmount,\n    address tradingForTokenAddress,\n    uint tradingForTokenAmount) public {\n\n    ERC20 tradingErc20 = ERC20(tradingTokenAddress);\n\n    uint totalAllowanceRequired = tradingTokenAmount;\n    TradeTokensForTokens[] memory tradeTokensForTokensArrForAddress\n      = tradesOfTokensForTokensOfAnAddress[msg.sender];\n\n    TradeTokensForEth[] memory tradeTokensForEthArrForAddress\n      = tradesOfTokensForEthOfAnAddress[msg.sender];\n\n    if (dexUsersMapping[msg.sender].tradeTokensForTokens == true) {\n      for (uint i = 0; i < tradeTokensForTokensArrForAddress.length; i++) {\n        if (tradeTokensForTokensArrForAddress[i].tradingTokenAddress == tradingTokenAddress\n            && tradeTokensForTokensArrForAddress[i].alreadyTraded == false) {\n          totalAllowanceRequired = tradeTokensForTokensArrForAddress[i].tradingTokenAmount + totalAllowanceRequired;\n        }\n      }\n    }\n\n    if (dexUsersMapping[msg.sender].tradeTokensForEth == true) {\n      for (uint i = 0; i < tradeTokensForEthArrForAddress.length; i++) {\n        if (tradeTokensForEthArrForAddress[i].tradingTokenAddress == tradingTokenAddress\n            && tradeTokensForEthArrForAddress[i].alreadyTraded == false) {\n          totalAllowanceRequired = tradeTokensForEthArrForAddress[i].tradingTokenAmount + totalAllowanceRequired;\n        }\n      }\n    }\n\n    require(tradingErc20.allowance(msg.sender, address(this)) >= totalAllowanceRequired, 'here1');\n\n    require(tradingErc20.balanceOf(msg.sender) >= totalAllowanceRequired, 'here 2');\n\n    /* require(tradingErc20.allowance(msg.sender, address(this)) == newAllowance); */\n\n    tradesOfTokensForTokensOfAnAddress[msg.sender].push(\n      TradeTokensForTokens(\n        tradingTokenAddress,\n        tradingTokenAmount,\n        tradingForTokenAddress,\n        tradingForTokenAmount,\n        false\n    ));\n\n    emit EventAddToDexTradeTokensForTokens(\n      msg.sender,\n      tradesOfTokensForTokensOfAnAddress[msg.sender].length - 1,\n      tradingTokenAddress,\n      tradingTokenAmount,\n      tradingForTokenAddress,\n      tradingForTokenAmount\n    );\n\n    if (dexUsersMapping[msg.sender].tradeTokensForTokens == false &&\n        dexUsersMapping[msg.sender].tradeTokensForEth == false &&\n        dexUsersMapping[msg.sender].tradeEthForTokens == false) {\n          dexUsersArr.push(msg.sender);\n          dexUsersMapping[msg.sender].tradeTokensForTokens = true;\n\n    } else if (dexUsersMapping[msg.sender].tradeTokensForTokens == false) {\n      dexUsersMapping[msg.sender].tradeTokensForTokens = true;\n    }\n  }\n\n  function addTokensToDexForTradeWithEth(\n    address tradingTokenAddress,\n    uint tradingTokenAmount,\n    uint tradingForEthAmount) public {\n\n    ERC20 tradingErc20 = ERC20(tradingTokenAddress);\n\n    uint totalAllowanceRequired = tradingTokenAmount;\n\n    TradeTokensForTokens[] memory tradeTokensForTokensArrForAddress\n      = tradesOfTokensForTokensOfAnAddress[msg.sender];\n\n    TradeTokensForEth[] memory tradeTokensForEthArrForAddress\n      = tradesOfTokensForEthOfAnAddress[msg.sender];\n\n    if (dexUsersMapping[msg.sender].tradeTokensForTokens == true) {\n      for (uint i = 0; i < tradeTokensForTokensArrForAddress.length; i++) {\n        if (tradeTokensForTokensArrForAddress[i].tradingTokenAddress == tradingTokenAddress\n            && tradeTokensForTokensArrForAddress[i].alreadyTraded == false) {\n          totalAllowanceRequired = tradeTokensForTokensArrForAddress[i].tradingTokenAmount + totalAllowanceRequired;\n        }\n      }\n    }\n\n    if (dexUsersMapping[msg.sender].tradeTokensForEth == true) {\n      for (uint i = 0; i < tradeTokensForEthArrForAddress.length; i++) {\n        if (tradeTokensForEthArrForAddress[i].tradingTokenAddress == tradingTokenAddress\n            && tradeTokensForEthArrForAddress[i].alreadyTraded == false) {\n          totalAllowanceRequired = tradeTokensForEthArrForAddress[i].tradingTokenAmount + totalAllowanceRequired;\n        }\n      }\n    }\n\n    require(tradingErc20.allowance(msg.sender, address(this)) >= totalAllowanceRequired);\n    require(tradingErc20.balanceOf(msg.sender) >= totalAllowanceRequired);\n\n    tradesOfTokensForEthOfAnAddress[msg.sender].push(\n      TradeTokensForEth(\n        tradingTokenAddress,\n        tradingTokenAmount,\n        tradingForEthAmount,\n        false\n    ));\n\n    emit EventAddToDexTradeTokensForEth(\n      msg.sender,\n      tradesOfTokensForEthOfAnAddress[msg.sender].length - 1,\n      tradingTokenAddress,\n      tradingTokenAmount,\n      tradingForEthAmount\n    );\n\n    if (dexUsersMapping[msg.sender].tradeTokensForTokens == false &&\n        dexUsersMapping[msg.sender].tradeTokensForEth == false &&\n        dexUsersMapping[msg.sender].tradeEthForTokens == false) {\n          dexUsersArr.push(msg.sender);\n          dexUsersMapping[msg.sender].tradeTokensForEth = true;\n\n    } else if (dexUsersMapping[msg.sender].tradeTokensForEth == false) {\n      dexUsersMapping[msg.sender].tradeTokensForEth = true;\n    }\n  }\n\n  function addEthToDexForTradeWithTokens(\n    uint tradingEthAmount,\n    address tradingForTokenAddress,\n    uint tradingForTokenAmount) public payable {\n\n    require(msg.value == tradingEthAmount);\n\n    tradesOfEthForTokensOfAnAddress[msg.sender].push(\n      TradeEthForTokens(\n        tradingEthAmount,\n        tradingForTokenAddress,\n        tradingForTokenAmount,\n        false\n    ));\n\n    emit EventAddToDexTradeEthForTokens(\n      msg.sender,\n      tradesOfEthForTokensOfAnAddress[msg.sender].length - 1,\n      tradingEthAmount,\n      tradingForTokenAddress,\n      tradingForTokenAmount\n    );\n\n    if (dexUsersMapping[msg.sender].tradeTokensForTokens == false &&\n        dexUsersMapping[msg.sender].tradeTokensForEth == false &&\n        dexUsersMapping[msg.sender].tradeEthForTokens == false) {\n          dexUsersArr.push(msg.sender);\n          dexUsersMapping[msg.sender].tradeEthForTokens = true;\n\n    } else if (dexUsersMapping[msg.sender].tradeEthForTokens == false) {\n      dexUsersMapping[msg.sender].tradeEthForTokens = true;\n    }\n  }\n\n  function buyTokensFromTokens(address sender, uint indexOfTrade) public {\n    require(sender != msg.sender);\n    require(tradesOfTokensForTokensOfAnAddress[sender][indexOfTrade].alreadyTraded != true);\n\n    ERC20 tradingErc20 = ERC20(tradesOfTokensForTokensOfAnAddress[sender][indexOfTrade].tradingTokenAddress);\n    tradingErc20.transferFrom(sender, msg.sender, tradesOfTokensForTokensOfAnAddress[sender][indexOfTrade].tradingTokenAmount);\n\n    ERC20 tradingForErc20 = ERC20(tradesOfTokensForTokensOfAnAddress[sender][indexOfTrade].tradingForTokenAddress);\n\n    require(tradingForErc20.balanceOf(msg.sender) >= tradesOfTokensForTokensOfAnAddress[sender][indexOfTrade].tradingForTokenAmount, 'here1');\n    require(tradingForErc20.allowance(msg.sender, address(this)) >= tradesOfTokensForTokensOfAnAddress[sender][indexOfTrade].tradingForTokenAmount, 'here2');\n\n    tradingForErc20.transferFrom(msg.sender, sender, tradesOfTokensForTokensOfAnAddress[sender][indexOfTrade].tradingForTokenAmount);\n\n    tradesOfTokensForTokensOfAnAddress[sender][indexOfTrade].alreadyTraded = true;\n\n    emit EventTradeTokensForTokens(\n      sender,\n      indexOfTrade,\n      tradesOfTokensForTokensOfAnAddress[sender][indexOfTrade].tradingTokenAddress,\n      tradesOfTokensForTokensOfAnAddress[sender][indexOfTrade].tradingTokenAmount,\n      tradesOfTokensForTokensOfAnAddress[sender][indexOfTrade].tradingForTokenAddress,\n      tradesOfTokensForTokensOfAnAddress[sender][indexOfTrade].tradingForTokenAmount,\n      msg.sender\n    );\n  }\n\n  function buyTokensForEth(address sender, uint indexOfTrade) public payable {\n    require(sender != msg.sender);\n    require(tradesOfTokensForEthOfAnAddress[sender][indexOfTrade].alreadyTraded != true);\n\n    ERC20 tradingErc20 = ERC20(tradesOfTokensForEthOfAnAddress[sender][indexOfTrade].tradingTokenAddress);\n    tradingErc20.transferFrom(sender, msg.sender, tradesOfTokensForEthOfAnAddress[sender][indexOfTrade].tradingTokenAmount);\n\n    require(msg.value == tradesOfTokensForEthOfAnAddress[sender][indexOfTrade].tradingForEthAmount);\n\n    (bool sent,) = sender.call{value: msg.value}(\"\");\n    require(sent, \"Failed to send Ether\");\n\n    tradesOfTokensForEthOfAnAddress[sender][indexOfTrade].alreadyTraded = true;\n\n    emit EventTradeTokensForEth(\n      sender,\n      indexOfTrade,\n      tradesOfTokensForEthOfAnAddress[sender][indexOfTrade].tradingTokenAddress,\n      tradesOfTokensForEthOfAnAddress[sender][indexOfTrade].tradingTokenAmount,\n      tradesOfTokensForEthOfAnAddress[sender][indexOfTrade].tradingForEthAmount,\n      msg.sender\n    );\n  }\n\n  function buyEthForTokens(address sender, uint indexOfTrade) public payable {\n    require(sender != msg.sender);\n    require(tradesOfEthForTokensOfAnAddress[sender][indexOfTrade].alreadyTraded != true);\n\n    ERC20 tradingForErc20 = ERC20(tradesOfEthForTokensOfAnAddress[sender][indexOfTrade].tradingForTokenAddress);\n    require(tradingForErc20.balanceOf(msg.sender) >= tradesOfEthForTokensOfAnAddress[sender][indexOfTrade].tradingForTokenAmount);\n\n    require(tradingForErc20.allowance(msg.sender, address(this)) >= tradesOfEthForTokensOfAnAddress[sender][indexOfTrade].tradingForTokenAmount);\n\n    tradingForErc20.transferFrom(msg.sender, sender, tradesOfEthForTokensOfAnAddress[sender][indexOfTrade].tradingForTokenAmount);\n\n    (bool sent,) = payable(msg.sender).call{value: tradesOfEthForTokensOfAnAddress[sender][indexOfTrade].tradingEthAmount}(\"\");\n    require(sent, \"Failed to send Ether\");\n\n    tradesOfEthForTokensOfAnAddress[sender][indexOfTrade].alreadyTraded = true;\n\n    emit EventTradeEthForTokens(\n      sender,\n      indexOfTrade,\n      tradesOfEthForTokensOfAnAddress[sender][indexOfTrade].tradingEthAmount,\n      tradesOfEthForTokensOfAnAddress[sender][indexOfTrade].tradingForTokenAddress,\n      tradesOfEthForTokensOfAnAddress[sender][indexOfTrade].tradingForTokenAmount,\n      msg.sender\n    );\n  }\n\n  function cancelTradeForTokensWithTokens(address sender, uint indexOfTrade) public {\n    require(msg.sender == sender);\n    require(tradesOfTokensForTokensOfAnAddress[sender][indexOfTrade].alreadyTraded == false);\n\n    tradesOfTokensForTokensOfAnAddress[sender][indexOfTrade].alreadyTraded = true;\n\n    emit EventCanceledTradeTokensForTokens(\n      sender,\n      indexOfTrade,\n      tradesOfTokensForTokensOfAnAddress[sender][indexOfTrade].tradingTokenAddress,\n      tradesOfTokensForTokensOfAnAddress[sender][indexOfTrade].tradingTokenAmount,\n      tradesOfTokensForTokensOfAnAddress[sender][indexOfTrade].tradingForTokenAddress,\n      tradesOfTokensForTokensOfAnAddress[sender][indexOfTrade].tradingForTokenAmount\n    );\n  }\n\n  function cancelTradeForTokensWithEth(address sender, uint indexOfTrade) public {\n    require(msg.sender == sender);\n    require(tradesOfTokensForEthOfAnAddress[sender][indexOfTrade].alreadyTraded == false);\n\n    tradesOfTokensForEthOfAnAddress[sender][indexOfTrade].alreadyTraded = true;\n\n    emit EventCanceledTradeTokensForEth(\n      sender,\n      indexOfTrade,\n      tradesOfTokensForEthOfAnAddress[sender][indexOfTrade].tradingTokenAddress,\n      tradesOfTokensForEthOfAnAddress[sender][indexOfTrade].tradingTokenAmount,\n      tradesOfTokensForEthOfAnAddress[sender][indexOfTrade].tradingForEthAmount\n    );\n  }\n\n  function cancelTradeForEthWithTokens(address sender, uint indexOfTrade) public payable {\n    require(msg.sender == sender);\n    require(tradesOfEthForTokensOfAnAddress[sender][indexOfTrade].alreadyTraded == false);\n\n    tradesOfEthForTokensOfAnAddress[sender][indexOfTrade].alreadyTraded = true;\n\n    (bool sent,) = payable(msg.sender).call{value: tradesOfEthForTokensOfAnAddress[sender][indexOfTrade].tradingEthAmount}(\"\");\n    require(sent, \"Failed to send Ether\");\n\n    emit EventCanceledTradeEthForTokens(\n      sender,\n      indexOfTrade,\n      tradesOfEthForTokensOfAnAddress[sender][indexOfTrade].tradingEthAmount,\n      tradesOfEthForTokensOfAnAddress[sender][indexOfTrade].tradingForTokenAddress,\n      tradesOfEthForTokensOfAnAddress[sender][indexOfTrade].tradingForTokenAmount\n    );\n  }\n\n  function getAllTrades() public view returns (AllTrades memory) {\n\n    uint amountOfTrades = 0;\n\n    for (uint i = 0; i < dexUsersArr.length; i++) {\n      for (uint j = 0; j < tradesOfTokensForTokensOfAnAddress[dexUsersArr[i]].length; j++) {\n        amountOfTrades = amountOfTrades + 1;\n      }\n    }\n\n    TradeTokensForTokensForCall[] memory tradeTokensForTokensResultArr = new TradeTokensForTokensForCall[](amountOfTrades);\n\n    uint indexOfResultArr = 0;\n\n    for (uint i = 0; i < dexUsersArr.length; i++) {\n      for (uint j = 0; j < tradesOfTokensForTokensOfAnAddress[dexUsersArr[i]].length; j++) {\n        TradeTokensForTokens memory tradeTokensForTokens = tradesOfTokensForTokensOfAnAddress[dexUsersArr[i]][j];\n        TradeTokensForTokensForCall memory tradeTokensForTokensForCall = TradeTokensForTokensForCall (\n          dexUsersArr[i],\n          j,\n          tradeTokensForTokens.tradingTokenAddress,\n          tradeTokensForTokens.tradingTokenAmount,\n          tradeTokensForTokens.tradingForTokenAddress,\n          tradeTokensForTokens.tradingForTokenAmount,\n          tradeTokensForTokens.alreadyTraded\n        );\n\n        tradeTokensForTokensResultArr[indexOfResultArr] = tradeTokensForTokensForCall;\n\n        indexOfResultArr = indexOfResultArr + 1;\n      }\n    }\n\n    amountOfTrades = 0;\n\n    for (uint i = 0; i < dexUsersArr.length; i++) {\n      for (uint j = 0; j < tradesOfTokensForEthOfAnAddress[dexUsersArr[i]].length; j++) {\n        amountOfTrades = amountOfTrades + 1;\n      }\n    }\n\n    TradeTokensForEthForCall[] memory tradeTokensForEthResultArr = new TradeTokensForEthForCall[](amountOfTrades);\n\n    indexOfResultArr = 0;\n\n    for (uint i = 0; i < dexUsersArr.length; i++) {\n      for (uint j = 0; j < tradesOfTokensForEthOfAnAddress[dexUsersArr[i]].length; j++) {\n        TradeTokensForEth memory tradeTokensForEth = tradesOfTokensForEthOfAnAddress[dexUsersArr[i]][j];\n        TradeTokensForEthForCall memory tradeTokensForEthForCall = TradeTokensForEthForCall (\n          dexUsersArr[i],\n          j,\n          tradeTokensForEth.tradingTokenAddress,\n          tradeTokensForEth.tradingTokenAmount,\n          tradeTokensForEth.tradingForEthAmount,\n          tradeTokensForEth.alreadyTraded\n        );\n\n        tradeTokensForEthResultArr[indexOfResultArr] = tradeTokensForEthForCall;\n        indexOfResultArr = indexOfResultArr + 1;\n      }\n    }\n\n    amountOfTrades = 0;\n\n    for (uint i = 0; i < dexUsersArr.length; i++) {\n      for (uint j = 0; j < tradesOfEthForTokensOfAnAddress[dexUsersArr[i]].length; j++) {\n        amountOfTrades = amountOfTrades + 1;\n      }\n    }\n\n    TradeEthForTokensForCall[] memory tradeEthForTokensResultArr = new TradeEthForTokensForCall[](amountOfTrades);\n\n    indexOfResultArr = 0;\n\n    for (uint i = 0; i < dexUsersArr.length; i++) {\n      for (uint j = 0; j < tradesOfEthForTokensOfAnAddress[dexUsersArr[i]].length; j++) {\n        TradeEthForTokens memory tradeEthForTokens = tradesOfEthForTokensOfAnAddress[dexUsersArr[i]][j];\n        TradeEthForTokensForCall memory tradeEthForTokensForCall = TradeEthForTokensForCall (\n          dexUsersArr[i],\n          j,\n          tradeEthForTokens.tradingEthAmount,\n          tradeEthForTokens.tradingForTokenAddress,\n          tradeEthForTokens.tradingForTokenAmount,\n          tradeEthForTokens.alreadyTraded\n        );\n\n        tradeEthForTokensResultArr[indexOfResultArr] = tradeEthForTokensForCall;\n        indexOfResultArr = indexOfResultArr + 1;\n      }\n    }\n\n    AllTrades memory allTrades;\n\n    allTrades.tradeTokensForTokensForCall = tradeTokensForTokensResultArr;\n    allTrades.tradeTokensForEthForCall = tradeTokensForEthResultArr;\n    allTrades.tradeEthForTokensForCall = tradeEthForTokensResultArr;\n\n    return allTrades;\n  }\n\n\n\n  function getDexUsers() public view returns (address[] memory) {\n    return dexUsersArr;\n  }\n\n  struct AllTradesOfAccount {\n    TradeTokensForTokensForCall[] tradeTokensForTokensForCall;\n    TradeTokensForEthForCall[] tradeTokensForEthForCall;\n    TradeEthForTokensForCall[] tradeEthForTokensForCall;\n  }\n}\n",
  "sourcePath": "/Users/zhiwen/code/dex-old/contracts/contracts/Dex.sol",
  "compiler": {
    "name": "solc",
    "version": "0.8.20+commit.a1b79de6.Emscripten.clang"
  },
  "schemaVersion": "3.4.16",
  "updatedAt": "2024-10-14T19:22:35.936Z",
  "devdoc": {
    "kind": "dev",
    "methods": {},
    "version": 1
  },
  "userdoc": {
    "kind": "user",
    "methods": {},
    "version": 1
  }
}