{
  "contractName": "Dex",
  "abi": [
    {
      "inputs": [],
      "stateMutability": "nonpayable",
      "type": "constructor"
    },
    {
      "anonymous": false,
      "inputs": [
        {
          "indexed": false,
          "internalType": "address",
          "name": "sender",
          "type": "address"
        },
        {
          "indexed": false,
          "internalType": "uint256",
          "name": "tradingEthAmount",
          "type": "uint256"
        },
        {
          "indexed": false,
          "internalType": "address",
          "name": "tradingForTokenAddress",
          "type": "address"
        },
        {
          "indexed": false,
          "internalType": "uint256",
          "name": "tradingForTokenAmount",
          "type": "uint256"
        }
      ],
      "name": "EventAddToDexTradeEthForTokens",
      "type": "event"
    },
    {
      "anonymous": false,
      "inputs": [
        {
          "indexed": false,
          "internalType": "address",
          "name": "sender",
          "type": "address"
        },
        {
          "indexed": false,
          "internalType": "address",
          "name": "tradingTokenAddress",
          "type": "address"
        },
        {
          "indexed": false,
          "internalType": "uint256",
          "name": "tradingTokenAmount",
          "type": "uint256"
        },
        {
          "indexed": false,
          "internalType": "uint256",
          "name": "tradingForEthAmount",
          "type": "uint256"
        }
      ],
      "name": "EventAddToDexTradeTokensForEth",
      "type": "event"
    },
    {
      "anonymous": false,
      "inputs": [
        {
          "indexed": false,
          "internalType": "address",
          "name": "sender",
          "type": "address"
        },
        {
          "indexed": false,
          "internalType": "address",
          "name": "tradingTokenAddress",
          "type": "address"
        },
        {
          "indexed": false,
          "internalType": "uint256",
          "name": "tradingTokenAmount",
          "type": "uint256"
        },
        {
          "indexed": false,
          "internalType": "address",
          "name": "tradingForTokenAddress",
          "type": "address"
        },
        {
          "indexed": false,
          "internalType": "uint256",
          "name": "tradingForTokenAmount",
          "type": "uint256"
        }
      ],
      "name": "EventAddToDexTradeTokensForTokens",
      "type": "event"
    },
    {
      "anonymous": false,
      "inputs": [
        {
          "indexed": false,
          "internalType": "address",
          "name": "sender",
          "type": "address"
        },
        {
          "indexed": false,
          "internalType": "uint256",
          "name": "tradingEthAmount",
          "type": "uint256"
        },
        {
          "indexed": false,
          "internalType": "address",
          "name": "tradingForTokenAddress",
          "type": "address"
        },
        {
          "indexed": false,
          "internalType": "uint256",
          "name": "tradingForTokenAmount",
          "type": "uint256"
        }
      ],
      "name": "EventCanceledTradeEthForTokens",
      "type": "event"
    },
    {
      "anonymous": false,
      "inputs": [
        {
          "indexed": false,
          "internalType": "address",
          "name": "sender",
          "type": "address"
        },
        {
          "indexed": false,
          "internalType": "address",
          "name": "tradingTokenAddress",
          "type": "address"
        },
        {
          "indexed": false,
          "internalType": "uint256",
          "name": "tradingTokenAmount",
          "type": "uint256"
        },
        {
          "indexed": false,
          "internalType": "uint256",
          "name": "tradingForEthAmount",
          "type": "uint256"
        }
      ],
      "name": "EventCanceledTradeTokensForEth",
      "type": "event"
    },
    {
      "anonymous": false,
      "inputs": [
        {
          "indexed": false,
          "internalType": "address",
          "name": "sender",
          "type": "address"
        },
        {
          "indexed": false,
          "internalType": "address",
          "name": "tradingTokenAddress",
          "type": "address"
        },
        {
          "indexed": false,
          "internalType": "uint256",
          "name": "tradingTokenAmount",
          "type": "uint256"
        },
        {
          "indexed": false,
          "internalType": "address",
          "name": "tradingForTokenAddress",
          "type": "address"
        },
        {
          "indexed": false,
          "internalType": "uint256",
          "name": "tradingForTokenAmount",
          "type": "uint256"
        }
      ],
      "name": "EventCanceledTradeTokensForTokens",
      "type": "event"
    },
    {
      "anonymous": false,
      "inputs": [
        {
          "indexed": false,
          "internalType": "address",
          "name": "sender",
          "type": "address"
        },
        {
          "indexed": false,
          "internalType": "uint256",
          "name": "tradingEthAmount",
          "type": "uint256"
        },
        {
          "indexed": false,
          "internalType": "address",
          "name": "tradingForTokenAddress",
          "type": "address"
        },
        {
          "indexed": false,
          "internalType": "uint256",
          "name": "tradingForTokenAmount",
          "type": "uint256"
        }
      ],
      "name": "EventTradeEthForTokens",
      "type": "event"
    },
    {
      "anonymous": false,
      "inputs": [
        {
          "indexed": false,
          "internalType": "address",
          "name": "sender",
          "type": "address"
        },
        {
          "indexed": false,
          "internalType": "address",
          "name": "tradingTokenAddress",
          "type": "address"
        },
        {
          "indexed": false,
          "internalType": "uint256",
          "name": "tradingTokenAmount",
          "type": "uint256"
        },
        {
          "indexed": false,
          "internalType": "uint256",
          "name": "tradingForEthAmount",
          "type": "uint256"
        }
      ],
      "name": "EventTradeTokensForEth",
      "type": "event"
    },
    {
      "anonymous": false,
      "inputs": [
        {
          "indexed": false,
          "internalType": "address",
          "name": "sender",
          "type": "address"
        },
        {
          "indexed": false,
          "internalType": "address",
          "name": "tradingTokenAddress",
          "type": "address"
        },
        {
          "indexed": false,
          "internalType": "uint256",
          "name": "tradingTokenAmount",
          "type": "uint256"
        },
        {
          "indexed": false,
          "internalType": "address",
          "name": "tradingForTokenAddress",
          "type": "address"
        },
        {
          "indexed": false,
          "internalType": "uint256",
          "name": "tradingForTokenAmount",
          "type": "uint256"
        }
      ],
      "name": "EventTradeTokensForTokens",
      "type": "event"
    },
    {
      "inputs": [
        {
          "internalType": "uint256",
          "name": "",
          "type": "uint256"
        }
      ],
      "name": "dexUsersArr",
      "outputs": [
        {
          "internalType": "address",
          "name": "",
          "type": "address"
        }
      ],
      "stateMutability": "view",
      "type": "function"
    },
    {
      "inputs": [
        {
          "internalType": "address",
          "name": "",
          "type": "address"
        },
        {
          "internalType": "uint256",
          "name": "",
          "type": "uint256"
        }
      ],
      "name": "tradesOfEthForTokensOfAnAddress",
      "outputs": [
        {
          "internalType": "uint256",
          "name": "tradingEthAmount",
          "type": "uint256"
        },
        {
          "internalType": "address",
          "name": "tradingForTokenAddress",
          "type": "address"
        },
        {
          "internalType": "uint256",
          "name": "tradingForTokenAmount",
          "type": "uint256"
        },
        {
          "internalType": "bool",
          "name": "alreadyTraded",
          "type": "bool"
        }
      ],
      "stateMutability": "view",
      "type": "function"
    },
    {
      "inputs": [
        {
          "internalType": "address",
          "name": "",
          "type": "address"
        },
        {
          "internalType": "uint256",
          "name": "",
          "type": "uint256"
        }
      ],
      "name": "tradesOfTokensForEthOfAnAddress",
      "outputs": [
        {
          "internalType": "address",
          "name": "tradingTokenAddress",
          "type": "address"
        },
        {
          "internalType": "uint256",
          "name": "tradingTokenAmount",
          "type": "uint256"
        },
        {
          "internalType": "uint256",
          "name": "tradingForEthAmount",
          "type": "uint256"
        },
        {
          "internalType": "bool",
          "name": "alreadyTraded",
          "type": "bool"
        }
      ],
      "stateMutability": "view",
      "type": "function"
    },
    {
      "inputs": [
        {
          "internalType": "address",
          "name": "",
          "type": "address"
        },
        {
          "internalType": "uint256",
          "name": "",
          "type": "uint256"
        }
      ],
      "name": "tradesOfTokensForTokensOfAnAddress",
      "outputs": [
        {
          "internalType": "address",
          "name": "tradingTokenAddress",
          "type": "address"
        },
        {
          "internalType": "uint256",
          "name": "tradingTokenAmount",
          "type": "uint256"
        },
        {
          "internalType": "address",
          "name": "tradingForTokenAddress",
          "type": "address"
        },
        {
          "internalType": "uint256",
          "name": "tradingForTokenAmount",
          "type": "uint256"
        },
        {
          "internalType": "bool",
          "name": "alreadyTraded",
          "type": "bool"
        }
      ],
      "stateMutability": "view",
      "type": "function"
    },
    {
      "inputs": [
        {
          "internalType": "address",
          "name": "tradingTokenAddress",
          "type": "address"
        },
        {
          "internalType": "uint256",
          "name": "tradingTokenAmount",
          "type": "uint256"
        },
        {
          "internalType": "address",
          "name": "tradingForTokenAddress",
          "type": "address"
        },
        {
          "internalType": "uint256",
          "name": "tradingForTokenAmount",
          "type": "uint256"
        }
      ],
      "name": "addTokensToDexForTradeWithOtherTokens",
      "outputs": [],
      "stateMutability": "nonpayable",
      "type": "function"
    },
    {
      "inputs": [
        {
          "internalType": "address",
          "name": "tradingTokenAddress",
          "type": "address"
        },
        {
          "internalType": "uint256",
          "name": "tradingTokenAmount",
          "type": "uint256"
        },
        {
          "internalType": "uint256",
          "name": "tradingForEthAmount",
          "type": "uint256"
        }
      ],
      "name": "addTokensToDexForTradeWithEth",
      "outputs": [],
      "stateMutability": "nonpayable",
      "type": "function"
    },
    {
      "inputs": [
        {
          "internalType": "uint256",
          "name": "tradingEthAmount",
          "type": "uint256"
        },
        {
          "internalType": "address",
          "name": "tradingForTokenAddress",
          "type": "address"
        },
        {
          "internalType": "uint256",
          "name": "tradingForTokenAmount",
          "type": "uint256"
        }
      ],
      "name": "addEthToDexForTradeWithTokens",
      "outputs": [],
      "stateMutability": "payable",
      "type": "function"
    },
    {
      "inputs": [
        {
          "internalType": "address",
          "name": "sender",
          "type": "address"
        },
        {
          "internalType": "uint256",
          "name": "indexOfTrade",
          "type": "uint256"
        }
      ],
      "name": "buyTokensFromOtherTokens",
      "outputs": [],
      "stateMutability": "nonpayable",
      "type": "function"
    },
    {
      "inputs": [
        {
          "internalType": "address",
          "name": "sender",
          "type": "address"
        },
        {
          "internalType": "uint256",
          "name": "indexOfTrade",
          "type": "uint256"
        }
      ],
      "name": "buyTokensForEth",
      "outputs": [],
      "stateMutability": "payable",
      "type": "function"
    },
    {
      "inputs": [
        {
          "internalType": "address",
          "name": "sender",
          "type": "address"
        },
        {
          "internalType": "uint256",
          "name": "indexOfTrade",
          "type": "uint256"
        }
      ],
      "name": "buyEthForTokens",
      "outputs": [],
      "stateMutability": "payable",
      "type": "function"
    },
    {
      "inputs": [
        {
          "internalType": "address",
          "name": "sender",
          "type": "address"
        },
        {
          "internalType": "uint256",
          "name": "indexOfTrade",
          "type": "uint256"
        }
      ],
      "name": "cancelTradeForTokensWithTokens",
      "outputs": [],
      "stateMutability": "nonpayable",
      "type": "function"
    },
    {
      "inputs": [
        {
          "internalType": "address",
          "name": "sender",
          "type": "address"
        },
        {
          "internalType": "uint256",
          "name": "indexOfTrade",
          "type": "uint256"
        }
      ],
      "name": "cancelTradeForTokensWithEth",
      "outputs": [],
      "stateMutability": "nonpayable",
      "type": "function"
    },
    {
      "inputs": [
        {
          "internalType": "address",
          "name": "sender",
          "type": "address"
        },
        {
          "internalType": "uint256",
          "name": "indexOfTrade",
          "type": "uint256"
        }
      ],
      "name": "cancelTradeForEthWithTokens",
      "outputs": [],
      "stateMutability": "payable",
      "type": "function"
    },
    {
      "inputs": [],
      "name": "getTradesForTokensWithTokens",
      "outputs": [
        {
          "components": [
            {
              "internalType": "address",
              "name": "sender",
              "type": "address"
            },
            {
              "internalType": "uint256",
              "name": "indexOfTradeOfAddress",
              "type": "uint256"
            },
            {
              "internalType": "address",
              "name": "tradingTokenAddress",
              "type": "address"
            },
            {
              "internalType": "uint256",
              "name": "tradingTokenAmount",
              "type": "uint256"
            },
            {
              "internalType": "address",
              "name": "tradingForTokenAddress",
              "type": "address"
            },
            {
              "internalType": "uint256",
              "name": "tradingForTokenAmount",
              "type": "uint256"
            },
            {
              "internalType": "bool",
              "name": "alreadyTraded",
              "type": "bool"
            }
          ],
          "internalType": "struct Dex.TradeTokensForTokensForCall[]",
          "name": "",
          "type": "tuple[]"
        }
      ],
      "stateMutability": "view",
      "type": "function"
    },
    {
      "inputs": [],
      "name": "getTradesForTokensWithEth",
      "outputs": [
        {
          "components": [
            {
              "internalType": "address",
              "name": "sender",
              "type": "address"
            },
            {
              "internalType": "uint256",
              "name": "indexOfTradeOfAddress",
              "type": "uint256"
            },
            {
              "internalType": "address",
              "name": "tradingTokenAddress",
              "type": "address"
            },
            {
              "internalType": "uint256",
              "name": "tradingTokenAmount",
              "type": "uint256"
            },
            {
              "internalType": "uint256",
              "name": "tradingForEthAmount",
              "type": "uint256"
            },
            {
              "internalType": "bool",
              "name": "alreadyTraded",
              "type": "bool"
            }
          ],
          "internalType": "struct Dex.TradeTokensForEthForCall[]",
          "name": "",
          "type": "tuple[]"
        }
      ],
      "stateMutability": "view",
      "type": "function"
    },
    {
      "inputs": [],
      "name": "getTradesForEthWithTokens",
      "outputs": [
        {
          "components": [
            {
              "internalType": "address",
              "name": "sender",
              "type": "address"
            },
            {
              "internalType": "uint256",
              "name": "indexOfTradeOfAddress",
              "type": "uint256"
            },
            {
              "internalType": "uint256",
              "name": "tradingEthAmount",
              "type": "uint256"
            },
            {
              "internalType": "address",
              "name": "tradingForTokenAddress",
              "type": "address"
            },
            {
              "internalType": "uint256",
              "name": "tradingForTokenAmount",
              "type": "uint256"
            },
            {
              "internalType": "bool",
              "name": "alreadyTraded",
              "type": "bool"
            }
          ],
          "internalType": "struct Dex.TradeEthForTokensForCall[]",
          "name": "",
          "type": "tuple[]"
        }
      ],
      "stateMutability": "view",
      "type": "function"
    },
    {
      "inputs": [],
      "name": "getDexUsers",
      "outputs": [
        {
          "internalType": "address[]",
          "name": "",
          "type": "address[]"
        }
      ],
      "stateMutability": "view",
      "type": "function"
    },
    {
      "inputs": [
        {
          "internalType": "address",
          "name": "sender",
          "type": "address"
        }
      ],
      "name": "getAllTradesOfAccount",
      "outputs": [
        {
          "components": [
            {
              "components": [
                {
                  "internalType": "address",
                  "name": "sender",
                  "type": "address"
                },
                {
                  "internalType": "uint256",
                  "name": "indexOfTradeOfAddress",
                  "type": "uint256"
                },
                {
                  "internalType": "address",
                  "name": "tradingTokenAddress",
                  "type": "address"
                },
                {
                  "internalType": "uint256",
                  "name": "tradingTokenAmount",
                  "type": "uint256"
                },
                {
                  "internalType": "address",
                  "name": "tradingForTokenAddress",
                  "type": "address"
                },
                {
                  "internalType": "uint256",
                  "name": "tradingForTokenAmount",
                  "type": "uint256"
                },
                {
                  "internalType": "bool",
                  "name": "alreadyTraded",
                  "type": "bool"
                }
              ],
              "internalType": "struct Dex.TradeTokensForTokensForCall[]",
              "name": "tradeTokensForTokensForCall",
              "type": "tuple[]"
            },
            {
              "components": [
                {
                  "internalType": "address",
                  "name": "sender",
                  "type": "address"
                },
                {
                  "internalType": "uint256",
                  "name": "indexOfTradeOfAddress",
                  "type": "uint256"
                },
                {
                  "internalType": "address",
                  "name": "tradingTokenAddress",
                  "type": "address"
                },
                {
                  "internalType": "uint256",
                  "name": "tradingTokenAmount",
                  "type": "uint256"
                },
                {
                  "internalType": "uint256",
                  "name": "tradingForEthAmount",
                  "type": "uint256"
                },
                {
                  "internalType": "bool",
                  "name": "alreadyTraded",
                  "type": "bool"
                }
              ],
              "internalType": "struct Dex.TradeTokensForEthForCall[]",
              "name": "tradeTokensForEthForCall",
              "type": "tuple[]"
            },
            {
              "components": [
                {
                  "internalType": "address",
                  "name": "sender",
                  "type": "address"
                },
                {
                  "internalType": "uint256",
                  "name": "indexOfTradeOfAddress",
                  "type": "uint256"
                },
                {
                  "internalType": "uint256",
                  "name": "tradingEthAmount",
                  "type": "uint256"
                },
                {
                  "internalType": "address",
                  "name": "tradingForTokenAddress",
                  "type": "address"
                },
                {
                  "internalType": "uint256",
                  "name": "tradingForTokenAmount",
                  "type": "uint256"
                },
                {
                  "internalType": "bool",
                  "name": "alreadyTraded",
                  "type": "bool"
                }
              ],
              "internalType": "struct Dex.TradeEthForTokensForCall[]",
              "name": "tradeEthForTokensForCall",
              "type": "tuple[]"
            }
          ],
          "internalType": "struct Dex.AllTradesOfAccount",
          "name": "",
          "type": "tuple"
        }
      ],
      "stateMutability": "view",
      "type": "function"
    }
  ],
  "bytecode": "0x608060405234801561000f575f80fd5b503360055f6101000a81548173ffffffffffffffffffffffffffffffffffffffff021916908373ffffffffffffffffffffffffffffffffffffffff160217905550615e6e806200005e5f395ff3fe608060405260043610610108575f3560e01c80637f1ca38b11610094578063b25cfc9011610063578063b25cfc9014610339578063be53210914610363578063d74f378c146103a2578063e39c40fc146103ca578063fd9c8853146103e657610108565b80637f1ca38b146102b15780638c69cd84146102d9578063a1179c72146102f5578063a306802f1461031d57610108565b80633b66082a116100db5780633b66082a146101bb5780633c0d2d7b146101fb5780634737ab8d146102375780635956038214610261578063748d6a741461028957610108565b8063089733781461010c5780630bc07cef1461013657806315fb6839146101755780631cdec0421461019f575b5f80fd5b348015610117575f80fd5b50610120610422565b60405161012d91906151c3565b60405180910390f35b348015610141575f80fd5b5061015c60048036038101906101579190615244565b6104ad565b60405161016c94939291906152ba565b60405180910390f35b348015610180575f80fd5b5061018961051e565b604051610196919061544f565b60405180910390f35b6101b960048036038101906101b49190615244565b610979565b005b3480156101c6575f80fd5b506101e160048036038101906101dc9190615244565b61100a565b6040516101f295949392919061546f565b60405180910390f35b348015610206575f80fd5b50610221600480360381019061021c91906154c0565b61109f565b60405161022e91906157f4565b60405180910390f35b348015610242575f80fd5b5061024b6118c2565b6040516102589190615880565b60405180910390f35b34801561026c575f80fd5b5061028760048036038101906102829190615244565b611d3f565b005b348015610294575f80fd5b506102af60048036038101906102aa9190615244565b611fdd565b005b3480156102bc575f80fd5b506102d760048036038101906102d291906158a0565b6122f5565b005b6102f360048036038101906102ee9190615244565b612c9e565b005b348015610300575f80fd5b5061031b600480360381019061031691906158f0565b613175565b005b61033760048036038101906103329190615954565b613b7f565b005b348015610344575f80fd5b5061034d613f5c565b60405161035a9190615a10565b60405180910390f35b34801561036e575f80fd5b5061038960048036038101906103849190615244565b6143d9565b6040516103999493929190615a30565b60405180910390f35b3480156103ad575f80fd5b506103c860048036038101906103c39190615244565b61444a565b005b6103e460048036038101906103df9190615244565b614ba5565b005b3480156103f1575f80fd5b5061040c60048036038101906104079190615a73565b614f4a565b6040516104199190615a9e565b60405180910390f35b606060038054806020026020016040519081016040528092919081815260200182805480156104a357602002820191905f5260205f20905b815f9054906101000a900473ffffffffffffffffffffffffffffffffffffffff1673ffffffffffffffffffffffffffffffffffffffff168152602001906001019080831161045a575b5050505050905090565b6001602052815f5260405f2081815481106104c6575f80fd5b905f5260205f2090600402015f9150915050805f015f9054906101000a900473ffffffffffffffffffffffffffffffffffffffff1690806001015490806002015490806003015f9054906101000a900460ff16905084565b60605f805b6003805490508110156105ea575f5b5f806003848154811061054857610547615ab7565b5b905f5260205f20015f9054906101000a900473ffffffffffffffffffffffffffffffffffffffff1673ffffffffffffffffffffffffffffffffffffffff1673ffffffffffffffffffffffffffffffffffffffff1681526020019081526020015f20805490508110156105d6576001836105c19190615b11565b925080806105ce90615b44565b915050610532565b5080806105e290615b44565b915050610523565b505f8167ffffffffffffffff81111561060657610605615b8b565b5b60405190808252806020026020018201604052801561063f57816020015b61062c614f85565b8152602001906001900390816106245790505b5090505f805b60038054905081101561096f575f5b5f806003848154811061066a57610669615ab7565b5b905f5260205f20015f9054906101000a900473ffffffffffffffffffffffffffffffffffffffff1673ffffffffffffffffffffffffffffffffffffffff1673ffffffffffffffffffffffffffffffffffffffff1681526020019081526020015f208054905081101561095b575f805f600385815481106106ed576106ec615ab7565b5b905f5260205f20015f9054906101000a900473ffffffffffffffffffffffffffffffffffffffff1673ffffffffffffffffffffffffffffffffffffffff1673ffffffffffffffffffffffffffffffffffffffff1681526020019081526020015f2082815481106107605761075f615ab7565b5b905f5260205f2090600502016040518060a00160405290815f82015f9054906101000a900473ffffffffffffffffffffffffffffffffffffffff1673ffffffffffffffffffffffffffffffffffffffff1673ffffffffffffffffffffffffffffffffffffffff16815260200160018201548152602001600282015f9054906101000a900473ffffffffffffffffffffffffffffffffffffffff1673ffffffffffffffffffffffffffffffffffffffff1673ffffffffffffffffffffffffffffffffffffffff16815260200160038201548152602001600482015f9054906101000a900460ff16151515158152505090505f6040518060e00160405280600386815481106108705761086f615ab7565b5b905f5260205f20015f9054906101000a900473ffffffffffffffffffffffffffffffffffffffff1673ffffffffffffffffffffffffffffffffffffffff168152602001848152602001835f015173ffffffffffffffffffffffffffffffffffffffff16815260200183602001518152602001836040015173ffffffffffffffffffffffffffffffffffffffff168152602001836060015181526020018360800151151581525090508086868151811061092c5761092b615ab7565b5b60200260200101819052506001856109449190615b11565b94505050808061095390615b44565b915050610654565b50808061096790615b44565b915050610645565b5081935050505090565b6001151560025f8473ffffffffffffffffffffffffffffffffffffffff1673ffffffffffffffffffffffffffffffffffffffff1681526020019081526020015f2082815481106109cc576109cb615ab7565b5b905f5260205f2090600402016003015f9054906101000a900460ff161515036109f3575f80fd5b5f60025f8473ffffffffffffffffffffffffffffffffffffffff1673ffffffffffffffffffffffffffffffffffffffff1681526020019081526020015f208281548110610a4357610a42615ab7565b5b905f5260205f2090600402016001015f9054906101000a900473ffffffffffffffffffffffffffffffffffffffff16905060025f8473ffffffffffffffffffffffffffffffffffffffff1673ffffffffffffffffffffffffffffffffffffffff1681526020019081526020015f208281548110610ac357610ac2615ab7565b5b905f5260205f209060040201600201548173ffffffffffffffffffffffffffffffffffffffff166370a08231336040518263ffffffff1660e01b8152600401610b0c9190615a9e565b602060405180830381865afa158015610b27573d5f803e3d5ffd5b505050506040513d601f19601f82011682018060405250810190610b4b9190615bcc565b1015610b55575f80fd5b60025f8473ffffffffffffffffffffffffffffffffffffffff1673ffffffffffffffffffffffffffffffffffffffff1681526020019081526020015f208281548110610ba457610ba3615ab7565b5b905f5260205f209060040201600201548173ffffffffffffffffffffffffffffffffffffffff1663dd62ed3e33306040518363ffffffff1660e01b8152600401610bef929190615bf7565b602060405180830381865afa158015610c0a573d5f803e3d5ffd5b505050506040513d601f19601f82011682018060405250810190610c2e9190615bcc565b1015610c38575f80fd5b8073ffffffffffffffffffffffffffffffffffffffff166323b872dd338560025f8873ffffffffffffffffffffffffffffffffffffffff1673ffffffffffffffffffffffffffffffffffffffff1681526020019081526020015f208681548110610ca557610ca4615ab7565b5b905f5260205f209060040201600201546040518463ffffffff1660e01b8152600401610cd393929190615c1e565b6020604051808303815f875af1158015610cef573d5f803e3d5ffd5b505050506040513d601f19601f82011682018060405250810190610d139190615c7d565b505f3373ffffffffffffffffffffffffffffffffffffffff1660025f8673ffffffffffffffffffffffffffffffffffffffff1673ffffffffffffffffffffffffffffffffffffffff1681526020019081526020015f208481548110610d7b57610d7a615ab7565b5b905f5260205f2090600402015f0154604051610d9690615cd5565b5f6040518083038185875af1925050503d805f8114610dd0576040519150601f19603f3d011682016040523d82523d5f602084013e610dd5565b606091505b5050905080610e19576040517f08c379a0000000000000000000000000000000000000000000000000000000008152600401610e1090615d43565b60405180910390fd5b600160025f8673ffffffffffffffffffffffffffffffffffffffff1673ffffffffffffffffffffffffffffffffffffffff1681526020019081526020015f208481548110610e6a57610e69615ab7565b5b905f5260205f2090600402016003015f6101000a81548160ff0219169083151502179055507f90737823f8fc9fbb28385683bca84d56edc8a1d49a2ad7faeb6391da5e38d99b8460025f8773ffffffffffffffffffffffffffffffffffffffff1673ffffffffffffffffffffffffffffffffffffffff1681526020019081526020015f208581548110610f0057610eff615ab7565b5b905f5260205f2090600402015f015460025f8873ffffffffffffffffffffffffffffffffffffffff1673ffffffffffffffffffffffffffffffffffffffff1681526020019081526020015f208681548110610f5e57610f5d615ab7565b5b905f5260205f2090600402016001015f9054906101000a900473ffffffffffffffffffffffffffffffffffffffff1660025f8973ffffffffffffffffffffffffffffffffffffffff1673ffffffffffffffffffffffffffffffffffffffff1681526020019081526020015f208781548110610fdc57610fdb615ab7565b5b905f5260205f20906004020160020154604051610ffc9493929190615d61565b60405180910390a150505050565b5f602052815f5260405f208181548110611022575f80fd5b905f5260205f2090600502015f9150915050805f015f9054906101000a900473ffffffffffffffffffffffffffffffffffffffff1690806001015490806002015f9054906101000a900473ffffffffffffffffffffffffffffffffffffffff1690806003015490806004015f9054906101000a900460ff16905085565b6110a7614fff565b6110af614fff565b5f808473ffffffffffffffffffffffffffffffffffffffff1673ffffffffffffffffffffffffffffffffffffffff1681526020019081526020015f208054905067ffffffffffffffff81111561110857611107615b8b565b5b60405190808252806020026020018201604052801561114157816020015b61112e614f85565b8152602001906001900390816111265790505b50815f01819052505f805b5f808673ffffffffffffffffffffffffffffffffffffffff1673ffffffffffffffffffffffffffffffffffffffff1681526020019081526020015f20805490508110156113a5575f805f8773ffffffffffffffffffffffffffffffffffffffff1673ffffffffffffffffffffffffffffffffffffffff1681526020019081526020015f2082815481106111e2576111e1615ab7565b5b905f5260205f2090600502016040518060a00160405290815f82015f9054906101000a900473ffffffffffffffffffffffffffffffffffffffff1673ffffffffffffffffffffffffffffffffffffffff1673ffffffffffffffffffffffffffffffffffffffff16815260200160018201548152602001600282015f9054906101000a900473ffffffffffffffffffffffffffffffffffffffff1673ffffffffffffffffffffffffffffffffffffffff1673ffffffffffffffffffffffffffffffffffffffff16815260200160038201548152602001600482015f9054906101000a900460ff16151515158152505090505f6040518060e001604052808873ffffffffffffffffffffffffffffffffffffffff168152602001848152602001835f015173ffffffffffffffffffffffffffffffffffffffff16815260200183602001518152602001836040015173ffffffffffffffffffffffffffffffffffffffff1681526020018360600151815260200183608001511515815250905080855f0151858151811061137657611375615ab7565b5b602002602001018190525060018461138e9190615b11565b93505050808061139d90615b44565b91505061114c565b5060015f8573ffffffffffffffffffffffffffffffffffffffff1673ffffffffffffffffffffffffffffffffffffffff1681526020019081526020015f208054905067ffffffffffffffff811115611400576113ff615b8b565b5b60405190808252806020026020018201604052801561143957816020015b611426615020565b81526020019060019003908161141e5790505b5082602001819052505f90505f5b60015f8673ffffffffffffffffffffffffffffffffffffffff1673ffffffffffffffffffffffffffffffffffffffff1681526020019081526020015f208054905081101561162e575f60015f8773ffffffffffffffffffffffffffffffffffffffff1673ffffffffffffffffffffffffffffffffffffffff1681526020019081526020015f2082815481106114df576114de615ab7565b5b905f5260205f2090600402016040518060800160405290815f82015f9054906101000a900473ffffffffffffffffffffffffffffffffffffffff1673ffffffffffffffffffffffffffffffffffffffff1673ffffffffffffffffffffffffffffffffffffffff1681526020016001820154815260200160028201548152602001600382015f9054906101000a900460ff16151515158152505090505f6040518060c001604052808873ffffffffffffffffffffffffffffffffffffffff168152602001848152602001835f015173ffffffffffffffffffffffffffffffffffffffff168152602001836020015181526020018360400151815260200183606001511515815250905080856020015185815181106115ff576115fe615ab7565b5b60200260200101819052506001846116179190615b11565b93505050808061162690615b44565b915050611447565b5060025f8573ffffffffffffffffffffffffffffffffffffffff1673ffffffffffffffffffffffffffffffffffffffff1681526020019081526020015f208054905067ffffffffffffffff81111561168957611688615b8b565b5b6040519080825280602002602001820160405280156116c257816020015b6116af61507e565b8152602001906001900390816116a75790505b5082604001819052505f90505f5b60025f8673ffffffffffffffffffffffffffffffffffffffff1673ffffffffffffffffffffffffffffffffffffffff1681526020019081526020015f20805490508110156118b7575f60025f8773ffffffffffffffffffffffffffffffffffffffff1673ffffffffffffffffffffffffffffffffffffffff1681526020019081526020015f20828154811061176857611767615ab7565b5b905f5260205f2090600402016040518060800160405290815f8201548152602001600182015f9054906101000a900473ffffffffffffffffffffffffffffffffffffffff1673ffffffffffffffffffffffffffffffffffffffff1673ffffffffffffffffffffffffffffffffffffffff16815260200160028201548152602001600382015f9054906101000a900460ff16151515158152505090505f6040518060c001604052808873ffffffffffffffffffffffffffffffffffffffff168152602001848152602001835f01518152602001836020015173ffffffffffffffffffffffffffffffffffffffff16815260200183604001518152602001836060015115158152509050808560400151858151811061188857611887615ab7565b5b60200260200101819052506001846118a09190615b11565b9350505080806118af90615b44565b9150506116d0565b508192505050919050565b60605f805b60038054905081101561198f575f5b60025f600384815481106118ed576118ec615ab7565b5b905f5260205f20015f9054906101000a900473ffffffffffffffffffffffffffffffffffffffff1673ffffffffffffffffffffffffffffffffffffffff1673ffffffffffffffffffffffffffffffffffffffff1681526020019081526020015f208054905081101561197b576001836119669190615b11565b9250808061197390615b44565b9150506118d6565b50808061198790615b44565b9150506118c7565b505f8167ffffffffffffffff8111156119ab576119aa615b8b565b5b6040519080825280602002602001820160405280156119e457816020015b6119d161507e565b8152602001906001900390816119c95790505b5090505f805b600380549050811015611d35576001151560045f60038481548110611a1257611a11615ab7565b5b905f5260205f20015f9054906101000a900473ffffffffffffffffffffffffffffffffffffffff1673ffffffffffffffffffffffffffffffffffffffff1673ffffffffffffffffffffffffffffffffffffffff1681526020019081526020015f205f0160019054906101000a900460ff16151503611d22575f5b60025f60038481548110611aa357611aa2615ab7565b5b905f5260205f20015f9054906101000a900473ffffffffffffffffffffffffffffffffffffffff1673ffffffffffffffffffffffffffffffffffffffff1673ffffffffffffffffffffffffffffffffffffffff1681526020019081526020015f2080549050811015611d20575f60025f60038581548110611b2757611b26615ab7565b5b905f5260205f20015f9054906101000a900473ffffffffffffffffffffffffffffffffffffffff1673ffffffffffffffffffffffffffffffffffffffff1673ffffffffffffffffffffffffffffffffffffffff1681526020019081526020015f208281548110611b9a57611b99615ab7565b5b905f5260205f2090600402016040518060800160405290815f8201548152602001600182015f9054906101000a900473ffffffffffffffffffffffffffffffffffffffff1673ffffffffffffffffffffffffffffffffffffffff1673ffffffffffffffffffffffffffffffffffffffff16815260200160028201548152602001600382015f9054906101000a900460ff16151515158152505090505f6040518060c0016040528060038681548110611c5557611c54615ab7565b5b905f5260205f20015f9054906101000a900473ffffffffffffffffffffffffffffffffffffffff1673ffffffffffffffffffffffffffffffffffffffff168152602001848152602001835f01518152602001836020015173ffffffffffffffffffffffffffffffffffffffff1681526020018360400151815260200183606001511515815250905080868681518110611cf157611cf0615ab7565b5b6020026020010181905250600185611d099190615b11565b945050508080611d1890615b44565b915050611a8c565b505b8080611d2d90615b44565b9150506119ea565b5081935050505090565b8173ffffffffffffffffffffffffffffffffffffffff163373ffffffffffffffffffffffffffffffffffffffff1614611d76575f80fd5b5f151560015f8473ffffffffffffffffffffffffffffffffffffffff1673ffffffffffffffffffffffffffffffffffffffff1681526020019081526020015f208281548110611dc857611dc7615ab7565b5b905f5260205f2090600402016003015f9054906101000a900460ff16151514611def575f80fd5b6001805f8473ffffffffffffffffffffffffffffffffffffffff1673ffffffffffffffffffffffffffffffffffffffff1681526020019081526020015f208281548110611e3f57611e3e615ab7565b5b905f5260205f2090600402016003015f6101000a81548160ff0219169083151502179055507fee62066e68ea020a72ab8850191057c02d81798cef76e90508db15b2f47368c78260015f8573ffffffffffffffffffffffffffffffffffffffff1673ffffffffffffffffffffffffffffffffffffffff1681526020019081526020015f208381548110611ed557611ed4615ab7565b5b905f5260205f2090600402015f015f9054906101000a900473ffffffffffffffffffffffffffffffffffffffff1660015f8673ffffffffffffffffffffffffffffffffffffffff1673ffffffffffffffffffffffffffffffffffffffff1681526020019081526020015f208481548110611f5257611f51615ab7565b5b905f5260205f2090600402016001015460015f8773ffffffffffffffffffffffffffffffffffffffff1673ffffffffffffffffffffffffffffffffffffffff1681526020019081526020015f208581548110611fb157611fb0615ab7565b5b905f5260205f20906004020160020154604051611fd19493929190615da4565b60405180910390a15050565b8173ffffffffffffffffffffffffffffffffffffffff163373ffffffffffffffffffffffffffffffffffffffff1614612014575f80fd5b5f15155f808473ffffffffffffffffffffffffffffffffffffffff1673ffffffffffffffffffffffffffffffffffffffff1681526020019081526020015f20828154811061206557612064615ab7565b5b905f5260205f2090600502016004015f9054906101000a900460ff1615151461208c575f80fd5b60015f808473ffffffffffffffffffffffffffffffffffffffff1673ffffffffffffffffffffffffffffffffffffffff1681526020019081526020015f2082815481106120dc576120db615ab7565b5b905f5260205f2090600502016004015f6101000a81548160ff0219169083151502179055507fc086f5b7a83e015dcc4ec82fa3f4de6c895b32824a682d0d3002b1277cbb7dc7825f808573ffffffffffffffffffffffffffffffffffffffff1673ffffffffffffffffffffffffffffffffffffffff1681526020019081526020015f20838154811061217157612170615ab7565b5b905f5260205f2090600502015f015f9054906101000a900473ffffffffffffffffffffffffffffffffffffffff165f808673ffffffffffffffffffffffffffffffffffffffff1673ffffffffffffffffffffffffffffffffffffffff1681526020019081526020015f2084815481106121ed576121ec615ab7565b5b905f5260205f209060050201600101545f808773ffffffffffffffffffffffffffffffffffffffff1673ffffffffffffffffffffffffffffffffffffffff1681526020019081526020015f20858154811061224b5761224a615ab7565b5b905f5260205f2090600502016002015f9054906101000a900473ffffffffffffffffffffffffffffffffffffffff165f808873ffffffffffffffffffffffffffffffffffffffff1673ffffffffffffffffffffffffffffffffffffffff1681526020019081526020015f2086815481106122c8576122c7615ab7565b5b905f5260205f209060050201600301546040516122e9959493929190615de7565b60405180910390a15050565b5f8390505f8390505f805f3373ffffffffffffffffffffffffffffffffffffffff1673ffffffffffffffffffffffffffffffffffffffff1681526020019081526020015f20805480602002602001604051908101604052809291908181526020015f905b82821015612460578382905f5260205f2090600502016040518060a00160405290815f82015f9054906101000a900473ffffffffffffffffffffffffffffffffffffffff1673ffffffffffffffffffffffffffffffffffffffff1673ffffffffffffffffffffffffffffffffffffffff16815260200160018201548152602001600282015f9054906101000a900473ffffffffffffffffffffffffffffffffffffffff1673ffffffffffffffffffffffffffffffffffffffff1673ffffffffffffffffffffffffffffffffffffffff16815260200160038201548152602001600482015f9054906101000a900460ff16151515158152505081526020019060010190612359565b5050505090505f60015f3373ffffffffffffffffffffffffffffffffffffffff1673ffffffffffffffffffffffffffffffffffffffff1681526020019081526020015f20805480602002602001604051908101604052809291908181526020015f905b82821015612575578382905f5260205f2090600402016040518060800160405290815f82015f9054906101000a900473ffffffffffffffffffffffffffffffffffffffff1673ffffffffffffffffffffffffffffffffffffffff1673ffffffffffffffffffffffffffffffffffffffff1681526020016001820154815260200160028201548152602001600382015f9054906101000a900460ff161515151581525050815260200190600101906124c3565b5050505090506001151560045f3373ffffffffffffffffffffffffffffffffffffffff1673ffffffffffffffffffffffffffffffffffffffff1681526020019081526020015f205f015f9054906101000a900460ff1615150361269d575f5b825181101561269b578773ffffffffffffffffffffffffffffffffffffffff1683828151811061260757612606615ab7565b5b60200260200101515f015173ffffffffffffffffffffffffffffffffffffffff1614801561265657505f151583828151811061264657612645615ab7565b5b6020026020010151608001511515145b15612688578383828151811061266f5761266e615ab7565b5b6020026020010151602001516126859190615b11565b93505b808061269390615b44565b9150506125d4565b505b6001151560045f3373ffffffffffffffffffffffffffffffffffffffff1673ffffffffffffffffffffffffffffffffffffffff1681526020019081526020015f205f0160019054906101000a900460ff161515036127c0575f5b81518110156127be578773ffffffffffffffffffffffffffffffffffffffff1682828151811061272a57612729615ab7565b5b60200260200101515f015173ffffffffffffffffffffffffffffffffffffffff1614801561277957505f151582828151811061276957612768615ab7565b5b6020026020010151606001511515145b156127ab578382828151811061279257612791615ab7565b5b6020026020010151602001516127a89190615b11565b93505b80806127b690615b44565b9150506126f7565b505b828473ffffffffffffffffffffffffffffffffffffffff1663dd62ed3e33306040518363ffffffff1660e01b81526004016127fc929190615bf7565b602060405180830381865afa158015612817573d5f803e3d5ffd5b505050506040513d601f19601f8201168201806040525081019061283b9190615bcc565b1015612845575f80fd5b828473ffffffffffffffffffffffffffffffffffffffff166370a08231336040518263ffffffff1660e01b815260040161287f9190615a9e565b602060405180830381865afa15801561289a573d5f803e3d5ffd5b505050506040513d601f19601f820116820180604052508101906128be9190615bcc565b10156128c8575f80fd5b60015f3373ffffffffffffffffffffffffffffffffffffffff1673ffffffffffffffffffffffffffffffffffffffff1681526020019081526020015f2060405180608001604052808973ffffffffffffffffffffffffffffffffffffffff1681526020018881526020018781526020015f1515815250908060018154018082558091505060019003905f5260205f2090600402015f909190919091505f820151815f015f6101000a81548173ffffffffffffffffffffffffffffffffffffffff021916908373ffffffffffffffffffffffffffffffffffffffff16021790555060208201518160010155604082015181600201556060820151816003015f6101000a81548160ff02191690831515021790555050507f4b3224748748339deab55aa5a1514e7f3d791c195a9594935c30a84d882f540f33888888604051612a129493929190615da4565b60405180910390a15f151560045f3373ffffffffffffffffffffffffffffffffffffffff1673ffffffffffffffffffffffffffffffffffffffff1681526020019081526020015f205f015f9054906101000a900460ff161515148015612ac757505f151560045f3373ffffffffffffffffffffffffffffffffffffffff1673ffffffffffffffffffffffffffffffffffffffff1681526020019081526020015f205f0160019054906101000a900460ff161515145b8015612b2257505f151560045f3373ffffffffffffffffffffffffffffffffffffffff1673ffffffffffffffffffffffffffffffffffffffff1681526020019081526020015f205f0160029054906101000a900460ff161515145b15612be457600333908060018154018082558091505060019003905f5260205f20015f9091909190916101000a81548173ffffffffffffffffffffffffffffffffffffffff021916908373ffffffffffffffffffffffffffffffffffffffff160217905550600160045f3373ffffffffffffffffffffffffffffffffffffffff1673ffffffffffffffffffffffffffffffffffffffff1681526020019081526020015f205f0160016101000a81548160ff021916908315150217905550612c95565b5f151560045f3373ffffffffffffffffffffffffffffffffffffffff1673ffffffffffffffffffffffffffffffffffffffff1681526020019081526020015f205f0160019054906101000a900460ff16151503612c9457600160045f3373ffffffffffffffffffffffffffffffffffffffff1673ffffffffffffffffffffffffffffffffffffffff1681526020019081526020015f205f0160016101000a81548160ff0219169083151502179055505b5b50505050505050565b6001151560015f8473ffffffffffffffffffffffffffffffffffffffff1673ffffffffffffffffffffffffffffffffffffffff1681526020019081526020015f208281548110612cf157612cf0615ab7565b5b905f5260205f2090600402016003015f9054906101000a900460ff16151503612d18575f80fd5b5f60015f8473ffffffffffffffffffffffffffffffffffffffff1673ffffffffffffffffffffffffffffffffffffffff1681526020019081526020015f208281548110612d6857612d67615ab7565b5b905f5260205f2090600402015f015f9054906101000a900473ffffffffffffffffffffffffffffffffffffffff1690508073ffffffffffffffffffffffffffffffffffffffff166323b872dd843360015f8873ffffffffffffffffffffffffffffffffffffffff1673ffffffffffffffffffffffffffffffffffffffff1681526020019081526020015f208681548110612e0557612e04615ab7565b5b905f5260205f209060040201600101546040518463ffffffff1660e01b8152600401612e3393929190615c1e565b6020604051808303815f875af1158015612e4f573d5f803e3d5ffd5b505050506040513d601f19601f82011682018060405250810190612e739190615c7d565b5060015f8473ffffffffffffffffffffffffffffffffffffffff1673ffffffffffffffffffffffffffffffffffffffff1681526020019081526020015f208281548110612ec357612ec2615ab7565b5b905f5260205f209060040201600201543414612edd575f80fd5b5f8373ffffffffffffffffffffffffffffffffffffffff1634604051612f0290615cd5565b5f6040518083038185875af1925050503d805f8114612f3c576040519150601f19603f3d011682016040523d82523d5f602084013e612f41565b606091505b5050905080612f85576040517f08c379a0000000000000000000000000000000000000000000000000000000008152600401612f7c90615d43565b60405180910390fd5b6001805f8673ffffffffffffffffffffffffffffffffffffffff1673ffffffffffffffffffffffffffffffffffffffff1681526020019081526020015f208481548110612fd557612fd4615ab7565b5b905f5260205f2090600402016003015f6101000a81548160ff0219169083151502179055507f08b8b3ffc165e69d2aa56bf6924a289c74530a36570b042b279ede424a0f7c188460015f8773ffffffffffffffffffffffffffffffffffffffff1673ffffffffffffffffffffffffffffffffffffffff1681526020019081526020015f20858154811061306b5761306a615ab7565b5b905f5260205f2090600402015f015f9054906101000a900473ffffffffffffffffffffffffffffffffffffffff1660015f8873ffffffffffffffffffffffffffffffffffffffff1673ffffffffffffffffffffffffffffffffffffffff1681526020019081526020015f2086815481106130e8576130e7615ab7565b5b905f5260205f2090600402016001015460015f8973ffffffffffffffffffffffffffffffffffffffff1673ffffffffffffffffffffffffffffffffffffffff1681526020019081526020015f20878154811061314757613146615ab7565b5b905f5260205f209060040201600201546040516131679493929190615da4565b60405180910390a150505050565b5f8490505f8490505f805f3373ffffffffffffffffffffffffffffffffffffffff1673ffffffffffffffffffffffffffffffffffffffff1681526020019081526020015f20805480602002602001604051908101604052809291908181526020015f905b828210156132e0578382905f5260205f2090600502016040518060a00160405290815f82015f9054906101000a900473ffffffffffffffffffffffffffffffffffffffff1673ffffffffffffffffffffffffffffffffffffffff1673ffffffffffffffffffffffffffffffffffffffff16815260200160018201548152602001600282015f9054906101000a900473ffffffffffffffffffffffffffffffffffffffff1673ffffffffffffffffffffffffffffffffffffffff1673ffffffffffffffffffffffffffffffffffffffff16815260200160038201548152602001600482015f9054906101000a900460ff161515151581525050815260200190600101906131d9565b5050505090505f60015f3373ffffffffffffffffffffffffffffffffffffffff1673ffffffffffffffffffffffffffffffffffffffff1681526020019081526020015f20805480602002602001604051908101604052809291908181526020015f905b828210156133f5578382905f5260205f2090600402016040518060800160405290815f82015f9054906101000a900473ffffffffffffffffffffffffffffffffffffffff1673ffffffffffffffffffffffffffffffffffffffff1673ffffffffffffffffffffffffffffffffffffffff1681526020016001820154815260200160028201548152602001600382015f9054906101000a900460ff16151515158152505081526020019060010190613343565b5050505090506001151560045f3373ffffffffffffffffffffffffffffffffffffffff1673ffffffffffffffffffffffffffffffffffffffff1681526020019081526020015f205f015f9054906101000a900460ff1615150361351d575f5b825181101561351b578873ffffffffffffffffffffffffffffffffffffffff1683828151811061348757613486615ab7565b5b60200260200101515f015173ffffffffffffffffffffffffffffffffffffffff161480156134d657505f15158382815181106134c6576134c5615ab7565b5b6020026020010151608001511515145b1561350857838382815181106134ef576134ee615ab7565b5b6020026020010151602001516135059190615b11565b93505b808061351390615b44565b915050613454565b505b6001151560045f3373ffffffffffffffffffffffffffffffffffffffff1673ffffffffffffffffffffffffffffffffffffffff1681526020019081526020015f205f0160019054906101000a900460ff16151503613640575f5b815181101561363e578873ffffffffffffffffffffffffffffffffffffffff168282815181106135aa576135a9615ab7565b5b60200260200101515f015173ffffffffffffffffffffffffffffffffffffffff161480156135f957505f15158282815181106135e9576135e8615ab7565b5b6020026020010151606001511515145b1561362b578382828151811061361257613611615ab7565b5b6020026020010151602001516136289190615b11565b93505b808061363690615b44565b915050613577565b505b828473ffffffffffffffffffffffffffffffffffffffff1663dd62ed3e33306040518363ffffffff1660e01b815260040161367c929190615bf7565b602060405180830381865afa158015613697573d5f803e3d5ffd5b505050506040513d601f19601f820116820180604052508101906136bb9190615bcc565b10156136c5575f80fd5b828473ffffffffffffffffffffffffffffffffffffffff166370a08231336040518263ffffffff1660e01b81526004016136ff9190615a9e565b602060405180830381865afa15801561371a573d5f803e3d5ffd5b505050506040513d601f19601f8201168201806040525081019061373e9190615bcc565b1015613748575f80fd5b5f803373ffffffffffffffffffffffffffffffffffffffff1673ffffffffffffffffffffffffffffffffffffffff1681526020019081526020015f206040518060a001604052808a73ffffffffffffffffffffffffffffffffffffffff1681526020018981526020018873ffffffffffffffffffffffffffffffffffffffff1681526020018781526020015f1515815250908060018154018082558091505060019003905f5260205f2090600502015f909190919091505f820151815f015f6101000a81548173ffffffffffffffffffffffffffffffffffffffff021916908373ffffffffffffffffffffffffffffffffffffffff160217905550602082015181600101556040820151816002015f6101000a81548173ffffffffffffffffffffffffffffffffffffffff021916908373ffffffffffffffffffffffffffffffffffffffff160217905550606082015181600301556080820151816004015f6101000a81548160ff02191690831515021790555050507fb31b008e8a12db47dae24bda793ea0d4e1039d4e74c334ec8fed59d8a4e8052933898989896040516138f5959493929190615de7565b60405180910390a15f151560045f3373ffffffffffffffffffffffffffffffffffffffff1673ffffffffffffffffffffffffffffffffffffffff1681526020019081526020015f205f015f9054906101000a900460ff1615151480156139aa57505f151560045f3373ffffffffffffffffffffffffffffffffffffffff1673ffffffffffffffffffffffffffffffffffffffff1681526020019081526020015f205f0160019054906101000a900460ff161515145b8015613a0557505f151560045f3373ffffffffffffffffffffffffffffffffffffffff1673ffffffffffffffffffffffffffffffffffffffff1681526020019081526020015f205f0160029054906101000a900460ff161515145b15613ac657600333908060018154018082558091505060019003905f5260205f20015f9091909190916101000a81548173ffffffffffffffffffffffffffffffffffffffff021916908373ffffffffffffffffffffffffffffffffffffffff160217905550600160045f3373ffffffffffffffffffffffffffffffffffffffff1673ffffffffffffffffffffffffffffffffffffffff1681526020019081526020015f205f015f6101000a81548160ff021916908315150217905550613b75565b5f151560045f3373ffffffffffffffffffffffffffffffffffffffff1673ffffffffffffffffffffffffffffffffffffffff1681526020019081526020015f205f015f9054906101000a900460ff16151503613b7457600160045f3373ffffffffffffffffffffffffffffffffffffffff1673ffffffffffffffffffffffffffffffffffffffff1681526020019081526020015f205f015f6101000a81548160ff0219169083151502179055505b5b5050505050505050565b823414613b8a575f80fd5b60025f3373ffffffffffffffffffffffffffffffffffffffff1673ffffffffffffffffffffffffffffffffffffffff1681526020019081526020015f2060405180608001604052808581526020018473ffffffffffffffffffffffffffffffffffffffff1681526020018381526020015f1515815250908060018154018082558091505060019003905f5260205f2090600402015f909190919091505f820151815f01556020820151816001015f6101000a81548173ffffffffffffffffffffffffffffffffffffffff021916908373ffffffffffffffffffffffffffffffffffffffff160217905550604082015181600201556060820151816003015f6101000a81548160ff02191690831515021790555050507f5e91b5fb353347b0d4c78463cbf33c353331235f1f40327ca164bd540d16469733848484604051613cd49493929190615d61565b60405180910390a15f151560045f3373ffffffffffffffffffffffffffffffffffffffff1673ffffffffffffffffffffffffffffffffffffffff1681526020019081526020015f205f015f9054906101000a900460ff161515148015613d8957505f151560045f3373ffffffffffffffffffffffffffffffffffffffff1673ffffffffffffffffffffffffffffffffffffffff1681526020019081526020015f205f0160019054906101000a900460ff161515145b8015613de457505f151560045f3373ffffffffffffffffffffffffffffffffffffffff1673ffffffffffffffffffffffffffffffffffffffff1681526020019081526020015f205f0160029054906101000a900460ff161515145b15613ea657600333908060018154018082558091505060019003905f5260205f20015f9091909190916101000a81548173ffffffffffffffffffffffffffffffffffffffff021916908373ffffffffffffffffffffffffffffffffffffffff160217905550600160045f3373ffffffffffffffffffffffffffffffffffffffff1673ffffffffffffffffffffffffffffffffffffffff1681526020019081526020015f205f0160026101000a81548160ff021916908315150217905550613f57565b5f151560045f3373ffffffffffffffffffffffffffffffffffffffff1673ffffffffffffffffffffffffffffffffffffffff1681526020019081526020015f205f0160029054906101000a900460ff16151503613f5657600160045f3373ffffffffffffffffffffffffffffffffffffffff1673ffffffffffffffffffffffffffffffffffffffff1681526020019081526020015f205f0160026101000a81548160ff0219169083151502179055505b5b505050565b60605f805b600380549050811015614029575f5b60015f60038481548110613f8757613f86615ab7565b5b905f5260205f20015f9054906101000a900473ffffffffffffffffffffffffffffffffffffffff1673ffffffffffffffffffffffffffffffffffffffff1673ffffffffffffffffffffffffffffffffffffffff1681526020019081526020015f2080549050811015614015576001836140009190615b11565b9250808061400d90615b44565b915050613f70565b50808061402190615b44565b915050613f61565b505f8167ffffffffffffffff81111561404557614044615b8b565b5b60405190808252806020026020018201604052801561407e57816020015b61406b615020565b8152602001906001900390816140635790505b5090505f805b6003805490508110156143cf576001151560045f600384815481106140ac576140ab615ab7565b5b905f5260205f20015f9054906101000a900473ffffffffffffffffffffffffffffffffffffffff1673ffffffffffffffffffffffffffffffffffffffff1673ffffffffffffffffffffffffffffffffffffffff1681526020019081526020015f205f0160019054906101000a900460ff161515036143bc575f5b60015f6003848154811061413d5761413c615ab7565b5b905f5260205f20015f9054906101000a900473ffffffffffffffffffffffffffffffffffffffff1673ffffffffffffffffffffffffffffffffffffffff1673ffffffffffffffffffffffffffffffffffffffff1681526020019081526020015f20805490508110156143ba575f60015f600385815481106141c1576141c0615ab7565b5b905f5260205f20015f9054906101000a900473ffffffffffffffffffffffffffffffffffffffff1673ffffffffffffffffffffffffffffffffffffffff1673ffffffffffffffffffffffffffffffffffffffff1681526020019081526020015f20828154811061423457614233615ab7565b5b905f5260205f2090600402016040518060800160405290815f82015f9054906101000a900473ffffffffffffffffffffffffffffffffffffffff1673ffffffffffffffffffffffffffffffffffffffff1673ffffffffffffffffffffffffffffffffffffffff1681526020016001820154815260200160028201548152602001600382015f9054906101000a900460ff16151515158152505090505f6040518060c00160405280600386815481106142ef576142ee615ab7565b5b905f5260205f20015f9054906101000a900473ffffffffffffffffffffffffffffffffffffffff1673ffffffffffffffffffffffffffffffffffffffff168152602001848152602001835f015173ffffffffffffffffffffffffffffffffffffffff16815260200183602001518152602001836040015181526020018360600151151581525090508086868151811061438b5761438a615ab7565b5b60200260200101819052506001856143a39190615b11565b9450505080806143b290615b44565b915050614126565b505b80806143c790615b44565b915050614084565b5081935050505090565b6002602052815f5260405f2081815481106143f2575f80fd5b905f5260205f2090600402015f9150915050805f015490806001015f9054906101000a900473ffffffffffffffffffffffffffffffffffffffff1690806002015490806003015f9054906101000a900460ff16905084565b600115155f808473ffffffffffffffffffffffffffffffffffffffff1673ffffffffffffffffffffffffffffffffffffffff1681526020019081526020015f20828154811061449c5761449b615ab7565b5b905f5260205f2090600502016004015f9054906101000a900460ff161515036144c3575f80fd5b5f805f8473ffffffffffffffffffffffffffffffffffffffff1673ffffffffffffffffffffffffffffffffffffffff1681526020019081526020015f20828154811061451257614511615ab7565b5b905f5260205f2090600502015f015f9054906101000a900473ffffffffffffffffffffffffffffffffffffffff1690508073ffffffffffffffffffffffffffffffffffffffff166323b872dd84335f808873ffffffffffffffffffffffffffffffffffffffff1673ffffffffffffffffffffffffffffffffffffffff1681526020019081526020015f2086815481106145ae576145ad615ab7565b5b905f5260205f209060050201600101546040518463ffffffff1660e01b81526004016145dc93929190615c1e565b6020604051808303815f875af11580156145f8573d5f803e3d5ffd5b505050506040513d601f19601f8201168201806040525081019061461c9190615c7d565b505f805f8573ffffffffffffffffffffffffffffffffffffffff1673ffffffffffffffffffffffffffffffffffffffff1681526020019081526020015f20838154811061466c5761466b615ab7565b5b905f5260205f2090600502016002015f9054906101000a900473ffffffffffffffffffffffffffffffffffffffff1690505f808573ffffffffffffffffffffffffffffffffffffffff1673ffffffffffffffffffffffffffffffffffffffff1681526020019081526020015f2083815481106146eb576146ea615ab7565b5b905f5260205f209060050201600301548173ffffffffffffffffffffffffffffffffffffffff166370a08231336040518263ffffffff1660e01b81526004016147349190615a9e565b602060405180830381865afa15801561474f573d5f803e3d5ffd5b505050506040513d601f19601f820116820180604052508101906147739190615bcc565b101561477d575f80fd5b5f808573ffffffffffffffffffffffffffffffffffffffff1673ffffffffffffffffffffffffffffffffffffffff1681526020019081526020015f2083815481106147cb576147ca615ab7565b5b905f5260205f209060050201600301548173ffffffffffffffffffffffffffffffffffffffff1663dd62ed3e33306040518363ffffffff1660e01b8152600401614816929190615bf7565b602060405180830381865afa158015614831573d5f803e3d5ffd5b505050506040513d601f19601f820116820180604052508101906148559190615bcc565b101561485f575f80fd5b8073ffffffffffffffffffffffffffffffffffffffff166323b872dd33865f808973ffffffffffffffffffffffffffffffffffffffff1673ffffffffffffffffffffffffffffffffffffffff1681526020019081526020015f2087815481106148cb576148ca615ab7565b5b905f5260205f209060050201600301546040518463ffffffff1660e01b81526004016148f993929190615c1e565b6020604051808303815f875af1158015614915573d5f803e3d5ffd5b505050506040513d601f19601f820116820180604052508101906149399190615c7d565b5060015f808673ffffffffffffffffffffffffffffffffffffffff1673ffffffffffffffffffffffffffffffffffffffff1681526020019081526020015f20848154811061498a57614989615ab7565b5b905f5260205f2090600502016004015f6101000a81548160ff0219169083151502179055507faef3fec0890a84ad1cfab292c8504f17278c9b35213257cbc2c572cc622ae015845f808773ffffffffffffffffffffffffffffffffffffffff1673ffffffffffffffffffffffffffffffffffffffff1681526020019081526020015f208581548110614a1f57614a1e615ab7565b5b905f5260205f2090600502015f015f9054906101000a900473ffffffffffffffffffffffffffffffffffffffff165f808873ffffffffffffffffffffffffffffffffffffffff1673ffffffffffffffffffffffffffffffffffffffff1681526020019081526020015f208681548110614a9b57614a9a615ab7565b5b905f5260205f209060050201600101545f808973ffffffffffffffffffffffffffffffffffffffff1673ffffffffffffffffffffffffffffffffffffffff1681526020019081526020015f208781548110614af957614af8615ab7565b5b905f5260205f2090600502016002015f9054906101000a900473ffffffffffffffffffffffffffffffffffffffff165f808a73ffffffffffffffffffffffffffffffffffffffff1673ffffffffffffffffffffffffffffffffffffffff1681526020019081526020015f208881548110614b7657614b75615ab7565b5b905f5260205f20906005020160030154604051614b97959493929190615de7565b60405180910390a150505050565b8173ffffffffffffffffffffffffffffffffffffffff163373ffffffffffffffffffffffffffffffffffffffff1614614bdc575f80fd5b5f151560025f8473ffffffffffffffffffffffffffffffffffffffff1673ffffffffffffffffffffffffffffffffffffffff1681526020019081526020015f208281548110614c2e57614c2d615ab7565b5b905f5260205f2090600402016003015f9054906101000a900460ff16151514614c55575f80fd5b600160025f8473ffffffffffffffffffffffffffffffffffffffff1673ffffffffffffffffffffffffffffffffffffffff1681526020019081526020015f208281548110614ca657614ca5615ab7565b5b905f5260205f2090600402016003015f6101000a81548160ff0219169083151502179055505f3373ffffffffffffffffffffffffffffffffffffffff1660025f8573ffffffffffffffffffffffffffffffffffffffff1673ffffffffffffffffffffffffffffffffffffffff1681526020019081526020015f208381548110614d3257614d31615ab7565b5b905f5260205f2090600402015f0154604051614d4d90615cd5565b5f6040518083038185875af1925050503d805f8114614d87576040519150601f19603f3d011682016040523d82523d5f602084013e614d8c565b606091505b5050905080614dd0576040517f08c379a0000000000000000000000000000000000000000000000000000000008152600401614dc790615d43565b60405180910390fd5b7f6fd78ca7acca4f76ea5834af9a37b74bbd249dbadf5360eeecb4a3a9b762dfff8360025f8673ffffffffffffffffffffffffffffffffffffffff1673ffffffffffffffffffffffffffffffffffffffff1681526020019081526020015f208481548110614e4157614e40615ab7565b5b905f5260205f2090600402015f015460025f8773ffffffffffffffffffffffffffffffffffffffff1673ffffffffffffffffffffffffffffffffffffffff1681526020019081526020015f208581548110614e9f57614e9e615ab7565b5b905f5260205f2090600402016001015f9054906101000a900473ffffffffffffffffffffffffffffffffffffffff1660025f8873ffffffffffffffffffffffffffffffffffffffff1673ffffffffffffffffffffffffffffffffffffffff1681526020019081526020015f208681548110614f1d57614f1c615ab7565b5b905f5260205f20906004020160020154604051614f3d9493929190615d61565b60405180910390a1505050565b60038181548110614f59575f80fd5b905f5260205f20015f915054906101000a900473ffffffffffffffffffffffffffffffffffffffff1681565b6040518060e001604052805f73ffffffffffffffffffffffffffffffffffffffff1681526020015f81526020015f73ffffffffffffffffffffffffffffffffffffffff1681526020015f81526020015f73ffffffffffffffffffffffffffffffffffffffff1681526020015f81526020015f151581525090565b60405180606001604052806060815260200160608152602001606081525090565b6040518060c001604052805f73ffffffffffffffffffffffffffffffffffffffff1681526020015f81526020015f73ffffffffffffffffffffffffffffffffffffffff1681526020015f81526020015f81526020015f151581525090565b6040518060c001604052805f73ffffffffffffffffffffffffffffffffffffffff1681526020015f81526020015f81526020015f73ffffffffffffffffffffffffffffffffffffffff1681526020015f81526020015f151581525090565b5f81519050919050565b5f82825260208201905092915050565b5f819050602082019050919050565b5f73ffffffffffffffffffffffffffffffffffffffff82169050919050565b5f61512e82615105565b9050919050565b61513e81615124565b82525050565b5f61514f8383615135565b60208301905092915050565b5f602082019050919050565b5f615171826150dc565b61517b81856150e6565b9350615186836150f6565b805f5b838110156151b657815161519d8882615144565b97506151a88361515b565b925050600181019050615189565b5085935050505092915050565b5f6020820190508181035f8301526151db8184615167565b905092915050565b5f80fd5b6151f081615124565b81146151fa575f80fd5b50565b5f8135905061520b816151e7565b92915050565b5f819050919050565b61522381615211565b811461522d575f80fd5b50565b5f8135905061523e8161521a565b92915050565b5f806040838503121561525a576152596151e3565b5b5f615267858286016151fd565b925050602061527885828601615230565b9150509250929050565b61528b81615124565b82525050565b61529a81615211565b82525050565b5f8115159050919050565b6152b4816152a0565b82525050565b5f6080820190506152cd5f830187615282565b6152da6020830186615291565b6152e76040830185615291565b6152f460608301846152ab565b95945050505050565b5f81519050919050565b5f82825260208201905092915050565b5f819050602082019050919050565b61532f81615211565b82525050565b61533e816152a0565b82525050565b60e082015f8201516153585f850182615135565b50602082015161536b6020850182615326565b50604082015161537e6040850182615135565b5060608201516153916060850182615326565b5060808201516153a46080850182615135565b5060a08201516153b760a0850182615326565b5060c08201516153ca60c0850182615335565b50505050565b5f6153db8383615344565b60e08301905092915050565b5f602082019050919050565b5f6153fd826152fd565b6154078185615307565b935061541283615317565b805f5b8381101561544257815161542988826153d0565b9750615434836153e7565b925050600181019050615415565b5085935050505092915050565b5f6020820190508181035f83015261546781846153f3565b905092915050565b5f60a0820190506154825f830188615282565b61548f6020830187615291565b61549c6040830186615282565b6154a96060830185615291565b6154b660808301846152ab565b9695505050505050565b5f602082840312156154d5576154d46151e3565b5b5f6154e2848285016151fd565b91505092915050565b5f82825260208201905092915050565b5f615505826152fd565b61550f81856154eb565b935061551a83615317565b805f5b8381101561554a57815161553188826153d0565b975061553c836153e7565b92505060018101905061551d565b5085935050505092915050565b5f81519050919050565b5f82825260208201905092915050565b5f819050602082019050919050565b60c082015f8201516155945f850182615135565b5060208201516155a76020850182615326565b5060408201516155ba6040850182615135565b5060608201516155cd6060850182615326565b5060808201516155e06080850182615326565b5060a08201516155f360a0850182615335565b50505050565b5f6156048383615580565b60c08301905092915050565b5f602082019050919050565b5f61562682615557565b6156308185615561565b935061563b83615571565b805f5b8381101561566b57815161565288826155f9565b975061565d83615610565b92505060018101905061563e565b5085935050505092915050565b5f81519050919050565b5f82825260208201905092915050565b5f819050602082019050919050565b60c082015f8201516156b55f850182615135565b5060208201516156c86020850182615326565b5060408201516156db6040850182615326565b5060608201516156ee6060850182615135565b5060808201516157016080850182615326565b5060a082015161571460a0850182615335565b50505050565b5f61572583836156a1565b60c08301905092915050565b5f602082019050919050565b5f61574782615678565b6157518185615682565b935061575c83615692565b805f5b8381101561578c578151615773888261571a565b975061577e83615731565b92505060018101905061575f565b5085935050505092915050565b5f606083015f8301518482035f8601526157b382826154fb565b915050602083015184820360208601526157cd828261561c565b915050604083015184820360408601526157e7828261573d565b9150508091505092915050565b5f6020820190508181035f83015261580c8184615799565b905092915050565b5f82825260208201905092915050565b5f61582e82615678565b6158388185615814565b935061584383615692565b805f5b8381101561587357815161585a888261571a565b975061586583615731565b925050600181019050615846565b5085935050505092915050565b5f6020820190508181035f8301526158988184615824565b905092915050565b5f805f606084860312156158b7576158b66151e3565b5b5f6158c4868287016151fd565b93505060206158d586828701615230565b92505060406158e686828701615230565b9150509250925092565b5f805f8060808587031215615908576159076151e3565b5b5f615915878288016151fd565b945050602061592687828801615230565b9350506040615937878288016151fd565b925050606061594887828801615230565b91505092959194509250565b5f805f6060848603121561596b5761596a6151e3565b5b5f61597886828701615230565b9350506020615989868287016151fd565b925050604061599a86828701615230565b9150509250925092565b5f82825260208201905092915050565b5f6159be82615557565b6159c881856159a4565b93506159d383615571565b805f5b83811015615a035781516159ea88826155f9565b97506159f583615610565b9250506001810190506159d6565b5085935050505092915050565b5f6020820190508181035f830152615a2881846159b4565b905092915050565b5f608082019050615a435f830187615291565b615a506020830186615282565b615a5d6040830185615291565b615a6a60608301846152ab565b95945050505050565b5f60208284031215615a8857615a876151e3565b5b5f615a9584828501615230565b91505092915050565b5f602082019050615ab15f830184615282565b92915050565b7f4e487b71000000000000000000000000000000000000000000000000000000005f52603260045260245ffd5b7f4e487b71000000000000000000000000000000000000000000000000000000005f52601160045260245ffd5b5f615b1b82615211565b9150615b2683615211565b9250828201905080821115615b3e57615b3d615ae4565b5b92915050565b5f615b4e82615211565b91507fffffffffffffffffffffffffffffffffffffffffffffffffffffffffffffffff8203615b8057615b7f615ae4565b5b600182019050919050565b7f4e487b71000000000000000000000000000000000000000000000000000000005f52604160045260245ffd5b5f81519050615bc68161521a565b92915050565b5f60208284031215615be157615be06151e3565b5b5f615bee84828501615bb8565b91505092915050565b5f604082019050615c0a5f830185615282565b615c176020830184615282565b9392505050565b5f606082019050615c315f830186615282565b615c3e6020830185615282565b615c4b6040830184615291565b949350505050565b615c5c816152a0565b8114615c66575f80fd5b50565b5f81519050615c7781615c53565b92915050565b5f60208284031215615c9257615c916151e3565b5b5f615c9f84828501615c69565b91505092915050565b5f81905092915050565b50565b5f615cc05f83615ca8565b9150615ccb82615cb2565b5f82019050919050565b5f615cdf82615cb5565b9150819050919050565b5f82825260208201905092915050565b7f4661696c656420746f2073656e642045746865720000000000000000000000005f82015250565b5f615d2d601483615ce9565b9150615d3882615cf9565b602082019050919050565b5f6020820190508181035f830152615d5a81615d21565b9050919050565b5f608082019050615d745f830187615282565b615d816020830186615291565b615d8e6040830185615282565b615d9b6060830184615291565b95945050505050565b5f608082019050615db75f830187615282565b615dc46020830186615282565b615dd16040830185615291565b615dde6060830184615291565b95945050505050565b5f60a082019050615dfa5f830188615282565b615e076020830187615282565b615e146040830186615291565b615e216060830185615282565b615e2e6080830184615291565b969550505050505056fea2646970667358221220b1d5c24f429c9b074b0abad7312de4bd5c7153dc0c8c6be3c785f846f70fd24a64736f6c63430008140033",
  "immutableReferences": {},
  "source": "// SPDX-License-Identifier: UNLICENSED\npragma solidity ^0.8.20;\n\nimport \"@openzeppelin/contracts/token/ERC20/ERC20.sol\";\n\ncontract Dex {\n  event EventAddToDexTradeTokensForTokens (\n    address sender,\n    address tradingTokenAddress,\n    uint tradingTokenAmount,\n    address tradingForTokenAddress,\n    uint tradingForTokenAmount\n  );\n\n  event EventAddToDexTradeTokensForEth (\n    address sender,\n    address tradingTokenAddress,\n    uint tradingTokenAmount,\n    uint tradingForEthAmount\n  );\n\n  event EventAddToDexTradeEthForTokens (\n    address sender,\n    uint tradingEthAmount,\n    address tradingForTokenAddress,\n    uint tradingForTokenAmount\n  );\n\n  event EventTradeTokensForTokens (\n    address sender,\n    address tradingTokenAddress,\n    uint tradingTokenAmount,\n    address tradingForTokenAddress,\n    uint tradingForTokenAmount\n  );\n\n  event EventTradeTokensForEth (\n    address sender,\n    address tradingTokenAddress,\n    uint tradingTokenAmount,\n    uint tradingForEthAmount\n  );\n\n  event EventTradeEthForTokens (\n    address sender,\n    uint tradingEthAmount,\n    address tradingForTokenAddress,\n    uint tradingForTokenAmount\n  );\n\n  event EventCanceledTradeTokensForTokens (\n    address sender,\n    address tradingTokenAddress,\n    uint tradingTokenAmount,\n    address tradingForTokenAddress,\n    uint tradingForTokenAmount\n  );\n\n  event EventCanceledTradeTokensForEth (\n    address sender,\n    address tradingTokenAddress,\n    uint tradingTokenAmount,\n    uint tradingForEthAmount\n  );\n\n  event EventCanceledTradeEthForTokens (\n    address sender,\n    uint tradingEthAmount,\n    address tradingForTokenAddress,\n    uint tradingForTokenAmount\n  );\n\n  struct TradeTokensForTokens {\n    address tradingTokenAddress;\n    uint tradingTokenAmount;\n    address tradingForTokenAddress;\n    uint tradingForTokenAmount;\n    bool alreadyTraded;\n  }\n\n  struct TradeTokensForEth {\n    address tradingTokenAddress;\n    uint tradingTokenAmount;\n    uint tradingForEthAmount;\n    bool alreadyTraded;\n  }\n\n  struct TradeEthForTokens {\n    uint tradingEthAmount;\n    address tradingForTokenAddress;\n    uint tradingForTokenAmount;\n    bool alreadyTraded;\n  }\n\n  /* TradeTokensForTokens[] public tradeTokensForTokensArr;\n  TradeTokensForEth[] public tradeTokensForEthArr;\n  TradeEthForTokens[] public tradeEthForTokensArr; */\n\n  mapping(address => TradeTokensForTokens[]) public tradesOfTokensForTokensOfAnAddress;\n  mapping(address => TradeTokensForEth[]) public tradesOfTokensForEthOfAnAddress;\n  mapping(address => TradeEthForTokens[]) public tradesOfEthForTokensOfAnAddress;\n\n  struct TradeCategoriesOfDexUser {\n    bool tradeTokensForTokens;\n    bool tradeTokensForEth;\n    bool tradeEthForTokens;\n  }\n\n  address[] public dexUsersArr;\n  mapping(address => TradeCategoriesOfDexUser) dexUsersMapping;\n\n  address owner;\n\n  constructor() {\n    owner = msg.sender;\n  }\n\n  function addTokensToDexForTradeWithOtherTokens(\n    address tradingTokenAddress,\n    uint tradingTokenAmount,\n    address tradingForTokenAddress,\n    uint tradingForTokenAmount) public {\n\n    ERC20 tradingErc20 = ERC20(tradingTokenAddress);\n\n    uint totalAllowanceRequired = tradingTokenAmount;\n    TradeTokensForTokens[] memory tradeTokensForTokensArrForAddress\n      = tradesOfTokensForTokensOfAnAddress[msg.sender];\n\n    TradeTokensForEth[] memory tradeTokensForEthArrForAddress\n      = tradesOfTokensForEthOfAnAddress[msg.sender];\n\n    if (dexUsersMapping[msg.sender].tradeTokensForTokens == true) {\n      for (uint i = 0; i < tradeTokensForTokensArrForAddress.length; i++) {\n        if (tradeTokensForTokensArrForAddress[i].tradingTokenAddress == tradingTokenAddress\n            && tradeTokensForTokensArrForAddress[i].alreadyTraded == false) {\n          totalAllowanceRequired = tradeTokensForTokensArrForAddress[i].tradingTokenAmount + totalAllowanceRequired;\n        }\n      }\n    }\n\n    if (dexUsersMapping[msg.sender].tradeTokensForEth == true) {\n      for (uint i = 0; i < tradeTokensForEthArrForAddress.length; i++) {\n        if (tradeTokensForEthArrForAddress[i].tradingTokenAddress == tradingTokenAddress\n            && tradeTokensForEthArrForAddress[i].alreadyTraded == false) {\n          totalAllowanceRequired = tradeTokensForEthArrForAddress[i].tradingTokenAmount + totalAllowanceRequired;\n        }\n      }\n    }\n\n    require(tradingErc20.allowance(msg.sender, address(this)) >= totalAllowanceRequired);\n    require(tradingErc20.balanceOf(msg.sender) >= totalAllowanceRequired);\n\n    /* require(tradingErc20.allowance(msg.sender, address(this)) == newAllowance); */\n\n    tradesOfTokensForTokensOfAnAddress[msg.sender].push(\n      TradeTokensForTokens(\n        tradingTokenAddress,\n        tradingTokenAmount,\n        tradingForTokenAddress,\n        tradingForTokenAmount,\n        false\n    ));\n\n    emit EventAddToDexTradeTokensForTokens(\n      msg.sender,\n      tradingTokenAddress,\n      tradingTokenAmount,\n      tradingForTokenAddress,\n      tradingForTokenAmount\n    );\n\n    if (dexUsersMapping[msg.sender].tradeTokensForTokens == false &&\n        dexUsersMapping[msg.sender].tradeTokensForEth == false &&\n        dexUsersMapping[msg.sender].tradeEthForTokens == false) {\n          dexUsersArr.push(msg.sender);\n          dexUsersMapping[msg.sender].tradeTokensForTokens = true;\n\n    } else if (dexUsersMapping[msg.sender].tradeTokensForTokens == false) {\n      dexUsersMapping[msg.sender].tradeTokensForTokens = true;\n    }\n  }\n\n  function addTokensToDexForTradeWithEth(\n    address tradingTokenAddress,\n    uint tradingTokenAmount,\n    uint tradingForEthAmount) public {\n\n    ERC20 tradingErc20 = ERC20(tradingTokenAddress);\n\n    uint totalAllowanceRequired = tradingTokenAmount;\n\n    TradeTokensForTokens[] memory tradeTokensForTokensArrForAddress\n      = tradesOfTokensForTokensOfAnAddress[msg.sender];\n\n    TradeTokensForEth[] memory tradeTokensForEthArrForAddress\n      = tradesOfTokensForEthOfAnAddress[msg.sender];\n\n    if (dexUsersMapping[msg.sender].tradeTokensForTokens == true) {\n      for (uint i = 0; i < tradeTokensForTokensArrForAddress.length; i++) {\n        if (tradeTokensForTokensArrForAddress[i].tradingTokenAddress == tradingTokenAddress\n            && tradeTokensForTokensArrForAddress[i].alreadyTraded == false) {\n          totalAllowanceRequired = tradeTokensForTokensArrForAddress[i].tradingTokenAmount + totalAllowanceRequired;\n        }\n      }\n    }\n\n    if (dexUsersMapping[msg.sender].tradeTokensForEth == true) {\n      for (uint i = 0; i < tradeTokensForEthArrForAddress.length; i++) {\n        if (tradeTokensForEthArrForAddress[i].tradingTokenAddress == tradingTokenAddress\n            && tradeTokensForEthArrForAddress[i].alreadyTraded == false) {\n          totalAllowanceRequired = tradeTokensForEthArrForAddress[i].tradingTokenAmount + totalAllowanceRequired;\n        }\n      }\n    }\n\n    /* for (uint i = 0; i < tradeTokensForEthArrForAddress.length; i++) {\n      if (tradeTokensForEthArrForAddress[i].tradingTokenAddress == tradingTokenAddress) {\n        totalAllowanceRequired = tradeTokensForEthArrForAddress[i].tradingTokenAmount + totalAllowanceRequired;\n      }\n    } */\n\n    require(tradingErc20.allowance(msg.sender, address(this)) >= totalAllowanceRequired);\n    require(tradingErc20.balanceOf(msg.sender) >= totalAllowanceRequired);\n\n    tradesOfTokensForEthOfAnAddress[msg.sender].push(\n      TradeTokensForEth(\n        tradingTokenAddress,\n        tradingTokenAmount,\n        tradingForEthAmount,\n        false\n    ));\n\n    emit EventAddToDexTradeTokensForEth(\n      msg.sender,\n      tradingTokenAddress,\n      tradingTokenAmount,\n      tradingForEthAmount\n    );\n\n    if (dexUsersMapping[msg.sender].tradeTokensForTokens == false &&\n        dexUsersMapping[msg.sender].tradeTokensForEth == false &&\n        dexUsersMapping[msg.sender].tradeEthForTokens == false) {\n          dexUsersArr.push(msg.sender);\n          dexUsersMapping[msg.sender].tradeTokensForEth = true;\n\n    } else if (dexUsersMapping[msg.sender].tradeTokensForEth == false) {\n      dexUsersMapping[msg.sender].tradeTokensForEth = true;\n    }\n  }\n\n  function addEthToDexForTradeWithTokens(\n    uint tradingEthAmount,\n    address tradingForTokenAddress,\n    uint tradingForTokenAmount) public payable {\n\n    require(msg.value == tradingEthAmount);\n\n    tradesOfEthForTokensOfAnAddress[msg.sender].push(\n      TradeEthForTokens(\n        tradingEthAmount,\n        tradingForTokenAddress,\n        tradingForTokenAmount,\n        false\n    ));\n\n    emit EventAddToDexTradeEthForTokens(\n      msg.sender,\n      tradingEthAmount,\n      tradingForTokenAddress,\n      tradingForTokenAmount\n    );\n\n    if (dexUsersMapping[msg.sender].tradeTokensForTokens == false &&\n        dexUsersMapping[msg.sender].tradeTokensForEth == false &&\n        dexUsersMapping[msg.sender].tradeEthForTokens == false) {\n          dexUsersArr.push(msg.sender);\n          dexUsersMapping[msg.sender].tradeEthForTokens = true;\n\n    } else if (dexUsersMapping[msg.sender].tradeEthForTokens == false) {\n      dexUsersMapping[msg.sender].tradeEthForTokens = true;\n    }\n  }\n\n  /* function updateTokensToDexForTradeWithOtherTokens(\n    uint indexOfTrade,\n    address tradingTokenAddress,\n    uint tradingTokenAmount,\n    address tradingForTokenAddress,\n    uint tradingForTokenAmount\n  ) public {\n\n    ERC20 tradingErc20 = ERC20(tradingTokenAddress);\n\n    uint totalAllowanceRequired = tradingTokenAmount;\n    TradeTokensForTokens[] memory tradeTokensForTokensArrForAddress\n      = tradesOfTokensForTokensOfAnAddress[msg.sender];\n\n    for (uint i = 0; i < tradeTokensForTokensArrForAddress.length; i++) {\n      if (tradeTokensForTokensArrForAddress[i].tradingTokenAddress == tradingTokenAddress\n          && tradeTokensForTokensArrForAddress[i].alreadyTraded == false\n          && i != indexOfTrade) {\n        totalAllowanceRequired = tradeTokensForTokensArrForAddress[i].tradingTokenAmount + totalAllowanceRequired;\n      }\n    }\n\n    require(tradingErc20.allowance(msg.sender, address(this)) >= totalAllowanceRequired);\n    require(tradingErc20.balanceOf(msg.sender) >= totalAllowanceRequired);\n\n    tradesOfTokensForTokensOfAnAddress[msg.sender][indexOfTrade].tradingTokenAddress = tradingTokenAddress;\n    tradesOfTokensForTokensOfAnAddress[msg.sender][indexOfTrade].tradingTokenAmount = tradingTokenAmount;\n    tradesOfTokensForTokensOfAnAddress[msg.sender][indexOfTrade].tradingForTokenAddress = tradingForTokenAddress;\n    tradesOfTokensForTokensOfAnAddress[msg.sender][indexOfTrade].tradingForTokenAmount = tradingForTokenAmount;\n  }\n\n  function updateTokensToDexForTradeWithEth(\n    uint indexOfTrade,\n    address tradingTokenAddress,\n    uint tradingTokenAmount,\n    uint tradingForEthAmount\n  ) public {\n    ERC20 tradingErc20 = ERC20(tradingTokenAddress);\n\n    uint totalAllowanceRequired = tradingTokenAmount;\n\n    TradeTokensForEth[] memory tradeTokensForEthArrForAddress\n      = tradesOfTokensForEthOfAnAddress[msg.sender];\n\n    for (uint i = 0; i < tradeTokensForEthArrForAddress.length; i++) {\n      if (tradeTokensForEthArrForAddress[i].tradingTokenAddress == tradingTokenAddress\n          && tradeTokensForEthArrForAddress[i].alreadyTraded == false\n          && i != indexOfTrade) {\n        totalAllowanceRequired = tradeTokensForEthArrForAddress[i].tradingTokenAmount + totalAllowanceRequired;\n      }\n    }\n\n    require(tradingErc20.allowance(msg.sender, address(this)) >= totalAllowanceRequired);\n    require(tradingErc20.balanceOf(msg.sender) >= totalAllowanceRequired);\n\n    tradesOfTokensForEthOfAnAddress[msg.sender][indexOfTrade].tradingTokenAddress = tradingTokenAddress;\n    tradesOfTokensForEthOfAnAddress[msg.sender][indexOfTrade].tradingTokenAmount = tradingTokenAmount;\n    tradesOfTokensForEthOfAnAddress[msg.sender][indexOfTrade].tradingForEthAmount = tradingForEthAmount;\n  }\n\n  function updateEthToDexForTradeWithTokens(\n    uint indexOfTrade,\n    uint tradingEthAmount,\n    address tradingForTokenAddress,\n    uint tradingForTokenAmount\n  ) public payable {\n\n    uint amountOfEthAlreadyInDex = tradesOfEthForTokensOfAnAddress[msg.sender][indexOfTrade].tradingEthAmount;\n\n    if (tradingEthAmount - amountOfEthAlreadyInDex > 0) {\n      require(msg.value == tradingEthAmount - amountOfEthAlreadyInDex);\n    } else if (tradingEthAmount - amountOfEthAlreadyInDex < 0) {\n      (bool sent,) = msg.sender.call{value: amountOfEthAlreadyInDex - tradingEthAmount}(\"\");\n      require(sent, \"Failed to send Ether\");\n    }\n\n    tradesOfEthForTokensOfAnAddress[msg.sender][indexOfTrade].tradingEthAmount = tradingEthAmount;\n    tradesOfEthForTokensOfAnAddress[msg.sender][indexOfTrade].tradingForTokenAddress = tradingForTokenAddress;\n    tradesOfEthForTokensOfAnAddress[msg.sender][indexOfTrade].tradingForTokenAmount = tradingForTokenAmount;\n  } */\n\n  /* struct TradeTokensForTokens {\n    address sender;\n    uint tradingTokenAddress;\n    uint tradingTokenAmount;\n    uint tradingForTokenAddress;\n    uint tradingForTokenAmount;\n    bool alreadyTraded;\n  } */\n\n  /* address tradingTokenAddress = tradesOfTokensForTokensOfAnAddress[sender][indexOfTrade].tradingTokenAddress;\n  uint tradingTokenAmount = tradesOfTokensForTokensOfAnAddress[sender][indexOfTrade].tradingTokenAmount;\n  address tradingForTokenAddress = tradesOfTokensForTokensOfAnAddress[sender][indexOfTrade].tradingForTokenAddress;\n  uint tradingForTokenAmount = tradesOfTokensForTokensOfAnAddress[sender][indexOfTrade].tradingForTokenAmount; */\n\n  function buyTokensFromOtherTokens(address sender, uint indexOfTrade) public {\n    require(tradesOfTokensForTokensOfAnAddress[sender][indexOfTrade].alreadyTraded != true);\n\n    ERC20 tradingErc20 = ERC20(tradesOfTokensForTokensOfAnAddress[sender][indexOfTrade].tradingTokenAddress);\n    tradingErc20.transferFrom(sender, msg.sender, tradesOfTokensForTokensOfAnAddress[sender][indexOfTrade].tradingTokenAmount);\n\n    ERC20 tradingForErc20 = ERC20(tradesOfTokensForTokensOfAnAddress[sender][indexOfTrade].tradingForTokenAddress);\n\n    require(tradingForErc20.balanceOf(msg.sender) >= tradesOfTokensForTokensOfAnAddress[sender][indexOfTrade].tradingForTokenAmount);\n    require(tradingForErc20.allowance(msg.sender, address(this)) >= tradesOfTokensForTokensOfAnAddress[sender][indexOfTrade].tradingForTokenAmount);\n\n    tradingForErc20.transferFrom(msg.sender, sender, tradesOfTokensForTokensOfAnAddress[sender][indexOfTrade].tradingForTokenAmount);\n\n    tradesOfTokensForTokensOfAnAddress[sender][indexOfTrade].alreadyTraded = true;\n\n    emit EventTradeTokensForTokens(\n      sender,\n      tradesOfTokensForTokensOfAnAddress[sender][indexOfTrade].tradingTokenAddress,\n      tradesOfTokensForTokensOfAnAddress[sender][indexOfTrade].tradingTokenAmount,\n      tradesOfTokensForTokensOfAnAddress[sender][indexOfTrade].tradingForTokenAddress,\n      tradesOfTokensForTokensOfAnAddress[sender][indexOfTrade].tradingForTokenAmount\n    );\n  }\n\n  /* event TradeTokensForTokens (\n    address sender,\n    address tradingTokenAddress,\n    uint tradingTokenAmount,\n    address tradingForTokenAddress,\n    uint tradingForTokenAmount\n  ) */\n\n  // TradeTokensForEth\n\n  /* struct TradeTokensForEth {\n    address sender;\n    uint tradingTokenAddress;\n    uint tradingTokenAmount;\n    uint tradingForEthAmount;\n    bool alreadyTraded;\n  } */\n\n  /* address tradingTokenAddress = tradesOfTokensForEthOfAnAddress[sender][indexOfTrade].tradingTokenAddress;\n  uint tradingTokenAmount = tradesOfTokensForEthOfAnAddress[sender][indexOfTrade].tradingTokenAmount;\n  uint tradingForEthAmount = tradesOfTokensForEthOfAnAddress[sender][indexOfTrade].tradingForEthAmount; */\n\n  function buyTokensForEth(address sender, uint indexOfTrade) public payable {\n    require(tradesOfTokensForEthOfAnAddress[sender][indexOfTrade].alreadyTraded != true);\n\n    ERC20 tradingErc20 = ERC20(tradesOfTokensForEthOfAnAddress[sender][indexOfTrade].tradingTokenAddress);\n    tradingErc20.transferFrom(sender, msg.sender, tradesOfTokensForEthOfAnAddress[sender][indexOfTrade].tradingTokenAmount);\n\n    require(msg.value == tradesOfTokensForEthOfAnAddress[sender][indexOfTrade].tradingForEthAmount);\n\n    (bool sent,) = sender.call{value: msg.value}(\"\");\n    require(sent, \"Failed to send Ether\");\n\n    tradesOfTokensForEthOfAnAddress[sender][indexOfTrade].alreadyTraded = true;\n\n    emit EventTradeTokensForEth(\n      sender,\n      tradesOfTokensForEthOfAnAddress[sender][indexOfTrade].tradingTokenAddress,\n      tradesOfTokensForEthOfAnAddress[sender][indexOfTrade].tradingTokenAmount,\n      tradesOfTokensForEthOfAnAddress[sender][indexOfTrade].tradingForEthAmount\n    );\n  }\n\n  /* event TradeTokensForEth (\n    address sender,\n    address tradingTokenAddress,\n    uint tradingTokenAmount,\n    uint tradingForEthAmount\n  ); */\n\n  // TradeEthForTokens\n\n  /* struct TradeEthForTokens {\n    address sender;\n    uint tradingEthAmount;\n    uint tradingForTokenAddress;\n    uint tradingForTokenAmount;\n    bool alreadyTraded;\n  } */\n\n  /* uint tradingEthAmount = tradesOfEthForTokensOfAnAddress[sender][indexOfTrade].tradingEthAmount;\n  address tradingForTokenAddress = tradesOfEthForTokensOfAnAddress[sender][indexOfTrade].tradingForTokenAddress;\n  uint tradingForTokenAmount = tradesOfEthForTokensOfAnAddress[sender][indexOfTrade].tradingForTokenAmount; */\n\n  function buyEthForTokens(address sender, uint indexOfTrade) public payable {\n    require(tradesOfEthForTokensOfAnAddress[sender][indexOfTrade].alreadyTraded != true);\n\n    ERC20 tradingForErc20 = ERC20(tradesOfEthForTokensOfAnAddress[sender][indexOfTrade].tradingForTokenAddress);\n    require(tradingForErc20.balanceOf(msg.sender) >= tradesOfEthForTokensOfAnAddress[sender][indexOfTrade].tradingForTokenAmount);\n\n    require(tradingForErc20.allowance(msg.sender, address(this)) >= tradesOfEthForTokensOfAnAddress[sender][indexOfTrade].tradingForTokenAmount);\n\n    tradingForErc20.transferFrom(msg.sender, sender, tradesOfEthForTokensOfAnAddress[sender][indexOfTrade].tradingForTokenAmount);\n\n    (bool sent,) = payable(msg.sender).call{value: tradesOfEthForTokensOfAnAddress[sender][indexOfTrade].tradingEthAmount}(\"\");\n    require(sent, \"Failed to send Ether\");\n\n    tradesOfEthForTokensOfAnAddress[sender][indexOfTrade].alreadyTraded = true;\n\n    emit EventTradeEthForTokens(\n      sender,\n      tradesOfEthForTokensOfAnAddress[sender][indexOfTrade].tradingEthAmount,\n      tradesOfEthForTokensOfAnAddress[sender][indexOfTrade].tradingForTokenAddress,\n      tradesOfEthForTokensOfAnAddress[sender][indexOfTrade].tradingForTokenAmount\n    );\n  }\n\n  /* struct TradeTokensForTokens {\n    address sender;\n    uint tradingTokenAddress;\n    uint tradingTokenAmount;\n    uint tradingForTokenAddress;\n    uint tradingForTokenAmount;\n    bool alreadyTraded;\n  } */\n\n  /* address tradingTokenAddress = tradesOfTokensForTokensOfAnAddress[sender][indexOfTrade].tradingTokenAddress;\n  uint tradingTokenAmount = tradesOfTokensForTokensOfAnAddress[sender][indexOfTrade].tradingTokenAmount;\n  address tradingForTokenAddress = tradesOfTokensForTokensOfAnAddress[sender][indexOfTrade].tradingForTokenAddress;\n  uint tradingForTokenAmount = tradesOfTokensForTokensOfAnAddress[sender][indexOfTrade].tradingForTokenAmount; */\n\n  function cancelTradeForTokensWithTokens(address sender, uint indexOfTrade) public {\n    require(msg.sender == sender);\n    require(tradesOfTokensForTokensOfAnAddress[sender][indexOfTrade].alreadyTraded == false);\n\n    tradesOfTokensForTokensOfAnAddress[sender][indexOfTrade].alreadyTraded = true;\n\n    emit EventCanceledTradeTokensForTokens(\n      sender,\n      tradesOfTokensForTokensOfAnAddress[sender][indexOfTrade].tradingTokenAddress,\n      tradesOfTokensForTokensOfAnAddress[sender][indexOfTrade].tradingTokenAmount,\n      tradesOfTokensForTokensOfAnAddress[sender][indexOfTrade].tradingForTokenAddress,\n      tradesOfTokensForTokensOfAnAddress[sender][indexOfTrade].tradingForTokenAmount\n    );\n  }\n\n  /* struct TradeTokensForEth {\n    address sender;\n    uint tradingTokenAddress;\n    uint tradingTokenAmount;\n    uint tradingForEthAmount;\n    bool alreadyTraded;\n  } */\n\n  /* address tradingTokenAddress = tradesOfTokensForEthOfAnAddress[sender][indexOfTrade].tradingTokenAddress;\n  uint tradingTokenAmount = tradesOfTokensForEthOfAnAddress[sender][indexOfTrade].tradingTokenAmount;\n  uint tradingForEthAmount = tradesOfTokensForEthOfAnAddress[sender][indexOfTrade].tradingForEthAmount; */\n\n  function cancelTradeForTokensWithEth(address sender, uint indexOfTrade) public {\n    require(msg.sender == sender);\n    require(tradesOfTokensForEthOfAnAddress[sender][indexOfTrade].alreadyTraded == false);\n\n    tradesOfTokensForEthOfAnAddress[sender][indexOfTrade].alreadyTraded = true;\n\n    emit EventCanceledTradeTokensForEth(\n      sender,\n      tradesOfTokensForEthOfAnAddress[sender][indexOfTrade].tradingTokenAddress,\n      tradesOfTokensForEthOfAnAddress[sender][indexOfTrade].tradingTokenAmount,\n      tradesOfTokensForEthOfAnAddress[sender][indexOfTrade].tradingForEthAmount\n    );\n  }\n\n  /* struct TradeEthForTokens {\n    address sender;\n    uint tradingEthAmount;\n    address tradingForTokenAddress;\n    uint tradingForTokenAmount;\n    bool alreadyTraded;\n  } */\n\n  /* uint tradingEthAmount = tradesOfEthForTokensOfAnAddress[sender][indexOfTrade].tradingEthAmount;\n  address tradingForTokenAddress = tradesOfEthForTokensOfAnAddress[sender][indexOfTrade].tradingForTokenAddress;\n  uint tradingForTokenAmount = tradesOfEthForTokensOfAnAddress[sender][indexOfTrade].tradingForTokenAmount;\n   */\n\n  function cancelTradeForEthWithTokens(address sender, uint indexOfTrade) public payable {\n    require(msg.sender == sender);\n    require(tradesOfEthForTokensOfAnAddress[sender][indexOfTrade].alreadyTraded == false);\n\n    tradesOfEthForTokensOfAnAddress[sender][indexOfTrade].alreadyTraded = true;\n\n    (bool sent,) = payable(msg.sender).call{value: tradesOfEthForTokensOfAnAddress[sender][indexOfTrade].tradingEthAmount}(\"\");\n    require(sent, \"Failed to send Ether\");\n\n    emit EventCanceledTradeEthForTokens(\n      sender,\n      tradesOfEthForTokensOfAnAddress[sender][indexOfTrade].tradingEthAmount,\n      tradesOfEthForTokensOfAnAddress[sender][indexOfTrade].tradingForTokenAddress,\n      tradesOfEthForTokensOfAnAddress[sender][indexOfTrade].tradingForTokenAmount\n    );\n  }\n\n  struct AllTrades {\n    TradeTokensForTokensForCall[] tradeTokensForTokensForCall;\n    TradeTokensForEthForCall[] tradeTokensForEthForCall;\n    TradeEthForTokensForCall[] tradeEthForTokensForCall;\n  }\n\n  /* function getAllTrades() public view returns (AllTrades memory) {\n\n    uint amountOfTrades = 0;\n\n    for (uint i = 0; i < dexUsersArr.length; i++) {\n      for (uint j = 0; j < tradesOfTokensForTokensOfAnAddress[dexUsersArr[i]].length; j++) {\n        amountOfTrades = amountOfTrades + 1;\n      }\n    }\n\n    TradeTokensForTokensForCall[] memory tradeTokensForTokensResultArr = new TradeTokensForTokensForCall[](amountOfTrades);\n\n    uint indexOfResultArr = 0;\n\n    for (uint i = 0; i < dexUsersArr.length; i++) {\n      for (uint j = 0; j < tradesOfTokensForTokensOfAnAddress[dexUsersArr[i]].length; j++) {\n        TradeTokensForTokens memory tradeTokensForTokens = tradesOfTokensForTokensOfAnAddress[dexUsersArr[i]][j];\n        TradeTokensForTokensForCall memory tradeTokensForTokensForCall = TradeTokensForTokensForCall (\n          dexUsersArr[i],\n          j,\n          tradeTokensForTokens.tradingTokenAddress,\n          tradeTokensForTokens.tradingTokenAmount,\n          tradeTokensForTokens.tradingForTokenAddress,\n          tradeTokensForTokens.tradingForTokenAmount,\n          tradeTokensForTokens.alreadyTraded\n        );\n\n        tradeTokensForTokensResultArr[indexOfResultArr] = tradeTokensForTokensForCall;\n\n        indexOfResultArr = indexOfResultArr + 1;\n      }\n    }\n\n    amountOfTrades = 0;\n\n    for (uint i = 0; i < dexUsersArr.length; i++) {\n      for (uint j = 0; j < tradesOfTokensForEthOfAnAddress[dexUsersArr[i]].length; j++) {\n        amountOfTrades = amountOfTrades + 1;\n      }\n    }\n\n    TradeTokensForEthForCall[] memory tradeTokensForEthResultArr = new TradeTokensForEthForCall[](amountOfTrades);\n\n    indexOfResultArr = 0;\n\n    for (uint i = 0; i < dexUsersArr.length; i++) {\n      if (dexUsersMapping[dexUsersArr[i]].tradeTokensForEth == true) {\n        for (uint j = 0; j < tradesOfTokensForEthOfAnAddress[dexUsersArr[i]].length; j++) {\n          TradeTokensForEth memory tradeTokensForEth = tradesOfTokensForEthOfAnAddress[dexUsersArr[i]][j];\n          TradeTokensForEthForCall memory tradeTokensForEthForCall = TradeTokensForEthForCall (\n            dexUsersArr[i],\n            j,\n            tradeTokensForEth.tradingTokenAddress,\n            tradeTokensForEth.tradingTokenAmount,\n            tradeTokensForEth.tradingForEthAmount,\n            tradeTokensForEth.alreadyTraded\n          );\n\n          tradeTokensForEthResultArr[indexOfResultArr] = tradeTokensForEthForCall;\n          indexOfResultArr = indexOfResultArr + 1;\n        }\n      }\n    }\n\n    amountOfTrades = 0;\n\n    for (uint i = 0; i < dexUsersArr.length; i++) {\n      for (uint j = 0; j < tradesOfEthForTokensOfAnAddress[dexUsersArr[i]].length; j++) {\n        amountOfTrades = amountOfTrades + 1;\n      }\n    }\n\n    TradeEthForTokensForCall[] memory tradeEthForTokensResultArr = new TradeEthForTokensForCall[](amountOfTrades);\n\n    indexOfResultArr = 0;\n\n    for (uint i = 0; i < dexUsersArr.length; i++) {\n      if (dexUsersMapping[dexUsersArr[i]].tradeTokensForEth == true) {\n        for (uint j = 0; j < tradesOfEthForTokensOfAnAddress[dexUsersArr[i]].length; j++) {\n          TradeEthForTokens memory tradeEthForTokens = tradesOfEthForTokensOfAnAddress[dexUsersArr[i]][j];\n          TradeEthForTokensForCall memory tradeEthForTokensForCall = TradeEthForTokensForCall (\n            dexUsersArr[i],\n            j,\n            tradeEthForTokens.tradingEthAmount,\n            tradeEthForTokens.tradingForTokenAddress,\n            tradeEthForTokens.tradingForTokenAmount,\n            tradeEthForTokens.alreadyTraded\n          );\n\n          tradeEthForTokensResultArr[indexOfResultArr] = tradeEthForTokensForCall;\n          indexOfResultArr = indexOfResultArr + 1;\n        }\n      }\n    }\n\n    AllTrades memory allTrades;\n\n    allTrades.tradeTokensForTokensForCall = tradeTokensForTokensResultArr;\n    allTrades.tradeTokensForEthForCall = tradeTokensForEthResultArr;\n    allTrades.tradeEthForTokensForCall = tradeEthForTokensResultArr;\n\n    return allTrades;\n  } */\n\n  struct TradeTokensForTokensForCall {\n    address sender;\n    uint indexOfTradeOfAddress;\n    address tradingTokenAddress;\n    uint tradingTokenAmount;\n    address tradingForTokenAddress;\n    uint tradingForTokenAmount;\n    bool alreadyTraded;\n  }\n\n  function getTradesForTokensWithTokens() public view returns (TradeTokensForTokensForCall[] memory) {\n\n    uint amountOfTrades = 0;\n\n    for (uint i = 0; i < dexUsersArr.length; i++) {\n      for (uint j = 0; j < tradesOfTokensForTokensOfAnAddress[dexUsersArr[i]].length; j++) {\n        amountOfTrades = amountOfTrades + 1;\n      }\n    }\n\n    TradeTokensForTokensForCall[] memory tradeTokensForTokensResultArr = new TradeTokensForTokensForCall[](amountOfTrades);\n\n    uint indexOfResultArr = 0;\n\n    for (uint i = 0; i < dexUsersArr.length; i++) {\n      for (uint j = 0; j < tradesOfTokensForTokensOfAnAddress[dexUsersArr[i]].length; j++) {\n        TradeTokensForTokens memory tradeTokensForTokens = tradesOfTokensForTokensOfAnAddress[dexUsersArr[i]][j];\n        TradeTokensForTokensForCall memory tradeTokensForTokensForCall = TradeTokensForTokensForCall (\n          dexUsersArr[i],\n          j,\n          tradeTokensForTokens.tradingTokenAddress,\n          tradeTokensForTokens.tradingTokenAmount,\n          tradeTokensForTokens.tradingForTokenAddress,\n          tradeTokensForTokens.tradingForTokenAmount,\n          tradeTokensForTokens.alreadyTraded\n        );\n\n        tradeTokensForTokensResultArr[indexOfResultArr] = tradeTokensForTokensForCall;\n\n        indexOfResultArr = indexOfResultArr + 1;\n      }\n    }\n\n    return tradeTokensForTokensResultArr;\n  }\n\n  /* if (dexUsersMapping[dexUsersArr[i]].tradeTokensForTokens == true) { */\n\n  struct TradeTokensForEthForCall {\n    address sender;\n    uint indexOfTradeOfAddress;\n    address tradingTokenAddress;\n    uint tradingTokenAmount;\n    uint tradingForEthAmount;\n    bool alreadyTraded;\n  }\n\n  function getTradesForTokensWithEth() public view returns (TradeTokensForEthForCall[] memory) {\n\n    uint amountOfTrades = 0;\n\n    for (uint i = 0; i < dexUsersArr.length; i++) {\n      for (uint j = 0; j < tradesOfTokensForEthOfAnAddress[dexUsersArr[i]].length; j++) {\n        amountOfTrades = amountOfTrades + 1;\n      }\n    }\n\n    TradeTokensForEthForCall[] memory tradeTokensForEthResultArr = new TradeTokensForEthForCall[](amountOfTrades);\n\n    uint indexOfResultArr = 0;\n\n    for (uint i = 0; i < dexUsersArr.length; i++) {\n      if (dexUsersMapping[dexUsersArr[i]].tradeTokensForEth == true) {\n        for (uint j = 0; j < tradesOfTokensForEthOfAnAddress[dexUsersArr[i]].length; j++) {\n          TradeTokensForEth memory tradeTokensForEth = tradesOfTokensForEthOfAnAddress[dexUsersArr[i]][j];\n          TradeTokensForEthForCall memory tradeTokensForEthForCall = TradeTokensForEthForCall (\n            dexUsersArr[i],\n            j,\n            tradeTokensForEth.tradingTokenAddress,\n            tradeTokensForEth.tradingTokenAmount,\n            tradeTokensForEth.tradingForEthAmount,\n            tradeTokensForEth.alreadyTraded\n          );\n\n          tradeTokensForEthResultArr[indexOfResultArr] = tradeTokensForEthForCall;\n          indexOfResultArr = indexOfResultArr + 1;\n        }\n      }\n    }\n\n    return tradeTokensForEthResultArr;\n  }\n\n  struct TradeEthForTokensForCall {\n    address sender;\n    uint indexOfTradeOfAddress;\n    uint tradingEthAmount;\n    address tradingForTokenAddress;\n    uint tradingForTokenAmount;\n    bool alreadyTraded;\n  }\n\n  function getTradesForEthWithTokens() public view returns (TradeEthForTokensForCall[] memory) {\n\n    uint amountOfTrades = 0;\n\n    for (uint i = 0; i < dexUsersArr.length; i++) {\n      for (uint j = 0; j < tradesOfEthForTokensOfAnAddress[dexUsersArr[i]].length; j++) {\n        amountOfTrades = amountOfTrades + 1;\n      }\n    }\n\n    TradeEthForTokensForCall[] memory tradeEthForTokensResultArr = new TradeEthForTokensForCall[](amountOfTrades);\n\n    uint indexOfResultArr = 0;\n\n    for (uint i = 0; i < dexUsersArr.length; i++) {\n      if (dexUsersMapping[dexUsersArr[i]].tradeTokensForEth == true) {\n        for (uint j = 0; j < tradesOfEthForTokensOfAnAddress[dexUsersArr[i]].length; j++) {\n          TradeEthForTokens memory tradeEthForTokens = tradesOfEthForTokensOfAnAddress[dexUsersArr[i]][j];\n          TradeEthForTokensForCall memory tradeEthForTokensForCall = TradeEthForTokensForCall (\n            dexUsersArr[i],\n            j,\n            tradeEthForTokens.tradingEthAmount,\n            tradeEthForTokens.tradingForTokenAddress,\n            tradeEthForTokens.tradingForTokenAmount,\n            tradeEthForTokens.alreadyTraded\n          );\n\n          tradeEthForTokensResultArr[indexOfResultArr] = tradeEthForTokensForCall;\n          indexOfResultArr = indexOfResultArr + 1;\n        }\n      }\n    }\n\n    return tradeEthForTokensResultArr;\n  }\n\n  function getDexUsers() public view returns (address[] memory) {\n    return dexUsersArr;\n  }\n\n  struct AllTradesOfAccount {\n    TradeTokensForTokensForCall[] tradeTokensForTokensForCall;\n    TradeTokensForEthForCall[] tradeTokensForEthForCall;\n    TradeEthForTokensForCall[] tradeEthForTokensForCall;\n  }\n\n  function getAllTradesOfAccount(address sender) public view returns(AllTradesOfAccount memory) {\n    AllTradesOfAccount memory allTradesOfAccount;\n\n    allTradesOfAccount.tradeTokensForTokensForCall = new TradeTokensForTokensForCall[](tradesOfTokensForTokensOfAnAddress[sender].length);\n\n    uint indexOfResultArr = 0;\n\n    for (uint i = 0; i < tradesOfTokensForTokensOfAnAddress[sender].length; i++) {\n      TradeTokensForTokens memory tradeTokensForTokens = tradesOfTokensForTokensOfAnAddress[sender][i];\n      TradeTokensForTokensForCall memory tradeTokensForTokensForCall = TradeTokensForTokensForCall (\n        sender,\n        i,\n        tradeTokensForTokens.tradingTokenAddress,\n        tradeTokensForTokens.tradingTokenAmount,\n        tradeTokensForTokens.tradingForTokenAddress,\n        tradeTokensForTokens.tradingForTokenAmount,\n        tradeTokensForTokens.alreadyTraded\n      );\n\n      allTradesOfAccount.tradeTokensForTokensForCall[indexOfResultArr] = tradeTokensForTokensForCall;\n      indexOfResultArr = indexOfResultArr + 1;\n    }\n\n    allTradesOfAccount.tradeTokensForEthForCall = new TradeTokensForEthForCall[](tradesOfTokensForEthOfAnAddress[sender].length);\n\n    indexOfResultArr = 0;\n\n    for (uint i = 0; i < tradesOfTokensForEthOfAnAddress[sender].length; i++) {\n      TradeTokensForEth memory tradeTokensForEth = tradesOfTokensForEthOfAnAddress[sender][i];\n      TradeTokensForEthForCall memory tradeTokensForEthForCall = TradeTokensForEthForCall (\n        sender,\n        i,\n        tradeTokensForEth.tradingTokenAddress,\n        tradeTokensForEth.tradingTokenAmount,\n        tradeTokensForEth.tradingForEthAmount,\n        tradeTokensForEth.alreadyTraded\n      );\n\n      allTradesOfAccount.tradeTokensForEthForCall[indexOfResultArr] = tradeTokensForEthForCall;\n      indexOfResultArr = indexOfResultArr + 1;\n    }\n\n    /* TradeEthForTokensForCall[] memory tradeEthForTokensResultArr = new TradeEthForTokensForCall[](tradesOfEthForTokensOfAnAddress[sender].length); */\n\n    allTradesOfAccount.tradeEthForTokensForCall = new TradeEthForTokensForCall[](tradesOfEthForTokensOfAnAddress[sender].length);\n\n    indexOfResultArr = 0;\n\n    for (uint i = 0; i < tradesOfEthForTokensOfAnAddress[sender].length; i++) {\n      TradeEthForTokens memory tradeEthForTokens = tradesOfEthForTokensOfAnAddress[sender][i];\n      TradeEthForTokensForCall memory tradeEthForTokensForCall = TradeEthForTokensForCall (\n        sender,\n        i,\n        tradeEthForTokens.tradingEthAmount,\n        tradeEthForTokens.tradingForTokenAddress,\n        tradeEthForTokens.tradingForTokenAmount,\n        tradeEthForTokens.alreadyTraded\n      );\n\n      allTradesOfAccount.tradeEthForTokensForCall[indexOfResultArr] = tradeEthForTokensForCall;\n      indexOfResultArr = indexOfResultArr + 1;\n    }\n\n    return allTradesOfAccount;\n  }\n}\n",
  "sourcePath": "/Users/zhiwen/code/dex/contracts/contracts/Dex.sol",
  "compiler": {
    "name": "solc",
    "version": "0.8.20+commit.a1b79de6.Emscripten.clang"
  },
  "schemaVersion": "3.4.16",
  "updatedAt": "2024-09-30T00:36:34.264Z",
  "devdoc": {
    "kind": "dev",
    "methods": {},
    "version": 1
  },
  "userdoc": {
    "kind": "user",
    "methods": {},
    "version": 1
  }
}