{
  "contractName": "Dex",
  "abi": [
    {
      "inputs": [],
      "stateMutability": "nonpayable",
      "type": "constructor"
    },
    {
      "anonymous": false,
      "inputs": [
        {
          "indexed": false,
          "internalType": "address",
          "name": "sender",
          "type": "address"
        },
        {
          "indexed": false,
          "internalType": "uint256",
          "name": "tradingEthAmount",
          "type": "uint256"
        },
        {
          "indexed": false,
          "internalType": "address",
          "name": "tradingForTokenAddress",
          "type": "address"
        },
        {
          "indexed": false,
          "internalType": "uint256",
          "name": "tradingForTokenAmount",
          "type": "uint256"
        }
      ],
      "name": "EventAddToDexTradeEthForTokens",
      "type": "event"
    },
    {
      "anonymous": false,
      "inputs": [
        {
          "indexed": false,
          "internalType": "address",
          "name": "sender",
          "type": "address"
        },
        {
          "indexed": false,
          "internalType": "address",
          "name": "tradingTokenAddress",
          "type": "address"
        },
        {
          "indexed": false,
          "internalType": "uint256",
          "name": "tradingTokenAmount",
          "type": "uint256"
        },
        {
          "indexed": false,
          "internalType": "uint256",
          "name": "tradingForEthAmount",
          "type": "uint256"
        }
      ],
      "name": "EventAddToDexTradeTokensForEth",
      "type": "event"
    },
    {
      "anonymous": false,
      "inputs": [
        {
          "indexed": false,
          "internalType": "address",
          "name": "sender",
          "type": "address"
        },
        {
          "indexed": false,
          "internalType": "address",
          "name": "tradingTokenAddress",
          "type": "address"
        },
        {
          "indexed": false,
          "internalType": "uint256",
          "name": "tradingTokenAmount",
          "type": "uint256"
        },
        {
          "indexed": false,
          "internalType": "address",
          "name": "tradingForTokenAddress",
          "type": "address"
        },
        {
          "indexed": false,
          "internalType": "uint256",
          "name": "tradingForTokenAmount",
          "type": "uint256"
        }
      ],
      "name": "EventAddToDexTradeTokensForTokens",
      "type": "event"
    },
    {
      "anonymous": false,
      "inputs": [
        {
          "indexed": false,
          "internalType": "address",
          "name": "sender",
          "type": "address"
        },
        {
          "indexed": false,
          "internalType": "uint256",
          "name": "tradingEthAmount",
          "type": "uint256"
        },
        {
          "indexed": false,
          "internalType": "address",
          "name": "tradingForTokenAddress",
          "type": "address"
        },
        {
          "indexed": false,
          "internalType": "uint256",
          "name": "tradingForTokenAmount",
          "type": "uint256"
        }
      ],
      "name": "EventCanceledTradeEthForTokens",
      "type": "event"
    },
    {
      "anonymous": false,
      "inputs": [
        {
          "indexed": false,
          "internalType": "address",
          "name": "sender",
          "type": "address"
        },
        {
          "indexed": false,
          "internalType": "address",
          "name": "tradingTokenAddress",
          "type": "address"
        },
        {
          "indexed": false,
          "internalType": "uint256",
          "name": "tradingTokenAmount",
          "type": "uint256"
        },
        {
          "indexed": false,
          "internalType": "uint256",
          "name": "tradingForEthAmount",
          "type": "uint256"
        }
      ],
      "name": "EventCanceledTradeTokensForEth",
      "type": "event"
    },
    {
      "anonymous": false,
      "inputs": [
        {
          "indexed": false,
          "internalType": "address",
          "name": "sender",
          "type": "address"
        },
        {
          "indexed": false,
          "internalType": "address",
          "name": "tradingTokenAddress",
          "type": "address"
        },
        {
          "indexed": false,
          "internalType": "uint256",
          "name": "tradingTokenAmount",
          "type": "uint256"
        },
        {
          "indexed": false,
          "internalType": "address",
          "name": "tradingForTokenAddress",
          "type": "address"
        },
        {
          "indexed": false,
          "internalType": "uint256",
          "name": "tradingForTokenAmount",
          "type": "uint256"
        }
      ],
      "name": "EventCanceledTradeTokensForTokens",
      "type": "event"
    },
    {
      "anonymous": false,
      "inputs": [
        {
          "indexed": false,
          "internalType": "address",
          "name": "sender",
          "type": "address"
        },
        {
          "indexed": false,
          "internalType": "uint256",
          "name": "tradingEthAmount",
          "type": "uint256"
        },
        {
          "indexed": false,
          "internalType": "address",
          "name": "tradingForTokenAddress",
          "type": "address"
        },
        {
          "indexed": false,
          "internalType": "uint256",
          "name": "tradingForTokenAmount",
          "type": "uint256"
        }
      ],
      "name": "EventTradeEthForTokens",
      "type": "event"
    },
    {
      "anonymous": false,
      "inputs": [
        {
          "indexed": false,
          "internalType": "address",
          "name": "sender",
          "type": "address"
        },
        {
          "indexed": false,
          "internalType": "address",
          "name": "tradingTokenAddress",
          "type": "address"
        },
        {
          "indexed": false,
          "internalType": "uint256",
          "name": "tradingTokenAmount",
          "type": "uint256"
        },
        {
          "indexed": false,
          "internalType": "uint256",
          "name": "tradingForEthAmount",
          "type": "uint256"
        }
      ],
      "name": "EventTradeTokensForEth",
      "type": "event"
    },
    {
      "anonymous": false,
      "inputs": [
        {
          "indexed": false,
          "internalType": "address",
          "name": "sender",
          "type": "address"
        },
        {
          "indexed": false,
          "internalType": "address",
          "name": "tradingTokenAddress",
          "type": "address"
        },
        {
          "indexed": false,
          "internalType": "uint256",
          "name": "tradingTokenAmount",
          "type": "uint256"
        },
        {
          "indexed": false,
          "internalType": "address",
          "name": "tradingForTokenAddress",
          "type": "address"
        },
        {
          "indexed": false,
          "internalType": "uint256",
          "name": "tradingForTokenAmount",
          "type": "uint256"
        }
      ],
      "name": "EventTradeTokensForTokens",
      "type": "event"
    },
    {
      "inputs": [
        {
          "internalType": "uint256",
          "name": "",
          "type": "uint256"
        }
      ],
      "name": "dexUsersArr",
      "outputs": [
        {
          "internalType": "address",
          "name": "",
          "type": "address"
        }
      ],
      "stateMutability": "view",
      "type": "function"
    },
    {
      "inputs": [
        {
          "internalType": "uint256",
          "name": "",
          "type": "uint256"
        }
      ],
      "name": "tradeEthForTokensArr",
      "outputs": [
        {
          "internalType": "uint256",
          "name": "tradingEthAmount",
          "type": "uint256"
        },
        {
          "internalType": "address",
          "name": "tradingForTokenAddress",
          "type": "address"
        },
        {
          "internalType": "uint256",
          "name": "tradingForTokenAmount",
          "type": "uint256"
        },
        {
          "internalType": "bool",
          "name": "alreadyTraded",
          "type": "bool"
        }
      ],
      "stateMutability": "view",
      "type": "function"
    },
    {
      "inputs": [
        {
          "internalType": "uint256",
          "name": "",
          "type": "uint256"
        }
      ],
      "name": "tradeTokensForEthArr",
      "outputs": [
        {
          "internalType": "address",
          "name": "tradingTokenAddress",
          "type": "address"
        },
        {
          "internalType": "uint256",
          "name": "tradingTokenAmount",
          "type": "uint256"
        },
        {
          "internalType": "uint256",
          "name": "tradingForEthAmount",
          "type": "uint256"
        },
        {
          "internalType": "bool",
          "name": "alreadyTraded",
          "type": "bool"
        }
      ],
      "stateMutability": "view",
      "type": "function"
    },
    {
      "inputs": [
        {
          "internalType": "uint256",
          "name": "",
          "type": "uint256"
        }
      ],
      "name": "tradeTokensForTokensArr",
      "outputs": [
        {
          "internalType": "address",
          "name": "tradingTokenAddress",
          "type": "address"
        },
        {
          "internalType": "uint256",
          "name": "tradingTokenAmount",
          "type": "uint256"
        },
        {
          "internalType": "address",
          "name": "tradingForTokenAddress",
          "type": "address"
        },
        {
          "internalType": "uint256",
          "name": "tradingForTokenAmount",
          "type": "uint256"
        },
        {
          "internalType": "bool",
          "name": "alreadyTraded",
          "type": "bool"
        }
      ],
      "stateMutability": "view",
      "type": "function"
    },
    {
      "inputs": [
        {
          "internalType": "address",
          "name": "",
          "type": "address"
        },
        {
          "internalType": "uint256",
          "name": "",
          "type": "uint256"
        }
      ],
      "name": "tradesOfEthForTokensOfAnAddress",
      "outputs": [
        {
          "internalType": "uint256",
          "name": "tradingEthAmount",
          "type": "uint256"
        },
        {
          "internalType": "address",
          "name": "tradingForTokenAddress",
          "type": "address"
        },
        {
          "internalType": "uint256",
          "name": "tradingForTokenAmount",
          "type": "uint256"
        },
        {
          "internalType": "bool",
          "name": "alreadyTraded",
          "type": "bool"
        }
      ],
      "stateMutability": "view",
      "type": "function"
    },
    {
      "inputs": [
        {
          "internalType": "address",
          "name": "",
          "type": "address"
        },
        {
          "internalType": "uint256",
          "name": "",
          "type": "uint256"
        }
      ],
      "name": "tradesOfTokensForEthOfAnAddress",
      "outputs": [
        {
          "internalType": "address",
          "name": "tradingTokenAddress",
          "type": "address"
        },
        {
          "internalType": "uint256",
          "name": "tradingTokenAmount",
          "type": "uint256"
        },
        {
          "internalType": "uint256",
          "name": "tradingForEthAmount",
          "type": "uint256"
        },
        {
          "internalType": "bool",
          "name": "alreadyTraded",
          "type": "bool"
        }
      ],
      "stateMutability": "view",
      "type": "function"
    },
    {
      "inputs": [
        {
          "internalType": "address",
          "name": "",
          "type": "address"
        },
        {
          "internalType": "uint256",
          "name": "",
          "type": "uint256"
        }
      ],
      "name": "tradesOfTokensForTokensOfAnAddress",
      "outputs": [
        {
          "internalType": "address",
          "name": "tradingTokenAddress",
          "type": "address"
        },
        {
          "internalType": "uint256",
          "name": "tradingTokenAmount",
          "type": "uint256"
        },
        {
          "internalType": "address",
          "name": "tradingForTokenAddress",
          "type": "address"
        },
        {
          "internalType": "uint256",
          "name": "tradingForTokenAmount",
          "type": "uint256"
        },
        {
          "internalType": "bool",
          "name": "alreadyTraded",
          "type": "bool"
        }
      ],
      "stateMutability": "view",
      "type": "function"
    },
    {
      "inputs": [
        {
          "internalType": "address",
          "name": "tradingTokenAddress",
          "type": "address"
        },
        {
          "internalType": "uint256",
          "name": "tradingTokenAmount",
          "type": "uint256"
        },
        {
          "internalType": "address",
          "name": "tradingForTokenAddress",
          "type": "address"
        },
        {
          "internalType": "uint256",
          "name": "tradingForTokenAmount",
          "type": "uint256"
        }
      ],
      "name": "addTokensToDexForTradeWithOtherTokens",
      "outputs": [],
      "stateMutability": "nonpayable",
      "type": "function"
    },
    {
      "inputs": [
        {
          "internalType": "address",
          "name": "tradingTokenAddress",
          "type": "address"
        },
        {
          "internalType": "uint256",
          "name": "tradingTokenAmount",
          "type": "uint256"
        },
        {
          "internalType": "uint256",
          "name": "tradingForEthAmount",
          "type": "uint256"
        }
      ],
      "name": "addTokensToDexForTradeWithEth",
      "outputs": [],
      "stateMutability": "nonpayable",
      "type": "function"
    },
    {
      "inputs": [
        {
          "internalType": "uint256",
          "name": "tradingEthAmount",
          "type": "uint256"
        },
        {
          "internalType": "address",
          "name": "tradingForTokenAddress",
          "type": "address"
        },
        {
          "internalType": "uint256",
          "name": "tradingForTokenAmount",
          "type": "uint256"
        }
      ],
      "name": "addEthToDexForTradeWithTokens",
      "outputs": [],
      "stateMutability": "payable",
      "type": "function"
    },
    {
      "inputs": [
        {
          "internalType": "address",
          "name": "sender",
          "type": "address"
        },
        {
          "internalType": "uint256",
          "name": "indexOfTrade",
          "type": "uint256"
        }
      ],
      "name": "buyTokensFromOtherTokens",
      "outputs": [],
      "stateMutability": "nonpayable",
      "type": "function"
    },
    {
      "inputs": [
        {
          "internalType": "address",
          "name": "sender",
          "type": "address"
        },
        {
          "internalType": "uint256",
          "name": "indexOfTrade",
          "type": "uint256"
        }
      ],
      "name": "buyTokensForEth",
      "outputs": [],
      "stateMutability": "payable",
      "type": "function"
    },
    {
      "inputs": [
        {
          "internalType": "address",
          "name": "sender",
          "type": "address"
        },
        {
          "internalType": "uint256",
          "name": "indexOfTrade",
          "type": "uint256"
        }
      ],
      "name": "buyEthForTokens",
      "outputs": [],
      "stateMutability": "payable",
      "type": "function"
    },
    {
      "inputs": [
        {
          "internalType": "address",
          "name": "sender",
          "type": "address"
        },
        {
          "internalType": "uint256",
          "name": "indexOfTrade",
          "type": "uint256"
        }
      ],
      "name": "cancelTradeForTokensWithTokens",
      "outputs": [],
      "stateMutability": "nonpayable",
      "type": "function"
    },
    {
      "inputs": [
        {
          "internalType": "address",
          "name": "sender",
          "type": "address"
        },
        {
          "internalType": "uint256",
          "name": "indexOfTrade",
          "type": "uint256"
        }
      ],
      "name": "cancelTradeForTokensWithEth",
      "outputs": [],
      "stateMutability": "nonpayable",
      "type": "function"
    },
    {
      "inputs": [
        {
          "internalType": "address",
          "name": "sender",
          "type": "address"
        },
        {
          "internalType": "uint256",
          "name": "indexOfTrade",
          "type": "uint256"
        }
      ],
      "name": "cancelTradeForEthWithTokens",
      "outputs": [],
      "stateMutability": "payable",
      "type": "function"
    },
    {
      "inputs": [],
      "name": "getTradesForTokenWithToken",
      "outputs": [
        {
          "components": [
            {
              "internalType": "address",
              "name": "sender",
              "type": "address"
            },
            {
              "internalType": "address",
              "name": "tradingTokenAddress",
              "type": "address"
            },
            {
              "internalType": "uint256",
              "name": "tradingTokenAmount",
              "type": "uint256"
            },
            {
              "internalType": "address",
              "name": "tradingForTokenAddress",
              "type": "address"
            },
            {
              "internalType": "uint256",
              "name": "tradingForTokenAmount",
              "type": "uint256"
            },
            {
              "internalType": "bool",
              "name": "alreadyTraded",
              "type": "bool"
            }
          ],
          "internalType": "struct Dex.TradeTokensForTokensForCall[]",
          "name": "",
          "type": "tuple[]"
        }
      ],
      "stateMutability": "view",
      "type": "function"
    },
    {
      "inputs": [],
      "name": "getTradesForTokensWithEth",
      "outputs": [
        {
          "components": [
            {
              "internalType": "address",
              "name": "tradingTokenAddress",
              "type": "address"
            },
            {
              "internalType": "uint256",
              "name": "tradingTokenAmount",
              "type": "uint256"
            },
            {
              "internalType": "uint256",
              "name": "tradingForEthAmount",
              "type": "uint256"
            },
            {
              "internalType": "bool",
              "name": "alreadyTraded",
              "type": "bool"
            }
          ],
          "internalType": "struct Dex.TradeTokensForEth[]",
          "name": "",
          "type": "tuple[]"
        }
      ],
      "stateMutability": "view",
      "type": "function"
    },
    {
      "inputs": [],
      "name": "getTradesForEthWithTokens",
      "outputs": [
        {
          "components": [
            {
              "internalType": "uint256",
              "name": "tradingEthAmount",
              "type": "uint256"
            },
            {
              "internalType": "address",
              "name": "tradingForTokenAddress",
              "type": "address"
            },
            {
              "internalType": "uint256",
              "name": "tradingForTokenAmount",
              "type": "uint256"
            },
            {
              "internalType": "bool",
              "name": "alreadyTraded",
              "type": "bool"
            }
          ],
          "internalType": "struct Dex.TradeEthForTokens[]",
          "name": "",
          "type": "tuple[]"
        }
      ],
      "stateMutability": "view",
      "type": "function"
    }
  ],
  "bytecode": "0x608060405234801561000f575f80fd5b503360085f6101000a81548173ffffffffffffffffffffffffffffffffffffffff021916908373ffffffffffffffffffffffffffffffffffffffff1602179055506145618061005d5f395ff3fe608060405260043610610113575f3560e01c80638c69cd841161009f578063cc9112d811610063578063cc9112d814610386578063d74f378c146103c5578063e39c40fc146103ed578063ea9acbb414610409578063fd9c88531461044957610113565b80638c69cd84146102bd578063a1179c72146102d9578063a306802f14610301578063b25cfc901461031d578063be5321091461034757610113565b80634737ab8d116100e65780634737ab8d146101f1578063595603821461021b5780635e295abe14610243578063748d6a741461026d5780637f1ca38b1461029557610113565b80630bc07cef146101175780631cdec042146101565780631f691d8d146101725780633b66082a146101b1575b5f80fd5b348015610122575f80fd5b5061013d60048036038101906101389190613b77565b610485565b60405161014d9493929190613bed565b60405180910390f35b610170600480360381019061016b9190613b77565b6104f6565b005b34801561017d575f80fd5b5061019860048036038101906101939190613c30565b610aa1565b6040516101a89493929190613bed565b60405180910390f35b3480156101bc575f80fd5b506101d760048036038101906101d29190613b77565b610b07565b6040516101e8959493929190613c5b565b60405180910390f35b3480156101fc575f80fd5b50610205610b9d565b6040516102129190613dd4565b60405180910390f35b348015610226575f80fd5b50610241600480360381019061023c9190613b77565b610fc7565b005b34801561024e575f80fd5b506102576111fc565b6040516102649190613f15565b60405180910390f35b348015610278575f80fd5b50610293600480360381019061028e9190613b77565b6115c4565b005b3480156102a0575f80fd5b506102bb60048036038101906102b69190613f35565b61187d565b005b6102d760048036038101906102d29190613b77565b611f18565b005b3480156102e4575f80fd5b506102ff60048036038101906102fa9190613f85565b6122c7565b005b61031b60048036038101906103169190613fe9565b612a47565b005b348015610328575f80fd5b50610331612e24565b60405161033e9190614134565b60405180910390f35b348015610352575f80fd5b5061036d60048036038101906103689190613b77565b61324e565b60405161037d9493929190614154565b60405180910390f35b348015610391575f80fd5b506103ac60048036038101906103a79190613c30565b6132bf565b6040516103bc9493929190614154565b60405180910390f35b3480156103d0575f80fd5b506103eb60048036038101906103e69190613b77565b613325565b005b61040760048036038101906104029190613b77565b61382f565b005b348015610414575f80fd5b5061042f600480360381019061042a9190613c30565b613a21565b604051610440959493929190613c5b565b60405180910390f35b348015610454575f80fd5b5061046f600480360381019061046a9190613c30565b613aab565b60405161047c9190614197565b60405180910390f35b6004602052815f5260405f20818154811061049e575f80fd5b905f5260205f2090600402015f9150915050805f015f9054906101000a900473ffffffffffffffffffffffffffffffffffffffff1690806001015490806002015490806003015f9054906101000a900460ff16905084565b6001151560055f8473ffffffffffffffffffffffffffffffffffffffff1673ffffffffffffffffffffffffffffffffffffffff1681526020019081526020015f208281548110610549576105486141b0565b5b905f5260205f2090600402016003015f9054906101000a900460ff16151503610570575f80fd5b5f60055f8473ffffffffffffffffffffffffffffffffffffffff1673ffffffffffffffffffffffffffffffffffffffff1681526020019081526020015f2082815481106105c0576105bf6141b0565b5b905f5260205f2090600402015f015490505f60055f8573ffffffffffffffffffffffffffffffffffffffff1673ffffffffffffffffffffffffffffffffffffffff1681526020019081526020015f208381548110610621576106206141b0565b5b905f5260205f2090600402016001015f9054906101000a900473ffffffffffffffffffffffffffffffffffffffff1690505f60055f8673ffffffffffffffffffffffffffffffffffffffff1673ffffffffffffffffffffffffffffffffffffffff1681526020019081526020015f2084815481106106a2576106a16141b0565b5b905f5260205f2090600402016002015490505f829050818173ffffffffffffffffffffffffffffffffffffffff166370a08231336040518263ffffffff1660e01b81526004016106f29190614197565b602060405180830381865afa15801561070d573d5f803e3d5ffd5b505050506040513d601f19601f8201168201806040525081019061073191906141f1565b101561073b575f80fd5b8073ffffffffffffffffffffffffffffffffffffffff1663a9059cbb87846040518363ffffffff1660e01b815260040161077692919061421c565b6020604051808303815f875af1158015610792573d5f803e3d5ffd5b505050506040513d601f19601f820116820180604052508101906107b6919061426d565b50818173ffffffffffffffffffffffffffffffffffffffff166370a08231336040518263ffffffff1660e01b81526004016107f19190614197565b602060405180830381865afa15801561080c573d5f803e3d5ffd5b505050506040513d601f19601f8201168201806040525081019061083091906141f1565b101561083a575f80fd5b818173ffffffffffffffffffffffffffffffffffffffff1663dd62ed3e33306040518363ffffffff1660e01b8152600401610876929190614298565b602060405180830381865afa158015610891573d5f803e3d5ffd5b505050506040513d601f19601f820116820180604052508101906108b591906141f1565b10156108bf575f80fd5b8073ffffffffffffffffffffffffffffffffffffffff166323b872dd3388856040518463ffffffff1660e01b81526004016108fc939291906142bf565b6020604051808303815f875af1158015610918573d5f803e3d5ffd5b505050506040513d601f19601f8201168201806040525081019061093c919061426d565b505f3373ffffffffffffffffffffffffffffffffffffffff168560405161096290614321565b5f6040518083038185875af1925050503d805f811461099c576040519150601f19603f3d011682016040523d82523d5f602084013e6109a1565b606091505b50509050806109e5576040517f08c379a00000000000000000000000000000000000000000000000000000000081526004016109dc9061438f565b60405180910390fd5b600160055f8973ffffffffffffffffffffffffffffffffffffffff1673ffffffffffffffffffffffffffffffffffffffff1681526020019081526020015f208781548110610a3657610a356141b0565b5b905f5260205f2090600402016003015f6101000a81548160ff0219169083151502179055507f90737823f8fc9fbb28385683bca84d56edc8a1d49a2ad7faeb6391da5e38d99b87868686604051610a9094939291906143ad565b60405180910390a150505050505050565b60018181548110610ab0575f80fd5b905f5260205f2090600402015f91509050805f015f9054906101000a900473ffffffffffffffffffffffffffffffffffffffff1690806001015490806002015490806003015f9054906101000a900460ff16905084565b6003602052815f5260405f208181548110610b20575f80fd5b905f5260205f2090600502015f9150915050805f015f9054906101000a900473ffffffffffffffffffffffffffffffffffffffff1690806001015490806002015f9054906101000a900473ffffffffffffffffffffffffffffffffffffffff1690806003015490806004015f9054906101000a900460ff16905085565b6060805f805b600680549050811015610ee8576001151560075f60068481548110610bcb57610bca6141b0565b5b905f5260205f20015f9054906101000a900473ffffffffffffffffffffffffffffffffffffffff1673ffffffffffffffffffffffffffffffffffffffff1673ffffffffffffffffffffffffffffffffffffffff1681526020019081526020015f205f0160019054906101000a900460ff16151503610ed5575f5b60055f60068481548110610c5c57610c5b6141b0565b5b905f5260205f20015f9054906101000a900473ffffffffffffffffffffffffffffffffffffffff1673ffffffffffffffffffffffffffffffffffffffff1673ffffffffffffffffffffffffffffffffffffffff1681526020019081526020015f2080549050811015610ed3575f60055f60068581548110610ce057610cdf6141b0565b5b905f5260205f20015f9054906101000a900473ffffffffffffffffffffffffffffffffffffffff1673ffffffffffffffffffffffffffffffffffffffff1673ffffffffffffffffffffffffffffffffffffffff1681526020019081526020015f208281548110610d5357610d526141b0565b5b905f5260205f2090600402016040518060800160405290815f8201548152602001600182015f9054906101000a900473ffffffffffffffffffffffffffffffffffffffff1673ffffffffffffffffffffffffffffffffffffffff1673ffffffffffffffffffffffffffffffffffffffff16815260200160028201548152602001600382015f9054906101000a900460ff16151515158152505090505f6040518060a0016040528060068681548110610e0e57610e0d6141b0565b5b905f5260205f20015f9054906101000a900473ffffffffffffffffffffffffffffffffffffffff1673ffffffffffffffffffffffffffffffffffffffff168152602001835f01518152602001836020015173ffffffffffffffffffffffffffffffffffffffff1681526020018360400151815260200183606001511515815250905080868681518110610ea457610ea36141b0565b5b6020026020010181905250600185610ebc919061441d565b945050508080610ecb90614450565b915050610c45565b505b8080610ee090614450565b915050610ba3565b506002805480602002602001604051908101604052809291908181526020015f905b82821015610fbc578382905f5260205f2090600402016040518060800160405290815f8201548152602001600182015f9054906101000a900473ffffffffffffffffffffffffffffffffffffffff1673ffffffffffffffffffffffffffffffffffffffff1673ffffffffffffffffffffffffffffffffffffffff16815260200160028201548152602001600382015f9054906101000a900460ff16151515158152505081526020019060010190610f0a565b505050509250505090565b600160045f8473ffffffffffffffffffffffffffffffffffffffff1673ffffffffffffffffffffffffffffffffffffffff1681526020019081526020015f208281548110611018576110176141b0565b5b905f5260205f2090600402016003015f6101000a81548160ff0219169083151502179055508173ffffffffffffffffffffffffffffffffffffffff163373ffffffffffffffffffffffffffffffffffffffff1614611074575f80fd5b5f60045f8473ffffffffffffffffffffffffffffffffffffffff1673ffffffffffffffffffffffffffffffffffffffff1681526020019081526020015f2082815481106110c4576110c36141b0565b5b905f5260205f2090600402015f015f9054906101000a900473ffffffffffffffffffffffffffffffffffffffff1690505f60045f8573ffffffffffffffffffffffffffffffffffffffff1673ffffffffffffffffffffffffffffffffffffffff1681526020019081526020015f208381548110611144576111436141b0565b5b905f5260205f2090600402016001015490505f60045f8673ffffffffffffffffffffffffffffffffffffffff1673ffffffffffffffffffffffffffffffffffffffff1681526020019081526020015f2084815481106111a6576111a56141b0565b5b905f5260205f2090600402016002015490507fee62066e68ea020a72ab8850191057c02d81798cef76e90508db15b2f47368c7858484846040516111ed9493929190614497565b60405180910390a15050505050565b6060805f805b6006805490508110156115bb576001151560075f6006848154811061122a576112296141b0565b5b905f5260205f20015f9054906101000a900473ffffffffffffffffffffffffffffffffffffffff1673ffffffffffffffffffffffffffffffffffffffff1673ffffffffffffffffffffffffffffffffffffffff1681526020019081526020015f205f015f9054906101000a900460ff161515036115a8575f5b60035f600684815481106112ba576112b96141b0565b5b905f5260205f20015f9054906101000a900473ffffffffffffffffffffffffffffffffffffffff1673ffffffffffffffffffffffffffffffffffffffff1673ffffffffffffffffffffffffffffffffffffffff1681526020019081526020015f20805490508110156115a6575f60035f6006858154811061133e5761133d6141b0565b5b905f5260205f20015f9054906101000a900473ffffffffffffffffffffffffffffffffffffffff1673ffffffffffffffffffffffffffffffffffffffff1673ffffffffffffffffffffffffffffffffffffffff1681526020019081526020015f2082815481106113b1576113b06141b0565b5b905f5260205f2090600502016040518060a00160405290815f82015f9054906101000a900473ffffffffffffffffffffffffffffffffffffffff1673ffffffffffffffffffffffffffffffffffffffff1673ffffffffffffffffffffffffffffffffffffffff16815260200160018201548152602001600282015f9054906101000a900473ffffffffffffffffffffffffffffffffffffffff1673ffffffffffffffffffffffffffffffffffffffff1673ffffffffffffffffffffffffffffffffffffffff16815260200160038201548152602001600482015f9054906101000a900460ff16151515158152505090505f6040518060c00160405280600686815481106114c1576114c06141b0565b5b905f5260205f20015f9054906101000a900473ffffffffffffffffffffffffffffffffffffffff1673ffffffffffffffffffffffffffffffffffffffff168152602001835f015173ffffffffffffffffffffffffffffffffffffffff16815260200183602001518152602001836040015173ffffffffffffffffffffffffffffffffffffffff1681526020018360600151815260200183608001511515815250905080868681518110611577576115766141b0565b5b602002602001018190525060018561158f919061441d565b94505050808061159e90614450565b9150506112a3565b505b80806115b390614450565b915050611202565b50819250505090565b600160035f8473ffffffffffffffffffffffffffffffffffffffff1673ffffffffffffffffffffffffffffffffffffffff1681526020019081526020015f208281548110611615576116146141b0565b5b905f5260205f2090600502016004015f6101000a81548160ff0219169083151502179055508173ffffffffffffffffffffffffffffffffffffffff163373ffffffffffffffffffffffffffffffffffffffff1614611671575f80fd5b5f60035f8473ffffffffffffffffffffffffffffffffffffffff1673ffffffffffffffffffffffffffffffffffffffff1681526020019081526020015f2082815481106116c1576116c06141b0565b5b905f5260205f2090600502015f015f9054906101000a900473ffffffffffffffffffffffffffffffffffffffff1690505f60035f8573ffffffffffffffffffffffffffffffffffffffff1673ffffffffffffffffffffffffffffffffffffffff1681526020019081526020015f208381548110611741576117406141b0565b5b905f5260205f2090600502016001015490505f60035f8673ffffffffffffffffffffffffffffffffffffffff1673ffffffffffffffffffffffffffffffffffffffff1681526020019081526020015f2084815481106117a3576117a26141b0565b5b905f5260205f2090600502016002015f9054906101000a900473ffffffffffffffffffffffffffffffffffffffff1690505f60035f8773ffffffffffffffffffffffffffffffffffffffff1673ffffffffffffffffffffffffffffffffffffffff1681526020019081526020015f208581548110611824576118236141b0565b5b905f5260205f2090600502016003015490507fc086f5b7a83e015dcc4ec82fa3f4de6c895b32824a682d0d3002b1277cbb7dc7868585858560405161186d9594939291906144da565b60405180910390a1505050505050565b5f151560075f3373ffffffffffffffffffffffffffffffffffffffff1673ffffffffffffffffffffffffffffffffffffffff1681526020019081526020015f205f015f9054906101000a900460ff16151514801561192a57505f151560075f3373ffffffffffffffffffffffffffffffffffffffff1673ffffffffffffffffffffffffffffffffffffffff1681526020019081526020015f205f0160019054906101000a900460ff161515145b801561198557505f151560075f3373ffffffffffffffffffffffffffffffffffffffff1673ffffffffffffffffffffffffffffffffffffffff1681526020019081526020015f205f0160029054906101000a900460ff161515145b15611a4757600633908060018154018082558091505060019003905f5260205f20015f9091909190916101000a81548173ffffffffffffffffffffffffffffffffffffffff021916908373ffffffffffffffffffffffffffffffffffffffff160217905550600160075f3373ffffffffffffffffffffffffffffffffffffffff1673ffffffffffffffffffffffffffffffffffffffff1681526020019081526020015f205f0160016101000a81548160ff021916908315150217905550611af8565b5f151560075f3373ffffffffffffffffffffffffffffffffffffffff1673ffffffffffffffffffffffffffffffffffffffff1681526020019081526020015f205f0160019054906101000a900460ff16151503611af757600160075f3373ffffffffffffffffffffffffffffffffffffffff1673ffffffffffffffffffffffffffffffffffffffff1681526020019081526020015f205f0160016101000a81548160ff0219169083151502179055505b5b5f8390505f8390505f60045f3373ffffffffffffffffffffffffffffffffffffffff1673ffffffffffffffffffffffffffffffffffffffff1681526020019081526020015f20805480602002602001604051908101604052809291908181526020015f905b82821015611c0f578382905f5260205f2090600402016040518060800160405290815f82015f9054906101000a900473ffffffffffffffffffffffffffffffffffffffff1673ffffffffffffffffffffffffffffffffffffffff1673ffffffffffffffffffffffffffffffffffffffff1681526020016001820154815260200160028201548152602001600382015f9054906101000a900460ff16151515158152505081526020019060010190611b5d565b5050505090505f5b8151811015611cb5578673ffffffffffffffffffffffffffffffffffffffff16828281518110611c4a57611c496141b0565b5b60200260200101515f015173ffffffffffffffffffffffffffffffffffffffff1603611ca2575f828281518110611c8457611c836141b0565b5b60200260200101516020015190508381611c9e919061441d565b9350505b8080611cad90614450565b915050611c17565b50818373ffffffffffffffffffffffffffffffffffffffff1663dd62ed3e33306040518363ffffffff1660e01b8152600401611cf2929190614298565b602060405180830381865afa158015611d0d573d5f803e3d5ffd5b505050506040513d601f19601f82011682018060405250810190611d3191906141f1565b1015611d3b575f80fd5b818373ffffffffffffffffffffffffffffffffffffffff166370a08231336040518263ffffffff1660e01b8152600401611d759190614197565b602060405180830381865afa158015611d90573d5f803e3d5ffd5b505050506040513d601f19601f82011682018060405250810190611db491906141f1565b1015611dbe575f80fd5b60045f3373ffffffffffffffffffffffffffffffffffffffff1673ffffffffffffffffffffffffffffffffffffffff1681526020019081526020015f2060405180608001604052808873ffffffffffffffffffffffffffffffffffffffff1681526020018781526020018681526020015f1515815250908060018154018082558091505060019003905f5260205f2090600402015f909190919091505f820151815f015f6101000a81548173ffffffffffffffffffffffffffffffffffffffff021916908373ffffffffffffffffffffffffffffffffffffffff16021790555060208201518160010155604082015181600201556060820151816003015f6101000a81548160ff02191690831515021790555050507f4b3224748748339deab55aa5a1514e7f3d791c195a9594935c30a84d882f540f33878787604051611f089493929190614497565b60405180910390a1505050505050565b6001151560045f8473ffffffffffffffffffffffffffffffffffffffff1673ffffffffffffffffffffffffffffffffffffffff1681526020019081526020015f208281548110611f6b57611f6a6141b0565b5b905f5260205f2090600402016003015f9054906101000a900460ff16151503611f92575f80fd5b5f60045f8473ffffffffffffffffffffffffffffffffffffffff1673ffffffffffffffffffffffffffffffffffffffff1681526020019081526020015f208281548110611fe257611fe16141b0565b5b905f5260205f2090600402015f015f9054906101000a900473ffffffffffffffffffffffffffffffffffffffff1690505f60045f8573ffffffffffffffffffffffffffffffffffffffff1673ffffffffffffffffffffffffffffffffffffffff1681526020019081526020015f208381548110612062576120616141b0565b5b905f5260205f2090600402016001015490505f60045f8673ffffffffffffffffffffffffffffffffffffffff1673ffffffffffffffffffffffffffffffffffffffff1681526020019081526020015f2084815481106120c4576120c36141b0565b5b905f5260205f2090600402016002015490505f8390508073ffffffffffffffffffffffffffffffffffffffff166323b872dd8733866040518463ffffffff1660e01b8152600401612117939291906142bf565b6020604051808303815f875af1158015612133573d5f803e3d5ffd5b505050506040513d601f19601f82011682018060405250810190612157919061426d565b50813414612163575f80fd5b5f8673ffffffffffffffffffffffffffffffffffffffff163460405161218890614321565b5f6040518083038185875af1925050503d805f81146121c2576040519150601f19603f3d011682016040523d82523d5f602084013e6121c7565b606091505b505090508061220b576040517f08c379a00000000000000000000000000000000000000000000000000000000081526004016122029061438f565b60405180910390fd5b600160045f8973ffffffffffffffffffffffffffffffffffffffff1673ffffffffffffffffffffffffffffffffffffffff1681526020019081526020015f20878154811061225c5761225b6141b0565b5b905f5260205f2090600402016003015f6101000a81548160ff0219169083151502179055507f08b8b3ffc165e69d2aa56bf6924a289c74530a36570b042b279ede424a0f7c18878686866040516122b69493929190614497565b60405180910390a150505050505050565b5f151560075f3373ffffffffffffffffffffffffffffffffffffffff1673ffffffffffffffffffffffffffffffffffffffff1681526020019081526020015f205f015f9054906101000a900460ff16151514801561237457505f151560075f3373ffffffffffffffffffffffffffffffffffffffff1673ffffffffffffffffffffffffffffffffffffffff1681526020019081526020015f205f0160019054906101000a900460ff161515145b80156123cf57505f151560075f3373ffffffffffffffffffffffffffffffffffffffff1673ffffffffffffffffffffffffffffffffffffffff1681526020019081526020015f205f0160029054906101000a900460ff161515145b1561249057600633908060018154018082558091505060019003905f5260205f20015f9091909190916101000a81548173ffffffffffffffffffffffffffffffffffffffff021916908373ffffffffffffffffffffffffffffffffffffffff160217905550600160075f3373ffffffffffffffffffffffffffffffffffffffff1673ffffffffffffffffffffffffffffffffffffffff1681526020019081526020015f205f015f6101000a81548160ff02191690831515021790555061253f565b5f151560075f3373ffffffffffffffffffffffffffffffffffffffff1673ffffffffffffffffffffffffffffffffffffffff1681526020019081526020015f205f015f9054906101000a900460ff1615150361253e57600160075f3373ffffffffffffffffffffffffffffffffffffffff1673ffffffffffffffffffffffffffffffffffffffff1681526020019081526020015f205f015f6101000a81548160ff0219169083151502179055505b5b5f8490505f8490505f60035f3373ffffffffffffffffffffffffffffffffffffffff1673ffffffffffffffffffffffffffffffffffffffff1681526020019081526020015f20805480602002602001604051908101604052809291908181526020015f905b828210156126ab578382905f5260205f2090600502016040518060a00160405290815f82015f9054906101000a900473ffffffffffffffffffffffffffffffffffffffff1673ffffffffffffffffffffffffffffffffffffffff1673ffffffffffffffffffffffffffffffffffffffff16815260200160018201548152602001600282015f9054906101000a900473ffffffffffffffffffffffffffffffffffffffff1673ffffffffffffffffffffffffffffffffffffffff1673ffffffffffffffffffffffffffffffffffffffff16815260200160038201548152602001600482015f9054906101000a900460ff161515151581525050815260200190600101906125a4565b5050505090505f5b815181101561277f578773ffffffffffffffffffffffffffffffffffffffff168282815181106126e6576126e56141b0565b5b60200260200101515f015173ffffffffffffffffffffffffffffffffffffffff1614801561273557505f1515828281518110612725576127246141b0565b5b6020026020010151608001511515145b1561276c575f82828151811061274e5761274d6141b0565b5b60200260200101516020015190508381612768919061441d565b9350505b808061277790614450565b9150506126b3565b50818373ffffffffffffffffffffffffffffffffffffffff1663dd62ed3e33306040518363ffffffff1660e01b81526004016127bc929190614298565b602060405180830381865afa1580156127d7573d5f803e3d5ffd5b505050506040513d601f19601f820116820180604052508101906127fb91906141f1565b1015612805575f80fd5b818373ffffffffffffffffffffffffffffffffffffffff166370a08231336040518263ffffffff1660e01b815260040161283f9190614197565b602060405180830381865afa15801561285a573d5f803e3d5ffd5b505050506040513d601f19601f8201168201806040525081019061287e91906141f1565b1015612888575f80fd5b60035f3373ffffffffffffffffffffffffffffffffffffffff1673ffffffffffffffffffffffffffffffffffffffff1681526020019081526020015f206040518060a001604052808973ffffffffffffffffffffffffffffffffffffffff1681526020018881526020018773ffffffffffffffffffffffffffffffffffffffff1681526020018681526020015f1515815250908060018154018082558091505060019003905f5260205f2090600502015f909190919091505f820151815f015f6101000a81548173ffffffffffffffffffffffffffffffffffffffff021916908373ffffffffffffffffffffffffffffffffffffffff160217905550602082015181600101556040820151816002015f6101000a81548173ffffffffffffffffffffffffffffffffffffffff021916908373ffffffffffffffffffffffffffffffffffffffff160217905550606082015181600301556080820151816004015f6101000a81548160ff02191690831515021790555050507fb31b008e8a12db47dae24bda793ea0d4e1039d4e74c334ec8fed59d8a4e805293388888888604051612a369594939291906144da565b60405180910390a150505050505050565b5f151560075f3373ffffffffffffffffffffffffffffffffffffffff1673ffffffffffffffffffffffffffffffffffffffff1681526020019081526020015f205f015f9054906101000a900460ff161515148015612af457505f151560075f3373ffffffffffffffffffffffffffffffffffffffff1673ffffffffffffffffffffffffffffffffffffffff1681526020019081526020015f205f0160019054906101000a900460ff161515145b8015612b4f57505f151560075f3373ffffffffffffffffffffffffffffffffffffffff1673ffffffffffffffffffffffffffffffffffffffff1681526020019081526020015f205f0160029054906101000a900460ff161515145b15612c1157600633908060018154018082558091505060019003905f5260205f20015f9091909190916101000a81548173ffffffffffffffffffffffffffffffffffffffff021916908373ffffffffffffffffffffffffffffffffffffffff160217905550600160075f3373ffffffffffffffffffffffffffffffffffffffff1673ffffffffffffffffffffffffffffffffffffffff1681526020019081526020015f205f0160026101000a81548160ff021916908315150217905550612cc2565b5f151560075f3373ffffffffffffffffffffffffffffffffffffffff1673ffffffffffffffffffffffffffffffffffffffff1681526020019081526020015f205f0160029054906101000a900460ff16151503612cc157600160075f3373ffffffffffffffffffffffffffffffffffffffff1673ffffffffffffffffffffffffffffffffffffffff1681526020019081526020015f205f0160026101000a81548160ff0219169083151502179055505b5b823414612ccd575f80fd5b60055f3373ffffffffffffffffffffffffffffffffffffffff1673ffffffffffffffffffffffffffffffffffffffff1681526020019081526020015f2060405180608001604052808581526020018473ffffffffffffffffffffffffffffffffffffffff1681526020018381526020015f1515815250908060018154018082558091505060019003905f5260205f2090600402015f909190919091505f820151815f01556020820151816001015f6101000a81548173ffffffffffffffffffffffffffffffffffffffff021916908373ffffffffffffffffffffffffffffffffffffffff160217905550604082015181600201556060820151816003015f6101000a81548160ff02191690831515021790555050507f5e91b5fb353347b0d4c78463cbf33c353331235f1f40327ca164bd540d16469733848484604051612e1794939291906143ad565b60405180910390a1505050565b6060805f805b60068054905081101561316f576001151560075f60068481548110612e5257612e516141b0565b5b905f5260205f20015f9054906101000a900473ffffffffffffffffffffffffffffffffffffffff1673ffffffffffffffffffffffffffffffffffffffff1673ffffffffffffffffffffffffffffffffffffffff1681526020019081526020015f205f0160019054906101000a900460ff1615150361315c575f5b60045f60068481548110612ee357612ee26141b0565b5b905f5260205f20015f9054906101000a900473ffffffffffffffffffffffffffffffffffffffff1673ffffffffffffffffffffffffffffffffffffffff1673ffffffffffffffffffffffffffffffffffffffff1681526020019081526020015f208054905081101561315a575f60045f60068581548110612f6757612f666141b0565b5b905f5260205f20015f9054906101000a900473ffffffffffffffffffffffffffffffffffffffff1673ffffffffffffffffffffffffffffffffffffffff1673ffffffffffffffffffffffffffffffffffffffff1681526020019081526020015f208281548110612fda57612fd96141b0565b5b905f5260205f2090600402016040518060800160405290815f82015f9054906101000a900473ffffffffffffffffffffffffffffffffffffffff1673ffffffffffffffffffffffffffffffffffffffff1673ffffffffffffffffffffffffffffffffffffffff1681526020016001820154815260200160028201548152602001600382015f9054906101000a900460ff16151515158152505090505f6040518060a0016040528060068681548110613095576130946141b0565b5b905f5260205f20015f9054906101000a900473ffffffffffffffffffffffffffffffffffffffff1673ffffffffffffffffffffffffffffffffffffffff168152602001835f015173ffffffffffffffffffffffffffffffffffffffff16815260200183602001518152602001836040015181526020018360600151151581525090508086868151811061312b5761312a6141b0565b5b6020026020010181905250600185613143919061441d565b94505050808061315290614450565b915050612ecc565b505b808061316790614450565b915050612e2a565b506001805480602002602001604051908101604052809291908181526020015f905b82821015613243578382905f5260205f2090600402016040518060800160405290815f82015f9054906101000a900473ffffffffffffffffffffffffffffffffffffffff1673ffffffffffffffffffffffffffffffffffffffff1673ffffffffffffffffffffffffffffffffffffffff1681526020016001820154815260200160028201548152602001600382015f9054906101000a900460ff16151515158152505081526020019060010190613191565b505050509250505090565b6005602052815f5260405f208181548110613267575f80fd5b905f5260205f2090600402015f9150915050805f015490806001015f9054906101000a900473ffffffffffffffffffffffffffffffffffffffff1690806002015490806003015f9054906101000a900460ff16905084565b600281815481106132ce575f80fd5b905f5260205f2090600402015f91509050805f015490806001015f9054906101000a900473ffffffffffffffffffffffffffffffffffffffff1690806002015490806003015f9054906101000a900460ff16905084565b6001151560035f8473ffffffffffffffffffffffffffffffffffffffff1673ffffffffffffffffffffffffffffffffffffffff1681526020019081526020015f208281548110613378576133776141b0565b5b905f5260205f2090600502016004015f9054906101000a900460ff1615150361339f575f80fd5b5f60035f8473ffffffffffffffffffffffffffffffffffffffff1673ffffffffffffffffffffffffffffffffffffffff1681526020019081526020015f2082815481106133ef576133ee6141b0565b5b905f5260205f2090600502015f015f9054906101000a900473ffffffffffffffffffffffffffffffffffffffff1690505f60035f8573ffffffffffffffffffffffffffffffffffffffff1673ffffffffffffffffffffffffffffffffffffffff1681526020019081526020015f20838154811061346f5761346e6141b0565b5b905f5260205f2090600502016001015490505f8290508073ffffffffffffffffffffffffffffffffffffffff166323b872dd8633856040518463ffffffff1660e01b81526004016134c2939291906142bf565b6020604051808303815f875af11580156134de573d5f803e3d5ffd5b505050506040513d601f19601f82011682018060405250810190613502919061426d565b505f60035f8773ffffffffffffffffffffffffffffffffffffffff1673ffffffffffffffffffffffffffffffffffffffff1681526020019081526020015f208581548110613553576135526141b0565b5b905f5260205f2090600502016002015f9054906101000a900473ffffffffffffffffffffffffffffffffffffffff1690505f60035f8873ffffffffffffffffffffffffffffffffffffffff1673ffffffffffffffffffffffffffffffffffffffff1681526020019081526020015f2086815481106135d4576135d36141b0565b5b905f5260205f2090600502016003015490505f829050818173ffffffffffffffffffffffffffffffffffffffff166370a08231336040518263ffffffff1660e01b81526004016136249190614197565b602060405180830381865afa15801561363f573d5f803e3d5ffd5b505050506040513d601f19601f8201168201806040525081019061366391906141f1565b101561366d575f80fd5b818173ffffffffffffffffffffffffffffffffffffffff1663dd62ed3e33306040518363ffffffff1660e01b81526004016136a9929190614298565b602060405180830381865afa1580156136c4573d5f803e3d5ffd5b505050506040513d601f19601f820116820180604052508101906136e891906141f1565b10156136f2575f80fd5b8073ffffffffffffffffffffffffffffffffffffffff166323b872dd338a856040518463ffffffff1660e01b815260040161372f939291906142bf565b6020604051808303815f875af115801561374b573d5f803e3d5ffd5b505050506040513d601f19601f8201168201806040525081019061376f919061426d565b50600160035f8a73ffffffffffffffffffffffffffffffffffffffff1673ffffffffffffffffffffffffffffffffffffffff1681526020019081526020015f2088815481106137c1576137c06141b0565b5b905f5260205f2090600502016004015f6101000a81548160ff0219169083151502179055507faef3fec0890a84ad1cfab292c8504f17278c9b35213257cbc2c572cc622ae015888787868660405161381d9594939291906144da565b60405180910390a15050505050505050565b600160028281548110613845576138446141b0565b5b905f5260205f2090600402016003015f6101000a81548160ff0219169083151502179055508173ffffffffffffffffffffffffffffffffffffffff163373ffffffffffffffffffffffffffffffffffffffff16146138a1575f80fd5b5f600282815481106138b6576138b56141b0565b5b905f5260205f2090600402015f015490505f600283815481106138dc576138db6141b0565b5b905f5260205f2090600402016001015f9054906101000a900473ffffffffffffffffffffffffffffffffffffffff1690505f60028481548110613922576139216141b0565b5b905f5260205f2090600402016002015490505f3373ffffffffffffffffffffffffffffffffffffffff168460405161395990614321565b5f6040518083038185875af1925050503d805f8114613993576040519150601f19603f3d011682016040523d82523d5f602084013e613998565b606091505b50509050806139dc576040517f08c379a00000000000000000000000000000000000000000000000000000000081526004016139d39061438f565b60405180910390fd5b7f6fd78ca7acca4f76ea5834af9a37b74bbd249dbadf5360eeecb4a3a9b762dfff86858585604051613a1194939291906143ad565b60405180910390a1505050505050565b5f8181548110613a2f575f80fd5b905f5260205f2090600502015f91509050805f015f9054906101000a900473ffffffffffffffffffffffffffffffffffffffff1690806001015490806002015f9054906101000a900473ffffffffffffffffffffffffffffffffffffffff1690806003015490806004015f9054906101000a900460ff16905085565b60068181548110613aba575f80fd5b905f5260205f20015f915054906101000a900473ffffffffffffffffffffffffffffffffffffffff1681565b5f80fd5b5f73ffffffffffffffffffffffffffffffffffffffff82169050919050565b5f613b1382613aea565b9050919050565b613b2381613b09565b8114613b2d575f80fd5b50565b5f81359050613b3e81613b1a565b92915050565b5f819050919050565b613b5681613b44565b8114613b60575f80fd5b50565b5f81359050613b7181613b4d565b92915050565b5f8060408385031215613b8d57613b8c613ae6565b5b5f613b9a85828601613b30565b9250506020613bab85828601613b63565b9150509250929050565b613bbe81613b09565b82525050565b613bcd81613b44565b82525050565b5f8115159050919050565b613be781613bd3565b82525050565b5f608082019050613c005f830187613bb5565b613c0d6020830186613bc4565b613c1a6040830185613bc4565b613c276060830184613bde565b95945050505050565b5f60208284031215613c4557613c44613ae6565b5b5f613c5284828501613b63565b91505092915050565b5f60a082019050613c6e5f830188613bb5565b613c7b6020830187613bc4565b613c886040830186613bb5565b613c956060830185613bc4565b613ca26080830184613bde565b9695505050505050565b5f81519050919050565b5f82825260208201905092915050565b5f819050602082019050919050565b613cde81613b44565b82525050565b613ced81613b09565b82525050565b613cfc81613bd3565b82525050565b608082015f820151613d165f850182613cd5565b506020820151613d296020850182613ce4565b506040820151613d3c6040850182613cd5565b506060820151613d4f6060850182613cf3565b50505050565b5f613d608383613d02565b60808301905092915050565b5f602082019050919050565b5f613d8282613cac565b613d8c8185613cb6565b9350613d9783613cc6565b805f5b83811015613dc7578151613dae8882613d55565b9750613db983613d6c565b925050600181019050613d9a565b5085935050505092915050565b5f6020820190508181035f830152613dec8184613d78565b905092915050565b5f81519050919050565b5f82825260208201905092915050565b5f819050602082019050919050565b60c082015f820151613e315f850182613ce4565b506020820151613e446020850182613ce4565b506040820151613e576040850182613cd5565b506060820151613e6a6060850182613ce4565b506080820151613e7d6080850182613cd5565b5060a0820151613e9060a0850182613cf3565b50505050565b5f613ea18383613e1d565b60c08301905092915050565b5f602082019050919050565b5f613ec382613df4565b613ecd8185613dfe565b9350613ed883613e0e565b805f5b83811015613f08578151613eef8882613e96565b9750613efa83613ead565b925050600181019050613edb565b5085935050505092915050565b5f6020820190508181035f830152613f2d8184613eb9565b905092915050565b5f805f60608486031215613f4c57613f4b613ae6565b5b5f613f5986828701613b30565b9350506020613f6a86828701613b63565b9250506040613f7b86828701613b63565b9150509250925092565b5f805f8060808587031215613f9d57613f9c613ae6565b5b5f613faa87828801613b30565b9450506020613fbb87828801613b63565b9350506040613fcc87828801613b30565b9250506060613fdd87828801613b63565b91505092959194509250565b5f805f6060848603121561400057613fff613ae6565b5b5f61400d86828701613b63565b935050602061401e86828701613b30565b925050604061402f86828701613b63565b9150509250925092565b5f81519050919050565b5f82825260208201905092915050565b5f819050602082019050919050565b608082015f8201516140765f850182613ce4565b5060208201516140896020850182613cd5565b50604082015161409c6040850182613cd5565b5060608201516140af6060850182613cf3565b50505050565b5f6140c08383614062565b60808301905092915050565b5f602082019050919050565b5f6140e282614039565b6140ec8185614043565b93506140f783614053565b805f5b8381101561412757815161410e88826140b5565b9750614119836140cc565b9250506001810190506140fa565b5085935050505092915050565b5f6020820190508181035f83015261414c81846140d8565b905092915050565b5f6080820190506141675f830187613bc4565b6141746020830186613bb5565b6141816040830185613bc4565b61418e6060830184613bde565b95945050505050565b5f6020820190506141aa5f830184613bb5565b92915050565b7f4e487b71000000000000000000000000000000000000000000000000000000005f52603260045260245ffd5b5f815190506141eb81613b4d565b92915050565b5f6020828403121561420657614205613ae6565b5b5f614213848285016141dd565b91505092915050565b5f60408201905061422f5f830185613bb5565b61423c6020830184613bc4565b9392505050565b61424c81613bd3565b8114614256575f80fd5b50565b5f8151905061426781614243565b92915050565b5f6020828403121561428257614281613ae6565b5b5f61428f84828501614259565b91505092915050565b5f6040820190506142ab5f830185613bb5565b6142b86020830184613bb5565b9392505050565b5f6060820190506142d25f830186613bb5565b6142df6020830185613bb5565b6142ec6040830184613bc4565b949350505050565b5f81905092915050565b50565b5f61430c5f836142f4565b9150614317826142fe565b5f82019050919050565b5f61432b82614301565b9150819050919050565b5f82825260208201905092915050565b7f4661696c656420746f2073656e642045746865720000000000000000000000005f82015250565b5f614379601483614335565b915061438482614345565b602082019050919050565b5f6020820190508181035f8301526143a68161436d565b9050919050565b5f6080820190506143c05f830187613bb5565b6143cd6020830186613bc4565b6143da6040830185613bb5565b6143e76060830184613bc4565b95945050505050565b7f4e487b71000000000000000000000000000000000000000000000000000000005f52601160045260245ffd5b5f61442782613b44565b915061443283613b44565b925082820190508082111561444a576144496143f0565b5b92915050565b5f61445a82613b44565b91507fffffffffffffffffffffffffffffffffffffffffffffffffffffffffffffffff820361448c5761448b6143f0565b5b600182019050919050565b5f6080820190506144aa5f830187613bb5565b6144b76020830186613bb5565b6144c46040830185613bc4565b6144d16060830184613bc4565b95945050505050565b5f60a0820190506144ed5f830188613bb5565b6144fa6020830187613bb5565b6145076040830186613bc4565b6145146060830185613bb5565b6145216080830184613bc4565b969550505050505056fea26469706673582212209131ef3f3b110ee2bd14af8d9f5c2a9ec6199d8999d1a1b64bdcf0697c4af63864736f6c63430008140033",
  "immutableReferences": {},
  "source": "// SPDX-License-Identifier: UNLICENSED\npragma solidity 0.8.20;\n\nimport \"@openzeppelin/contracts/token/ERC20/ERC20.sol\";\n\ncontract Dex {\n\n  event EventAddToDexTradeTokensForTokens (\n    address sender,\n    address tradingTokenAddress,\n    uint tradingTokenAmount,\n    address tradingForTokenAddress,\n    uint tradingForTokenAmount\n  );\n\n  event EventAddToDexTradeTokensForEth (\n    address sender,\n    address tradingTokenAddress,\n    uint tradingTokenAmount,\n    uint tradingForEthAmount\n  );\n\n  event EventAddToDexTradeEthForTokens (\n    address sender,\n    uint tradingEthAmount,\n    address tradingForTokenAddress,\n    uint tradingForTokenAmount\n  );\n\n  event EventTradeTokensForTokens (\n    address sender,\n    address tradingTokenAddress,\n    uint tradingTokenAmount,\n    address tradingForTokenAddress,\n    uint tradingForTokenAmount\n  );\n\n  event EventTradeTokensForEth (\n    address sender,\n    address tradingTokenAddress,\n    uint tradingTokenAmount,\n    uint tradingForEthAmount\n  );\n\n  event EventTradeEthForTokens (\n    address sender,\n    uint tradingEthAmount,\n    address tradingForTokenAddress,\n    uint tradingForTokenAmount\n  );\n\n  event EventCanceledTradeTokensForTokens (\n    address sender,\n    address tradingTokenAddress,\n    uint tradingTokenAmount,\n    address tradingForTokenAddress,\n    uint tradingForTokenAmount\n  );\n\n  event EventCanceledTradeTokensForEth (\n    address sender,\n    address tradingTokenAddress,\n    uint tradingTokenAmount,\n    uint tradingForEthAmount\n  );\n\n  event EventCanceledTradeEthForTokens (\n    address sender,\n    uint tradingEthAmount,\n    address tradingForTokenAddress,\n    uint tradingForTokenAmount\n  );\n\n  struct TradeTokensForTokens {\n    address tradingTokenAddress;\n    uint tradingTokenAmount;\n    address tradingForTokenAddress;\n    uint tradingForTokenAmount;\n    bool alreadyTraded;\n  }\n\n  struct TradeTokensForEth {\n    address tradingTokenAddress;\n    uint tradingTokenAmount;\n    uint tradingForEthAmount;\n    bool alreadyTraded;\n  }\n\n  struct TradeEthForTokens {\n    uint tradingEthAmount;\n    address tradingForTokenAddress;\n    uint tradingForTokenAmount;\n    bool alreadyTraded;\n  }\n\n  TradeTokensForTokens[] public tradeTokensForTokensArr;\n  TradeTokensForEth[] public tradeTokensForEthArr;\n  TradeEthForTokens[] public tradeEthForTokensArr;\n\n  mapping(address => TradeTokensForTokens[]) public tradesOfTokensForTokensOfAnAddress;\n  mapping(address => TradeTokensForEth[]) public tradesOfTokensForEthOfAnAddress;\n  mapping(address => TradeEthForTokens[]) public tradesOfEthForTokensOfAnAddress;\n\n  struct TradeCategoriesOfDexUser {\n    bool tradeTokensForTokens;\n    bool tradeTokensForEth;\n    bool tradeEthForTokens;\n  }\n\n  address[] public dexUsersArr;\n  mapping(address => TradeCategoriesOfDexUser) dexUsersMapping;\n\n  address owner;\n\n  constructor() {\n    owner = msg.sender;\n  }\n\n  function addTokensToDexForTradeWithOtherTokens(\n    address tradingTokenAddress,\n    uint tradingTokenAmount,\n    address tradingForTokenAddress,\n    uint tradingForTokenAmount) public {\n\n    if (dexUsersMapping[msg.sender].tradeTokensForTokens == false &&\n        dexUsersMapping[msg.sender].tradeTokensForEth == false &&\n        dexUsersMapping[msg.sender].tradeEthForTokens == false) {\n          dexUsersArr.push(msg.sender);\n          dexUsersMapping[msg.sender].tradeTokensForTokens = true;\n\n    } else if (dexUsersMapping[msg.sender].tradeTokensForTokens == false) {\n      dexUsersMapping[msg.sender].tradeTokensForTokens = true;\n    }\n\n    ERC20 tradingErc20 = ERC20(tradingTokenAddress);\n\n    uint totalAllowanceRequired = tradingTokenAmount;\n    TradeTokensForTokens[] memory tradeTokensForTokensArrForAddress\n      = tradesOfTokensForTokensOfAnAddress[msg.sender];\n\n    for (uint i = 0; i < tradeTokensForTokensArrForAddress.length; i++) {\n      if (tradeTokensForTokensArrForAddress[i].tradingTokenAddress == tradingTokenAddress\n          && tradeTokensForTokensArrForAddress[i].alreadyTraded == false) {\n        uint tradingTokenAmountForTrade = tradeTokensForTokensArrForAddress[i].tradingTokenAmount;\n        totalAllowanceRequired = tradingTokenAmountForTrade + totalAllowanceRequired;\n      }\n    }\n\n    require(tradingErc20.allowance(msg.sender, address(this)) >= totalAllowanceRequired);\n    require(tradingErc20.balanceOf(msg.sender) >= totalAllowanceRequired);\n\n    /* require(tradingErc20.allowance(msg.sender, address(this)) == newAllowance); */\n\n    tradesOfTokensForTokensOfAnAddress[msg.sender].push(\n      TradeTokensForTokens(\n        tradingTokenAddress,\n        tradingTokenAmount,\n        tradingForTokenAddress,\n        tradingForTokenAmount,\n        false\n    ));\n\n    emit EventAddToDexTradeTokensForTokens(\n      msg.sender,\n      tradingTokenAddress,\n      tradingTokenAmount,\n      tradingForTokenAddress,\n      tradingForTokenAmount\n    );\n  }\n\n  function addTokensToDexForTradeWithEth(\n    address tradingTokenAddress,\n    uint tradingTokenAmount,\n    uint tradingForEthAmount) public {\n\n    if (dexUsersMapping[msg.sender].tradeTokensForTokens == false &&\n        dexUsersMapping[msg.sender].tradeTokensForEth == false &&\n        dexUsersMapping[msg.sender].tradeEthForTokens == false) {\n          dexUsersArr.push(msg.sender);\n          dexUsersMapping[msg.sender].tradeTokensForEth = true;\n\n    } else if (dexUsersMapping[msg.sender].tradeTokensForEth == false) {\n      dexUsersMapping[msg.sender].tradeTokensForEth = true;\n    }\n\n    ERC20 tradingErc20 = ERC20(tradingTokenAddress);\n\n    uint totalAllowanceRequired = tradingTokenAmount;\n    TradeTokensForEth[] memory tradeTokensForEthArrForAddress\n      = tradesOfTokensForEthOfAnAddress[msg.sender];\n\n    for (uint i = 0; i < tradeTokensForEthArrForAddress.length; i++) {\n      if (tradeTokensForEthArrForAddress[i].tradingTokenAddress == tradingTokenAddress) {\n        uint tradingTokenAmountForTrade = tradeTokensForEthArrForAddress[i].tradingTokenAmount;\n        totalAllowanceRequired = tradingTokenAmountForTrade + totalAllowanceRequired;\n      }\n    }\n\n    require(tradingErc20.allowance(msg.sender, address(this)) >= totalAllowanceRequired);\n    require(tradingErc20.balanceOf(msg.sender) >= totalAllowanceRequired);\n\n    tradesOfTokensForEthOfAnAddress[msg.sender].push(\n      TradeTokensForEth(\n        tradingTokenAddress,\n        tradingTokenAmount,\n        tradingForEthAmount,\n        false\n    ));\n\n    emit EventAddToDexTradeTokensForEth(\n      msg.sender,\n      tradingTokenAddress,\n      tradingTokenAmount,\n      tradingForEthAmount\n    );\n  }\n\n  function addEthToDexForTradeWithTokens(\n    uint tradingEthAmount,\n    address tradingForTokenAddress,\n    uint tradingForTokenAmount) public payable {\n\n    if (dexUsersMapping[msg.sender].tradeTokensForTokens == false &&\n        dexUsersMapping[msg.sender].tradeTokensForEth == false &&\n        dexUsersMapping[msg.sender].tradeEthForTokens == false) {\n          dexUsersArr.push(msg.sender);\n          dexUsersMapping[msg.sender].tradeEthForTokens = true;\n\n    } else if (dexUsersMapping[msg.sender].tradeEthForTokens == false) {\n      dexUsersMapping[msg.sender].tradeEthForTokens = true;\n    }\n\n    require(msg.value == tradingEthAmount);\n\n    tradesOfEthForTokensOfAnAddress[msg.sender].push(\n      TradeEthForTokens(\n        tradingEthAmount,\n        tradingForTokenAddress,\n        tradingForTokenAmount,\n        false\n    ));\n\n    emit EventAddToDexTradeEthForTokens(\n      msg.sender,\n      tradingEthAmount,\n      tradingForTokenAddress,\n      tradingForTokenAmount\n    );\n  }\n\n  /* struct TradeTokensForTokens {\n    address sender;\n    uint tradingTokenAddress;\n    uint tradingTokenAmount;\n    uint tradingForTokenAddress;\n    uint tradingForTokenAmount;\n    bool alreadyTraded;\n  } */\n\n  function buyTokensFromOtherTokens(address sender, uint indexOfTrade) public {\n    require(tradesOfTokensForTokensOfAnAddress[sender][indexOfTrade].alreadyTraded != true);\n    address tradingTokenAddress = tradesOfTokensForTokensOfAnAddress[sender][indexOfTrade].tradingTokenAddress;\n    uint tradingTokenAmount = tradesOfTokensForTokensOfAnAddress[sender][indexOfTrade].tradingTokenAmount;\n\n    ERC20 tradingErc20 = ERC20(tradingTokenAddress);\n    tradingErc20.transferFrom(sender, msg.sender, tradingTokenAmount);\n\n    address tradingForTokenAddress = tradesOfTokensForTokensOfAnAddress[sender][indexOfTrade].tradingForTokenAddress;\n    uint tradingForTokenAmount = tradesOfTokensForTokensOfAnAddress[sender][indexOfTrade].tradingForTokenAmount;\n\n    ERC20 tradingForErc20 = ERC20(tradingForTokenAddress);\n\n    require(tradingForErc20.balanceOf(msg.sender) >= tradingForTokenAmount);\n    require(tradingForErc20.allowance(msg.sender, address(this)) >= tradingForTokenAmount);\n\n    tradingForErc20.transferFrom(msg.sender, sender, tradingForTokenAmount);\n\n    tradesOfTokensForTokensOfAnAddress[sender][indexOfTrade].alreadyTraded = true;\n\n    emit EventTradeTokensForTokens(\n      sender,\n      tradingTokenAddress,\n      tradingTokenAmount,\n      tradingForTokenAddress,\n      tradingForTokenAmount\n    );\n  }\n\n  /* event TradeTokensForTokens (\n    address sender,\n    address tradingTokenAddress,\n    uint tradingTokenAmount,\n    address tradingForTokenAddress,\n    uint tradingForTokenAmount\n  ) */\n\n  // TradeTokensForEth\n\n  /* struct TradeTokensForEth {\n    address sender;\n    uint tradingTokenAddress;\n    uint tradingTokenAmount;\n    uint tradingForEthAmount;\n    bool alreadyTraded;\n  } */\n\n  function buyTokensForEth(address sender, uint indexOfTrade) public payable {\n    require(tradesOfTokensForEthOfAnAddress[sender][indexOfTrade].alreadyTraded != true);\n    address tradingTokenAddress = tradesOfTokensForEthOfAnAddress[sender][indexOfTrade].tradingTokenAddress;\n    uint tradingTokenAmount = tradesOfTokensForEthOfAnAddress[sender][indexOfTrade].tradingTokenAmount;\n    uint tradingForEthAmount = tradesOfTokensForEthOfAnAddress[sender][indexOfTrade].tradingForEthAmount;\n\n    ERC20 tradingErc20 = ERC20(tradingTokenAddress);\n    tradingErc20.transferFrom(sender, msg.sender, tradingTokenAmount);\n\n    require(msg.value == tradingForEthAmount);\n\n    (bool sent,) = sender.call{value: msg.value}(\"\");\n    require(sent, \"Failed to send Ether\");\n\n    tradesOfTokensForEthOfAnAddress[sender][indexOfTrade].alreadyTraded = true;\n\n    emit EventTradeTokensForEth(\n      sender,\n      tradingTokenAddress,\n      tradingTokenAmount,\n      tradingForEthAmount\n    );\n  }\n\n  /* event TradeTokensForEth (\n    address sender,\n    address tradingTokenAddress,\n    uint tradingTokenAmount,\n    uint tradingForEthAmount\n  ); */\n\n  // TradeEthForTokens\n\n  /* struct TradeEthForTokens {\n    address sender;\n    uint tradingEthAmount;\n    uint tradingForTokenAddress;\n    uint tradingForTokenAmount;\n    bool alreadyTraded;\n  } */\n\n  function buyEthForTokens(address sender, uint indexOfTrade) public payable {\n    require(tradesOfEthForTokensOfAnAddress[sender][indexOfTrade].alreadyTraded != true);\n    uint tradingEthAmount = tradesOfEthForTokensOfAnAddress[sender][indexOfTrade].tradingEthAmount;\n    address tradingForTokenAddress = tradesOfEthForTokensOfAnAddress[sender][indexOfTrade].tradingForTokenAddress;\n    uint tradingForTokenAmount = tradesOfEthForTokensOfAnAddress[sender][indexOfTrade].tradingForTokenAmount;\n\n    ERC20 tradingForErc20 = ERC20(tradingForTokenAddress);\n    require(tradingForErc20.balanceOf(msg.sender) >= tradingForTokenAmount);\n    tradingForErc20.transfer(sender, tradingForTokenAmount);\n\n    require(tradingForErc20.balanceOf(msg.sender) >= tradingForTokenAmount);\n    require(tradingForErc20.allowance(msg.sender, address(this)) >= tradingForTokenAmount);\n\n    tradingForErc20.transferFrom(msg.sender, sender, tradingForTokenAmount);\n\n    (bool sent,) = payable(msg.sender).call{value: tradingEthAmount}(\"\");\n    require(sent, \"Failed to send Ether\");\n\n    tradesOfEthForTokensOfAnAddress[sender][indexOfTrade].alreadyTraded = true;\n\n    emit EventTradeEthForTokens(\n      sender,\n      tradingEthAmount,\n      tradingForTokenAddress,\n      tradingForTokenAmount\n    );\n  }\n\n  /* struct TradeTokensForTokens {\n    address sender;\n    uint tradingTokenAddress;\n    uint tradingTokenAmount;\n    uint tradingForTokenAddress;\n    uint tradingForTokenAmount;\n    bool alreadyTraded;\n  } */\n\n  function cancelTradeForTokensWithTokens(address sender, uint indexOfTrade) public {\n    tradesOfTokensForTokensOfAnAddress[sender][indexOfTrade].alreadyTraded = true;\n\n    require(msg.sender == sender);\n\n    address tradingTokenAddress = tradesOfTokensForTokensOfAnAddress[sender][indexOfTrade].tradingTokenAddress;\n    uint tradingTokenAmount = tradesOfTokensForTokensOfAnAddress[sender][indexOfTrade].tradingTokenAmount;\n    address tradingForTokenAddress = tradesOfTokensForTokensOfAnAddress[sender][indexOfTrade].tradingForTokenAddress;\n    uint tradingForTokenAmount = tradesOfTokensForTokensOfAnAddress[sender][indexOfTrade].tradingForTokenAmount;\n\n    emit EventCanceledTradeTokensForTokens(\n      sender,\n      tradingTokenAddress,\n      tradingTokenAmount,\n      tradingForTokenAddress,\n      tradingForTokenAmount\n    );\n  }\n\n  /* struct TradeTokensForEth {\n    address sender;\n    uint tradingTokenAddress;\n    uint tradingTokenAmount;\n    uint tradingForEthAmount;\n    bool alreadyTraded;\n  } */\n\n  function cancelTradeForTokensWithEth(address sender, uint indexOfTrade) public {\n    tradesOfTokensForEthOfAnAddress[sender][indexOfTrade].alreadyTraded = true;\n\n    require(msg.sender == sender);\n\n    address tradingTokenAddress = tradesOfTokensForEthOfAnAddress[sender][indexOfTrade].tradingTokenAddress;\n    uint tradingTokenAmount = tradesOfTokensForEthOfAnAddress[sender][indexOfTrade].tradingTokenAmount;\n    uint tradingForEthAmount = tradesOfTokensForEthOfAnAddress[sender][indexOfTrade].tradingForEthAmount;\n\n    emit EventCanceledTradeTokensForEth(\n      sender,\n      tradingTokenAddress,\n      tradingTokenAmount,\n      tradingForEthAmount\n    );\n  }\n\n  /* struct TradeEthForTokens {\n    address sender;\n    uint tradingEthAmount;\n    address tradingForTokenAddress;\n    uint tradingForTokenAmount;\n    bool alreadyTraded;\n  } */\n\n  function cancelTradeForEthWithTokens(address sender, uint indexOfTrade) public payable {\n    tradeEthForTokensArr[indexOfTrade].alreadyTraded = true;\n\n    require(msg.sender == sender);\n\n    uint tradingEthAmount = tradeEthForTokensArr[indexOfTrade].tradingEthAmount;\n    address tradingForTokenAddress = tradeEthForTokensArr[indexOfTrade].tradingForTokenAddress;\n    uint tradingForTokenAmount = tradeEthForTokensArr[indexOfTrade].tradingForTokenAmount;\n\n    (bool sent,) = payable(msg.sender).call{value: tradingEthAmount}(\"\");\n    require(sent, \"Failed to send Ether\");\n\n    emit EventCanceledTradeEthForTokens(\n      sender,\n      tradingEthAmount,\n      tradingForTokenAddress,\n      tradingForTokenAmount\n    );\n  }\n\n  /* event TradeEthForTokens (\n    address sender,\n    uint tradingEthAmount,\n    uint tradingForTokenAddress,\n    uint tradingForTokenAmount\n  ); */\n\n  /* struct TradeTokensForTokens {\n    address sender;\n    uint tradingTokenAddress;\n    uint tradingTokenAmount;\n    uint tradingForTokenAddress;\n    uint tradingForTokenAmount;\n    bool alreadyTraded;\n  } */\n\n  struct TradeTokensForTokensForCall {\n    address sender;\n    address tradingTokenAddress;\n    uint tradingTokenAmount;\n    address tradingForTokenAddress;\n    uint tradingForTokenAmount;\n    bool alreadyTraded;\n  }\n\n  function getTradesForTokenWithToken() public view returns (TradeTokensForTokensForCall[] memory) {\n    TradeTokensForTokensForCall[] memory tradeTokensForTokensResultArr;\n\n    uint indexOfResultArr = 0;\n\n    for (uint i = 0; i < dexUsersArr.length; i++) {\n      if (dexUsersMapping[dexUsersArr[i]].tradeTokensForTokens == true) {\n        for (uint j = 0; j < tradesOfTokensForTokensOfAnAddress[dexUsersArr[i]].length; j++) {\n          TradeTokensForTokens memory tradeTokensForTokens = tradesOfTokensForTokensOfAnAddress[dexUsersArr[i]][j];\n          TradeTokensForTokensForCall memory tradeTokensForTokensForCall = TradeTokensForTokensForCall (\n            dexUsersArr[i],\n            tradeTokensForTokens.tradingTokenAddress,\n            tradeTokensForTokens.tradingTokenAmount,\n            tradeTokensForTokens.tradingForTokenAddress,\n            tradeTokensForTokens.tradingForTokenAmount,\n            tradeTokensForTokens.alreadyTraded\n          );\n\n          tradeTokensForTokensResultArr[indexOfResultArr] = tradeTokensForTokensForCall;\n          indexOfResultArr = indexOfResultArr + 1;\n        }\n      }\n    }\n\n    return tradeTokensForTokensResultArr;\n  }\n\n  struct TradeTokensForEthForCall {\n    address sender;\n    address tradingTokenAddress;\n    uint tradingTokenAmount;\n    uint tradingForEthAmount;\n    bool alreadyTraded;\n  }\n\n  function getTradesForTokensWithEth() public view returns (TradeTokensForEth[] memory) {\n    TradeTokensForEthForCall[] memory tradeTokensForEthResultArr;\n\n    uint indexOfResultArr = 0;\n\n    for (uint i = 0; i < dexUsersArr.length; i++) {\n      if (dexUsersMapping[dexUsersArr[i]].tradeTokensForEth == true) {\n        for (uint j = 0; j < tradesOfTokensForEthOfAnAddress[dexUsersArr[i]].length; j++) {\n          TradeTokensForEth memory tradeTokensForEth = tradesOfTokensForEthOfAnAddress[dexUsersArr[i]][j];\n          TradeTokensForEthForCall memory tradeTokensForEthForCall = TradeTokensForEthForCall (\n            dexUsersArr[i],\n            tradeTokensForEth.tradingTokenAddress,\n            tradeTokensForEth.tradingTokenAmount,\n            tradeTokensForEth.tradingForEthAmount,\n            tradeTokensForEth.alreadyTraded\n          );\n\n          tradeTokensForEthResultArr[indexOfResultArr] = tradeTokensForEthForCall;\n          indexOfResultArr = indexOfResultArr + 1;\n        }\n      }\n    }\n\n    return tradeTokensForEthArr;\n  }\n\n  /* struct TradeEthForTokens {\n    address sender;\n    uint tradingEthAmount;\n    uint tradingForTokenAddress;\n    uint tradingForTokenAmount;\n    bool alreadyTraded;\n  } */\n\n  struct TradeEthForTokensForCall {\n    address sender;\n    uint tradingEthAmount;\n    address tradingForTokenAddress;\n    uint tradingForTokenAmount;\n    bool alreadyTraded;\n  }\n\n  function getTradesForEthWithTokens() public view returns (TradeEthForTokens[] memory) {\n    TradeEthForTokensForCall[] memory tradeEthForTokensResultArr;\n\n    uint indexOfResultArr = 0;\n\n    for (uint i = 0; i < dexUsersArr.length; i++) {\n      if (dexUsersMapping[dexUsersArr[i]].tradeTokensForEth == true) {\n        for (uint j = 0; j < tradesOfEthForTokensOfAnAddress[dexUsersArr[i]].length; j++) {\n          TradeEthForTokens memory tradeEthForTokens = tradesOfEthForTokensOfAnAddress[dexUsersArr[i]][j];\n          TradeEthForTokensForCall memory tradeEthForTokensForCall = TradeEthForTokensForCall (\n            dexUsersArr[i],\n            tradeEthForTokens.tradingEthAmount,\n            tradeEthForTokens.tradingForTokenAddress,\n            tradeEthForTokens.tradingForTokenAmount,\n            tradeEthForTokens.alreadyTraded\n          );\n\n          tradeEthForTokensResultArr[indexOfResultArr] = tradeEthForTokensForCall;\n          indexOfResultArr = indexOfResultArr + 1;\n        }\n      }\n    }\n\n    return tradeEthForTokensArr;\n  }\n}\n",
  "sourcePath": "/Users/zhiwen/code/dex/contracts/contracts/Dex.sol",
  "compiler": {
    "name": "solc",
    "version": "0.8.20+commit.a1b79de6.Emscripten.clang"
  },
  "schemaVersion": "3.4.16",
  "updatedAt": "2024-09-27T22:03:57.897Z",
  "devdoc": {
    "kind": "dev",
    "methods": {},
    "version": 1
  },
  "userdoc": {
    "kind": "user",
    "methods": {},
    "version": 1
  }
}