{
  "contractName": "Dex",
  "abi": [
    {
      "inputs": [],
      "stateMutability": "nonpayable",
      "type": "constructor"
    },
    {
      "anonymous": false,
      "inputs": [
        {
          "indexed": false,
          "internalType": "address",
          "name": "sender",
          "type": "address"
        },
        {
          "indexed": false,
          "internalType": "uint256",
          "name": "tradingEthAmount",
          "type": "uint256"
        },
        {
          "indexed": false,
          "internalType": "address",
          "name": "tradingForTokenAddress",
          "type": "address"
        },
        {
          "indexed": false,
          "internalType": "uint256",
          "name": "tradingForTokenAmount",
          "type": "uint256"
        }
      ],
      "name": "EventAddToDexTradeEthForTokens",
      "type": "event"
    },
    {
      "anonymous": false,
      "inputs": [
        {
          "indexed": false,
          "internalType": "address",
          "name": "sender",
          "type": "address"
        },
        {
          "indexed": false,
          "internalType": "address",
          "name": "tradingTokenAddress",
          "type": "address"
        },
        {
          "indexed": false,
          "internalType": "uint256",
          "name": "tradingTokenAmount",
          "type": "uint256"
        },
        {
          "indexed": false,
          "internalType": "uint256",
          "name": "tradingForEthAmount",
          "type": "uint256"
        }
      ],
      "name": "EventAddToDexTradeTokensForEth",
      "type": "event"
    },
    {
      "anonymous": false,
      "inputs": [
        {
          "indexed": false,
          "internalType": "address",
          "name": "sender",
          "type": "address"
        },
        {
          "indexed": false,
          "internalType": "address",
          "name": "tradingTokenAddress",
          "type": "address"
        },
        {
          "indexed": false,
          "internalType": "uint256",
          "name": "tradingTokenAmount",
          "type": "uint256"
        },
        {
          "indexed": false,
          "internalType": "address",
          "name": "tradingForTokenAddress",
          "type": "address"
        },
        {
          "indexed": false,
          "internalType": "uint256",
          "name": "tradingForTokenAmount",
          "type": "uint256"
        }
      ],
      "name": "EventAddToDexTradeTokensForTokens",
      "type": "event"
    },
    {
      "anonymous": false,
      "inputs": [
        {
          "indexed": false,
          "internalType": "address",
          "name": "sender",
          "type": "address"
        },
        {
          "indexed": false,
          "internalType": "uint256",
          "name": "tradingEthAmount",
          "type": "uint256"
        },
        {
          "indexed": false,
          "internalType": "address",
          "name": "tradingForTokenAddress",
          "type": "address"
        },
        {
          "indexed": false,
          "internalType": "uint256",
          "name": "tradingForTokenAmount",
          "type": "uint256"
        }
      ],
      "name": "EventCanceledTradeEthForTokens",
      "type": "event"
    },
    {
      "anonymous": false,
      "inputs": [
        {
          "indexed": false,
          "internalType": "address",
          "name": "sender",
          "type": "address"
        },
        {
          "indexed": false,
          "internalType": "address",
          "name": "tradingTokenAddress",
          "type": "address"
        },
        {
          "indexed": false,
          "internalType": "uint256",
          "name": "tradingTokenAmount",
          "type": "uint256"
        },
        {
          "indexed": false,
          "internalType": "uint256",
          "name": "tradingForEthAmount",
          "type": "uint256"
        }
      ],
      "name": "EventCanceledTradeTokensForEth",
      "type": "event"
    },
    {
      "anonymous": false,
      "inputs": [
        {
          "indexed": false,
          "internalType": "address",
          "name": "sender",
          "type": "address"
        },
        {
          "indexed": false,
          "internalType": "address",
          "name": "tradingTokenAddress",
          "type": "address"
        },
        {
          "indexed": false,
          "internalType": "uint256",
          "name": "tradingTokenAmount",
          "type": "uint256"
        },
        {
          "indexed": false,
          "internalType": "address",
          "name": "tradingForTokenAddress",
          "type": "address"
        },
        {
          "indexed": false,
          "internalType": "uint256",
          "name": "tradingForTokenAmount",
          "type": "uint256"
        }
      ],
      "name": "EventCanceledTradeTokensForTokens",
      "type": "event"
    },
    {
      "anonymous": false,
      "inputs": [
        {
          "indexed": false,
          "internalType": "address",
          "name": "sender",
          "type": "address"
        },
        {
          "indexed": false,
          "internalType": "uint256",
          "name": "tradingEthAmount",
          "type": "uint256"
        },
        {
          "indexed": false,
          "internalType": "address",
          "name": "tradingForTokenAddress",
          "type": "address"
        },
        {
          "indexed": false,
          "internalType": "uint256",
          "name": "tradingForTokenAmount",
          "type": "uint256"
        }
      ],
      "name": "EventTradeEthForTokens",
      "type": "event"
    },
    {
      "anonymous": false,
      "inputs": [
        {
          "indexed": false,
          "internalType": "address",
          "name": "sender",
          "type": "address"
        },
        {
          "indexed": false,
          "internalType": "address",
          "name": "tradingTokenAddress",
          "type": "address"
        },
        {
          "indexed": false,
          "internalType": "uint256",
          "name": "tradingTokenAmount",
          "type": "uint256"
        },
        {
          "indexed": false,
          "internalType": "uint256",
          "name": "tradingForEthAmount",
          "type": "uint256"
        }
      ],
      "name": "EventTradeTokensForEth",
      "type": "event"
    },
    {
      "anonymous": false,
      "inputs": [
        {
          "indexed": false,
          "internalType": "address",
          "name": "sender",
          "type": "address"
        },
        {
          "indexed": false,
          "internalType": "address",
          "name": "tradingTokenAddress",
          "type": "address"
        },
        {
          "indexed": false,
          "internalType": "uint256",
          "name": "tradingTokenAmount",
          "type": "uint256"
        },
        {
          "indexed": false,
          "internalType": "address",
          "name": "tradingForTokenAddress",
          "type": "address"
        },
        {
          "indexed": false,
          "internalType": "uint256",
          "name": "tradingForTokenAmount",
          "type": "uint256"
        }
      ],
      "name": "EventTradeTokensForTokens",
      "type": "event"
    },
    {
      "inputs": [
        {
          "internalType": "uint256",
          "name": "",
          "type": "uint256"
        }
      ],
      "name": "tradeEthForTokensArr",
      "outputs": [
        {
          "internalType": "address",
          "name": "sender",
          "type": "address"
        },
        {
          "internalType": "uint256",
          "name": "tradingEthAmount",
          "type": "uint256"
        },
        {
          "internalType": "address",
          "name": "tradingForTokenAddress",
          "type": "address"
        },
        {
          "internalType": "uint256",
          "name": "tradingForTokenAmount",
          "type": "uint256"
        },
        {
          "internalType": "bool",
          "name": "alreadyTraded",
          "type": "bool"
        }
      ],
      "stateMutability": "view",
      "type": "function",
      "constant": true
    },
    {
      "inputs": [
        {
          "internalType": "uint256",
          "name": "",
          "type": "uint256"
        }
      ],
      "name": "tradeTokensForEthArr",
      "outputs": [
        {
          "internalType": "address",
          "name": "sender",
          "type": "address"
        },
        {
          "internalType": "address",
          "name": "tradingTokenAddress",
          "type": "address"
        },
        {
          "internalType": "uint256",
          "name": "tradingTokenAmount",
          "type": "uint256"
        },
        {
          "internalType": "uint256",
          "name": "tradingForEthAmount",
          "type": "uint256"
        },
        {
          "internalType": "bool",
          "name": "alreadyTraded",
          "type": "bool"
        }
      ],
      "stateMutability": "view",
      "type": "function",
      "constant": true
    },
    {
      "inputs": [
        {
          "internalType": "uint256",
          "name": "",
          "type": "uint256"
        }
      ],
      "name": "tradeTokensForTokensArr",
      "outputs": [
        {
          "internalType": "address",
          "name": "sender",
          "type": "address"
        },
        {
          "internalType": "address",
          "name": "tradingTokenAddress",
          "type": "address"
        },
        {
          "internalType": "uint256",
          "name": "tradingTokenAmount",
          "type": "uint256"
        },
        {
          "internalType": "address",
          "name": "tradingForTokenAddress",
          "type": "address"
        },
        {
          "internalType": "uint256",
          "name": "tradingForTokenAmount",
          "type": "uint256"
        },
        {
          "internalType": "bool",
          "name": "alreadyTraded",
          "type": "bool"
        }
      ],
      "stateMutability": "view",
      "type": "function",
      "constant": true
    },
    {
      "inputs": [
        {
          "internalType": "address",
          "name": "tradingTokenAddress",
          "type": "address"
        },
        {
          "internalType": "uint256",
          "name": "tradingTokenAmount",
          "type": "uint256"
        },
        {
          "internalType": "address",
          "name": "tradingForTokenAddress",
          "type": "address"
        },
        {
          "internalType": "uint256",
          "name": "tradingForTokenAmount",
          "type": "uint256"
        }
      ],
      "name": "addTokenToDexForTradeWithAnotherToken",
      "outputs": [
        {
          "internalType": "uint256",
          "name": "indexOfTrade",
          "type": "uint256"
        }
      ],
      "stateMutability": "nonpayable",
      "type": "function"
    },
    {
      "inputs": [
        {
          "internalType": "address",
          "name": "tradingTokenAddress",
          "type": "address"
        },
        {
          "internalType": "uint256",
          "name": "tradingTokenAmount",
          "type": "uint256"
        },
        {
          "internalType": "uint256",
          "name": "tradingForEthAmount",
          "type": "uint256"
        }
      ],
      "name": "addTokenToDexForTradeWithEth",
      "outputs": [
        {
          "internalType": "uint256",
          "name": "indexOfTrade",
          "type": "uint256"
        }
      ],
      "stateMutability": "nonpayable",
      "type": "function"
    },
    {
      "inputs": [
        {
          "internalType": "uint256",
          "name": "tradingEthAmount",
          "type": "uint256"
        },
        {
          "internalType": "address",
          "name": "tradingForTokenAddress",
          "type": "address"
        },
        {
          "internalType": "uint256",
          "name": "tradingForTokenAmount",
          "type": "uint256"
        }
      ],
      "name": "addEthToDexForTradeWithToken",
      "outputs": [
        {
          "internalType": "uint256",
          "name": "indexOfTrade",
          "type": "uint256"
        }
      ],
      "stateMutability": "payable",
      "type": "function",
      "payable": true
    },
    {
      "inputs": [
        {
          "internalType": "uint256",
          "name": "indexOfTrade",
          "type": "uint256"
        }
      ],
      "name": "buyTokenFromAnotherToken",
      "outputs": [],
      "stateMutability": "nonpayable",
      "type": "function"
    },
    {
      "inputs": [
        {
          "internalType": "uint256",
          "name": "indexOfTrade",
          "type": "uint256"
        }
      ],
      "name": "buyTokensForEth",
      "outputs": [],
      "stateMutability": "payable",
      "type": "function",
      "payable": true
    },
    {
      "inputs": [
        {
          "internalType": "uint256",
          "name": "indexOfTrade",
          "type": "uint256"
        }
      ],
      "name": "buyEthForTokens",
      "outputs": [],
      "stateMutability": "payable",
      "type": "function",
      "payable": true
    },
    {
      "inputs": [
        {
          "internalType": "uint256",
          "name": "indexOfTrade",
          "type": "uint256"
        }
      ],
      "name": "cancelTradeForTokensWithTokens",
      "outputs": [],
      "stateMutability": "nonpayable",
      "type": "function"
    },
    {
      "inputs": [
        {
          "internalType": "uint256",
          "name": "indexOfTrade",
          "type": "uint256"
        }
      ],
      "name": "cancelTradeForTokensWithEth",
      "outputs": [],
      "stateMutability": "nonpayable",
      "type": "function"
    },
    {
      "inputs": [
        {
          "internalType": "uint256",
          "name": "indexOfTrade",
          "type": "uint256"
        }
      ],
      "name": "cancelTradeForEthWithTokens",
      "outputs": [],
      "stateMutability": "payable",
      "type": "function",
      "payable": true
    },
    {
      "inputs": [],
      "name": "getTradesForTokenWithToken",
      "outputs": [
        {
          "components": [
            {
              "internalType": "address",
              "name": "sender",
              "type": "address"
            },
            {
              "internalType": "address",
              "name": "tradingTokenAddress",
              "type": "address"
            },
            {
              "internalType": "uint256",
              "name": "tradingTokenAmount",
              "type": "uint256"
            },
            {
              "internalType": "address",
              "name": "tradingForTokenAddress",
              "type": "address"
            },
            {
              "internalType": "uint256",
              "name": "tradingForTokenAmount",
              "type": "uint256"
            },
            {
              "internalType": "bool",
              "name": "alreadyTraded",
              "type": "bool"
            }
          ],
          "internalType": "struct Dex.TradeTokensForTokens[]",
          "name": "",
          "type": "tuple[]"
        }
      ],
      "stateMutability": "view",
      "type": "function",
      "constant": true
    },
    {
      "inputs": [],
      "name": "getTradesForTokensWithEth",
      "outputs": [
        {
          "components": [
            {
              "internalType": "address",
              "name": "sender",
              "type": "address"
            },
            {
              "internalType": "address",
              "name": "tradingTokenAddress",
              "type": "address"
            },
            {
              "internalType": "uint256",
              "name": "tradingTokenAmount",
              "type": "uint256"
            },
            {
              "internalType": "uint256",
              "name": "tradingForEthAmount",
              "type": "uint256"
            },
            {
              "internalType": "bool",
              "name": "alreadyTraded",
              "type": "bool"
            }
          ],
          "internalType": "struct Dex.TradeTokensForEth[]",
          "name": "",
          "type": "tuple[]"
        }
      ],
      "stateMutability": "view",
      "type": "function",
      "constant": true
    },
    {
      "inputs": [],
      "name": "getTradesForEthWithTokens",
      "outputs": [
        {
          "components": [
            {
              "internalType": "address",
              "name": "sender",
              "type": "address"
            },
            {
              "internalType": "uint256",
              "name": "tradingEthAmount",
              "type": "uint256"
            },
            {
              "internalType": "address",
              "name": "tradingForTokenAddress",
              "type": "address"
            },
            {
              "internalType": "uint256",
              "name": "tradingForTokenAmount",
              "type": "uint256"
            },
            {
              "internalType": "bool",
              "name": "alreadyTraded",
              "type": "bool"
            }
          ],
          "internalType": "struct Dex.TradeEthForTokens[]",
          "name": "",
          "type": "tuple[]"
        }
      ],
      "stateMutability": "view",
      "type": "function",
      "constant": true
    }
  ],
  "bytecode": "0x608060405234801561000f575f80fd5b503360035f6101000a81548173ffffffffffffffffffffffffffffffffffffffff021916908373ffffffffffffffffffffffffffffffffffffffff1602179055506131368061005d5f395ff3fe6080604052600436106100e7575f3560e01c8063b25cfc9011610089578063d17a1fe011610058578063d17a1fe0146102dd578063ea9acbb4146102f9578063f4fb51461461033a578063f5c855a014610362576100e7565b8063b25cfc901461021b578063ba60c3e214610245578063c423b94014610275578063cc9112d81461029d576100e7565b80634737ab8d116100c55780634737ab8d1461016357806353ec2f2c1461018d5780635e295abe146101c957806387bc887a146101f3576100e7565b80631bbb08d6146100eb5780631f691d8d146101075780633a5344ff14610147575b5f80fd5b61010560048036038101906101009190612667565b61039e565b005b348015610112575f80fd5b5061012d60048036038101906101289190612667565b61066b565b60405161013e9594939291906126fa565b60405180910390f35b610161600480360381019061015c9190612667565b6106f6565b005b34801561016e575f80fd5b5061017761092e565b6040516101849190612886565b60405180910390f35b348015610198575f80fd5b506101b360048036038101906101ae91906128d0565b610ad6565b6040516101c09190612920565b60405180910390f35b3480156101d4575f80fd5b506101dd610df7565b6040516101ea9190612a5a565b60405180910390f35b3480156101fe575f80fd5b5061021960048036038101906102149190612667565b611170565b005b348015610226575f80fd5b5061022f61144c565b60405161023c9190612b88565b60405180910390f35b61025f600480360381019061025a9190612ba8565b6115f4565b60405161026c9190612920565b60405180910390f35b348015610280575f80fd5b5061029b60048036038101906102969190612667565b611794565b005b3480156102a8575f80fd5b506102c360048036038101906102be9190612667565b611a2c565b6040516102d4959493929190612bf8565b60405180910390f35b6102f760048036038101906102f29190612667565b611ab7565b005b348015610304575f80fd5b5061031f600480360381019061031a9190612667565b611dfb565b60405161033196959493929190612c49565b60405180910390f35b348015610345575f80fd5b50610360600480360381019061035b9190612667565b611eaa565b005b34801561036d575f80fd5b5061038860048036038101906103839190612ca8565b612187565b6040516103959190612920565b60405180910390f35b60011515600182815481106103b6576103b5612d0c565b5b905f5260205f2090600502016004015f9054906101000a900460ff161515036103dd575f80fd5b5f600182815481106103f2576103f1612d0c565b5b905f5260205f2090600502015f015f9054906101000a900473ffffffffffffffffffffffffffffffffffffffff1690505f6001838154811061043757610436612d0c565b5b905f5260205f2090600502016001015f9054906101000a900473ffffffffffffffffffffffffffffffffffffffff1690505f6001848154811061047d5761047c612d0c565b5b905f5260205f2090600502016002015490505f600185815481106104a4576104a3612d0c565b5b905f5260205f2090600502016003015490505f8390508073ffffffffffffffffffffffffffffffffffffffff166323b872dd8633866040518463ffffffff1660e01b81526004016104f793929190612d39565b6020604051808303815f875af1158015610513573d5f803e3d5ffd5b505050506040513d601f19601f820116820180604052508101906105379190612d98565b50813414610543575f80fd5b5f8573ffffffffffffffffffffffffffffffffffffffff163460405161056890612df0565b5f6040518083038185875af1925050503d805f81146105a2576040519150601f19603f3d011682016040523d82523d5f602084013e6105a7565b606091505b50509050806105eb576040517f08c379a00000000000000000000000000000000000000000000000000000000081526004016105e290612e5e565b60405180910390fd5b6001808881548110610600576105ff612d0c565b5b905f5260205f2090600502016004015f6101000a81548160ff0219169083151502179055507f08b8b3ffc165e69d2aa56bf6924a289c74530a36570b042b279ede424a0f7c188686868660405161065a9493929190612e7c565b60405180910390a150505050505050565b6001818154811061067a575f80fd5b905f5260205f2090600502015f91509050805f015f9054906101000a900473ffffffffffffffffffffffffffffffffffffffff1690806001015f9054906101000a900473ffffffffffffffffffffffffffffffffffffffff1690806002015490806003015490806004015f9054906101000a900460ff16905085565b60016002828154811061070c5761070b612d0c565b5b905f5260205f2090600502016004015f6101000a81548160ff0219169083151502179055505f6002828154811061074657610745612d0c565b5b905f5260205f2090600502015f015f9054906101000a900473ffffffffffffffffffffffffffffffffffffffff1690508073ffffffffffffffffffffffffffffffffffffffff163373ffffffffffffffffffffffffffffffffffffffff16146107ad575f80fd5b5f600283815481106107c2576107c1612d0c565b5b905f5260205f2090600502016001015490505f600284815481106107e9576107e8612d0c565b5b905f5260205f2090600502016002015f9054906101000a900473ffffffffffffffffffffffffffffffffffffffff1690505f6002858154811061082f5761082e612d0c565b5b905f5260205f2090600502016003015490505f3373ffffffffffffffffffffffffffffffffffffffff168460405161086690612df0565b5f6040518083038185875af1925050503d805f81146108a0576040519150601f19603f3d011682016040523d82523d5f602084013e6108a5565b606091505b50509050806108e9576040517f08c379a00000000000000000000000000000000000000000000000000000000081526004016108e090612e5e565b60405180910390fd5b7f6fd78ca7acca4f76ea5834af9a37b74bbd249dbadf5360eeecb4a3a9b762dfff8585858560405161091e9493929190612ebf565b60405180910390a1505050505050565b60605f60028054905067ffffffffffffffff8111156109505761094f612f02565b5b60405190808252806020026020018201604052801561098957816020015b61097661250c565b81526020019060019003908161096e5790505b5090505f5b600280549050811015610ace57600281815481106109af576109ae612d0c565b5b905f5260205f2090600502016040518060a00160405290815f82015f9054906101000a900473ffffffffffffffffffffffffffffffffffffffff1673ffffffffffffffffffffffffffffffffffffffff1673ffffffffffffffffffffffffffffffffffffffff16815260200160018201548152602001600282015f9054906101000a900473ffffffffffffffffffffffffffffffffffffffff1673ffffffffffffffffffffffffffffffffffffffff1673ffffffffffffffffffffffffffffffffffffffff16815260200160038201548152602001600482015f9054906101000a900460ff161515151581525050828281518110610ab057610aaf612d0c565b5b60200260200101819052508080610ac690612f5c565b91505061098e565b508091505090565b5f80849050838173ffffffffffffffffffffffffffffffffffffffff166370a08231336040518263ffffffff1660e01b8152600401610b159190612fa3565b602060405180830381865afa158015610b30573d5f803e3d5ffd5b505050506040513d601f19601f82011682018060405250810190610b549190612fd0565b1015610b5e575f80fd5b5f848273ffffffffffffffffffffffffffffffffffffffff1663dd62ed3e33306040518363ffffffff1660e01b8152600401610b9b929190612ffb565b602060405180830381865afa158015610bb6573d5f803e3d5ffd5b505050506040513d601f19601f82011682018060405250810190610bda9190612fd0565b610be49190613022565b90508173ffffffffffffffffffffffffffffffffffffffff1663095ea7b330836040518363ffffffff1660e01b8152600401610c21929190613055565b6020604051808303815f875af1158015610c3d573d5f803e3d5ffd5b505050506040513d601f19601f82011682018060405250810190610c619190612d98565b5060016040518060a001604052803373ffffffffffffffffffffffffffffffffffffffff1681526020018873ffffffffffffffffffffffffffffffffffffffff1681526020018781526020018681526020015f1515815250908060018154018082558091505060019003905f5260205f2090600502015f909190919091505f820151815f015f6101000a81548173ffffffffffffffffffffffffffffffffffffffff021916908373ffffffffffffffffffffffffffffffffffffffff1602179055506020820151816001015f6101000a81548173ffffffffffffffffffffffffffffffffffffffff021916908373ffffffffffffffffffffffffffffffffffffffff16021790555060408201518160020155606082015181600301556080820151816004015f6101000a81548160ff02191690831515021790555050507f4b3224748748339deab55aa5a1514e7f3d791c195a9594935c30a84d882f540f33878787604051610dd39493929190612e7c565b60405180910390a160018080549050610dec919061307c565b925050509392505050565b60605f808054905067ffffffffffffffff811115610e1857610e17612f02565b5b604051908082528060200260200182016040528015610e5157816020015b610e3e612564565b815260200190600190039081610e365790505b5090505f5b5f80549050811015610fe9575f8181548110610e7557610e74612d0c565b5b905f5260205f2090600602016040518060c00160405290815f82015f9054906101000a900473ffffffffffffffffffffffffffffffffffffffff1673ffffffffffffffffffffffffffffffffffffffff1673ffffffffffffffffffffffffffffffffffffffff168152602001600182015f9054906101000a900473ffffffffffffffffffffffffffffffffffffffff1673ffffffffffffffffffffffffffffffffffffffff1673ffffffffffffffffffffffffffffffffffffffff16815260200160028201548152602001600382015f9054906101000a900473ffffffffffffffffffffffffffffffffffffffff1673ffffffffffffffffffffffffffffffffffffffff1673ffffffffffffffffffffffffffffffffffffffff16815260200160048201548152602001600582015f9054906101000a900460ff161515151581525050828281518110610fcb57610fca612d0c565b5b60200260200101819052508080610fe190612f5c565b915050610e56565b505f805480602002602001604051908101604052809291908181526020015f905b82821015611166578382905f5260205f2090600602016040518060c00160405290815f82015f9054906101000a900473ffffffffffffffffffffffffffffffffffffffff1673ffffffffffffffffffffffffffffffffffffffff1673ffffffffffffffffffffffffffffffffffffffff168152602001600182015f9054906101000a900473ffffffffffffffffffffffffffffffffffffffff1673ffffffffffffffffffffffffffffffffffffffff1673ffffffffffffffffffffffffffffffffffffffff16815260200160028201548152602001600382015f9054906101000a900473ffffffffffffffffffffffffffffffffffffffff1673ffffffffffffffffffffffffffffffffffffffff1673ffffffffffffffffffffffffffffffffffffffff16815260200160048201548152602001600582015f9054906101000a900460ff1615151515815250508152602001906001019061100a565b5050505091505090565b60015f828154811061118557611184612d0c565b5b905f5260205f2090600602016005015f6101000a81548160ff0219169083151502179055505f8082815481106111be576111bd612d0c565b5b905f5260205f2090600602015f015f9054906101000a900473ffffffffffffffffffffffffffffffffffffffff1690508073ffffffffffffffffffffffffffffffffffffffff163373ffffffffffffffffffffffffffffffffffffffff1614611225575f80fd5b5f80838154811061123957611238612d0c565b5b905f5260205f2090600602016001015f9054906101000a900473ffffffffffffffffffffffffffffffffffffffff1690505f80848154811061127e5761127d612d0c565b5b905f5260205f2090600602016002015490505f8085815481106112a4576112a3612d0c565b5b905f5260205f2090600602016003015f9054906101000a900473ffffffffffffffffffffffffffffffffffffffff1690505f8086815481106112e9576112e8612d0c565b5b905f5260205f2090600602016004015490505f8490505f848273ffffffffffffffffffffffffffffffffffffffff1663dd62ed3e33306040518363ffffffff1660e01b815260040161133c929190612ffb565b602060405180830381865afa158015611357573d5f803e3d5ffd5b505050506040513d601f19601f8201168201806040525081019061137b9190612fd0565b611385919061307c565b90508173ffffffffffffffffffffffffffffffffffffffff1663095ea7b330836040518363ffffffff1660e01b81526004016113c2929190613055565b6020604051808303815f875af11580156113de573d5f803e3d5ffd5b505050506040513d601f19601f820116820180604052508101906114029190612d98565b507fc086f5b7a83e015dcc4ec82fa3f4de6c895b32824a682d0d3002b1277cbb7dc7878787878760405161143a9594939291906130af565b60405180910390a15050505050505050565b60605f60018054905067ffffffffffffffff81111561146e5761146d612f02565b5b6040519080825280602002602001820160405280156114a757816020015b6114946125d8565b81526020019060019003908161148c5790505b5090505f5b6001805490508110156115ec57600181815481106114cd576114cc612d0c565b5b905f5260205f2090600502016040518060a00160405290815f82015f9054906101000a900473ffffffffffffffffffffffffffffffffffffffff1673ffffffffffffffffffffffffffffffffffffffff1673ffffffffffffffffffffffffffffffffffffffff168152602001600182015f9054906101000a900473ffffffffffffffffffffffffffffffffffffffff1673ffffffffffffffffffffffffffffffffffffffff1673ffffffffffffffffffffffffffffffffffffffff1681526020016002820154815260200160038201548152602001600482015f9054906101000a900460ff1615151515815250508282815181106115ce576115cd612d0c565b5b602002602001018190525080806115e490612f5c565b9150506114ac565b508091505090565b5f833414611600575f80fd5b60026040518060a001604052803373ffffffffffffffffffffffffffffffffffffffff1681526020018681526020018573ffffffffffffffffffffffffffffffffffffffff1681526020018481526020015f1515815250908060018154018082558091505060019003905f5260205f2090600502015f909190919091505f820151815f015f6101000a81548173ffffffffffffffffffffffffffffffffffffffff021916908373ffffffffffffffffffffffffffffffffffffffff160217905550602082015181600101556040820151816002015f6101000a81548173ffffffffffffffffffffffffffffffffffffffff021916908373ffffffffffffffffffffffffffffffffffffffff160217905550606082015181600301556080820151816004015f6101000a81548160ff02191690831515021790555050507f5e91b5fb353347b0d4c78463cbf33c353331235f1f40327ca164bd540d164697338585856040516117719493929190612ebf565b60405180910390a1600160028054905061178b919061307c565b90509392505050565b60018082815481106117a9576117a8612d0c565b5b905f5260205f2090600502016004015f6101000a81548160ff0219169083151502179055505f600182815481106117e3576117e2612d0c565b5b905f5260205f2090600502015f015f9054906101000a900473ffffffffffffffffffffffffffffffffffffffff1690508073ffffffffffffffffffffffffffffffffffffffff163373ffffffffffffffffffffffffffffffffffffffff161461184a575f80fd5b5f6001838154811061185f5761185e612d0c565b5b905f5260205f2090600502016001015f9054906101000a900473ffffffffffffffffffffffffffffffffffffffff1690505f600184815481106118a5576118a4612d0c565b5b905f5260205f2090600502016002015490505f600185815481106118cc576118cb612d0c565b5b905f5260205f2090600502016003015490505f8390505f838273ffffffffffffffffffffffffffffffffffffffff1663dd62ed3e33306040518363ffffffff1660e01b815260040161191f929190612ffb565b602060405180830381865afa15801561193a573d5f803e3d5ffd5b505050506040513d601f19601f8201168201806040525081019061195e9190612fd0565b611968919061307c565b90508173ffffffffffffffffffffffffffffffffffffffff1663095ea7b330836040518363ffffffff1660e01b81526004016119a5929190613055565b6020604051808303815f875af11580156119c1573d5f803e3d5ffd5b505050506040513d601f19601f820116820180604052508101906119e59190612d98565b507fee62066e68ea020a72ab8850191057c02d81798cef76e90508db15b2f47368c786868686604051611a1b9493929190612e7c565b60405180910390a150505050505050565b60028181548110611a3b575f80fd5b905f5260205f2090600502015f91509050805f015f9054906101000a900473ffffffffffffffffffffffffffffffffffffffff1690806001015490806002015f9054906101000a900473ffffffffffffffffffffffffffffffffffffffff1690806003015490806004015f9054906101000a900460ff16905085565b6001151560028281548110611acf57611ace612d0c565b5b905f5260205f2090600502016004015f9054906101000a900460ff16151503611af6575f80fd5b5f60028281548110611b0b57611b0a612d0c565b5b905f5260205f2090600502015f015f9054906101000a900473ffffffffffffffffffffffffffffffffffffffff1690505f60028381548110611b5057611b4f612d0c565b5b905f5260205f2090600502016001015490505f60028481548110611b7757611b76612d0c565b5b905f5260205f2090600502016002015f9054906101000a900473ffffffffffffffffffffffffffffffffffffffff1690505f60028581548110611bbd57611bbc612d0c565b5b905f5260205f2090600502016003015490505f829050818173ffffffffffffffffffffffffffffffffffffffff166370a08231336040518263ffffffff1660e01b8152600401611c0d9190612fa3565b602060405180830381865afa158015611c28573d5f803e3d5ffd5b505050506040513d601f19601f82011682018060405250810190611c4c9190612fd0565b1015611c56575f80fd5b8073ffffffffffffffffffffffffffffffffffffffff1663a9059cbb86846040518363ffffffff1660e01b8152600401611c91929190613055565b6020604051808303815f875af1158015611cad573d5f803e3d5ffd5b505050506040513d601f19601f82011682018060405250810190611cd19190612d98565b505f3373ffffffffffffffffffffffffffffffffffffffff1685604051611cf790612df0565b5f6040518083038185875af1925050503d805f8114611d31576040519150601f19603f3d011682016040523d82523d5f602084013e611d36565b606091505b5050905080611d7a576040517f08c379a0000000000000000000000000000000000000000000000000000000008152600401611d7190612e5e565b60405180910390fd5b600160028881548110611d9057611d8f612d0c565b5b905f5260205f2090600502016004015f6101000a81548160ff0219169083151502179055507f90737823f8fc9fbb28385683bca84d56edc8a1d49a2ad7faeb6391da5e38d99b86868686604051611dea9493929190612ebf565b60405180910390a150505050505050565b5f8181548110611e09575f80fd5b905f5260205f2090600602015f91509050805f015f9054906101000a900473ffffffffffffffffffffffffffffffffffffffff1690806001015f9054906101000a900473ffffffffffffffffffffffffffffffffffffffff1690806002015490806003015f9054906101000a900473ffffffffffffffffffffffffffffffffffffffff1690806004015490806005015f9054906101000a900460ff16905086565b600115155f8281548110611ec157611ec0612d0c565b5b905f5260205f2090600602016005015f9054906101000a900460ff16151503611ee8575f80fd5b5f808281548110611efc57611efb612d0c565b5b905f5260205f2090600602016001015f9054906101000a900473ffffffffffffffffffffffffffffffffffffffff1690505f808381548110611f4157611f40612d0c565b5b905f5260205f2090600602015f015f9054906101000a900473ffffffffffffffffffffffffffffffffffffffff1690505f808481548110611f8557611f84612d0c565b5b905f5260205f2090600602016002015490505f8390508073ffffffffffffffffffffffffffffffffffffffff166323b872dd8433856040518463ffffffff1660e01b8152600401611fd893929190612d39565b6020604051808303815f875af1158015611ff4573d5f803e3d5ffd5b505050506040513d601f19601f820116820180604052508101906120189190612d98565b505f80868154811061202d5761202c612d0c565b5b905f5260205f2090600602016003015f9054906101000a900473ffffffffffffffffffffffffffffffffffffffff1690505f80878154811061207257612071612d0c565b5b905f5260205f2090600602016004015490505f8290508073ffffffffffffffffffffffffffffffffffffffff1663a9059cbb87846040518363ffffffff1660e01b81526004016120c3929190613055565b6020604051808303815f875af11580156120df573d5f803e3d5ffd5b505050506040513d601f19601f820116820180604052508101906121039190612d98565b5060015f898154811061211957612118612d0c565b5b905f5260205f2090600602016005015f6101000a81548160ff0219169083151502179055507faef3fec0890a84ad1cfab292c8504f17278c9b35213257cbc2c572cc622ae01586888786866040516121759594939291906130af565b60405180910390a15050505050505050565b5f80859050848173ffffffffffffffffffffffffffffffffffffffff166370a08231336040518263ffffffff1660e01b81526004016121c69190612fa3565b602060405180830381865afa1580156121e1573d5f803e3d5ffd5b505050506040513d601f19601f820116820180604052508101906122059190612fd0565b101561220f575f80fd5b5f858273ffffffffffffffffffffffffffffffffffffffff1663dd62ed3e33306040518363ffffffff1660e01b815260040161224c929190612ffb565b602060405180830381865afa158015612267573d5f803e3d5ffd5b505050506040513d601f19601f8201168201806040525081019061228b9190612fd0565b6122959190613022565b90508173ffffffffffffffffffffffffffffffffffffffff1663095ea7b330836040518363ffffffff1660e01b81526004016122d2929190613055565b6020604051808303815f875af11580156122ee573d5f803e3d5ffd5b505050506040513d601f19601f820116820180604052508101906123129190612d98565b505f6040518060c001604052803373ffffffffffffffffffffffffffffffffffffffff1681526020018973ffffffffffffffffffffffffffffffffffffffff1681526020018881526020018773ffffffffffffffffffffffffffffffffffffffff1681526020018681526020015f1515815250908060018154018082558091505060019003905f5260205f2090600602015f909190919091505f820151815f015f6101000a81548173ffffffffffffffffffffffffffffffffffffffff021916908373ffffffffffffffffffffffffffffffffffffffff1602179055506020820151816001015f6101000a81548173ffffffffffffffffffffffffffffffffffffffff021916908373ffffffffffffffffffffffffffffffffffffffff160217905550604082015181600201556060820151816003015f6101000a81548173ffffffffffffffffffffffffffffffffffffffff021916908373ffffffffffffffffffffffffffffffffffffffff1602179055506080820151816004015560a0820151816005015f6101000a81548160ff02191690831515021790555050507fb31b008e8a12db47dae24bda793ea0d4e1039d4e74c334ec8fed59d8a4e8052933888888886040516124e79594939291906130af565b60405180910390a160015f80549050612500919061307c565b92505050949350505050565b6040518060a001604052805f73ffffffffffffffffffffffffffffffffffffffff1681526020015f81526020015f73ffffffffffffffffffffffffffffffffffffffff1681526020015f81526020015f151581525090565b6040518060c001604052805f73ffffffffffffffffffffffffffffffffffffffff1681526020015f73ffffffffffffffffffffffffffffffffffffffff1681526020015f81526020015f73ffffffffffffffffffffffffffffffffffffffff1681526020015f81526020015f151581525090565b6040518060a001604052805f73ffffffffffffffffffffffffffffffffffffffff1681526020015f73ffffffffffffffffffffffffffffffffffffffff1681526020015f81526020015f81526020015f151581525090565b5f80fd5b5f819050919050565b61264681612634565b8114612650575f80fd5b50565b5f813590506126618161263d565b92915050565b5f6020828403121561267c5761267b612630565b5b5f61268984828501612653565b91505092915050565b5f73ffffffffffffffffffffffffffffffffffffffff82169050919050565b5f6126bb82612692565b9050919050565b6126cb816126b1565b82525050565b6126da81612634565b82525050565b5f8115159050919050565b6126f4816126e0565b82525050565b5f60a08201905061270d5f8301886126c2565b61271a60208301876126c2565b61272760408301866126d1565b61273460608301856126d1565b61274160808301846126eb565b9695505050505050565b5f81519050919050565b5f82825260208201905092915050565b5f819050602082019050919050565b61277d816126b1565b82525050565b61278c81612634565b82525050565b61279b816126e0565b82525050565b60a082015f8201516127b55f850182612774565b5060208201516127c86020850182612783565b5060408201516127db6040850182612774565b5060608201516127ee6060850182612783565b5060808201516128016080850182612792565b50505050565b5f61281283836127a1565b60a08301905092915050565b5f602082019050919050565b5f6128348261274b565b61283e8185612755565b935061284983612765565b805f5b838110156128795781516128608882612807565b975061286b8361281e565b92505060018101905061284c565b5085935050505092915050565b5f6020820190508181035f83015261289e818461282a565b905092915050565b6128af816126b1565b81146128b9575f80fd5b50565b5f813590506128ca816128a6565b92915050565b5f805f606084860312156128e7576128e6612630565b5b5f6128f4868287016128bc565b935050602061290586828701612653565b925050604061291686828701612653565b9150509250925092565b5f6020820190506129335f8301846126d1565b92915050565b5f81519050919050565b5f82825260208201905092915050565b5f819050602082019050919050565b60c082015f8201516129765f850182612774565b5060208201516129896020850182612774565b50604082015161299c6040850182612783565b5060608201516129af6060850182612774565b5060808201516129c26080850182612783565b5060a08201516129d560a0850182612792565b50505050565b5f6129e68383612962565b60c08301905092915050565b5f602082019050919050565b5f612a0882612939565b612a128185612943565b9350612a1d83612953565b805f5b83811015612a4d578151612a3488826129db565b9750612a3f836129f2565b925050600181019050612a20565b5085935050505092915050565b5f6020820190508181035f830152612a7281846129fe565b905092915050565b5f81519050919050565b5f82825260208201905092915050565b5f819050602082019050919050565b60a082015f820151612ab75f850182612774565b506020820151612aca6020850182612774565b506040820151612add6040850182612783565b506060820151612af06060850182612783565b506080820151612b036080850182612792565b50505050565b5f612b148383612aa3565b60a08301905092915050565b5f602082019050919050565b5f612b3682612a7a565b612b408185612a84565b9350612b4b83612a94565b805f5b83811015612b7b578151612b628882612b09565b9750612b6d83612b20565b925050600181019050612b4e565b5085935050505092915050565b5f6020820190508181035f830152612ba08184612b2c565b905092915050565b5f805f60608486031215612bbf57612bbe612630565b5b5f612bcc86828701612653565b9350506020612bdd868287016128bc565b9250506040612bee86828701612653565b9150509250925092565b5f60a082019050612c0b5f8301886126c2565b612c1860208301876126d1565b612c2560408301866126c2565b612c3260608301856126d1565b612c3f60808301846126eb565b9695505050505050565b5f60c082019050612c5c5f8301896126c2565b612c6960208301886126c2565b612c7660408301876126d1565b612c8360608301866126c2565b612c9060808301856126d1565b612c9d60a08301846126eb565b979650505050505050565b5f805f8060808587031215612cc057612cbf612630565b5b5f612ccd878288016128bc565b9450506020612cde87828801612653565b9350506040612cef878288016128bc565b9250506060612d0087828801612653565b91505092959194509250565b7f4e487b71000000000000000000000000000000000000000000000000000000005f52603260045260245ffd5b5f606082019050612d4c5f8301866126c2565b612d5960208301856126c2565b612d6660408301846126d1565b949350505050565b612d77816126e0565b8114612d81575f80fd5b50565b5f81519050612d9281612d6e565b92915050565b5f60208284031215612dad57612dac612630565b5b5f612dba84828501612d84565b91505092915050565b5f81905092915050565b50565b5f612ddb5f83612dc3565b9150612de682612dcd565b5f82019050919050565b5f612dfa82612dd0565b9150819050919050565b5f82825260208201905092915050565b7f4661696c656420746f2073656e642045746865720000000000000000000000005f82015250565b5f612e48601483612e04565b9150612e5382612e14565b602082019050919050565b5f6020820190508181035f830152612e7581612e3c565b9050919050565b5f608082019050612e8f5f8301876126c2565b612e9c60208301866126c2565b612ea960408301856126d1565b612eb660608301846126d1565b95945050505050565b5f608082019050612ed25f8301876126c2565b612edf60208301866126d1565b612eec60408301856126c2565b612ef960608301846126d1565b95945050505050565b7f4e487b71000000000000000000000000000000000000000000000000000000005f52604160045260245ffd5b7f4e487b71000000000000000000000000000000000000000000000000000000005f52601160045260245ffd5b5f612f6682612634565b91507fffffffffffffffffffffffffffffffffffffffffffffffffffffffffffffffff8203612f9857612f97612f2f565b5b600182019050919050565b5f602082019050612fb65f8301846126c2565b92915050565b5f81519050612fca8161263d565b92915050565b5f60208284031215612fe557612fe4612630565b5b5f612ff284828501612fbc565b91505092915050565b5f60408201905061300e5f8301856126c2565b61301b60208301846126c2565b9392505050565b5f61302c82612634565b915061303783612634565b925082820190508082111561304f5761304e612f2f565b5b92915050565b5f6040820190506130685f8301856126c2565b61307560208301846126d1565b9392505050565b5f61308682612634565b915061309183612634565b92508282039050818111156130a9576130a8612f2f565b5b92915050565b5f60a0820190506130c25f8301886126c2565b6130cf60208301876126c2565b6130dc60408301866126d1565b6130e960608301856126c2565b6130f660808301846126d1565b969550505050505056fea2646970667358221220f7b57ffe416578d9a730f83d8fbbfd4bd078a1626b1cf8132e61d89cb83d7c3164736f6c63430008140033",
  "immutableReferences": {},
  "source": "// SPDX-License-Identifier: UNLICENSED\npragma solidity 0.8.20;\n\nimport \"@openzeppelin/contracts/token/ERC20/ERC20.sol\";\n\ncontract Dex {\n\n  event EventAddToDexTradeTokensForTokens (\n    address sender,\n    address tradingTokenAddress,\n    uint tradingTokenAmount,\n    address tradingForTokenAddress,\n    uint tradingForTokenAmount\n  );\n\n  event EventAddToDexTradeTokensForEth (\n    address sender,\n    address tradingTokenAddress,\n    uint tradingTokenAmount,\n    uint tradingForEthAmount\n  );\n\n  event EventAddToDexTradeEthForTokens (\n    address sender,\n    uint tradingEthAmount,\n    address tradingForTokenAddress,\n    uint tradingForTokenAmount\n  );\n\n  event EventTradeTokensForTokens (\n    address sender,\n    address tradingTokenAddress,\n    uint tradingTokenAmount,\n    address tradingForTokenAddress,\n    uint tradingForTokenAmount\n  );\n\n  event EventTradeTokensForEth (\n    address sender,\n    address tradingTokenAddress,\n    uint tradingTokenAmount,\n    uint tradingForEthAmount\n  );\n\n  event EventTradeEthForTokens (\n    address sender,\n    uint tradingEthAmount,\n    address tradingForTokenAddress,\n    uint tradingForTokenAmount\n  );\n\n  event EventCanceledTradeTokensForTokens (\n    address sender,\n    address tradingTokenAddress,\n    uint tradingTokenAmount,\n    address tradingForTokenAddress,\n    uint tradingForTokenAmount\n  );\n\n  event EventCanceledTradeTokensForEth (\n    address sender,\n    address tradingTokenAddress,\n    uint tradingTokenAmount,\n    uint tradingForEthAmount\n  );\n\n  event EventCanceledTradeEthForTokens (\n    address sender,\n    uint tradingEthAmount,\n    address tradingForTokenAddress,\n    uint tradingForTokenAmount\n  );\n\n  struct TradeTokensForTokens {\n    address sender;\n    address tradingTokenAddress;\n    uint tradingTokenAmount;\n    address tradingForTokenAddress;\n    uint tradingForTokenAmount;\n    bool alreadyTraded;\n  }\n\n  struct TradeTokensForEth {\n    address sender;\n    address tradingTokenAddress;\n    uint tradingTokenAmount;\n    uint tradingForEthAmount;\n    bool alreadyTraded;\n  }\n\n  struct TradeEthForTokens {\n    address sender;\n    uint tradingEthAmount;\n    address tradingForTokenAddress;\n    uint tradingForTokenAmount;\n    bool alreadyTraded;\n  }\n\n  TradeTokensForTokens[] public tradeTokensForTokensArr;\n  TradeTokensForEth[] public tradeTokensForEthArr;\n  TradeEthForTokens[] public tradeEthForTokensArr;\n\n  address owner;\n\n  constructor() {\n    owner = msg.sender;\n  }\n\n  function addTokenToDexForTradeWithAnotherToken(\n    address tradingTokenAddress,\n    uint tradingTokenAmount,\n    address tradingForTokenAddress,\n    uint tradingForTokenAmount) public returns (uint indexOfTrade) {\n\n    ERC20 tradingErc20 = ERC20(tradingTokenAddress);\n\n    require(tradingErc20.balanceOf(msg.sender) >= tradingTokenAmount);\n\n    uint newAllowance = tradingErc20.allowance(msg.sender, address(this)) + tradingTokenAmount;\n    tradingErc20.approve(address(this), newAllowance);\n\n    tradeTokensForTokensArr.push(\n      TradeTokensForTokens(\n        msg.sender,\n        tradingTokenAddress,\n        tradingTokenAmount,\n        tradingForTokenAddress,\n        tradingForTokenAmount,\n        false\n    ));\n\n    emit EventAddToDexTradeTokensForTokens(\n      msg.sender,\n      tradingTokenAddress,\n      tradingTokenAmount,\n      tradingForTokenAddress,\n      tradingForTokenAmount\n    );\n\n    return tradeTokensForTokensArr.length - 1;\n  }\n\n  function addTokenToDexForTradeWithEth(\n    address tradingTokenAddress,\n    uint tradingTokenAmount,\n    uint tradingForEthAmount) public returns (uint indexOfTrade){\n\n    ERC20 tradingErc20 = ERC20(tradingTokenAddress);\n\n    require(tradingErc20.balanceOf(msg.sender) >= tradingTokenAmount);\n\n    uint newAllowance = tradingErc20.allowance(msg.sender, address(this)) + tradingTokenAmount;\n    tradingErc20.approve(address(this), newAllowance);\n\n    tradeTokensForEthArr.push(\n      TradeTokensForEth(\n        msg.sender,\n        tradingTokenAddress,\n        tradingTokenAmount,\n        tradingForEthAmount,\n        false\n    ));\n\n    emit EventAddToDexTradeTokensForEth(\n      msg.sender,\n      tradingTokenAddress,\n      tradingTokenAmount,\n      tradingForEthAmount\n    );\n\n    return tradeTokensForEthArr.length - 1;\n  }\n\n  function addEthToDexForTradeWithToken(\n    uint tradingEthAmount,\n    address tradingForTokenAddress,\n    uint tradingForTokenAmount) public payable returns (uint indexOfTrade) {\n\n    require(msg.value == tradingEthAmount);\n\n    tradeEthForTokensArr.push(\n      TradeEthForTokens(\n        msg.sender,\n        tradingEthAmount,\n        tradingForTokenAddress,\n        tradingForTokenAmount,\n        false\n    ));\n\n    emit EventAddToDexTradeEthForTokens(\n      msg.sender,\n      tradingEthAmount,\n      tradingForTokenAddress,\n      tradingForTokenAmount\n    );\n\n    return tradeEthForTokensArr.length - 1;\n  }\n\n  /* struct TradeTokensForTokens {\n    address sender;\n    uint tradingTokenAddress;\n    uint tradingTokenAmount;\n    uint tradingForTokenAddress;\n    uint tradingForTokenAmount;\n    bool alreadyTraded;\n  } */\n\n  function buyTokenFromAnotherToken(uint indexOfTrade) public {\n    require(tradeTokensForTokensArr[indexOfTrade].alreadyTraded != true);\n    address tradingTokenAddress = tradeTokensForTokensArr[indexOfTrade].tradingTokenAddress;\n    address sender = tradeTokensForTokensArr[indexOfTrade].sender;\n    uint tradingTokenAmount = tradeTokensForTokensArr[indexOfTrade].tradingTokenAmount;\n\n    ERC20 tradingErc20 = ERC20(tradingTokenAddress);\n    tradingErc20.transferFrom(sender, msg.sender, tradingTokenAmount);\n\n    address tradingForTokenAddress = tradeTokensForTokensArr[indexOfTrade].tradingForTokenAddress;\n    uint tradingForTokenAmount = tradeTokensForTokensArr[indexOfTrade].tradingForTokenAmount;\n\n    ERC20 tradingForErc20 = ERC20(tradingForTokenAddress);\n    tradingForErc20.transfer(sender, tradingForTokenAmount);\n\n    tradeTokensForTokensArr[indexOfTrade].alreadyTraded = true;\n\n    emit EventTradeTokensForTokens(\n      sender,\n      tradingTokenAddress,\n      tradingTokenAmount,\n      tradingForTokenAddress,\n      tradingForTokenAmount\n    );\n  }\n\n  /* event TradeTokensForTokens (\n    address sender,\n    address tradingTokenAddress,\n    uint tradingTokenAmount,\n    address tradingForTokenAddress,\n    uint tradingForTokenAmount\n  ) */\n\n  // TradeTokensForEth\n\n  /* struct TradeTokensForEth {\n    address sender;\n    uint tradingTokenAddress;\n    uint tradingTokenAmount;\n    uint tradingForEthAmount;\n    bool alreadyTraded;\n  } */\n\n  function buyTokensForEth(uint indexOfTrade) public payable {\n    require(tradeTokensForEthArr[indexOfTrade].alreadyTraded != true);\n    address sender = tradeTokensForEthArr[indexOfTrade].sender;\n    address tradingTokenAddress = tradeTokensForEthArr[indexOfTrade].tradingTokenAddress;\n    uint tradingTokenAmount = tradeTokensForEthArr[indexOfTrade].tradingTokenAmount;\n    uint tradingForEthAmount = tradeTokensForEthArr[indexOfTrade].tradingForEthAmount;\n\n    ERC20 tradingErc20 = ERC20(tradingTokenAddress);\n    tradingErc20.transferFrom(sender, msg.sender, tradingTokenAmount);\n\n    require(msg.value == tradingForEthAmount);\n\n    (bool sent,) = sender.call{value: msg.value}(\"\");\n    require(sent, \"Failed to send Ether\");\n\n    tradeTokensForEthArr[indexOfTrade].alreadyTraded = true;\n\n    emit EventTradeTokensForEth(\n      sender,\n      tradingTokenAddress,\n      tradingTokenAmount,\n      tradingForEthAmount\n    );\n  }\n\n  /* event TradeTokensForEth (\n    address sender,\n    address tradingTokenAddress,\n    uint tradingTokenAmount,\n    uint tradingForEthAmount\n  ); */\n\n  // TradeEthForTokens\n\n  /* struct TradeEthForTokens {\n    address sender;\n    uint tradingEthAmount;\n    uint tradingForTokenAddress;\n    uint tradingForTokenAmount;\n    bool alreadyTraded;\n  } */\n\n  function buyEthForTokens(uint indexOfTrade) public payable {\n    require(tradeEthForTokensArr[indexOfTrade].alreadyTraded != true);\n    address sender = tradeEthForTokensArr[indexOfTrade].sender;\n    uint tradingEthAmount = tradeEthForTokensArr[indexOfTrade].tradingEthAmount;\n    address tradingForTokenAddress = tradeEthForTokensArr[indexOfTrade].tradingForTokenAddress;\n    uint tradingForTokenAmount = tradeEthForTokensArr[indexOfTrade].tradingForTokenAmount;\n\n    ERC20 tradingForErc20 = ERC20(tradingForTokenAddress);\n    require(tradingForErc20.balanceOf(msg.sender) >= tradingForTokenAmount);\n    tradingForErc20.transfer(sender, tradingForTokenAmount);\n\n    (bool sent,) = payable(msg.sender).call{value: tradingEthAmount}(\"\");\n    require(sent, \"Failed to send Ether\");\n\n    tradeEthForTokensArr[indexOfTrade].alreadyTraded = true;\n\n    emit EventTradeEthForTokens(\n      sender,\n      tradingEthAmount,\n      tradingForTokenAddress,\n      tradingForTokenAmount\n    );\n  }\n\n  /* struct TradeTokensForTokens {\n    address sender;\n    uint tradingTokenAddress;\n    uint tradingTokenAmount;\n    uint tradingForTokenAddress;\n    uint tradingForTokenAmount;\n    bool alreadyTraded;\n  } */\n\n  function cancelTradeForTokensWithTokens(uint indexOfTrade) public {\n    tradeTokensForTokensArr[indexOfTrade].alreadyTraded = true;\n\n    address sender = tradeTokensForTokensArr[indexOfTrade].sender;\n\n    require(msg.sender == sender);\n\n    address tradingTokenAddress = tradeTokensForTokensArr[indexOfTrade].tradingTokenAddress;\n    uint tradingTokenAmount = tradeTokensForTokensArr[indexOfTrade].tradingTokenAmount;\n    address tradingForTokenAddress = tradeTokensForTokensArr[indexOfTrade].tradingForTokenAddress;\n    uint tradingForTokenAmount = tradeTokensForTokensArr[indexOfTrade].tradingForTokenAmount;\n\n    ERC20 tradingErc20 = ERC20(tradingTokenAddress);\n\n    uint newAllowance = tradingErc20.allowance(msg.sender, address(this)) - tradingTokenAmount;\n    tradingErc20.approve(address(this), newAllowance);\n\n    emit EventCanceledTradeTokensForTokens(\n      sender,\n      tradingTokenAddress,\n      tradingTokenAmount,\n      tradingForTokenAddress,\n      tradingForTokenAmount\n    );\n  }\n\n  /* struct TradeTokensForEth {\n    address sender;\n    uint tradingTokenAddress;\n    uint tradingTokenAmount;\n    uint tradingForEthAmount;\n    bool alreadyTraded;\n  } */\n\n  function cancelTradeForTokensWithEth(uint indexOfTrade) public {\n    tradeTokensForEthArr[indexOfTrade].alreadyTraded = true;\n\n    address sender = tradeTokensForEthArr[indexOfTrade].sender;\n\n    require(msg.sender == sender);\n\n    address tradingTokenAddress = tradeTokensForEthArr[indexOfTrade].tradingTokenAddress;\n    uint tradingTokenAmount = tradeTokensForEthArr[indexOfTrade].tradingTokenAmount;\n    uint tradingForEthAmount = tradeTokensForEthArr[indexOfTrade].tradingForEthAmount;\n\n    ERC20 tradingErc20 = ERC20(tradingTokenAddress);\n\n    uint newTradingAllowance = tradingErc20.allowance(msg.sender, address(this)) - tradingTokenAmount;\n    tradingErc20.approve(address(this), newTradingAllowance);\n\n    emit EventCanceledTradeTokensForEth(\n      sender,\n      tradingTokenAddress,\n      tradingTokenAmount,\n      tradingForEthAmount\n    );\n  }\n\n  /* struct TradeEthForTokens {\n    address sender;\n    uint tradingEthAmount;\n    address tradingForTokenAddress;\n    uint tradingForTokenAmount;\n    bool alreadyTraded;\n  } */\n\n  function cancelTradeForEthWithTokens(uint indexOfTrade) public payable {\n    tradeEthForTokensArr[indexOfTrade].alreadyTraded = true;\n\n    address sender = tradeEthForTokensArr[indexOfTrade].sender;\n\n    require(msg.sender == sender);\n\n    uint tradingEthAmount = tradeEthForTokensArr[indexOfTrade].tradingEthAmount;\n    address tradingForTokenAddress = tradeEthForTokensArr[indexOfTrade].tradingForTokenAddress;\n    uint tradingForTokenAmount = tradeEthForTokensArr[indexOfTrade].tradingForTokenAmount;\n\n    (bool sent,) = payable(msg.sender).call{value: tradingEthAmount}(\"\");\n    require(sent, \"Failed to send Ether\");\n\n    emit EventCanceledTradeEthForTokens(\n      sender,\n      tradingEthAmount,\n      tradingForTokenAddress,\n      tradingForTokenAmount\n    );\n  }\n\n  /* event TradeEthForTokens (\n    address sender,\n    uint tradingEthAmount,\n    uint tradingForTokenAddress,\n    uint tradingForTokenAmount\n  ); */\n\n  /* struct TradeTokensForTokens {\n    address sender;\n    uint tradingTokenAddress;\n    uint tradingTokenAmount;\n    uint tradingForTokenAddress;\n    uint tradingForTokenAmount;\n    bool alreadyTraded;\n  } */\n\n  function getTradesForTokenWithToken() public view returns (TradeTokensForTokens[] memory) {\n    TradeTokensForTokens[] memory tradeTokensForTokensResultArr =\n      new TradeTokensForTokens[](tradeTokensForTokensArr.length);\n\n    for (uint i = 0; i < tradeTokensForTokensArr.length; i++) {\n      tradeTokensForTokensResultArr[i] = tradeTokensForTokensArr[i];\n    }\n\n    return tradeTokensForTokensArr;\n  }\n\n  function getTradesForTokensWithEth() public view returns (TradeTokensForEth[] memory) {\n    TradeTokensForEth[] memory tradeTokensForEthResultArr =\n      new TradeTokensForEth[](tradeTokensForEthArr.length);\n\n    for (uint i = 0; i < tradeTokensForEthArr.length; i++) {\n      tradeTokensForEthResultArr[i] = tradeTokensForEthArr[i];\n    }\n\n    return tradeTokensForEthResultArr;\n  }\n\n  /* struct TradeEthForTokens {\n    address sender;\n    uint tradingEthAmount;\n    uint tradingForTokenAddress;\n    uint tradingForTokenAmount;\n    bool alreadyTraded;\n  } */\n\n  function getTradesForEthWithTokens() public view returns (TradeEthForTokens[] memory) {\n    TradeEthForTokens[] memory tradeEthForTokensResultArr =\n      new TradeEthForTokens[](tradeEthForTokensArr.length);\n\n    for (uint i = 0; i < tradeEthForTokensArr.length; i++) {\n      tradeEthForTokensResultArr[i] = tradeEthForTokensArr[i];\n    }\n\n    return tradeEthForTokensResultArr;\n  }\n\n}\n",
  "sourcePath": "/Users/zhiwen/code/dex/contracts/contracts/Dex.sol",
  "compiler": {
    "name": "solc",
    "version": "0.8.20+commit.a1b79de6.Emscripten.clang"
  },
  "schemaVersion": "3.4.16",
  "updatedAt": "2024-09-26T21:16:25.647Z",
  "networkType": "ethereum",
  "devdoc": {
    "kind": "dev",
    "methods": {},
    "version": 1
  },
  "userdoc": {
    "kind": "user",
    "methods": {},
    "version": 1
  }
}