{
  "contractName": "Dex",
  "abi": [
    {
      "inputs": [],
      "stateMutability": "nonpayable",
      "type": "constructor"
    },
    {
      "anonymous": false,
      "inputs": [
        {
          "indexed": false,
          "internalType": "address",
          "name": "sender",
          "type": "address"
        },
        {
          "indexed": false,
          "internalType": "uint256",
          "name": "indexOfTrade",
          "type": "uint256"
        },
        {
          "indexed": false,
          "internalType": "uint256",
          "name": "tradingEthAmount",
          "type": "uint256"
        },
        {
          "indexed": false,
          "internalType": "address",
          "name": "tradingForTokenAddress",
          "type": "address"
        },
        {
          "indexed": false,
          "internalType": "uint256",
          "name": "tradingForTokenAmount",
          "type": "uint256"
        }
      ],
      "name": "EventAddToDexTradeEthForTokens",
      "type": "event"
    },
    {
      "anonymous": false,
      "inputs": [
        {
          "indexed": false,
          "internalType": "address",
          "name": "sender",
          "type": "address"
        },
        {
          "indexed": false,
          "internalType": "uint256",
          "name": "indexOfTrade",
          "type": "uint256"
        },
        {
          "indexed": false,
          "internalType": "address",
          "name": "tradingTokenAddress",
          "type": "address"
        },
        {
          "indexed": false,
          "internalType": "uint256",
          "name": "tradingTokenAmount",
          "type": "uint256"
        },
        {
          "indexed": false,
          "internalType": "uint256",
          "name": "tradingForEthAmount",
          "type": "uint256"
        }
      ],
      "name": "EventAddToDexTradeTokensForEth",
      "type": "event"
    },
    {
      "anonymous": false,
      "inputs": [
        {
          "indexed": false,
          "internalType": "address",
          "name": "sender",
          "type": "address"
        },
        {
          "indexed": false,
          "internalType": "uint256",
          "name": "indexOfTrade",
          "type": "uint256"
        },
        {
          "indexed": false,
          "internalType": "address",
          "name": "tradingTokenAddress",
          "type": "address"
        },
        {
          "indexed": false,
          "internalType": "uint256",
          "name": "tradingTokenAmount",
          "type": "uint256"
        },
        {
          "indexed": false,
          "internalType": "address",
          "name": "tradingForTokenAddress",
          "type": "address"
        },
        {
          "indexed": false,
          "internalType": "uint256",
          "name": "tradingForTokenAmount",
          "type": "uint256"
        }
      ],
      "name": "EventAddToDexTradeTokensForTokens",
      "type": "event"
    },
    {
      "anonymous": false,
      "inputs": [
        {
          "indexed": false,
          "internalType": "address",
          "name": "sender",
          "type": "address"
        },
        {
          "indexed": false,
          "internalType": "uint256",
          "name": "indexOfTrade",
          "type": "uint256"
        },
        {
          "indexed": false,
          "internalType": "uint256",
          "name": "tradingEthAmount",
          "type": "uint256"
        },
        {
          "indexed": false,
          "internalType": "address",
          "name": "tradingForTokenAddress",
          "type": "address"
        },
        {
          "indexed": false,
          "internalType": "uint256",
          "name": "tradingForTokenAmount",
          "type": "uint256"
        }
      ],
      "name": "EventCanceledTradeEthForTokens",
      "type": "event"
    },
    {
      "anonymous": false,
      "inputs": [
        {
          "indexed": false,
          "internalType": "address",
          "name": "sender",
          "type": "address"
        },
        {
          "indexed": false,
          "internalType": "uint256",
          "name": "indexOfTrade",
          "type": "uint256"
        },
        {
          "indexed": false,
          "internalType": "address",
          "name": "tradingTokenAddress",
          "type": "address"
        },
        {
          "indexed": false,
          "internalType": "uint256",
          "name": "tradingTokenAmount",
          "type": "uint256"
        },
        {
          "indexed": false,
          "internalType": "uint256",
          "name": "tradingForEthAmount",
          "type": "uint256"
        }
      ],
      "name": "EventCanceledTradeTokensForEth",
      "type": "event"
    },
    {
      "anonymous": false,
      "inputs": [
        {
          "indexed": false,
          "internalType": "address",
          "name": "sender",
          "type": "address"
        },
        {
          "indexed": false,
          "internalType": "uint256",
          "name": "indexOfTrade",
          "type": "uint256"
        },
        {
          "indexed": false,
          "internalType": "address",
          "name": "tradingTokenAddress",
          "type": "address"
        },
        {
          "indexed": false,
          "internalType": "uint256",
          "name": "tradingTokenAmount",
          "type": "uint256"
        },
        {
          "indexed": false,
          "internalType": "address",
          "name": "tradingForTokenAddress",
          "type": "address"
        },
        {
          "indexed": false,
          "internalType": "uint256",
          "name": "tradingForTokenAmount",
          "type": "uint256"
        }
      ],
      "name": "EventCanceledTradeTokensForTokens",
      "type": "event"
    },
    {
      "anonymous": false,
      "inputs": [
        {
          "indexed": false,
          "internalType": "address",
          "name": "sender",
          "type": "address"
        },
        {
          "indexed": false,
          "internalType": "uint256",
          "name": "indexOfTrade",
          "type": "uint256"
        },
        {
          "indexed": false,
          "internalType": "uint256",
          "name": "tradingEthAmount",
          "type": "uint256"
        },
        {
          "indexed": false,
          "internalType": "address",
          "name": "tradingForTokenAddress",
          "type": "address"
        },
        {
          "indexed": false,
          "internalType": "uint256",
          "name": "tradingForTokenAmount",
          "type": "uint256"
        },
        {
          "indexed": false,
          "internalType": "address",
          "name": "orderCompletedBy",
          "type": "address"
        }
      ],
      "name": "EventTradeEthForTokens",
      "type": "event"
    },
    {
      "anonymous": false,
      "inputs": [
        {
          "indexed": false,
          "internalType": "address",
          "name": "sender",
          "type": "address"
        },
        {
          "indexed": false,
          "internalType": "uint256",
          "name": "indexOfTrade",
          "type": "uint256"
        },
        {
          "indexed": false,
          "internalType": "address",
          "name": "tradingTokenAddress",
          "type": "address"
        },
        {
          "indexed": false,
          "internalType": "uint256",
          "name": "tradingTokenAmount",
          "type": "uint256"
        },
        {
          "indexed": false,
          "internalType": "uint256",
          "name": "tradingForEthAmount",
          "type": "uint256"
        },
        {
          "indexed": false,
          "internalType": "address",
          "name": "orderCompletedBy",
          "type": "address"
        }
      ],
      "name": "EventTradeTokensForEth",
      "type": "event"
    },
    {
      "anonymous": false,
      "inputs": [
        {
          "indexed": false,
          "internalType": "address",
          "name": "sender",
          "type": "address"
        },
        {
          "indexed": false,
          "internalType": "uint256",
          "name": "indexOfTrade",
          "type": "uint256"
        },
        {
          "indexed": false,
          "internalType": "address",
          "name": "tradingTokenAddress",
          "type": "address"
        },
        {
          "indexed": false,
          "internalType": "uint256",
          "name": "tradingTokenAmount",
          "type": "uint256"
        },
        {
          "indexed": false,
          "internalType": "address",
          "name": "tradingForTokenAddress",
          "type": "address"
        },
        {
          "indexed": false,
          "internalType": "uint256",
          "name": "tradingForTokenAmount",
          "type": "uint256"
        },
        {
          "indexed": false,
          "internalType": "address",
          "name": "orderCompletedBy",
          "type": "address"
        }
      ],
      "name": "EventTradeTokensForTokens",
      "type": "event"
    },
    {
      "stateMutability": "payable",
      "type": "fallback",
      "payable": true
    },
    {
      "inputs": [
        {
          "internalType": "uint256",
          "name": "",
          "type": "uint256"
        }
      ],
      "name": "dexUsersArr",
      "outputs": [
        {
          "internalType": "address",
          "name": "",
          "type": "address"
        }
      ],
      "stateMutability": "view",
      "type": "function",
      "constant": true
    },
    {
      "inputs": [
        {
          "internalType": "address",
          "name": "",
          "type": "address"
        },
        {
          "internalType": "uint256",
          "name": "",
          "type": "uint256"
        }
      ],
      "name": "tradesOfEthForTokensOfAnAddress",
      "outputs": [
        {
          "internalType": "uint256",
          "name": "tradingEthAmount",
          "type": "uint256"
        },
        {
          "internalType": "address",
          "name": "tradingForTokenAddress",
          "type": "address"
        },
        {
          "internalType": "uint256",
          "name": "tradingForTokenAmount",
          "type": "uint256"
        },
        {
          "internalType": "bool",
          "name": "alreadyTraded",
          "type": "bool"
        }
      ],
      "stateMutability": "view",
      "type": "function",
      "constant": true
    },
    {
      "inputs": [
        {
          "internalType": "address",
          "name": "",
          "type": "address"
        },
        {
          "internalType": "uint256",
          "name": "",
          "type": "uint256"
        }
      ],
      "name": "tradesOfTokensForEthOfAnAddress",
      "outputs": [
        {
          "internalType": "address",
          "name": "tradingTokenAddress",
          "type": "address"
        },
        {
          "internalType": "uint256",
          "name": "tradingTokenAmount",
          "type": "uint256"
        },
        {
          "internalType": "uint256",
          "name": "tradingForEthAmount",
          "type": "uint256"
        },
        {
          "internalType": "bool",
          "name": "alreadyTraded",
          "type": "bool"
        }
      ],
      "stateMutability": "view",
      "type": "function",
      "constant": true
    },
    {
      "inputs": [
        {
          "internalType": "address",
          "name": "",
          "type": "address"
        },
        {
          "internalType": "uint256",
          "name": "",
          "type": "uint256"
        }
      ],
      "name": "tradesOfTokensForTokensOfAnAddress",
      "outputs": [
        {
          "internalType": "address",
          "name": "tradingTokenAddress",
          "type": "address"
        },
        {
          "internalType": "uint256",
          "name": "tradingTokenAmount",
          "type": "uint256"
        },
        {
          "internalType": "address",
          "name": "tradingForTokenAddress",
          "type": "address"
        },
        {
          "internalType": "uint256",
          "name": "tradingForTokenAmount",
          "type": "uint256"
        },
        {
          "internalType": "bool",
          "name": "alreadyTraded",
          "type": "bool"
        }
      ],
      "stateMutability": "view",
      "type": "function",
      "constant": true
    },
    {
      "inputs": [
        {
          "internalType": "address",
          "name": "tradingTokenAddress",
          "type": "address"
        },
        {
          "internalType": "uint256",
          "name": "tradingTokenAmount",
          "type": "uint256"
        },
        {
          "internalType": "address",
          "name": "tradingForTokenAddress",
          "type": "address"
        },
        {
          "internalType": "uint256",
          "name": "tradingForTokenAmount",
          "type": "uint256"
        }
      ],
      "name": "addTokensToDexForTradeWithOtherTokens",
      "outputs": [],
      "stateMutability": "nonpayable",
      "type": "function"
    },
    {
      "inputs": [
        {
          "internalType": "address",
          "name": "tradingTokenAddress",
          "type": "address"
        },
        {
          "internalType": "uint256",
          "name": "tradingTokenAmount",
          "type": "uint256"
        },
        {
          "internalType": "uint256",
          "name": "tradingForEthAmount",
          "type": "uint256"
        }
      ],
      "name": "addTokensToDexForTradeWithEth",
      "outputs": [],
      "stateMutability": "nonpayable",
      "type": "function"
    },
    {
      "inputs": [
        {
          "internalType": "uint256",
          "name": "tradingEthAmount",
          "type": "uint256"
        },
        {
          "internalType": "address",
          "name": "tradingForTokenAddress",
          "type": "address"
        },
        {
          "internalType": "uint256",
          "name": "tradingForTokenAmount",
          "type": "uint256"
        }
      ],
      "name": "addEthToDexForTradeWithTokens",
      "outputs": [],
      "stateMutability": "payable",
      "type": "function",
      "payable": true
    },
    {
      "inputs": [
        {
          "internalType": "address",
          "name": "sender",
          "type": "address"
        },
        {
          "internalType": "uint256",
          "name": "indexOfTrade",
          "type": "uint256"
        }
      ],
      "name": "buyTokensFromTokens",
      "outputs": [],
      "stateMutability": "nonpayable",
      "type": "function"
    },
    {
      "inputs": [
        {
          "internalType": "address",
          "name": "sender",
          "type": "address"
        },
        {
          "internalType": "uint256",
          "name": "indexOfTrade",
          "type": "uint256"
        }
      ],
      "name": "buyTokensForEth",
      "outputs": [],
      "stateMutability": "payable",
      "type": "function",
      "payable": true
    },
    {
      "inputs": [
        {
          "internalType": "address",
          "name": "sender",
          "type": "address"
        },
        {
          "internalType": "uint256",
          "name": "indexOfTrade",
          "type": "uint256"
        }
      ],
      "name": "buyEthForTokens",
      "outputs": [],
      "stateMutability": "payable",
      "type": "function",
      "payable": true
    },
    {
      "inputs": [
        {
          "internalType": "address",
          "name": "sender",
          "type": "address"
        },
        {
          "internalType": "uint256",
          "name": "indexOfTrade",
          "type": "uint256"
        }
      ],
      "name": "cancelTradeForTokensWithTokens",
      "outputs": [],
      "stateMutability": "nonpayable",
      "type": "function"
    },
    {
      "inputs": [
        {
          "internalType": "address",
          "name": "sender",
          "type": "address"
        },
        {
          "internalType": "uint256",
          "name": "indexOfTrade",
          "type": "uint256"
        }
      ],
      "name": "cancelTradeForTokensWithEth",
      "outputs": [],
      "stateMutability": "nonpayable",
      "type": "function"
    },
    {
      "inputs": [
        {
          "internalType": "address",
          "name": "sender",
          "type": "address"
        },
        {
          "internalType": "uint256",
          "name": "indexOfTrade",
          "type": "uint256"
        }
      ],
      "name": "cancelTradeForEthWithTokens",
      "outputs": [],
      "stateMutability": "payable",
      "type": "function",
      "payable": true
    },
    {
      "inputs": [],
      "name": "getAllTrades",
      "outputs": [
        {
          "components": [
            {
              "components": [
                {
                  "internalType": "address",
                  "name": "sender",
                  "type": "address"
                },
                {
                  "internalType": "uint256",
                  "name": "indexOfTradeOfAddress",
                  "type": "uint256"
                },
                {
                  "internalType": "address",
                  "name": "tradingTokenAddress",
                  "type": "address"
                },
                {
                  "internalType": "uint256",
                  "name": "tradingTokenAmount",
                  "type": "uint256"
                },
                {
                  "internalType": "address",
                  "name": "tradingForTokenAddress",
                  "type": "address"
                },
                {
                  "internalType": "uint256",
                  "name": "tradingForTokenAmount",
                  "type": "uint256"
                },
                {
                  "internalType": "bool",
                  "name": "alreadyTraded",
                  "type": "bool"
                }
              ],
              "internalType": "struct Dex.TradeTokensForTokensForCall[]",
              "name": "tradeTokensForTokensForCall",
              "type": "tuple[]"
            },
            {
              "components": [
                {
                  "internalType": "address",
                  "name": "sender",
                  "type": "address"
                },
                {
                  "internalType": "uint256",
                  "name": "indexOfTradeOfAddress",
                  "type": "uint256"
                },
                {
                  "internalType": "address",
                  "name": "tradingTokenAddress",
                  "type": "address"
                },
                {
                  "internalType": "uint256",
                  "name": "tradingTokenAmount",
                  "type": "uint256"
                },
                {
                  "internalType": "uint256",
                  "name": "tradingForEthAmount",
                  "type": "uint256"
                },
                {
                  "internalType": "bool",
                  "name": "alreadyTraded",
                  "type": "bool"
                }
              ],
              "internalType": "struct Dex.TradeTokensForEthForCall[]",
              "name": "tradeTokensForEthForCall",
              "type": "tuple[]"
            },
            {
              "components": [
                {
                  "internalType": "address",
                  "name": "sender",
                  "type": "address"
                },
                {
                  "internalType": "uint256",
                  "name": "indexOfTradeOfAddress",
                  "type": "uint256"
                },
                {
                  "internalType": "uint256",
                  "name": "tradingEthAmount",
                  "type": "uint256"
                },
                {
                  "internalType": "address",
                  "name": "tradingForTokenAddress",
                  "type": "address"
                },
                {
                  "internalType": "uint256",
                  "name": "tradingForTokenAmount",
                  "type": "uint256"
                },
                {
                  "internalType": "bool",
                  "name": "alreadyTraded",
                  "type": "bool"
                }
              ],
              "internalType": "struct Dex.TradeEthForTokensForCall[]",
              "name": "tradeEthForTokensForCall",
              "type": "tuple[]"
            }
          ],
          "internalType": "struct Dex.AllTrades",
          "name": "",
          "type": "tuple"
        }
      ],
      "stateMutability": "view",
      "type": "function",
      "constant": true
    },
    {
      "inputs": [],
      "name": "getDexUsers",
      "outputs": [
        {
          "internalType": "address[]",
          "name": "",
          "type": "address[]"
        }
      ],
      "stateMutability": "view",
      "type": "function",
      "constant": true
    }
  ],
  "bytecode": "0x608060405234801561000f575f80fd5b503360055f6101000a81548173ffffffffffffffffffffffffffffffffffffffff021916908373ffffffffffffffffffffffffffffffffffffffff160217905550614bb18061005d5f395ff3fe6080604052600436106100eb575f3560e01c80637f1ca38b11610089578063be53210911610058578063be532109146102b3578063ce99c0ce146102f2578063e39c40fc1461031c578063fd9c885314610338576100ec565b80637f1ca38b1461022b5780638c69cd8414610253578063a1179c721461026f578063a306802f14610297576100ec565b80633b66082a116100c55780633b66082a1461017357806359560382146101b35780636a3c34f1146101db578063748d6a7414610203576100ec565b806308973378146100ee5780630bc07cef146101185780631cdec04214610157576100ec565b5b005b3480156100f9575f80fd5b50610102610374565b60405161010f9190613e7d565b60405180910390f35b348015610123575f80fd5b5061013e60048036038101906101399190613efe565b6103ff565b60405161014e9493929190613f74565b60405180910390f35b610171600480360381019061016c9190613efe565b610470565b005b34801561017e575f80fd5b5061019960048036038101906101949190613efe565b610b3c565b6040516101aa959493929190613fb7565b60405180910390f35b3480156101be575f80fd5b506101d960048036038101906101d49190613efe565b610bd1565b005b3480156101e6575f80fd5b5061020160048036038101906101fc9190613efe565b610e71565b005b34801561020e575f80fd5b5061022960048036038101906102249190613efe565b611675565b005b348015610236575f80fd5b50610251600480360381019061024c9190614008565b61198f565b005b61026d60048036038101906102689190613efe565b611dae565b005b34801561027a575f80fd5b5061029560048036038101906102909190614058565b6122c0565b005b6102b160048036038101906102ac91906140bc565b612777565b005b3480156102be575f80fd5b506102d960048036038101906102d49190613efe565b612ba2565b6040516102e9949392919061410c565b60405180910390f35b3480156102fd575f80fd5b50610306612c13565b604051610313919061453e565b60405180910390f35b61033660048036038101906103319190613efe565b61385d565b005b348015610343575f80fd5b5061035e6004803603810190610359919061455e565b613c04565b60405161036b9190614589565b60405180910390f35b606060038054806020026020016040519081016040528092919081815260200182805480156103f557602002820191905f5260205f20905b815f9054906101000a900473ffffffffffffffffffffffffffffffffffffffff1673ffffffffffffffffffffffffffffffffffffffff16815260200190600101908083116103ac575b5050505050905090565b6001602052815f5260405f208181548110610418575f80fd5b905f5260205f2090600402015f9150915050805f015f9054906101000a900473ffffffffffffffffffffffffffffffffffffffff1690806001015490806002015490806003015f9054906101000a900460ff16905084565b3373ffffffffffffffffffffffffffffffffffffffff168273ffffffffffffffffffffffffffffffffffffffff16036104a7575f80fd5b6001151560025f8473ffffffffffffffffffffffffffffffffffffffff1673ffffffffffffffffffffffffffffffffffffffff1681526020019081526020015f2082815481106104fa576104f96145a2565b5b905f5260205f2090600402016003015f9054906101000a900460ff16151503610521575f80fd5b5f60025f8473ffffffffffffffffffffffffffffffffffffffff1673ffffffffffffffffffffffffffffffffffffffff1681526020019081526020015f208281548110610571576105706145a2565b5b905f5260205f2090600402016001015f9054906101000a900473ffffffffffffffffffffffffffffffffffffffff16905060025f8473ffffffffffffffffffffffffffffffffffffffff1673ffffffffffffffffffffffffffffffffffffffff1681526020019081526020015f2082815481106105f1576105f06145a2565b5b905f5260205f209060040201600201548173ffffffffffffffffffffffffffffffffffffffff166370a08231336040518263ffffffff1660e01b815260040161063a9190614589565b602060405180830381865afa158015610655573d5f803e3d5ffd5b505050506040513d601f19601f8201168201806040525081019061067991906145e3565b1015610683575f80fd5b60025f8473ffffffffffffffffffffffffffffffffffffffff1673ffffffffffffffffffffffffffffffffffffffff1681526020019081526020015f2082815481106106d2576106d16145a2565b5b905f5260205f209060040201600201548173ffffffffffffffffffffffffffffffffffffffff1663dd62ed3e33306040518363ffffffff1660e01b815260040161071d92919061460e565b602060405180830381865afa158015610738573d5f803e3d5ffd5b505050506040513d601f19601f8201168201806040525081019061075c91906145e3565b1015610766575f80fd5b8073ffffffffffffffffffffffffffffffffffffffff166323b872dd338560025f8873ffffffffffffffffffffffffffffffffffffffff1673ffffffffffffffffffffffffffffffffffffffff1681526020019081526020015f2086815481106107d3576107d26145a2565b5b905f5260205f209060040201600201546040518463ffffffff1660e01b815260040161080193929190614635565b6020604051808303815f875af115801561081d573d5f803e3d5ffd5b505050506040513d601f19601f820116820180604052508101906108419190614694565b505f3373ffffffffffffffffffffffffffffffffffffffff1660025f8673ffffffffffffffffffffffffffffffffffffffff1673ffffffffffffffffffffffffffffffffffffffff1681526020019081526020015f2084815481106108a9576108a86145a2565b5b905f5260205f2090600402015f01546040516108c4906146ec565b5f6040518083038185875af1925050503d805f81146108fe576040519150601f19603f3d011682016040523d82523d5f602084013e610903565b606091505b5050905080610947576040517f08c379a000000000000000000000000000000000000000000000000000000000815260040161093e9061475a565b60405180910390fd5b600160025f8673ffffffffffffffffffffffffffffffffffffffff1673ffffffffffffffffffffffffffffffffffffffff1681526020019081526020015f208481548110610998576109976145a2565b5b905f5260205f2090600402016003015f6101000a81548160ff0219169083151502179055507f939bddfc94723dfe1a94b37a7828c73e510a1069f02bbef1058db8680fc9b737848460025f8873ffffffffffffffffffffffffffffffffffffffff1673ffffffffffffffffffffffffffffffffffffffff1681526020019081526020015f208681548110610a2f57610a2e6145a2565b5b905f5260205f2090600402015f015460025f8973ffffffffffffffffffffffffffffffffffffffff1673ffffffffffffffffffffffffffffffffffffffff1681526020019081526020015f208781548110610a8d57610a8c6145a2565b5b905f5260205f2090600402016001015f9054906101000a900473ffffffffffffffffffffffffffffffffffffffff1660025f8a73ffffffffffffffffffffffffffffffffffffffff1673ffffffffffffffffffffffffffffffffffffffff1681526020019081526020015f208881548110610b0b57610b0a6145a2565b5b905f5260205f2090600402016002015433604051610b2e96959493929190614778565b60405180910390a150505050565b5f602052815f5260405f208181548110610b54575f80fd5b905f5260205f2090600502015f9150915050805f015f9054906101000a900473ffffffffffffffffffffffffffffffffffffffff1690806001015490806002015f9054906101000a900473ffffffffffffffffffffffffffffffffffffffff1690806003015490806004015f9054906101000a900460ff16905085565b8173ffffffffffffffffffffffffffffffffffffffff163373ffffffffffffffffffffffffffffffffffffffff1614610c08575f80fd5b5f151560015f8473ffffffffffffffffffffffffffffffffffffffff1673ffffffffffffffffffffffffffffffffffffffff1681526020019081526020015f208281548110610c5a57610c596145a2565b5b905f5260205f2090600402016003015f9054906101000a900460ff16151514610c81575f80fd5b6001805f8473ffffffffffffffffffffffffffffffffffffffff1673ffffffffffffffffffffffffffffffffffffffff1681526020019081526020015f208281548110610cd157610cd06145a2565b5b905f5260205f2090600402016003015f6101000a81548160ff0219169083151502179055507f39512ac5e172c09a82461ef4eb9469d1dd9e84b90d14af11b1494c5830f8be30828260015f8673ffffffffffffffffffffffffffffffffffffffff1673ffffffffffffffffffffffffffffffffffffffff1681526020019081526020015f208481548110610d6857610d676145a2565b5b905f5260205f2090600402015f015f9054906101000a900473ffffffffffffffffffffffffffffffffffffffff1660015f8773ffffffffffffffffffffffffffffffffffffffff1673ffffffffffffffffffffffffffffffffffffffff1681526020019081526020015f208581548110610de557610de46145a2565b5b905f5260205f2090600402016001015460015f8873ffffffffffffffffffffffffffffffffffffffff1673ffffffffffffffffffffffffffffffffffffffff1681526020019081526020015f208681548110610e4457610e436145a2565b5b905f5260205f20906004020160020154604051610e659594939291906147d7565b60405180910390a15050565b3373ffffffffffffffffffffffffffffffffffffffff168273ffffffffffffffffffffffffffffffffffffffff1603610ea8575f80fd5b600115155f808473ffffffffffffffffffffffffffffffffffffffff1673ffffffffffffffffffffffffffffffffffffffff1681526020019081526020015f208281548110610efa57610ef96145a2565b5b905f5260205f2090600502016004015f9054906101000a900460ff16151503610f21575f80fd5b5f805f8473ffffffffffffffffffffffffffffffffffffffff1673ffffffffffffffffffffffffffffffffffffffff1681526020019081526020015f208281548110610f7057610f6f6145a2565b5b905f5260205f2090600502015f015f9054906101000a900473ffffffffffffffffffffffffffffffffffffffff1690508073ffffffffffffffffffffffffffffffffffffffff166323b872dd84335f808873ffffffffffffffffffffffffffffffffffffffff1673ffffffffffffffffffffffffffffffffffffffff1681526020019081526020015f20868154811061100c5761100b6145a2565b5b905f5260205f209060050201600101546040518463ffffffff1660e01b815260040161103a93929190614635565b6020604051808303815f875af1158015611056573d5f803e3d5ffd5b505050506040513d601f19601f8201168201806040525081019061107a9190614694565b505f805f8573ffffffffffffffffffffffffffffffffffffffff1673ffffffffffffffffffffffffffffffffffffffff1681526020019081526020015f2083815481106110ca576110c96145a2565b5b905f5260205f2090600502016002015f9054906101000a900473ffffffffffffffffffffffffffffffffffffffff1690505f808573ffffffffffffffffffffffffffffffffffffffff1673ffffffffffffffffffffffffffffffffffffffff1681526020019081526020015f208381548110611149576111486145a2565b5b905f5260205f209060050201600301548173ffffffffffffffffffffffffffffffffffffffff166370a08231336040518263ffffffff1660e01b81526004016111929190614589565b602060405180830381865afa1580156111ad573d5f803e3d5ffd5b505050506040513d601f19601f820116820180604052508101906111d191906145e3565b1015611212576040517f08c379a000000000000000000000000000000000000000000000000000000000815260040161120990614872565b60405180910390fd5b5f808573ffffffffffffffffffffffffffffffffffffffff1673ffffffffffffffffffffffffffffffffffffffff1681526020019081526020015f2083815481106112605761125f6145a2565b5b905f5260205f209060050201600301548173ffffffffffffffffffffffffffffffffffffffff1663dd62ed3e33306040518363ffffffff1660e01b81526004016112ab92919061460e565b602060405180830381865afa1580156112c6573d5f803e3d5ffd5b505050506040513d601f19601f820116820180604052508101906112ea91906145e3565b101561132b576040517f08c379a0000000000000000000000000000000000000000000000000000000008152600401611322906148da565b60405180910390fd5b8073ffffffffffffffffffffffffffffffffffffffff166323b872dd33865f808973ffffffffffffffffffffffffffffffffffffffff1673ffffffffffffffffffffffffffffffffffffffff1681526020019081526020015f208781548110611397576113966145a2565b5b905f5260205f209060050201600301546040518463ffffffff1660e01b81526004016113c593929190614635565b6020604051808303815f875af11580156113e1573d5f803e3d5ffd5b505050506040513d601f19601f820116820180604052508101906114059190614694565b5060015f808673ffffffffffffffffffffffffffffffffffffffff1673ffffffffffffffffffffffffffffffffffffffff1681526020019081526020015f208481548110611456576114556145a2565b5b905f5260205f2090600502016004015f6101000a81548160ff0219169083151502179055507f19a60cab51f12e292294e2938f67526bcef39bc48bf1eee59585d3ad6001d88984845f808873ffffffffffffffffffffffffffffffffffffffff1673ffffffffffffffffffffffffffffffffffffffff1681526020019081526020015f2086815481106114ec576114eb6145a2565b5b905f5260205f2090600502015f015f9054906101000a900473ffffffffffffffffffffffffffffffffffffffff165f808973ffffffffffffffffffffffffffffffffffffffff1673ffffffffffffffffffffffffffffffffffffffff1681526020019081526020015f208781548110611568576115676145a2565b5b905f5260205f209060050201600101545f808a73ffffffffffffffffffffffffffffffffffffffff1673ffffffffffffffffffffffffffffffffffffffff1681526020019081526020015f2088815481106115c6576115c56145a2565b5b905f5260205f2090600502016002015f9054906101000a900473ffffffffffffffffffffffffffffffffffffffff165f808b73ffffffffffffffffffffffffffffffffffffffff1673ffffffffffffffffffffffffffffffffffffffff1681526020019081526020015f208981548110611643576116426145a2565b5b905f5260205f209060050201600301543360405161166797969594939291906148f8565b60405180910390a150505050565b8173ffffffffffffffffffffffffffffffffffffffff163373ffffffffffffffffffffffffffffffffffffffff16146116ac575f80fd5b5f15155f808473ffffffffffffffffffffffffffffffffffffffff1673ffffffffffffffffffffffffffffffffffffffff1681526020019081526020015f2082815481106116fd576116fc6145a2565b5b905f5260205f2090600502016004015f9054906101000a900460ff16151514611724575f80fd5b60015f808473ffffffffffffffffffffffffffffffffffffffff1673ffffffffffffffffffffffffffffffffffffffff1681526020019081526020015f208281548110611774576117736145a2565b5b905f5260205f2090600502016004015f6101000a81548160ff0219169083151502179055507fbfa95375e459bbd89322e4b788211eac11a3d4916e2ec1a88f0f8e3e623ffab782825f808673ffffffffffffffffffffffffffffffffffffffff1673ffffffffffffffffffffffffffffffffffffffff1681526020019081526020015f20848154811061180a576118096145a2565b5b905f5260205f2090600502015f015f9054906101000a900473ffffffffffffffffffffffffffffffffffffffff165f808773ffffffffffffffffffffffffffffffffffffffff1673ffffffffffffffffffffffffffffffffffffffff1681526020019081526020015f208581548110611886576118856145a2565b5b905f5260205f209060050201600101545f808873ffffffffffffffffffffffffffffffffffffffff1673ffffffffffffffffffffffffffffffffffffffff1681526020019081526020015f2086815481106118e4576118e36145a2565b5b905f5260205f2090600502016002015f9054906101000a900473ffffffffffffffffffffffffffffffffffffffff165f808973ffffffffffffffffffffffffffffffffffffffff1673ffffffffffffffffffffffffffffffffffffffff1681526020019081526020015f208781548110611961576119606145a2565b5b905f5260205f2090600502016003015460405161198396959493929190614965565b60405180910390a15050565b60015f3373ffffffffffffffffffffffffffffffffffffffff1673ffffffffffffffffffffffffffffffffffffffff1681526020019081526020015f2060405180608001604052808573ffffffffffffffffffffffffffffffffffffffff1681526020018481526020018381526020015f1515815250908060018154018082558091505060019003905f5260205f2090600402015f909190919091505f820151815f015f6101000a81548173ffffffffffffffffffffffffffffffffffffffff021916908373ffffffffffffffffffffffffffffffffffffffff16021790555060208201518160010155604082015181600201556060820151816003015f6101000a81548160ff02191690831515021790555050507fcbb2baf7f0878f163f373ce81dcee352d496f2e3e7de9ded7223b6ffb02c5ed2336001805f3373ffffffffffffffffffffffffffffffffffffffff1673ffffffffffffffffffffffffffffffffffffffff1681526020019081526020015f2080549050611b1291906149f1565b858585604051611b269594939291906147d7565b60405180910390a15f151560045f3373ffffffffffffffffffffffffffffffffffffffff1673ffffffffffffffffffffffffffffffffffffffff1681526020019081526020015f205f015f9054906101000a900460ff161515148015611bdb57505f151560045f3373ffffffffffffffffffffffffffffffffffffffff1673ffffffffffffffffffffffffffffffffffffffff1681526020019081526020015f205f0160019054906101000a900460ff161515145b8015611c3657505f151560045f3373ffffffffffffffffffffffffffffffffffffffff1673ffffffffffffffffffffffffffffffffffffffff1681526020019081526020015f205f0160029054906101000a900460ff161515145b15611cf857600333908060018154018082558091505060019003905f5260205f20015f9091909190916101000a81548173ffffffffffffffffffffffffffffffffffffffff021916908373ffffffffffffffffffffffffffffffffffffffff160217905550600160045f3373ffffffffffffffffffffffffffffffffffffffff1673ffffffffffffffffffffffffffffffffffffffff1681526020019081526020015f205f0160016101000a81548160ff021916908315150217905550611da9565b5f151560045f3373ffffffffffffffffffffffffffffffffffffffff1673ffffffffffffffffffffffffffffffffffffffff1681526020019081526020015f205f0160019054906101000a900460ff16151503611da857600160045f3373ffffffffffffffffffffffffffffffffffffffff1673ffffffffffffffffffffffffffffffffffffffff1681526020019081526020015f205f0160016101000a81548160ff0219169083151502179055505b5b505050565b3373ffffffffffffffffffffffffffffffffffffffff168273ffffffffffffffffffffffffffffffffffffffff1603611de5575f80fd5b6001151560015f8473ffffffffffffffffffffffffffffffffffffffff1673ffffffffffffffffffffffffffffffffffffffff1681526020019081526020015f208281548110611e3857611e376145a2565b5b905f5260205f2090600402016003015f9054906101000a900460ff16151503611e5f575f80fd5b5f60015f8473ffffffffffffffffffffffffffffffffffffffff1673ffffffffffffffffffffffffffffffffffffffff1681526020019081526020015f208281548110611eaf57611eae6145a2565b5b905f5260205f2090600402015f015f9054906101000a900473ffffffffffffffffffffffffffffffffffffffff1690508073ffffffffffffffffffffffffffffffffffffffff166323b872dd843360015f8873ffffffffffffffffffffffffffffffffffffffff1673ffffffffffffffffffffffffffffffffffffffff1681526020019081526020015f208681548110611f4c57611f4b6145a2565b5b905f5260205f209060040201600101546040518463ffffffff1660e01b8152600401611f7a93929190614635565b6020604051808303815f875af1158015611f96573d5f803e3d5ffd5b505050506040513d601f19601f82011682018060405250810190611fba9190614694565b5060015f8473ffffffffffffffffffffffffffffffffffffffff1673ffffffffffffffffffffffffffffffffffffffff1681526020019081526020015f20828154811061200a576120096145a2565b5b905f5260205f209060040201600201543414612024575f80fd5b5f8373ffffffffffffffffffffffffffffffffffffffff1634604051612049906146ec565b5f6040518083038185875af1925050503d805f8114612083576040519150601f19603f3d011682016040523d82523d5f602084013e612088565b606091505b50509050806120cc576040517f08c379a00000000000000000000000000000000000000000000000000000000081526004016120c39061475a565b60405180910390fd5b6001805f8673ffffffffffffffffffffffffffffffffffffffff1673ffffffffffffffffffffffffffffffffffffffff1681526020019081526020015f20848154811061211c5761211b6145a2565b5b905f5260205f2090600402016003015f6101000a81548160ff0219169083151502179055507f441219de0f005ddf1372035401ca089c43131960d7dbdc2abbc6ebb5effe8fc8848460015f8873ffffffffffffffffffffffffffffffffffffffff1673ffffffffffffffffffffffffffffffffffffffff1681526020019081526020015f2086815481106121b3576121b26145a2565b5b905f5260205f2090600402015f015f9054906101000a900473ffffffffffffffffffffffffffffffffffffffff1660015f8973ffffffffffffffffffffffffffffffffffffffff1673ffffffffffffffffffffffffffffffffffffffff1681526020019081526020015f2087815481106122305761222f6145a2565b5b905f5260205f2090600402016001015460015f8a73ffffffffffffffffffffffffffffffffffffffff1673ffffffffffffffffffffffffffffffffffffffff1681526020019081526020015f20888154811061228f5761228e6145a2565b5b905f5260205f20906004020160020154336040516122b296959493929190614a24565b60405180910390a150505050565b8173ffffffffffffffffffffffffffffffffffffffff168473ffffffffffffffffffffffffffffffffffffffff16036122f7575f80fd5b5f803373ffffffffffffffffffffffffffffffffffffffff1673ffffffffffffffffffffffffffffffffffffffff1681526020019081526020015f206040518060a001604052808673ffffffffffffffffffffffffffffffffffffffff1681526020018581526020018473ffffffffffffffffffffffffffffffffffffffff1681526020018381526020015f1515815250908060018154018082558091505060019003905f5260205f2090600502015f909190919091505f820151815f015f6101000a81548173ffffffffffffffffffffffffffffffffffffffff021916908373ffffffffffffffffffffffffffffffffffffffff160217905550602082015181600101556040820151816002015f6101000a81548173ffffffffffffffffffffffffffffffffffffffff021916908373ffffffffffffffffffffffffffffffffffffffff160217905550606082015181600301556080820151816004015f6101000a81548160ff02191690831515021790555050507f9f53e6265e34e225b3a062b3e0f18e1a57fe8c46ccd096edc6a27292b45831a23360015f803373ffffffffffffffffffffffffffffffffffffffff1673ffffffffffffffffffffffffffffffffffffffff1681526020019081526020015f20805490506124db91906149f1565b868686866040516124f196959493929190614965565b60405180910390a15f151560045f3373ffffffffffffffffffffffffffffffffffffffff1673ffffffffffffffffffffffffffffffffffffffff1681526020019081526020015f205f015f9054906101000a900460ff1615151480156125a657505f151560045f3373ffffffffffffffffffffffffffffffffffffffff1673ffffffffffffffffffffffffffffffffffffffff1681526020019081526020015f205f0160019054906101000a900460ff161515145b801561260157505f151560045f3373ffffffffffffffffffffffffffffffffffffffff1673ffffffffffffffffffffffffffffffffffffffff1681526020019081526020015f205f0160029054906101000a900460ff161515145b156126c257600333908060018154018082558091505060019003905f5260205f20015f9091909190916101000a81548173ffffffffffffffffffffffffffffffffffffffff021916908373ffffffffffffffffffffffffffffffffffffffff160217905550600160045f3373ffffffffffffffffffffffffffffffffffffffff1673ffffffffffffffffffffffffffffffffffffffff1681526020019081526020015f205f015f6101000a81548160ff021916908315150217905550612771565b5f151560045f3373ffffffffffffffffffffffffffffffffffffffff1673ffffffffffffffffffffffffffffffffffffffff1681526020019081526020015f205f015f9054906101000a900460ff1615150361277057600160045f3373ffffffffffffffffffffffffffffffffffffffff1673ffffffffffffffffffffffffffffffffffffffff1681526020019081526020015f205f015f6101000a81548160ff0219169083151502179055505b5b50505050565b823414612782575f80fd5b60025f3373ffffffffffffffffffffffffffffffffffffffff1673ffffffffffffffffffffffffffffffffffffffff1681526020019081526020015f2060405180608001604052808581526020018473ffffffffffffffffffffffffffffffffffffffff1681526020018381526020015f1515815250908060018154018082558091505060019003905f5260205f2090600402015f909190919091505f820151815f01556020820151816001015f6101000a81548173ffffffffffffffffffffffffffffffffffffffff021916908373ffffffffffffffffffffffffffffffffffffffff160217905550604082015181600201556060820151816003015f6101000a81548160ff02191690831515021790555050507f8664a0195db99dab92c38f2347e87be0c0fc0057973eca207b7d866058b21b3933600160025f3373ffffffffffffffffffffffffffffffffffffffff1673ffffffffffffffffffffffffffffffffffffffff1681526020019081526020015f208054905061290691906149f1565b85858560405161291a959493929190614a83565b60405180910390a15f151560045f3373ffffffffffffffffffffffffffffffffffffffff1673ffffffffffffffffffffffffffffffffffffffff1681526020019081526020015f205f015f9054906101000a900460ff1615151480156129cf57505f151560045f3373ffffffffffffffffffffffffffffffffffffffff1673ffffffffffffffffffffffffffffffffffffffff1681526020019081526020015f205f0160019054906101000a900460ff161515145b8015612a2a57505f151560045f3373ffffffffffffffffffffffffffffffffffffffff1673ffffffffffffffffffffffffffffffffffffffff1681526020019081526020015f205f0160029054906101000a900460ff161515145b15612aec57600333908060018154018082558091505060019003905f5260205f20015f9091909190916101000a81548173ffffffffffffffffffffffffffffffffffffffff021916908373ffffffffffffffffffffffffffffffffffffffff160217905550600160045f3373ffffffffffffffffffffffffffffffffffffffff1673ffffffffffffffffffffffffffffffffffffffff1681526020019081526020015f205f0160026101000a81548160ff021916908315150217905550612b9d565b5f151560045f3373ffffffffffffffffffffffffffffffffffffffff1673ffffffffffffffffffffffffffffffffffffffff1681526020019081526020015f205f0160029054906101000a900460ff16151503612b9c57600160045f3373ffffffffffffffffffffffffffffffffffffffff1673ffffffffffffffffffffffffffffffffffffffff1681526020019081526020015f205f0160026101000a81548160ff0219169083151502179055505b5b505050565b6002602052815f5260405f208181548110612bbb575f80fd5b905f5260205f2090600402015f9150915050805f015490806001015f9054906101000a900473ffffffffffffffffffffffffffffffffffffffff1690806002015490806003015f9054906101000a900460ff16905084565b612c1b613c3f565b5f805b600380549050811015612ce5575f5b5f8060038481548110612c4357612c426145a2565b5b905f5260205f20015f9054906101000a900473ffffffffffffffffffffffffffffffffffffffff1673ffffffffffffffffffffffffffffffffffffffff1673ffffffffffffffffffffffffffffffffffffffff1681526020019081526020015f2080549050811015612cd157600183612cbc9190614ad4565b92508080612cc990614b07565b915050612c2d565b508080612cdd90614b07565b915050612c1e565b505f8167ffffffffffffffff811115612d0157612d00614b4e565b5b604051908082528060200260200182016040528015612d3a57816020015b612d27613c60565b815260200190600190039081612d1f5790505b5090505f805b60038054905081101561306a575f5b5f8060038481548110612d6557612d646145a2565b5b905f5260205f20015f9054906101000a900473ffffffffffffffffffffffffffffffffffffffff1673ffffffffffffffffffffffffffffffffffffffff1673ffffffffffffffffffffffffffffffffffffffff1681526020019081526020015f2080549050811015613056575f805f60038581548110612de857612de76145a2565b5b905f5260205f20015f9054906101000a900473ffffffffffffffffffffffffffffffffffffffff1673ffffffffffffffffffffffffffffffffffffffff1673ffffffffffffffffffffffffffffffffffffffff1681526020019081526020015f208281548110612e5b57612e5a6145a2565b5b905f5260205f2090600502016040518060a00160405290815f82015f9054906101000a900473ffffffffffffffffffffffffffffffffffffffff1673ffffffffffffffffffffffffffffffffffffffff1673ffffffffffffffffffffffffffffffffffffffff16815260200160018201548152602001600282015f9054906101000a900473ffffffffffffffffffffffffffffffffffffffff1673ffffffffffffffffffffffffffffffffffffffff1673ffffffffffffffffffffffffffffffffffffffff16815260200160038201548152602001600482015f9054906101000a900460ff16151515158152505090505f6040518060e0016040528060038681548110612f6b57612f6a6145a2565b5b905f5260205f20015f9054906101000a900473ffffffffffffffffffffffffffffffffffffffff1673ffffffffffffffffffffffffffffffffffffffff168152602001848152602001835f015173ffffffffffffffffffffffffffffffffffffffff16815260200183602001518152602001836040015173ffffffffffffffffffffffffffffffffffffffff1681526020018360600151815260200183608001511515815250905080868681518110613027576130266145a2565b5b602002602001018190525060018561303f9190614ad4565b94505050808061304e90614b07565b915050612d4f565b50808061306290614b07565b915050612d40565b505f92505f5b600380549050811015613138575f5b60015f60038481548110613096576130956145a2565b5b905f5260205f20015f9054906101000a900473ffffffffffffffffffffffffffffffffffffffff1673ffffffffffffffffffffffffffffffffffffffff1673ffffffffffffffffffffffffffffffffffffffff1681526020019081526020015f20805490508110156131245760018561310f9190614ad4565b9450808061311c90614b07565b91505061307f565b50808061313090614b07565b915050613070565b505f8367ffffffffffffffff81111561315457613153614b4e565b5b60405190808252806020026020018201604052801561318d57816020015b61317a613cda565b8152602001906001900390816131725790505b5090505f91505f5b60038054905081101561344c575f5b60015f600384815481106131bb576131ba6145a2565b5b905f5260205f20015f9054906101000a900473ffffffffffffffffffffffffffffffffffffffff1673ffffffffffffffffffffffffffffffffffffffff1673ffffffffffffffffffffffffffffffffffffffff1681526020019081526020015f2080549050811015613438575f60015f6003858154811061323f5761323e6145a2565b5b905f5260205f20015f9054906101000a900473ffffffffffffffffffffffffffffffffffffffff1673ffffffffffffffffffffffffffffffffffffffff1673ffffffffffffffffffffffffffffffffffffffff1681526020019081526020015f2082815481106132b2576132b16145a2565b5b905f5260205f2090600402016040518060800160405290815f82015f9054906101000a900473ffffffffffffffffffffffffffffffffffffffff1673ffffffffffffffffffffffffffffffffffffffff1673ffffffffffffffffffffffffffffffffffffffff1681526020016001820154815260200160028201548152602001600382015f9054906101000a900460ff16151515158152505090505f6040518060c001604052806003868154811061336d5761336c6145a2565b5b905f5260205f20015f9054906101000a900473ffffffffffffffffffffffffffffffffffffffff1673ffffffffffffffffffffffffffffffffffffffff168152602001848152602001835f015173ffffffffffffffffffffffffffffffffffffffff168152602001836020015181526020018360400151815260200183606001511515815250905080858781518110613409576134086145a2565b5b60200260200101819052506001866134219190614ad4565b95505050808061343090614b07565b9150506131a4565b50808061344490614b07565b915050613195565b505f93505f5b60038054905081101561351a575f5b60025f60038481548110613478576134776145a2565b5b905f5260205f20015f9054906101000a900473ffffffffffffffffffffffffffffffffffffffff1673ffffffffffffffffffffffffffffffffffffffff1673ffffffffffffffffffffffffffffffffffffffff1681526020019081526020015f2080549050811015613506576001866134f19190614ad4565b955080806134fe90614b07565b915050613461565b50808061351290614b07565b915050613452565b505f8467ffffffffffffffff81111561353657613535614b4e565b5b60405190808252806020026020018201604052801561356f57816020015b61355c613d38565b8152602001906001900390816135545790505b5090505f92505f5b60038054905081101561382e575f5b60025f6003848154811061359d5761359c6145a2565b5b905f5260205f20015f9054906101000a900473ffffffffffffffffffffffffffffffffffffffff1673ffffffffffffffffffffffffffffffffffffffff1673ffffffffffffffffffffffffffffffffffffffff1681526020019081526020015f208054905081101561381a575f60025f60038581548110613621576136206145a2565b5b905f5260205f20015f9054906101000a900473ffffffffffffffffffffffffffffffffffffffff1673ffffffffffffffffffffffffffffffffffffffff1673ffffffffffffffffffffffffffffffffffffffff1681526020019081526020015f208281548110613694576136936145a2565b5b905f5260205f2090600402016040518060800160405290815f8201548152602001600182015f9054906101000a900473ffffffffffffffffffffffffffffffffffffffff1673ffffffffffffffffffffffffffffffffffffffff1673ffffffffffffffffffffffffffffffffffffffff16815260200160028201548152602001600382015f9054906101000a900460ff16151515158152505090505f6040518060c001604052806003868154811061374f5761374e6145a2565b5b905f5260205f20015f9054906101000a900473ffffffffffffffffffffffffffffffffffffffff1673ffffffffffffffffffffffffffffffffffffffff168152602001848152602001835f01518152602001836020015173ffffffffffffffffffffffffffffffffffffffff16815260200183604001518152602001836060015115158152509050808588815181106137eb576137ea6145a2565b5b60200260200101819052506001876138039190614ad4565b96505050808061381290614b07565b915050613586565b50808061382690614b07565b915050613577565b50613837613c3f565b84815f018190525082816020018190525081816040018190525080965050505050505090565b8173ffffffffffffffffffffffffffffffffffffffff163373ffffffffffffffffffffffffffffffffffffffff1614613894575f80fd5b5f151560025f8473ffffffffffffffffffffffffffffffffffffffff1673ffffffffffffffffffffffffffffffffffffffff1681526020019081526020015f2082815481106138e6576138e56145a2565b5b905f5260205f2090600402016003015f9054906101000a900460ff1615151461390d575f80fd5b600160025f8473ffffffffffffffffffffffffffffffffffffffff1673ffffffffffffffffffffffffffffffffffffffff1681526020019081526020015f20828154811061395e5761395d6145a2565b5b905f5260205f2090600402016003015f6101000a81548160ff0219169083151502179055505f3373ffffffffffffffffffffffffffffffffffffffff1660025f8573ffffffffffffffffffffffffffffffffffffffff1673ffffffffffffffffffffffffffffffffffffffff1681526020019081526020015f2083815481106139ea576139e96145a2565b5b905f5260205f2090600402015f0154604051613a05906146ec565b5f6040518083038185875af1925050503d805f8114613a3f576040519150601f19603f3d011682016040523d82523d5f602084013e613a44565b606091505b5050905080613a88576040517f08c379a0000000000000000000000000000000000000000000000000000000008152600401613a7f9061475a565b60405180910390fd5b7fc3862de41bef5ea6c04a4f55fb0d4db3c4fe10d5e24982b16340dd04e5503ee0838360025f8773ffffffffffffffffffffffffffffffffffffffff1673ffffffffffffffffffffffffffffffffffffffff1681526020019081526020015f208581548110613afa57613af96145a2565b5b905f5260205f2090600402015f015460025f8873ffffffffffffffffffffffffffffffffffffffff1673ffffffffffffffffffffffffffffffffffffffff1681526020019081526020015f208681548110613b5857613b576145a2565b5b905f5260205f2090600402016001015f9054906101000a900473ffffffffffffffffffffffffffffffffffffffff1660025f8973ffffffffffffffffffffffffffffffffffffffff1673ffffffffffffffffffffffffffffffffffffffff1681526020019081526020015f208781548110613bd657613bd56145a2565b5b905f5260205f20906004020160020154604051613bf7959493929190614a83565b60405180910390a1505050565b60038181548110613c13575f80fd5b905f5260205f20015f915054906101000a900473ffffffffffffffffffffffffffffffffffffffff1681565b60405180606001604052806060815260200160608152602001606081525090565b6040518060e001604052805f73ffffffffffffffffffffffffffffffffffffffff1681526020015f81526020015f73ffffffffffffffffffffffffffffffffffffffff1681526020015f81526020015f73ffffffffffffffffffffffffffffffffffffffff1681526020015f81526020015f151581525090565b6040518060c001604052805f73ffffffffffffffffffffffffffffffffffffffff1681526020015f81526020015f73ffffffffffffffffffffffffffffffffffffffff1681526020015f81526020015f81526020015f151581525090565b6040518060c001604052805f73ffffffffffffffffffffffffffffffffffffffff1681526020015f81526020015f81526020015f73ffffffffffffffffffffffffffffffffffffffff1681526020015f81526020015f151581525090565b5f81519050919050565b5f82825260208201905092915050565b5f819050602082019050919050565b5f73ffffffffffffffffffffffffffffffffffffffff82169050919050565b5f613de882613dbf565b9050919050565b613df881613dde565b82525050565b5f613e098383613def565b60208301905092915050565b5f602082019050919050565b5f613e2b82613d96565b613e358185613da0565b9350613e4083613db0565b805f5b83811015613e70578151613e578882613dfe565b9750613e6283613e15565b925050600181019050613e43565b5085935050505092915050565b5f6020820190508181035f830152613e958184613e21565b905092915050565b5f80fd5b613eaa81613dde565b8114613eb4575f80fd5b50565b5f81359050613ec581613ea1565b92915050565b5f819050919050565b613edd81613ecb565b8114613ee7575f80fd5b50565b5f81359050613ef881613ed4565b92915050565b5f8060408385031215613f1457613f13613e9d565b5b5f613f2185828601613eb7565b9250506020613f3285828601613eea565b9150509250929050565b613f4581613dde565b82525050565b613f5481613ecb565b82525050565b5f8115159050919050565b613f6e81613f5a565b82525050565b5f608082019050613f875f830187613f3c565b613f946020830186613f4b565b613fa16040830185613f4b565b613fae6060830184613f65565b95945050505050565b5f60a082019050613fca5f830188613f3c565b613fd76020830187613f4b565b613fe46040830186613f3c565b613ff16060830185613f4b565b613ffe6080830184613f65565b9695505050505050565b5f805f6060848603121561401f5761401e613e9d565b5b5f61402c86828701613eb7565b935050602061403d86828701613eea565b925050604061404e86828701613eea565b9150509250925092565b5f805f80608085870312156140705761406f613e9d565b5b5f61407d87828801613eb7565b945050602061408e87828801613eea565b935050604061409f87828801613eb7565b92505060606140b087828801613eea565b91505092959194509250565b5f805f606084860312156140d3576140d2613e9d565b5b5f6140e086828701613eea565b93505060206140f186828701613eb7565b925050604061410286828701613eea565b9150509250925092565b5f60808201905061411f5f830187613f4b565b61412c6020830186613f3c565b6141396040830185613f4b565b6141466060830184613f65565b95945050505050565b5f81519050919050565b5f82825260208201905092915050565b5f819050602082019050919050565b61418181613ecb565b82525050565b61419081613f5a565b82525050565b60e082015f8201516141aa5f850182613def565b5060208201516141bd6020850182614178565b5060408201516141d06040850182613def565b5060608201516141e36060850182614178565b5060808201516141f66080850182613def565b5060a082015161420960a0850182614178565b5060c082015161421c60c0850182614187565b50505050565b5f61422d8383614196565b60e08301905092915050565b5f602082019050919050565b5f61424f8261414f565b6142598185614159565b935061426483614169565b805f5b8381101561429457815161427b8882614222565b975061428683614239565b925050600181019050614267565b5085935050505092915050565b5f81519050919050565b5f82825260208201905092915050565b5f819050602082019050919050565b60c082015f8201516142de5f850182613def565b5060208201516142f16020850182614178565b5060408201516143046040850182613def565b5060608201516143176060850182614178565b50608082015161432a6080850182614178565b5060a082015161433d60a0850182614187565b50505050565b5f61434e83836142ca565b60c08301905092915050565b5f602082019050919050565b5f614370826142a1565b61437a81856142ab565b9350614385836142bb565b805f5b838110156143b557815161439c8882614343565b97506143a78361435a565b925050600181019050614388565b5085935050505092915050565b5f81519050919050565b5f82825260208201905092915050565b5f819050602082019050919050565b60c082015f8201516143ff5f850182613def565b5060208201516144126020850182614178565b5060408201516144256040850182614178565b5060608201516144386060850182613def565b50608082015161444b6080850182614178565b5060a082015161445e60a0850182614187565b50505050565b5f61446f83836143eb565b60c08301905092915050565b5f602082019050919050565b5f614491826143c2565b61449b81856143cc565b93506144a6836143dc565b805f5b838110156144d65781516144bd8882614464565b97506144c88361447b565b9250506001810190506144a9565b5085935050505092915050565b5f606083015f8301518482035f8601526144fd8282614245565b915050602083015184820360208601526145178282614366565b915050604083015184820360408601526145318282614487565b9150508091505092915050565b5f6020820190508181035f83015261455681846144e3565b905092915050565b5f6020828403121561457357614572613e9d565b5b5f61458084828501613eea565b91505092915050565b5f60208201905061459c5f830184613f3c565b92915050565b7f4e487b71000000000000000000000000000000000000000000000000000000005f52603260045260245ffd5b5f815190506145dd81613ed4565b92915050565b5f602082840312156145f8576145f7613e9d565b5b5f614605848285016145cf565b91505092915050565b5f6040820190506146215f830185613f3c565b61462e6020830184613f3c565b9392505050565b5f6060820190506146485f830186613f3c565b6146556020830185613f3c565b6146626040830184613f4b565b949350505050565b61467381613f5a565b811461467d575f80fd5b50565b5f8151905061468e8161466a565b92915050565b5f602082840312156146a9576146a8613e9d565b5b5f6146b684828501614680565b91505092915050565b5f81905092915050565b50565b5f6146d75f836146bf565b91506146e2826146c9565b5f82019050919050565b5f6146f6826146cc565b9150819050919050565b5f82825260208201905092915050565b7f4661696c656420746f2073656e642045746865720000000000000000000000005f82015250565b5f614744601483614700565b915061474f82614710565b602082019050919050565b5f6020820190508181035f83015261477181614738565b9050919050565b5f60c08201905061478b5f830189613f3c565b6147986020830188613f4b565b6147a56040830187613f4b565b6147b26060830186613f3c565b6147bf6080830185613f4b565b6147cc60a0830184613f3c565b979650505050505050565b5f60a0820190506147ea5f830188613f3c565b6147f76020830187613f4b565b6148046040830186613f3c565b6148116060830185613f4b565b61481e6080830184613f4b565b9695505050505050565b7f68657265310000000000000000000000000000000000000000000000000000005f82015250565b5f61485c600583614700565b915061486782614828565b602082019050919050565b5f6020820190508181035f83015261488981614850565b9050919050565b7f68657265320000000000000000000000000000000000000000000000000000005f82015250565b5f6148c4600583614700565b91506148cf82614890565b602082019050919050565b5f6020820190508181035f8301526148f1816148b8565b9050919050565b5f60e08201905061490b5f83018a613f3c565b6149186020830189613f4b565b6149256040830188613f3c565b6149326060830187613f4b565b61493f6080830186613f3c565b61494c60a0830185613f4b565b61495960c0830184613f3c565b98975050505050505050565b5f60c0820190506149785f830189613f3c565b6149856020830188613f4b565b6149926040830187613f3c565b61499f6060830186613f4b565b6149ac6080830185613f3c565b6149b960a0830184613f4b565b979650505050505050565b7f4e487b71000000000000000000000000000000000000000000000000000000005f52601160045260245ffd5b5f6149fb82613ecb565b9150614a0683613ecb565b9250828203905081811115614a1e57614a1d6149c4565b5b92915050565b5f60c082019050614a375f830189613f3c565b614a446020830188613f4b565b614a516040830187613f3c565b614a5e6060830186613f4b565b614a6b6080830185613f4b565b614a7860a0830184613f3c565b979650505050505050565b5f60a082019050614a965f830188613f3c565b614aa36020830187613f4b565b614ab06040830186613f4b565b614abd6060830185613f3c565b614aca6080830184613f4b565b9695505050505050565b5f614ade82613ecb565b9150614ae983613ecb565b9250828201905080821115614b0157614b006149c4565b5b92915050565b5f614b1182613ecb565b91507fffffffffffffffffffffffffffffffffffffffffffffffffffffffffffffffff8203614b4357614b426149c4565b5b600182019050919050565b7f4e487b71000000000000000000000000000000000000000000000000000000005f52604160045260245ffdfea2646970667358221220f26f622c51c999000beaa0e13e142ff3c2e737768dd1ba55dd2f26a88c2f810064736f6c63430008140033",
  "immutableReferences": {},
  "source": "// SPDX-License-Identifier: UNLICENSED\npragma solidity ^0.8.20;\n\nimport \"@openzeppelin/contracts/token/ERC20/ERC20.sol\";\n\ncontract Dex {\n  event EventAddToDexTradeTokensForTokens (\n    address sender,\n    uint indexOfTrade,\n    address tradingTokenAddress,\n    uint tradingTokenAmount,\n    address tradingForTokenAddress,\n    uint tradingForTokenAmount\n  );\n\n  event EventAddToDexTradeTokensForEth (\n    address sender,\n    uint indexOfTrade,\n    address tradingTokenAddress,\n    uint tradingTokenAmount,\n    uint tradingForEthAmount\n  );\n\n  event EventAddToDexTradeEthForTokens (\n    address sender,\n    uint indexOfTrade,\n    uint tradingEthAmount,\n    address tradingForTokenAddress,\n    uint tradingForTokenAmount\n  );\n\n  event EventTradeTokensForTokens (\n    address sender,\n    uint indexOfTrade,\n    address tradingTokenAddress,\n    uint tradingTokenAmount,\n    address tradingForTokenAddress,\n    uint tradingForTokenAmount,\n    address orderCompletedBy\n  );\n\n  event EventTradeTokensForEth (\n    address sender,\n    uint indexOfTrade,\n    address tradingTokenAddress,\n    uint tradingTokenAmount,\n    uint tradingForEthAmount,\n    address orderCompletedBy\n  );\n\n  event EventTradeEthForTokens (\n    address sender,\n    uint indexOfTrade,\n    uint tradingEthAmount,\n    address tradingForTokenAddress,\n    uint tradingForTokenAmount,\n    address orderCompletedBy\n  );\n\n  event EventCanceledTradeTokensForTokens (\n    address sender,\n    uint indexOfTrade,\n    address tradingTokenAddress,\n    uint tradingTokenAmount,\n    address tradingForTokenAddress,\n    uint tradingForTokenAmount\n  );\n\n  event EventCanceledTradeTokensForEth (\n    address sender,\n    uint indexOfTrade,\n    address tradingTokenAddress,\n    uint tradingTokenAmount,\n    uint tradingForEthAmount\n  );\n\n  event EventCanceledTradeEthForTokens (\n    address sender,\n    uint indexOfTrade,\n    uint tradingEthAmount,\n    address tradingForTokenAddress,\n    uint tradingForTokenAmount\n  );\n\n  struct TradeTokensForTokens {\n    address tradingTokenAddress;\n    uint tradingTokenAmount;\n    address tradingForTokenAddress;\n    uint tradingForTokenAmount;\n    bool alreadyTraded;\n  }\n\n  struct TradeTokensForEth {\n    address tradingTokenAddress;\n    uint tradingTokenAmount;\n    uint tradingForEthAmount;\n    bool alreadyTraded;\n  }\n\n  struct TradeEthForTokens {\n    uint tradingEthAmount;\n    address tradingForTokenAddress;\n    uint tradingForTokenAmount;\n    bool alreadyTraded;\n  }\n\n  struct TradeTokensForTokensForCall {\n    address sender;\n    uint indexOfTradeOfAddress;\n    address tradingTokenAddress;\n    uint tradingTokenAmount;\n    address tradingForTokenAddress;\n    uint tradingForTokenAmount;\n    bool alreadyTraded;\n  }\n\n  struct TradeTokensForEthForCall {\n    address sender;\n    uint indexOfTradeOfAddress;\n    address tradingTokenAddress;\n    uint tradingTokenAmount;\n    uint tradingForEthAmount;\n    bool alreadyTraded;\n  }\n\n  struct TradeEthForTokensForCall {\n    address sender;\n    uint indexOfTradeOfAddress;\n    uint tradingEthAmount;\n    address tradingForTokenAddress;\n    uint tradingForTokenAmount;\n    bool alreadyTraded;\n  }\n\n  struct AllTrades {\n    TradeTokensForTokensForCall[] tradeTokensForTokensForCall;\n    TradeTokensForEthForCall[] tradeTokensForEthForCall;\n    TradeEthForTokensForCall[] tradeEthForTokensForCall;\n  }\n\n  mapping(address => TradeTokensForTokens[]) public tradesOfTokensForTokensOfAnAddress;\n  mapping(address => TradeTokensForEth[]) public tradesOfTokensForEthOfAnAddress;\n  mapping(address => TradeEthForTokens[]) public tradesOfEthForTokensOfAnAddress;\n\n  struct TradeCategoriesOfDexUser {\n    bool tradeTokensForTokens;\n    bool tradeTokensForEth;\n    bool tradeEthForTokens;\n  }\n\n  address[] public dexUsersArr;\n  mapping(address => TradeCategoriesOfDexUser) dexUsersMapping;\n\n  address owner;\n\n  constructor() {\n    owner = msg.sender;\n  }\n\n  function addTokensToDexForTradeWithOtherTokens(\n    address tradingTokenAddress,\n    uint tradingTokenAmount,\n    address tradingForTokenAddress,\n    uint tradingForTokenAmount) public {\n\n    require(tradingTokenAddress != tradingForTokenAddress);\n\n    tradesOfTokensForTokensOfAnAddress[msg.sender].push(\n      TradeTokensForTokens(\n        tradingTokenAddress,\n        tradingTokenAmount,\n        tradingForTokenAddress,\n        tradingForTokenAmount,\n        false\n    ));\n\n    emit EventAddToDexTradeTokensForTokens(\n      msg.sender,\n      tradesOfTokensForTokensOfAnAddress[msg.sender].length - 1,\n      tradingTokenAddress,\n      tradingTokenAmount,\n      tradingForTokenAddress,\n      tradingForTokenAmount\n    );\n\n    if (dexUsersMapping[msg.sender].tradeTokensForTokens == false &&\n        dexUsersMapping[msg.sender].tradeTokensForEth == false &&\n        dexUsersMapping[msg.sender].tradeEthForTokens == false) {\n          dexUsersArr.push(msg.sender);\n          dexUsersMapping[msg.sender].tradeTokensForTokens = true;\n\n    } else if (dexUsersMapping[msg.sender].tradeTokensForTokens == false) {\n      dexUsersMapping[msg.sender].tradeTokensForTokens = true;\n    }\n  }\n\n  function addTokensToDexForTradeWithEth(\n    address tradingTokenAddress,\n    uint tradingTokenAmount,\n    uint tradingForEthAmount) public {\n\n    tradesOfTokensForEthOfAnAddress[msg.sender].push(\n      TradeTokensForEth(\n        tradingTokenAddress,\n        tradingTokenAmount,\n        tradingForEthAmount,\n        false\n    ));\n\n    emit EventAddToDexTradeTokensForEth(\n      msg.sender,\n      tradesOfTokensForEthOfAnAddress[msg.sender].length - 1,\n      tradingTokenAddress,\n      tradingTokenAmount,\n      tradingForEthAmount\n    );\n\n    if (dexUsersMapping[msg.sender].tradeTokensForTokens == false &&\n        dexUsersMapping[msg.sender].tradeTokensForEth == false &&\n        dexUsersMapping[msg.sender].tradeEthForTokens == false) {\n          dexUsersArr.push(msg.sender);\n          dexUsersMapping[msg.sender].tradeTokensForEth = true;\n\n    } else if (dexUsersMapping[msg.sender].tradeTokensForEth == false) {\n      dexUsersMapping[msg.sender].tradeTokensForEth = true;\n    }\n  }\n\n  function addEthToDexForTradeWithTokens(\n    uint tradingEthAmount,\n    address tradingForTokenAddress,\n    uint tradingForTokenAmount) public payable {\n\n    require(msg.value == tradingEthAmount);\n\n    tradesOfEthForTokensOfAnAddress[msg.sender].push(\n      TradeEthForTokens(\n        tradingEthAmount,\n        tradingForTokenAddress,\n        tradingForTokenAmount,\n        false\n    ));\n\n    emit EventAddToDexTradeEthForTokens(\n      msg.sender,\n      tradesOfEthForTokensOfAnAddress[msg.sender].length - 1,\n      tradingEthAmount,\n      tradingForTokenAddress,\n      tradingForTokenAmount\n    );\n\n    if (dexUsersMapping[msg.sender].tradeTokensForTokens == false &&\n        dexUsersMapping[msg.sender].tradeTokensForEth == false &&\n        dexUsersMapping[msg.sender].tradeEthForTokens == false) {\n          dexUsersArr.push(msg.sender);\n          dexUsersMapping[msg.sender].tradeEthForTokens = true;\n\n    } else if (dexUsersMapping[msg.sender].tradeEthForTokens == false) {\n      dexUsersMapping[msg.sender].tradeEthForTokens = true;\n    }\n  }\n\n  function buyTokensFromTokens(address sender, uint indexOfTrade) public {\n    require(sender != msg.sender);\n    require(tradesOfTokensForTokensOfAnAddress[sender][indexOfTrade].alreadyTraded != true);\n\n    ERC20 tradingErc20 = ERC20(tradesOfTokensForTokensOfAnAddress[sender][indexOfTrade].tradingTokenAddress);\n    tradingErc20.transferFrom(sender, msg.sender, tradesOfTokensForTokensOfAnAddress[sender][indexOfTrade].tradingTokenAmount);\n\n    ERC20 tradingForErc20 = ERC20(tradesOfTokensForTokensOfAnAddress[sender][indexOfTrade].tradingForTokenAddress);\n\n    require(tradingForErc20.balanceOf(msg.sender) >= tradesOfTokensForTokensOfAnAddress[sender][indexOfTrade].tradingForTokenAmount, 'here1');\n    require(tradingForErc20.allowance(msg.sender, address(this)) >= tradesOfTokensForTokensOfAnAddress[sender][indexOfTrade].tradingForTokenAmount, 'here2');\n\n    tradingForErc20.transferFrom(msg.sender, sender, tradesOfTokensForTokensOfAnAddress[sender][indexOfTrade].tradingForTokenAmount);\n\n    tradesOfTokensForTokensOfAnAddress[sender][indexOfTrade].alreadyTraded = true;\n\n    emit EventTradeTokensForTokens(\n      sender,\n      indexOfTrade,\n      tradesOfTokensForTokensOfAnAddress[sender][indexOfTrade].tradingTokenAddress,\n      tradesOfTokensForTokensOfAnAddress[sender][indexOfTrade].tradingTokenAmount,\n      tradesOfTokensForTokensOfAnAddress[sender][indexOfTrade].tradingForTokenAddress,\n      tradesOfTokensForTokensOfAnAddress[sender][indexOfTrade].tradingForTokenAmount,\n      msg.sender\n    );\n  }\n\n  function buyTokensForEth(address sender, uint indexOfTrade) public payable {\n    require(sender != msg.sender);\n    require(tradesOfTokensForEthOfAnAddress[sender][indexOfTrade].alreadyTraded != true);\n\n    ERC20 tradingErc20 = ERC20(tradesOfTokensForEthOfAnAddress[sender][indexOfTrade].tradingTokenAddress);\n    tradingErc20.transferFrom(sender, msg.sender, tradesOfTokensForEthOfAnAddress[sender][indexOfTrade].tradingTokenAmount);\n\n    require(msg.value == tradesOfTokensForEthOfAnAddress[sender][indexOfTrade].tradingForEthAmount);\n\n    (bool sent,) = sender.call{value: msg.value}(\"\");\n    require(sent, \"Failed to send Ether\");\n\n    tradesOfTokensForEthOfAnAddress[sender][indexOfTrade].alreadyTraded = true;\n\n    emit EventTradeTokensForEth(\n      sender,\n      indexOfTrade,\n      tradesOfTokensForEthOfAnAddress[sender][indexOfTrade].tradingTokenAddress,\n      tradesOfTokensForEthOfAnAddress[sender][indexOfTrade].tradingTokenAmount,\n      tradesOfTokensForEthOfAnAddress[sender][indexOfTrade].tradingForEthAmount,\n      msg.sender\n    );\n  }\n\n  function buyEthForTokens(address sender, uint indexOfTrade) public payable {\n    require(sender != msg.sender);\n    require(tradesOfEthForTokensOfAnAddress[sender][indexOfTrade].alreadyTraded != true);\n\n    ERC20 tradingForErc20 = ERC20(tradesOfEthForTokensOfAnAddress[sender][indexOfTrade].tradingForTokenAddress);\n    require(tradingForErc20.balanceOf(msg.sender) >= tradesOfEthForTokensOfAnAddress[sender][indexOfTrade].tradingForTokenAmount);\n\n    require(tradingForErc20.allowance(msg.sender, address(this)) >= tradesOfEthForTokensOfAnAddress[sender][indexOfTrade].tradingForTokenAmount);\n\n    tradingForErc20.transferFrom(msg.sender, sender, tradesOfEthForTokensOfAnAddress[sender][indexOfTrade].tradingForTokenAmount);\n\n    (bool sent,) = payable(msg.sender).call{value: tradesOfEthForTokensOfAnAddress[sender][indexOfTrade].tradingEthAmount}(\"\");\n    require(sent, \"Failed to send Ether\");\n\n    tradesOfEthForTokensOfAnAddress[sender][indexOfTrade].alreadyTraded = true;\n\n    emit EventTradeEthForTokens(\n      sender,\n      indexOfTrade,\n      tradesOfEthForTokensOfAnAddress[sender][indexOfTrade].tradingEthAmount,\n      tradesOfEthForTokensOfAnAddress[sender][indexOfTrade].tradingForTokenAddress,\n      tradesOfEthForTokensOfAnAddress[sender][indexOfTrade].tradingForTokenAmount,\n      msg.sender\n    );\n  }\n\n  function cancelTradeForTokensWithTokens(address sender, uint indexOfTrade) public {\n    require(msg.sender == sender);\n    require(tradesOfTokensForTokensOfAnAddress[sender][indexOfTrade].alreadyTraded == false);\n\n    tradesOfTokensForTokensOfAnAddress[sender][indexOfTrade].alreadyTraded = true;\n\n    emit EventCanceledTradeTokensForTokens(\n      sender,\n      indexOfTrade,\n      tradesOfTokensForTokensOfAnAddress[sender][indexOfTrade].tradingTokenAddress,\n      tradesOfTokensForTokensOfAnAddress[sender][indexOfTrade].tradingTokenAmount,\n      tradesOfTokensForTokensOfAnAddress[sender][indexOfTrade].tradingForTokenAddress,\n      tradesOfTokensForTokensOfAnAddress[sender][indexOfTrade].tradingForTokenAmount\n    );\n  }\n\n  function cancelTradeForTokensWithEth(address sender, uint indexOfTrade) public {\n    require(msg.sender == sender);\n    require(tradesOfTokensForEthOfAnAddress[sender][indexOfTrade].alreadyTraded == false);\n\n    tradesOfTokensForEthOfAnAddress[sender][indexOfTrade].alreadyTraded = true;\n\n    emit EventCanceledTradeTokensForEth(\n      sender,\n      indexOfTrade,\n      tradesOfTokensForEthOfAnAddress[sender][indexOfTrade].tradingTokenAddress,\n      tradesOfTokensForEthOfAnAddress[sender][indexOfTrade].tradingTokenAmount,\n      tradesOfTokensForEthOfAnAddress[sender][indexOfTrade].tradingForEthAmount\n    );\n  }\n\n  function cancelTradeForEthWithTokens(address sender, uint indexOfTrade) public payable {\n    require(msg.sender == sender);\n    require(tradesOfEthForTokensOfAnAddress[sender][indexOfTrade].alreadyTraded == false);\n\n    tradesOfEthForTokensOfAnAddress[sender][indexOfTrade].alreadyTraded = true;\n\n    (bool sent,) = payable(msg.sender).call{value: tradesOfEthForTokensOfAnAddress[sender][indexOfTrade].tradingEthAmount}(\"\");\n    require(sent, \"Failed to send Ether\");\n\n    emit EventCanceledTradeEthForTokens(\n      sender,\n      indexOfTrade,\n      tradesOfEthForTokensOfAnAddress[sender][indexOfTrade].tradingEthAmount,\n      tradesOfEthForTokensOfAnAddress[sender][indexOfTrade].tradingForTokenAddress,\n      tradesOfEthForTokensOfAnAddress[sender][indexOfTrade].tradingForTokenAmount\n    );\n  }\n\n  function getAllTrades() public view returns (AllTrades memory) {\n\n    uint amountOfTrades = 0;\n\n    for (uint i = 0; i < dexUsersArr.length; i++) {\n      for (uint j = 0; j < tradesOfTokensForTokensOfAnAddress[dexUsersArr[i]].length; j++) {\n        amountOfTrades = amountOfTrades + 1;\n      }\n    }\n\n    TradeTokensForTokensForCall[] memory tradeTokensForTokensResultArr = new TradeTokensForTokensForCall[](amountOfTrades);\n\n    uint indexOfResultArr = 0;\n\n    for (uint i = 0; i < dexUsersArr.length; i++) {\n      for (uint j = 0; j < tradesOfTokensForTokensOfAnAddress[dexUsersArr[i]].length; j++) {\n        TradeTokensForTokens memory tradeTokensForTokens = tradesOfTokensForTokensOfAnAddress[dexUsersArr[i]][j];\n        TradeTokensForTokensForCall memory tradeTokensForTokensForCall = TradeTokensForTokensForCall (\n          dexUsersArr[i],\n          j,\n          tradeTokensForTokens.tradingTokenAddress,\n          tradeTokensForTokens.tradingTokenAmount,\n          tradeTokensForTokens.tradingForTokenAddress,\n          tradeTokensForTokens.tradingForTokenAmount,\n          tradeTokensForTokens.alreadyTraded\n        );\n\n        tradeTokensForTokensResultArr[indexOfResultArr] = tradeTokensForTokensForCall;\n\n        indexOfResultArr = indexOfResultArr + 1;\n      }\n    }\n\n    amountOfTrades = 0;\n\n    for (uint i = 0; i < dexUsersArr.length; i++) {\n      for (uint j = 0; j < tradesOfTokensForEthOfAnAddress[dexUsersArr[i]].length; j++) {\n        amountOfTrades = amountOfTrades + 1;\n      }\n    }\n\n    TradeTokensForEthForCall[] memory tradeTokensForEthResultArr = new TradeTokensForEthForCall[](amountOfTrades);\n\n    indexOfResultArr = 0;\n\n    for (uint i = 0; i < dexUsersArr.length; i++) {\n      for (uint j = 0; j < tradesOfTokensForEthOfAnAddress[dexUsersArr[i]].length; j++) {\n        TradeTokensForEth memory tradeTokensForEth = tradesOfTokensForEthOfAnAddress[dexUsersArr[i]][j];\n        TradeTokensForEthForCall memory tradeTokensForEthForCall = TradeTokensForEthForCall (\n          dexUsersArr[i],\n          j,\n          tradeTokensForEth.tradingTokenAddress,\n          tradeTokensForEth.tradingTokenAmount,\n          tradeTokensForEth.tradingForEthAmount,\n          tradeTokensForEth.alreadyTraded\n        );\n\n        tradeTokensForEthResultArr[indexOfResultArr] = tradeTokensForEthForCall;\n        indexOfResultArr = indexOfResultArr + 1;\n      }\n    }\n\n    amountOfTrades = 0;\n\n    for (uint i = 0; i < dexUsersArr.length; i++) {\n      for (uint j = 0; j < tradesOfEthForTokensOfAnAddress[dexUsersArr[i]].length; j++) {\n        amountOfTrades = amountOfTrades + 1;\n      }\n    }\n\n    TradeEthForTokensForCall[] memory tradeEthForTokensResultArr = new TradeEthForTokensForCall[](amountOfTrades);\n\n    indexOfResultArr = 0;\n\n    for (uint i = 0; i < dexUsersArr.length; i++) {\n      for (uint j = 0; j < tradesOfEthForTokensOfAnAddress[dexUsersArr[i]].length; j++) {\n        TradeEthForTokens memory tradeEthForTokens = tradesOfEthForTokensOfAnAddress[dexUsersArr[i]][j];\n        TradeEthForTokensForCall memory tradeEthForTokensForCall = TradeEthForTokensForCall (\n          dexUsersArr[i],\n          j,\n          tradeEthForTokens.tradingEthAmount,\n          tradeEthForTokens.tradingForTokenAddress,\n          tradeEthForTokens.tradingForTokenAmount,\n          tradeEthForTokens.alreadyTraded\n        );\n\n        tradeEthForTokensResultArr[indexOfResultArr] = tradeEthForTokensForCall;\n        indexOfResultArr = indexOfResultArr + 1;\n      }\n    }\n\n    AllTrades memory allTrades;\n\n    allTrades.tradeTokensForTokensForCall = tradeTokensForTokensResultArr;\n    allTrades.tradeTokensForEthForCall = tradeTokensForEthResultArr;\n    allTrades.tradeEthForTokensForCall = tradeEthForTokensResultArr;\n\n    return allTrades;\n  }\n\n\n\n  function getDexUsers() public view returns (address[] memory) {\n    return dexUsersArr;\n  }\n\n  struct AllTradesOfAccount {\n    TradeTokensForTokensForCall[] tradeTokensForTokensForCall;\n    TradeTokensForEthForCall[] tradeTokensForEthForCall;\n    TradeEthForTokensForCall[] tradeEthForTokensForCall;\n  }\n\n  fallback() external payable {\n\n  }\n}\n",
  "sourcePath": "/Users/zhiwen/code/dex-old/contracts/contracts/Dex.sol",
  "compiler": {
    "name": "solc",
    "version": "0.8.20+commit.a1b79de6.Emscripten.clang"
  },
  "schemaVersion": "3.4.16",
  "updatedAt": "2024-11-10T01:52:44.964Z",
  "networkType": "ethereum",
  "devdoc": {
    "kind": "dev",
    "methods": {},
    "version": 1
  },
  "userdoc": {
    "kind": "user",
    "methods": {},
    "version": 1
  }
}